:020000040000FA
:10000000001300201902000021020000230200005A
:100010002502000027020000290200000000000065
:100020000000000000000000000000002B020000A3
:100030002D020000000000002F020000310200002D
:1000400033020000330200005504000033020000B8
:10005000330200003302000085020000330200007A
:1000600033020000330200003302000033020000BC
:1000700033020000330200003302000033020000AC
:10008000330200003302000033020000330200009C
:10009000330200003302000033020000330200008C
:1000A000330200003302000033020000330200007C
:1000B00033020000330200000000000000000000D6
:1000C000330200003302000033020000330200005C
:1000D0003302000033020000330200000000000081
:1000E0000000000000000000000000000000000010
:1000F0000000000000000000000000000000000000
:1001000000000000000000000000000000000000EF
:1001100000000000000000000000000000000000DF
:1001200000000000000000000000000000000000CF
:1001300000000000000000000000000000000000BF
:1001400000000000000000000000000000000000AF
:10015000000000000000000000000000000000009F
:10016000000000000000000000000000000000008F
:10017000000000000000000000000000000000007F
:10018000000000000000000000000000000000006F
:10019000000000000000000000000000000000005F
:1001A000000000000000000000000000000000004F
:1001B000000000000000000000000000000000003F
:1001C000000000000000000000000000000000002F
:1001D000000000000000000000000000000000001F
:1001E000000000000000000000000000000000000F
:1001F00000000000000000000000000000000000FF
:10020000DFF810D000F02CF8004800477509000016
:10021000AFF30080001300200648804706480047DF
:10022000FEE7FEE7FEE7FEE7FEE7FEE7FEE7FEE7A6
:10023000FEE7FEE7E10300000102000040EA0103DF
:100240009B0703D009E008C9121F08C0042AFAD28C
:1002500003E011F8013B00F8013B521EF9D2704750
:10026000064C074D06E0E06840F0010394E8070003
:1002700098471034AC42F6D3FFF7C6FF30190000A0
:10028000501900002DE9F8430025002000904FF49C
:10029000807801240026234F404600F0A7FC38B1A7
:1002A000D7F80403204018B1404600F095FC2543E0
:1002B000640008F104081FFA88F8761C082EEBD3B6
:1002C0004FF4BE74204600F091FC48B1204600F087
:1002D00083FC45F000456A460121002000F04CFCFB
:1002E00015F0FF0F16D0012600242E420ED007EB8A
:1002F0008401D1F81005C0F30420D1F81015C1F322
:100300000141094A52F8242002B190477600641C4A
:10031000082CEAD3002D02DA684601F003F8BDE8A4
:10032000F8830000006000403C02002008B5112066
:1003300000F0F6FB122000F0F3FB132000F0F0FBBE
:10034000142000F0EDFB00F031FD08B100F0C8F81A
:1003500017480068009003208DF80100154A69468F
:100360000D2000F0BFFC08B100F0BAF801210D200B
:1003700000F062FC0F4A69460E2000F0B3FC08B1A1
:1003800000F0AEF801210E2000F056FC01211120F2
:1003900000F012F80121122000F00EF801211320C4
:1003A00000F00AF80121142000F006F808BD000052
:1003B0000019000045080000012282404FF0A043D0
:1003C000002902D0C3F808257047C3F80C257047F0
:1003D00002490148086070470090D00338000020AF
:1003E00000B51A48016841F470010160BFF34F8FF6
:1003F000BFF36F8F4FF01022D2F80002002803DB0A
:10040000D2F8040200281CDA012000F057FF15235F
:10041000C2F8003200F058FFC2F8043200F054FF76
:10042000002000F04BFFBFF34F8F08487C38016875
:10043000074A01F4E06111430160BFF34F8F00BF31
:10044000FDE75DF804EBFFF7C3BF000088ED00E0B7
:100450000400FA0501480068004700000C00002075
:10046000014A024900F013B83708000034000020A8
:1004700002E008C8121F08C1002AFAD1704770476D
:10048000002001E001C1121F002AFBD170472DE9B5
:10049000F04116460F460446002503E03946B047B2
:1004A000641C6D1C20780028F8D12846BDE8F08136
:1004B00072B609480068C00700D000BEBFF34F8F76
:1004C0000548E4380168054A01F4E0611143016020
:1004D000BFF34F8F00BFFDE7F0ED00E00400FA0529
:1004E0000EB500210091019102906A4644F201008C
:1004F000FFF7DEFF0EBD10B58268C3689A1A002AA6
:1005000003D000F085F9002010BD052010BD0029A2
:1005100005D012B1531E134203D0092070470E209C
:1005200070470160838000218160C16000207047B6
:1005300010B58268C3689A1A83889A4203D800F07B
:1005400071F9002010BD042010BD0000F0B589B085
:1005500004460D461F46264E7260002D1BD0A8880B
:10056000296882B22348FFF7D2FF002814D1A88956
:10057000A96882B21F481030FFF7C9FF00280BD1CD
:1005800020221D4901A8FFF759FE60690790207CD1
:1005900020B1012003E0072009B0F0BD00208DF854
:1005A00018008DF82070607C08B10E2000E000205B
:1005B0008DF81900E0680390A0680490206802900C
:1005C000606801900A480D4A01A9083000F00CFA51
:1005D0000028E1D1B0702068401C06D004490122F7
:1005E000491CC81D00F034FAD6E70020D4E700000B
:1005F00018000020DC020020101900006515000022
:1006000010B501461048FFF793FF0446CCB90F48D8
:100610000F490278895C19B1001D00F041FE02E02B
:100620000C3000F019FD60B9084907480839FFF798
:1006300062FF30B9054901220839044800F018FA70
:100640000446204610BD0000EC02002020000020DF
:100650000000002000F002B800F008B872B60248AE
:100660000168491C016070471400002003490868B4
:10067000401E0860002800D162B6704714000020B8
:100680002DE9F04105460C464FF0A04720684FF099
:100690000106411C06D006FA00F1C7F808152068CB
:1006A00000F046FA6068411C02D0002100F026FAF2
:1006B0002868A169C0F82415607D227D296810434F
:1006C000C1F86C05D4E900122868C0F81425C0F8F8
:1006D0000C15207D012815D1A068411C02D00021F5
:1006E00000F00CFAE068411C05D08640C7F80865A8
:1006F000E06800F01DFAD4E902212868C0F8081566
:10070000C0F81025BDE8F0812DE9F04105460C4602
:100710004FF0A04720684FF00106411C06D006FAB2
:1007200000F1C7F80815206800F00CFA6068411C59
:1007300002D0002100F0EBF92868A169C0F8241567
:10074000607D227D29681043C1F86C05D4E9001250
:100750002868C0F80C15C0F81425207D012815D193
:10076000A068411C02D0002100F0D1F9E068411CD2
:1007700005D08640C7F80865E06800F0E3F9D4E9E1
:1007800002212868C0F80815C0F81025BDE8F081DE
:1007900005494FF0FF3241F82020082802D30844D1
:1007A00080F84020704700003C020020F0B507466A
:1007B0004FF0FF30002A02D04FF0000301E04FF06D
:1007C000080302D04FF0080501E04FF00A050B4C7A
:1007D00004E054F82360761C03D05B1CAB42F8D3D2
:1007E000F0BDE51958B285F8280044F82310002A16
:1007F000F6D1E11881F84070F0BD00003C02002005
:100800000249084490F92800704700003C0200208B
:10081000826883881A4003689A5C0A708168491C60
:1008200081607047C26883881A4003689954C16820
:10083000491CC160704710B50446E0B2FFF7E0FE06
:10084000204610BD0D2804D00E2805D1132000F03D
:10085000B6B9122000F0B3B97047000070B5044675
:100860000D464FF48E71206800F0CFF94FF4A2715D
:10087000206800F0CAF913492068C0F80413206802
:1008800040F307306907090E002804DB00F1E0207F
:1008900080F8001405E000F00F0000F1E02080F87F
:1008A000141D206840F30730002809DB00F01F0208
:1008B000012191404009800000F1E020C0F80011C2
:1008C00070BD00008000020070B504460D464FF474
:1008D0008871206800F0AAF94FF49071206800F048
:1008E000A5F94FF49271206800F0A0F94FF4A271BD
:1008F000206800F09BF94FF4AC71206800F096F985
:1009000012492068C0F80413206840F307306907D3
:10091000090E002804DB00F1E02080F8001405E057
:1009200000F00F0000F1E02080F8141D206840F373
:100930000730002809DB00F01F0201219140400927
:10094000800000F1E020C0F8001170BD10034200EB
:1009500010B5044622460121002000F00DF90021C7
:1009600054F821300BB1012010BD491C0029F7D0EB
:10097000002010BDFFF7DAFC00F0C4FD4FF4FA745C
:1009800000211420FFF718FD204600F01DF801217A
:100990001420FFF711FD204600F016F801A0FFF724
:1009A0005FFDEDE720323032302E30382E3120C757
:1009B000E0B7E7210D0A0000C20800F0070301209C
:1009C000895C98400840704770B50446002C07D0F9
:1009D000044E4FF47A45711C28468847641EFAD1AC
:1009E00070BD0000E0180000F0B589B0054616465D
:1009F0002C78144840F82460124A0869121D42F805
:100A00002400A2F10807487F3855202201A8FFF7EB
:100A100015FC05942878385C48B10EB10A4A00E00C
:100A2000002201A9281D00F02FFB09B0F0BD0EB176
:100A3000064A00E0002201A905F10C0000F01CFAB2
:100A4000F3E70000040000208917000025160000CD
:100A500030B40478054B1B5D002B03D030BC001D67
:100A600000F04ABB30BC0C3000F040BA000000205F
:100A700030B40478054B1B5D002B03D030BC001D47
:100A800000F0BABB30BC0C3000F0A6BA0000002069
:100A900070B5DDE904654FF0A04441EA420141EA46
:100AA000830141EA062104EB800041EA0541C0F8D8
:100AB000001770BD70B5DDE904654FF0A04441EA50
:100AC000420141EA830141EA062104EB800041EA48
:100AD0000541C0F8001770BD70B5DDE904654FF041
:100AE000A04441EA420141EA830141EA062104EBC4
:100AF000800041EA0541C0F8001770BD1CB5002216
:100B00000B46009211460192FFF7D4FF1CBD1CB5A5
:100B100000220B46009211460192FFF7DDFF1CBD3B
:100B20004FF0A04202EB80000321C0F8001770478D
:100B30001CB5002100910B46012201911146FFF7DF
:100B4000B9FF1CBD1CB5002100910B46012201918B
:100B50001146FFF7C1FF1CBD4FF0A04202EB800021
:100B600000F5E060026822F440320260026842EA66
:100B7000014101607047000038B5084B1B680093C5
:100B80006C46451807E054F82030D3F8201502C20F
:100B9000C3F82015401C8542F5D838BD0419000063
:100BA00042090021002A00D1491E00F01F00012245
:100BB00082400A4201D001207047002070474FF068
:100BC000A04303F2045319680122824022EA010083
:100BD00058600A409A60704708B5034908440021EC
:100BE00001600068009008BD0060004003490844AF
:100BF0000068012800D0002070470000006000401D
:100C00004058002800D00120704708B5002242500B
:100C10004058009008BDD0F80403084000D00120DF
:100C200070474058002800D00120704708B50022C6
:100C300042504058009008BD2DE9F04105460F464E
:100C4000284600F057FBF0B12846FFF7D9FD0838D9
:100C500000F0C0FB032807D0012812D0032128464A
:100C6000BDE8F041FFF778BF4FF0A04000F5A2606B
:100C70000068E84000F0010008B10321EFE702211D
:100C8000EDE70221EBE7284600F040FB002823D0E7
:100C90002846FFF7B5FD04464FF4807000EB840052
:100CA00082B220460D4E06EB8000D0F8101541F0C0
:100CB0000101C0F810151046FFF78EFF002F0BD072
:100CC0002846FFF79DFD064951F82000002803D073
:100CD0000120A040C6F80403BDE8F0810060004098
:100CE0003C0200202DE9FC410C4605461146002738
:100CF000DFF8AC8008EB050090F92800C017401C15
:100D0000002801D0082747E0A078C0F34002284619
:100D1000FFF74CFD0646701C3DD0A078410717D464
:100D2000C0070AD04FF0A04000EB8500D0F80017B4
:100D300021F00201C0F8001707E06378284600217F
:100D400000910A460191FFF7A3FE284600F0C4FA7D
:100D5000A078800716D52178124800EB860000F5B0
:100D6000A2600268104B1A4002604FF4F8524FF430
:100D7000403302EA052203EA01410A4301680A43BB
:100D8000026009E008EB0600227810F8401F41EAF3
:100D90008211017000E004273846BDE8FC810000A4
:100DA0003C02002000600040FFE0FCFF70B51A4DDF
:100DB00095F84E00002801D0082070BD0024661E62
:100DC0002046FFF7EDFE10B1281980F82860641C5A
:100DD000E4B2202CF4D300242046FFF7D9FC641C95
:100DE000E4B20A2CF8D3002045F84A0F0B4C0C490A
:100DF000C020087001264FF0E0214020C1F800011A
:100E00004FF4BE70FFF7E8FEA00404F541742060C3
:100E10002E71002070BD00003C02002000600040E8
:100E200006E400E00121B1EB507F01D101207047C1
:100E30000020704770B50E4600F0D4FA044684B125
:100E400000250020FFF706FC207908B1012502E00B
:100E50002660012020710020FFF7FEFB0DB111205C
:100E600070BD002070BD00000149024800F0F2BBD7
:100E70008C020020002000402DE9F04105460F467D
:100E800016462B79174903EB430000EBC30001EB37
:100E9000800494F82A00002802D00820BDE8F081E0
:100EA000114850F823102868FFF7C4FF08B111203B
:100EB000F4E739462846FFF7E3FB666038692060AF
:100EC0001EB1397F2846FFF7C9FC28680421C0F805
:100ED0000015002014346060A0606075206001215E
:100EE000A175DBE78C020020081900002DE9F05FF6
:100EF0000546287900EB400303EBC000354B03EBBC
:100F00008004002063684FF40176002B02D02B6828
:100F1000C3F80863A36953B1E06938B1606810B1E0
:100F20002868C0F804631120BDE8F09F012028B1B3
:100F30002161E26194F8291031B109E0A261E16018
:100F400000216162E161F5E710B9284600F084FAFA
:100F5000606820B12868C0F804630020E4E74FF41B
:100F6000A27949462868FFF750FE4FF4927A4FF471
:100F7000847B51462868FFF743FE07465946286898
:100F8000FFF73EFE804649462868FFF739FE0646D1
:100F900048EA060858EA0708EBD057EA060007D1E6
:100FA0002146286800F02AFA616AA0698842E0D8E0
:100FB0000020A0610FB10320B6E70EB10F20B3E708
:100FC00094F82900012110B128680160C5E728685C
:100FD0004160C2E78C0200202DE9F04704460B4631
:100FE000207900EB400101EBC0001A4901EB8005BC
:100FF000204600F031F810B11120BDE8F0876A6199
:10100000AB6000272F6285F8287000264FF48E7998
:1010100049462068FFF7F9FD20684FF00108C0F845
:1010200008802946206800F044FA686870B92946AB
:10103000206800F021FA58B149462068FFF7E0FD2A
:101040000028F9D02068C0F80C806F613046D4E7E2
:101050000F26FAE78C020020007900EB400101EB3B
:10106000C000044901EB80004069002800D0012045
:10107000704700008C0200200149024800F09CBB30
:10108000B8020020002000402DE9F04105460F463F
:1010900016462B79164903EBC30001EB800494F844
:1010A0002000002802D00820BDE8F081114850F847
:1010B00023102868FFF7BEFE08B11120F4E7394677
:1010C0002846FFF721FB6660386920601EB1397F32
:1010D0002846FFF7F9FB28680821C0F80015002012
:1010E000A061E0616061012184F82010DCE700006C
:1010F000B80200200C1900002DE9F05F04460F46ED
:1011000090462079DFF8ECA000EBC0000AEB8005E8
:101110003846FFF787FE98B1002668684FF40479D7
:1011200010B12068C0F80893A86960B1E86948B1B7
:10113000686810B12068C0F804931120BDE8F09FE2
:101140001020FBE701264FF0000B36B32F61C5F8E6
:101150001C8000254FF488712068FFF767FD4FF46D
:10116000A2712068FFF762FD2068C0F83475C0F8EE
:101170003885C6B12068D0F8001241F02001C0F8CF
:101180000012207900EBC0000AEB8000406870B1CB
:101190002068C0F804932846D0E7C5F81880EF60AF
:1011A000C5F81CB0D5E7206801210160E9E74FF4DC
:1011B00088784FF4A27941462068FFF732FD074650
:1011C00049462068FFF72DFD06464FF492712068CE
:1011D000FFF727FD37430743EDD0217901EBC1012C
:1011E0000AEB8101C1F818B000B10325002ED2D05E
:1011F0000F25D0E7B80200202DE9F04704460F463E
:1012000016462079254900EBC00001EB80053846E1
:10121000FFF708FE30B1204600F042F820B111205F
:10122000BDE8F0871020FBE76E61AF604FF000086B
:101230004FF4907A51462068FFF7F8FC4FF4AC76F3
:1012400031462068FFF7F2FC20686A69A968C0F897
:101250004415C0F8482520684FF00109C0F80890EF
:101260006868C8B951462068FFF7DBFC074631467D
:101270002068FFF7D6FC0743F4D010B14FF00F08F9
:1012800008E02068C0F80C9031462068FFF7C9FCE0
:101290000028F9D0002068614046C1E7B80200206C
:1012A0000079054900EBC00001EB8000406900288F
:1012B00000D0012070470000B802002001490860FA
:1012C00000F002B804E50140024801680029FCD0A2
:1012D0007047000000E4014010B50549C20800F065
:1012E00007008B5C0124844023438B5410BD000015
:1012F000860200200449084490F92800082801DBF0
:1013000001207047002070473C0200200449084437
:1013100090F92800082801D201207047002070476A
:101320003C0200202DE9F0478246DFF890804FF024
:10133000A049002408EB040090F94800401C32D07A
:10134000204600F03DF8074651463846FFF734FB8B
:1013500048B3204600F03EF8054609EB8700D0F878
:101360000007C0F30146022E12D002213846FFF7D3
:10137000F3FB0120B840C9F820053846FFF740FAD2
:1013800058F820207AB1032D0AD0022E02D003E0B3
:101390000321EBE7012D03D0032E04D1022D02D14E
:1013A000294638469047641C022CC3D35046FFF7A9
:1013B000CFFA0028BDD1BDE8F08700003C02002034
:1013C0000349084490F8480020F0C000704700002E
:1013D0003C0200200249084490F848008009704708
:1013E0003C0200200349884201D103487047002095
:1013F00070470000002000400C00002070B505463A
:101400000C464FF48471A06900280BD02846FFF7E2
:10141000FCFBD5F81805626AE1688854606A401CD4
:10142000606270BD2846FFF7F0FBD5F8180570BD67
:101430001FB501238DF800300291019206C868465D
:1014400090471FBD1FB501238DF800300291019216
:1014500006C8684690471FBD10B504464FF4927108
:101460002068FFF7D2FB4FF484712068FFF7CDFBB3
:1014700020680121016010BD2DE9F04107460C46AE
:1014800065694FF48E760FE094F8280010B10020C3
:10149000BDE8F08131463846FFF7B2FB0028F3D0B3
:1014A0002146384600F005F8206AA842F2D3012010
:1014B000EEE770B505460C464FF48E712846FFF7EF
:1014C000A4FB216AA068415C226A521C2262C5F812
:1014D0001C1570BD1FB500228DF800200291816897
:1014E0000191426106C8684690471FBD1FB50022A2
:1014F0008DF80020029181680191426106C868461A
:1015000090471FBD00B58BB018220C4905A8FEF707
:1015100095FE0B4801904FF48070029009490391A9
:1015200004900723084A01A905A8FFF70FF800282F
:1015300001D0FEF7D5FF0BB000BD0000E818000099
:101540003C0000203C0100204D15000001780229DC
:1015500004D0012905D14068FEF7C2BF4068FEF7FC
:10156000BFBF70477CB501782C4C002941D00129C0
:101570000ED002290BD18DF80010C0680190611CBB
:101580000122C81DFFF764FA6168684688477CBD80
:10159000017A71B1406801782148FEF7C9FF204DFA
:1015A000012668B18DF8006001906168684688473F
:1015B00010E01A490122491CC81DFFF749FA7CBDF9
:1015C000A868E968081A28B100208DF80000616851
:1015D00068468847A868E968081AA988884206D832
:1015E0000E490122491CC81DFFF732FA7CBDA670C6
:1015F0007CBD0B4809491030FEF77DFF30B1032058
:101600008DF800006168684688477CBD0349012267
:1016100001F10800FFF72CFA7CBD00001800002043
:10162000DC0200201FB502788DF80020426801928C
:10163000027A8DF80820C06803900548044A121FFA
:1016400050F8210052F821200146684690471FBDFE
:10165000080000202DE9FF4705460C464FF40071B5
:101660002846FFF7D8FA01274FF40178002618B36F
:101670004FF4927949462846FFF7C2FAE0B149464D
:101680002846FFF7C2FAC5F8088394F8290000B984
:101690006F6002208DF80000D5F88004C5F8800442
:1016A0000390A0690290E0680190A661E661D4E928
:1016B0000012684690472BE004212846FFF7ABFA5A
:1016C00030B34FF484712846FFF79AFA00B32146ED
:1016D0002846FFF793FE616AA069884218D1E06945
:1016E00050B1E268616AA0612069E060E66166620B
:1016F0002046FFF79DFE0BE094F8290000B96F60CB
:10170000C5F80883A661E268616A2046FFF790FE8B
:101710004FF48E7841462846FFF772FA80B160692F
:10172000216A814202D294F8280028B34146284613
:10173000FFF76BFA606918B161692046FFF7CAFECE
:101740004FF4A27841462846FFF75AFA002818D0ED
:1017500041462846FFF759FA94F8290000B12F6056
:10176000A06900280DD0A661E268616A04B0204635
:10177000BDE8F047FFF75CBE21462846FFF799FE1B
:10178000DEE7BDE8FF8700001FB502788DF8002076
:1017900042680192027A8DF80820C06803900548DB
:1017A000044A121F50F8210052F8212001466846D1
:1017B00090471FBD080000202DE9FF4105460C465B
:1017C0004FF4927739462846FFF72BFA0026B8B136
:1017D00039462846FFF72AFA02208DF80000D5F88E
:1017E0008004C5F880040390D5F83C050290E068B9
:1017F0000190A661E661D4E900126846904726E0B0
:101800004FF4887739462846FFF70BFAF8B1394686
:101810002846FFF70BFAD5F83C15A069884216D187
:10182000E06978B1E268D5F8000220F02000C5F840
:101830000002E069A0612069E060E6612046FFF7F0
:1018400001FE04E0A6612046E268FFF7FBFD4FF4CD
:10185000A27739462846FFF7E4F968B139462846A9
:10186000FFF7E4F9A06938B1A661E661D5F83C1547
:101870002046E268FFF7E6FD4FF4907631462846B1
:10188000FFF7CFF960B131462846FFF7CFF90120C5
:10189000E860606920B1D5F84C152046FFF726FEB8
:1018A0004FF4AC7631462846FFF7BBF900280ED03E
:1018B00031462846FFF7BAF96069002807D0D5F805
:1018C0004C1504B02046BDE8F041FFF70FBEBDE85F
:1018D000FF81000000000000000000000000000088
:1018E0000338FDD870470000080000000600000023
:1018F00007000000050000000000000000E0D70124
:101900000100000000000050690E00007910000086
:10191000FFFFFFFFFFFFFFFFFFFFFFFFFFFFFFFFD7
:1019200000000000000000000000D60107010000D8
:1019300050190000000000203C000000700400006E
:101940008C1900003C000020C4120000800400003C
:101950000000000000000000000000000000000087
:101960000000000000000000000000000000000077
:1019700000000000002000400000000000200040A7
:0C19800000000000000000000090D003F8
:0400000500000201F4
:00000001FF
