:020000040000FA
:10000000001000201902000021020000230200005D
:100010002502000027020000290200000000000065
:100020000000000000000000000000002B020000A3
:100030002D020000000000002F020000310200002D
:1000400033020000330200003302000033020000DC
:10005000330200003302000061020000330200009E
:1000600033020000330200003302000033020000BC
:1000700033020000330200003302000033020000AC
:10008000330200003302000033020000330200009C
:10009000330200003302000033020000330200008C
:1000A000330200003302000033020000330200007C
:1000B00033020000330200000000000000000000D6
:1000C000330200003302000033020000330200005C
:1000D0003302000033020000330200000000000081
:1000E0000000000000000000000000000000000010
:1000F0000000000000000000000000000000000000
:1001000000000000000000000000000000000000EF
:1001100000000000000000000000000000000000DF
:1001200000000000000000000000000000000000CF
:1001300000000000000000000000000000000000BF
:1001400000000000000000000000000000000000AF
:10015000000000000000000000000000000000009F
:10016000000000000000000000000000000000008F
:10017000000000000000000000000000000000007F
:10018000000000000000000000000000000000006F
:10019000000000000000000000000000000000005F
:1001A000000000000000000000000000000000004F
:1001B000000000000000000000000000000000003F
:1001C000000000000000000000000000000000002F
:1001D000000000000000000000000000000000001F
:1001E000000000000000000000000000000000000F
:1001F00000000000000000000000000000000000FF
:10020000DFF810D000F01AF800480047530500004E
:10021000AFF30080001000200648804706480047E2
:10022000FEE7FEE7FEE7FEE7FEE7FEE7FEE7FEE7A6
:10023000FEE7FEE7BD03000001020000064C074D8B
:1002400006E0E06840F0010394E8070098471034A6
:10025000AC42F6D3FFF7D8FFB0090000E009000078
:100260002DE9F8430025002000904FF48078012408
:100270000026234F404600F0FBF938B1D7F80403BD
:10028000204018B1404600F0E9F92543640008F128
:1002900004081FFA88F8761C082EEBD34FF4BE74BE
:1002A000204600F0E5F948B1204600F0D7F945F0C6
:1002B00000456A460121002000F0A0F915F0FF0F6B
:1002C00016D0012600242E420ED007EB8401D1F86F
:1002D0001005C0F30420D1F81015C1F30141094AFB
:1002E00052F8242002B190477600641C082CEAD30F
:1002F000002D02DA684600F0EFFABDE8F88300004E
:10030000006000400400800008B5112000F05EF994
:10031000122000F05BF9132000F058F9142000F0CF
:1003200055F900F069FA08B100F0AAF8174800681A
:10033000009003208DF80100154A69460D2000F059
:10034000F7F908B100F09CF801210D2000F09AF9AE
:100350000F4A69460E2000F0EBF908B100F090F862
:1003600001210E2000F08EF90121112000F012F879
:100370000121122000F00EF80121132000F00AF8EC
:100380000121142000F006F808BD0000A8090000B3
:1003900019050000012282404FF0A043002902D03D
:1003A000C3F808257047C3F80C2570470249014877
:1003B000086070470090D0030000800000B51A4824
:1003C000016841F470010160BFF34F8FBFF36F8F7D
:1003D0004FF01022D2F80002002803DBD2F804020A
:1003E00000281CDA012000F043FA1523C2F800327D
:1003F00000F044FAC2F8043200F040FA002000F0A5
:1004000037FABFF34F8F08487C380168074A01F478
:10041000E06111430160BFF34F8F00BFFDE75DF85E
:1004200004EBFFF7C3BF000088ED00E00400FA050D
:1004300002E008C8121F08C1002AFAD170477047AD
:10044000002001E001C1121F002AFBD1704700000B
:1004500072B609480068C00700D000BEBFF34F8FD6
:100460000548E4380168054A01F4E0611143016080
:10047000BFF34F8F00BFFDE7F0ED00E00400FA0589
:100480000EB500210091019102906A4644F20100EC
:10049000FFF7DEFF0EBD000005494FF0FF3241F8C7
:1004A0002020082802D3084480F84020704700002C
:1004B00004008000F0B507464FF0FF30002A02D05C
:1004C0004FF0000301E04FF0080302D04FF00805A1
:1004D00001E04FF00A050B4C04E054F82360761C51
:1004E00003D05B1CAB42F8D3F0BDE51958B285F8D8
:1004F000280044F82310002AF6D1E11881F8407052
:10050000F0BD0000040080000249084490F9280072
:1005100070470000040080000D2804D00E2805D18B
:10052000132000F08EB8122000F08BB8704710B581
:10053000044622460121002000F060F8002154F812
:1005400021300BB1012010BD491C0029F7D000203B
:1005500010BDFFF7D9FE4FF4FA7400211420FFF705
:1005600019FF204600F010F801211420FFF712FFB8
:10057000204600F009F8F0E7C20800F00703012068
:10058000895C98400840704770B50446002C07D03D
:10059000044E4FF47A45711C28468847641EFAD1F0
:1005A00070BD0000A009000070B5DDE904654FF0E2
:1005B000A04441EA420141EA830141EA062104EBF9
:1005C000800041EA0541C0F8001770BD4FF0A0421D
:1005D00002EB80000321C0F8001770474FF0A042E3
:1005E00002EB800000F5E060026822F44032026015
:1005F000026842EA014101607047000038B5084BCB
:100600001B6800936C46451807E054F82030D3F877
:10061000201502C2C3F82015401C8542F5D838BD0C
:10062000AC09000042090021002A00D1491E00F057
:100630001F00012282400A4201D0012070470020A1
:1006400070474FF0A04303F204531968012282401F
:1006500022EA010058600A409A60704708B50349D1
:100660000844002101600068009008BD006000405F
:10067000034908440068012800D0002070470000AA
:10068000006000402DE9F04105460F46284600F085
:100690000BF9F0B12846FFF737FF083800F074F97E
:1006A000032807D0012812D003212846BDE8F041D5
:1006B000FFF794BF4FF0A04000F5A2600068E8404B
:1006C00000F0010008B10321EFE70221EDE702216C
:1006D000EBE7284600F0F4F8002823D02846FFF77F
:1006E00013FF04464FF4807000EB840082B2204672
:1006F0000D4E06EB8000D0F8101541F00101C0F856
:1007000010151046FFF7AAFF002F0BD02846FFF761
:10071000FBFE064951F82000002803D00120A0402C
:10072000C6F80403BDE8F0810060004004008000CA
:100730002DE9FC410C46054611460027DFF8AC8048
:1007400008EB050090F92800C017401C002801D0D4
:10075000082747E0A078C0F340022846FFF7AAFE2A
:100760000646701C3DD0A078410717D4C0070AD0B8
:100770004FF0A04000EB8500D0F8001721F00201F7
:10078000C0F8001707E063782846002100910A4668
:100790000191FFF709FF284600F078F8A07880075C
:1007A00016D52178124800EB860000F5A260026899
:1007B000104B1A4002604FF4F8524FF4403302EAF3
:1007C000052203EA01410A4301680A43026009E085
:1007D00008EB0600227810F8401F41EA82110170F0
:1007E00000E004273846BDE8FC81000004008000DA
:1007F00000600040FFE0FCFF70B51A4D95F84E0018
:10080000002801D0082070BD0024661E2046FFF796
:1008100009FF10B1281980F82860641CE4B2202C6C
:10082000F4D300242046FFF737FE641CE4B20A2C00
:10083000F8D3002045F84A0F0B4C0C49C020087033
:1008400001264FF0E0214020C1F800014FF4BE70B6
:10085000FFF704FFA00404F5417420602E7100200E
:1008600070BD0000040080000060004006E400E06D
:100870000149086000F002B804E50140024801683F
:100880000029FCD07047000000E4014010B5054984
:10089000C20800F007008B5C0124844023438B5482
:1008A00010BD00004E0080000449084490F9280063
:1008B000082801DB012070470020704704008000F9
:1008C0000449084490F92800082801D20120704703
:1008D00000207047040080002DE9F0478246DFF8D1
:1008E00090804FF0A049002408EB040090F94800E4
:1008F000401C32D0204600F03DF8074651463846AD
:10090000FFF73AFE48B3204600F03EF8054609EBF3
:100910008700D0F80007C0F30146022E12D0022152
:100920003846FFF75BFE0120B840C9F8200538467D
:10093000FFF7EAFD58F820207AB1032D0AD0022EE5
:1009400002D003E00321EBE7012D03D0032E04D1F5
:10095000022D02D1294638469047641C022CC3D38D
:100960005046FFF7E4FD0028BDD1BDE8F087000048
:10097000040080000349084490F8480020F0C000BB
:1009800070470000040080000249084490F84800C5
:100990008009704704008000000000000000000093
:1009A0000338FDD87047000001000000000000502F
:1009B000E009000000008000040000003004000096
:1009C000E0090000000000200010000040040000CA
:1009D000E409000004008000500000004004000012
:0409E0000090D003B0
:0400000500000201F4
:00000001FF
