:020000040000FA
:10000000001000201902000021020000230200005D
:100010002502000027020000290200000000000065
:100020000000000000000000000000002B020000A3
:100030002D020000000000002F020000310200002D
:1000400033020000330200003302000033020000DC
:1000500033020000330200006D0200003302000092
:1000600033020000330200003302000033020000BC
:1000700033020000330200003302000033020000AC
:10008000330200003302000033020000330200009C
:10009000330200003302000033020000330200008C
:1000A000330200003302000033020000330200007C
:1000B00033020000330200000000000000000000D6
:1000C000330200003302000033020000330200005C
:1000D0003302000033020000330200000000000081
:1000E0000000000000000000000000000000000010
:1000F0000000000000000000000000000000000000
:1001000000000000000000000000000000000000EF
:1001100000000000000000000000000000000000DF
:1001200000000000000000000000000000000000CF
:1001300000000000000000000000000000000000BF
:1001400000000000000000000000000000000000AF
:10015000000000000000000000000000000000009F
:10016000000000000000000000000000000000008F
:10017000000000000000000000000000000000007F
:10018000000000000000000000000000000000006F
:10019000000000000000000000000000000000005F
:1001A000000000000000000000000000000000004F
:1001B000000000000000000000000000000000003F
:1001C000000000000000000000000000000000002F
:1001D000000000000000000000000000000000001F
:1001E000000000000000000000000000000000000F
:1001F00000000000000000000000000000000000FF
:10020000DFF810D000F01AF800480047D3050000CE
:10021000AFF30080001000200648804706480047E2
:10022000FEE7FEE7FEE7FEE7FEE7FEE7FEE7FEE7A6
:10023000FEE7FEE75903000001020000064C074DEF
:1002400006E0E06840F0010394E8070098471034A6
:10025000AC42F6D3FFF7D8FF680B0000880B000014
:1002600000E0401E0028FCD17047000000B5114896
:10027000D0F8001101291CD1D0F80413C90718D0F7
:100280000021C0F8001142F21070FFF7E9FF4FF0B3
:10029000A04000F204500068C0F3C04000B101204B
:1002A0000549087080F0010113205DF804EB00F0AF
:1002B0003FB800BD00600040000080001CB5112068
:1002C00000F034FC122000F031FC132000F02EFC72
:1002D000142000F02BFC0D200323002100910A467E
:1002E000019100F011FC0E4A0120402111600E4ADC
:1002F0000C4911600D49C1F804030121112000F0DF
:1003000017F80121122000F013F80121132000F04A
:100310000FF8BDE81C400121142000F009B80000CE
:1003200000E100E0010D01001065004000600040A8
:10033000012282404FF0A043002902D0C3F80825D3
:100340007047C3F80C2570470249014808607047A0
:100350000090D0030400800070B500F0C9F94FF0A0
:10036000805428B1B4F824038349C0F30420086002
:1003700000F048FA10B182498048486700F082FADC
:1003800028B1D4F844027F49C0F34230086000F03D
:10039000A3FA20B17C48016821F08071016000F06F
:1003A000BDFA002528B17948056045607548001FF1
:1003B000056000F0F5FA18B1724903206431086055
:1003C00000F010FB68B172490520086070490120F7
:1003D000783108606E48083005606D493F20091D7E
:1003E000086000F021FBE8B36A4800686A490860C9
:1003F0006848001D0068091D0860664808300068EC
:10040000091D086063480C300068091D08606148D8
:1004100010300068091D08605E4814300068091D2E
:1004200008605C48183000685B4920310860594812
:100430001C300068091D0860564820300068091DFE
:100440000860544824300068091D0860514828306D
:100450000068091D08604F482C300068091D0860BD
:100460004C4800E018E0303000684B4940310860EB
:10047000484834300068091D086046483830006834
:10048000091D086043483C300068091D0860414868
:1004900040300068091D086000F008FB18B13C49B5
:1004A0003E487C31086000F0DBF83D4D20B1D4F8C7
:1004B000580200F04F00286000F0FCF828B194F8D2
:1004C0005812286861F30300286000F03BF918B166
:1004D00034494FF40070086000F052F930B13248EE
:1004E0000168C90702D06FF00101016000F0ACF9AA
:1004F00020B12E48016841F48061016022487438BF
:10050000016841F470010160BFF34F8FBFF36F8F3B
:1005100000F072F84FF0102220B1D2F80802194909
:100520001C310860D2F80002002803DBD2F8040274
:1005300000281CDA012000F003FB1523C2F800326A
:1005400000F004FBC2F8043200F000FB002000F0D1
:10055000F7FABFF34F8F0C48F0380168144A01F4E2
:10056000E06111430160BFF34F8F00BFFDE7BDE8BD
:100570007040FFF7E9BE0000403501400DF0ADBA14
:1005800000C007403C050040FCED00E00C010040CD
:10059000105600400404001020C5004048810300AC
:1005A000E40E004040960240000400403C1700402A
:1005B0000400FA0502E008C8121F08C1002AFAD197
:1005C00070477047002001E001C1121F002AFBD1D3
:1005D0007047FFF773FE4FF4FA7400211420FFF701
:1005E000A7FE204600F080FA01211420FFF7A0FEAC
:1005F000204600F079FAF0E71848016840680629BB
:1006000003D0082915D000207047C01E05280ED23F
:10061000DFE800F0030507090B0000207047002009
:10062000704700207047002070470120704701206C
:100630007047062810D2DFE800F0030507090B0D0C
:10064000002070470020704700207047002070474E
:1006500000207047012070470120704730010010D2
:100660004FF08051D1F83001421C05D0D1F834113F
:10067000062809D0002070470D4800780C49083141
:100680000978C1F30311F3E7C91E05290ED2DFE88B
:1006900001F0030507090B00012070470120704796
:1006A00001207047012070470120704701207047EA
:1006B000E00F00F00D4801684068082901D00020D3
:1006C0007047062810D2DFE800F0030507090B0D7C
:1006D00001207047002070470020704700207047BD
:1006E0000020704700207047002070473001001044
:1006F0004FF08051D1F83001421C05D0D1F83411AF
:10070000062809D0002070470D4800780C490831B0
:100710000978C1F30311F3E7C91E05290ED2DFE8FA
:1007200001F0030507090B00012070470120704705
:100730000120704701207047012070470120704759
:10074000E00F00F00D4801684068082901D0002042
:100750007047062810D2DFE800F0030507090B0DEB
:10076000012070470020704700207047002070472C
:1007700000207047002070470020704730010010B3
:100780004FF08050D0F830114A1C07D0D0F8340117
:1007900006290BD008291DD0002070471848017881
:1007A000174808300078C0F30310F1E7C01E052891
:1007B0000ED2DFE800F0030507090B0001207047A7
:1007C00001207047012070470120704701207047C9
:1007D00001207047062810D2DFE800F00305070962
:1007E0000B0D012070470120704701207047012048
:1007F00070470120704701207047012070470000BA
:10080000E00F00F00F4801780E4808300078C0F380
:100810000310062901D000207047C01E05280ED203
:10082000DFE800F0030507090B00012070470020F6
:10083000704700207047002070470020704700205C
:1008400070470000E00F00F00D480168406806297D
:1008500001D000207047C01E05280ED2DFE800F04E
:10086000030507090B000020704700207047002097
:100870007047012070470120704701207047000039
:10088000300100104FF08051D1F83001421C05D0EA
:10089000D1F83411062809D0002070470D4800789F
:1008A0000C4908310978C1F30311F3E7C91E052982
:1008B0000ED2DFE801F0030507090B0001207047A5
:1008C00001207047012070470120704701207047C8
:1008D00001207047E00F00F00F4801780E48083003
:1008E0000078C0F30310062901D000207047C01E15
:1008F00005280ED2DFE800F0030507090B000120F0
:10090000704700207047002070470020704700208B
:100910007047002070470000E00F00F04FF080505B
:10092000D0F830114A1C07D0D0F8340106290BD07A
:1009300008291DD000207047184801781748083052
:100940000078C0F30310F1E7C01E05280ED2DFE8DF
:1009500000F0030507090B000120704701207047D4
:100960000120704701207047012070470120704727
:10097000062810D2DFE800F0030507090B0D01205F
:100980007047012070470120704701207047012007
:10099000704701207047012070470000E00F00F011
:1009A0000F4801780E4808300078C0F3031006297C
:1009B00001D000207047C01E05280ED2DFE800F0ED
:1009C000030507090B000120704700207047002035
:1009D00070470020704700207047002070470000DB
:1009E000E00F00F00F4801780E4808300078C0F39F
:1009F0000310062901D000207047C01E05280ED222
:100A0000DFE800F0030507090B0001207047002014
:100A1000704700207047002070470020704700207A
:100A200070470000E00F00F04FF08050D0F8301118
:100A30004A1C07D0D0F8340106290BD008291DD054
:100A40000020704718480178174808300078C0F334
:100A50000310F1E7C01E05280ED2DFE800F0030501
:100A600007090B00002070470020704701207047E5
:100A7000012070470120704701207047062810D2DE
:100A8000DFE800F0030507090B0D01207047012086
:100A900070470120704701207047012070470120F6
:100AA0007047012070470000E00F00F00D4801681A
:100AB0004068082901D000207047062810D2DFE8DE
:100AC00000F0030507090B0D012070470020704757
:100AD00000207047002070470020704700207047BA
:100AE000002070473001001070B50446002C07D07C
:100AF000044E4FF47A45711C28468847641EFAD18B
:100B000070BD0000600B000070B5DDE904654FF0BA
:100B1000A04441EA420141EA830141EA062104EB93
:100B2000800041EA0541C0F8001770BD1CB50021E6
:100B300000910B46012201911146FFF7E5FF1CBD14
:100B40000149086000F002B804E50140024801686C
:100B50000029FCD07047000000E4014000000000C4
:100B60000338FDD870470000880B000000008000AB
:100B700008000000B4050000880B00000000002001
:100B800000100000C4050000000000000090D00329
:0400000500000201F4
:00000001FF
