:1006FB0056494E3A2025342E3166205600564F551A
:10070B00543A2025342E31662056004F43433A206D
:10071B0025372E336620252500423A25342E3166A7
:10072B005620533A25342E31665600000000000047
:10073B000000000000000000000000000000F800B6
:10074B00000000000000333000000000100C061009
:10075B000C0600000000000000000040C07840C004
:10076B00784000043F04043F040400007088FC0838
:10077B00300000001820FF211E0000F008F000E000
:10078B0018000000211C031E211E0000F0088870B9
:10079B000000001E2123241927211010160E000023
:1007AB000000000000000000000000000000E01846
:1007BB00040200000000071820400000020418E0AB
:1007CB000000000040201807000000404080F0802F
:1007DB004040000202010F01020200000000F00085
:1007EB000000000101011F010101000000000000D9
:1007FB0000000080B070000000000000000000004E
:10080B0000000000010101010101010000000000D6
:10081B0000000000303000000000000000000080ED
:10082B00601804006018060100000000E0100808C2
:10083B0010E000000F102020100F00001010F80027
:10084B000000000020203F20200000007008080856
:10085B00887000003028242221300000300888885E
:10086B004830000018202020110E000000C020107E
:10087B00F8000000070424243F240000F8088888AF
:10088B000808000019212020110E0000E0108888B4
:10089B00180000000F112020110E0000380808C8A6
:1008AB003808000000003F000000000070880808B6
:1008BB00887000001C222121221C0000E010080877
:1008CB0010E0000000312222110F00000000C0C018
:1008DB00000000000000303000000000000080002D
:1008EB00000000000080600000000000008040203D
:1008FB001008000001020408102000404040404056
:10090B0040400004040404040404000008102040C8
:10091B008000000020100804020100007048080845
:10092B0008F0000000003036010000C030C828E895
:10093B0010E0000718272423140B000000C038E038
:10094B00000000203C23020227382008F888888802
:10095B00700000203F202020110E00C03008080836
:10096B00083800071820202010080008F80808088D
:10097B0010E000203F202020100F0008F88888E8A6
:10098B00081000203F20202320180008F88888E852
:10099B00081000203F200003000000C030080808AA
:1009AB0038000007182020221E020008F80800005B
:1009BB0008F808203F210101213F20000808F80812
:1009CB000800000020203F2020000000000808F84D
:1009DB00080800C08080807F00000008F888C028CD
:1009EB00180800203F20012638200008F8080000D6
:1009FB00000000203F20202020300008F8F800F8ED
:100A0B00F80800203F003F003F200008F830C000EE
:100A1B0008F808203F200007183F00E010080808DE
:100A2B0010E0000F10202020100F0008F808080815
:100A3B0008F000203F210101010000E01008080828
:100A4B0010E0000F18242438504F0008F8888888CD
:100A5B00887000203F2000030C30200070880808AD
:100A6B000838000038202121221C00180808F8083B
:100A7B000818000000203F2000000008F8080000C4
:100A8B0008F808001F202020201F0008788800008D
:100A9B00C83808000007380E010000F80800F800FD
:100AAB0008F800033C0700073C0300081868808027
:100ABB0068180820302C03032C30200838C800C8D5
:100ACB003808000000203F2000000010080808C86C
:100ADB003808002038262120201800000000FE02D4
:100AEB000202000000007F40404000000C30C000BC
:100AFB00000000000000010638C00000020202FEE8
:100B0B00000000004040407F000000000004020293
:100B1B0002040000000000000000000000000000C4
:100B2B0000000080808080808080800002020400B2
:100B3B00000000000000000000000000008080802A
:100B4B008000000019242222223F2008F800808018
:100B5B00000000003F112020110E000000008080DB
:100B6B00800000000E11202020110000000080806A
:100B7B0088F800000E112020103F2000008080809C
:100B8B00800000001F222222221300008080F088A8
:100B9B008888180020203F202000000000808080E3
:100BAB00808000006B94949493600008F800808020
:100BBB00800000203F210000203F200080989800FB
:100BCB000000000020203F20200000000000809843
:100BDB0098000000C08080807F000008F800008033
:100BEB00808000203F24022D302000000808F800F0
:100BFB000000000020203F202000008080808080AB
:100C0B00808000203F20003F20003F8080008080BC
:100C1B00800000203F210000203F200000808080CA
:100C2B00800000001F202020201F0080800080807B
:100C3B0000000080FFA12020110E0000000080802A
:100C4B00808000000E112020A0FF8080808000801B
:100C5B0080800020203F2120000100000080808048
:100C6B008080000033242424241900008080E0803D
:100C7B008000000000001F2020000080800000008A
:100C8B00808000001F202020103F208080800000EB
:100C9B0080808000010E30080601008080008000FB
:100CAB008080800F300C030C300F000080800080A0
:100CBB008080000020312E0E3120008080800000CB
:100CCB0080808080818E701806010000808080807B
:100CDB008080000021302C22213000000000008099
:100CEB007C020200000000003F404000000000FFBB
:100CFB0000000000000000FF0000000002027C80EA
:100D0B000000000040403F0000000000060101020F
:0B0D1B000204040000000000000000C3
:101AC000440088000000004400770000000044004B
:101AD0007D000000004200810000410083004100C1
:101AE00075004100600041006D0041007400440039
:101AF000690000000042008E000044006542C800FA
:101B00000042008C000044008440A00000440070AB
:101B10000000000044006100000000410076004227
:041B2000007B000046
:10002E00D3EF9400EE940040147D6E7C00ED1D70B5
:0D003E00011CED4C70F7EF1F70E61E80E313
:01004B002292
:091CDD00D2A2D2A3C2A3C2A2222A
:091CE600C2A2C2A3D2A2D2A32221
:071B9C00AD07121CDD7F788C
:101BA300E4FEEF30E704D2A38002C2A3D2A2C2A212
:0F1BB300EF25E0FF0EEEB408E9D2A3D2A2C2A242
:011BC2002200
:101CBD00121B9C7F40121BA3AF05121BA3021CE637
:101CCD00121B9CE4FF121BA3AF05121BA3021CE603
:101C1100AC07ED24B0FF121CCDEC54F0C4540F44BA
:0E1C210010FF121CCDEC540F4401FF021CCD2D
:021BC300AC076D
:101BC500E4FBEB24B0FF121CCD7F01121CCD7F106E
:101BD500121CCDE4FAAF04121CBD0AEAB480F60B60
:041BE500EBB408DE77
:011BE90022D9
:101996007FF47E0112002E7FAE121CCDE4FF121CD6
:1019A600CD7F10121CCD7F40121CCD7F81121CCD25
:1019B6007FCF121CCD7FA1121CCD7FC8121CCD7FFC
:1019C600A6121CCD7FA8121CCD7F3F121CCD7FD343
:1019D600121CCDE4FF121CCD7FD5121CCD7F8012C8
:1019E6001CCD7FD9121CCD7FF1121CCD7FDA121CC3
:1019F600CD7F12121CCD7FDB121CCD7F40121CCD79
:101A06007F20121CCD7F02121CCD7F8D121CCD7F34
:101A160014121CCD7FA4121CCD7FA6121CCD7FAF45
:0E1A2600121CCDE4FF121BC3E4FDFF021C11D5
:071749007B017A007920FF0B
:10175000900030EFF0A3ECF0A3EDF0A3EBF0A3EAE0
:04176000F0A3E9F019
:10176400E4A3F0FCA3F0900033E0FBA3E0FAA3E0D1
:10177400F9900037E0F5827583001205FF700302CB
:10178400182024E0900036F0900030E0D3947840A4
:1017940010E4F0900032E004F07006900031E004B0
:1017A400F0900030E0FFA3A3E0FD121C11E4FC90D4
:1017B4000036E075F010A42CF582E435F0F583E5ED
:1017C400822436F582E5833407F583E493FF121C03
:1017D400BD0CECB408D9900030E0FFA3A3E004FDF5
:1017E400121C11E4FC900036E075F010A42CF58274
:1017F400E435F0F583E582243EF582E5833407F58C
:1018040083E493FF121CBD0CECB408D9900030E0C3
:0C1814002408F0900037E004F002176A8E
:0118200022A5
:101657007E007F107D007B017A0079201206CF90F3
:10166700003374FFF0A37406F0A374FBF0900088B6
:10167700E0FCA3E0FDA3E0FEA3E0FF900036120626
:101687004C7B017A007920120D8BE4FDFC1217497F
:101697007E007F107D007B017A0079201206CF90B3
:1016A700003374FFF0A37407F0A37408F090007779
:1016B700E0FCA3E0FDA3E0FEA3E0FF9000361206E6
:1016C7004C7B017A007920120D8B7D027C00E4129D
:1016D70017497E007F107D007B017A007920120672
:1016E700CF90007BE0FCA3E0FDEC12037A7B007A4D
:1016F70040791C784612025FE4FBFA79C8784212F7
:10170700015690007D12064C90003374FFF0A374CD
:1017170007F0A37416F090007DE0FCA3E0FDA3E0C2
:10172700FEA3E0FF90003612064C7B017A00792079
:10173700120D8B7B017A0079207D047C00E4FF0287
:02174700175039
:1013F400E4F594F593F592F591F596F595F5B2F536
:10140400B1F5B4F5B3F5CAF5C912001675A8A0C2B2
:10141400B553B1DF43B220C28CD2A9D2B95389FCEF
:10142400438E805389FB438F01E4F58CF58AD28C7B
:10143400D2B2D288D2A8D2B3D28AD2AA438F30D21F
:10144400AF12199612153A9000841211AC7E007FE7
:10145400107D007B017A0079001206CF900033746E
:10146400FFF0A37407F0A37424F0900069E0FCA3D8
:10147400E0FDA3E0FEA3E0FF90003612064C9000CE
:1014840065E0FCA3E0FDA3E0FEA3E0FF90003A12B8
:10149400064C7B017A007900120D8B7B017A00796E
:1014A400007D067C00E4FF121750900084E0FCA34A
:1014B400E0FDA3E0FEA3E0FF90007012064C1216BC
:1014C40057900060E0B40123E4F0900070E0FCA3C6
:1014D400E0FDA3E0FEA3E0FF90006112064C900043
:1014E4007012065840A000001211A990006DE0B4DB
:1014F4000123E4F0900070E0FCA3E0FDA3E0FEA370
:10150400E0FF90006112064C900070120658416092
:1015140000001211A9900083E0B40107E4F07F01F8
:10152400121821900075E0B40106E4F0FF121821AE
:06153400121CEF0214C2BC
:10153A0090007B7401F0A374F4F0FF7E01121B2B60
:10154A00121CF89000747401F0900074E0705F90BF
:10155A000069E0FCA3E0FDA3E0FEA3E0FF900077B2
:10156A00E0F8A3E0F9A3E0FAA3E0FB1202FC60258D
:10157A004023900077E0FCA3E0FDA3E0FEA3E0FF98
:10158A0090006912064C90007BE0FFA3E090008E69
:10159A00CFF0A3EFF090007CE024F6F090007BE01F
:1015AA0034FF121B25121CF89000747401F0D390BA
:1015BA00007CE0940090007BE064809480508A90E4
:1015CA00007B7417F0A37470F0FF7E17121B2B12A6
:1015DA001CF89000747401F0900074E0705D900043
:1015EA0065E0FCA3E0FDA3E0FEA3E0FF900077E046
:1015FA00F8A3E0F9A3E0FAA3E0FB1202FC5023905F
:10160A000077E0FCA3E0FDA3E0FEA3E0FF90006505
:10161A0012064C90007BE0FFA3E090008CCFF0A371
:10162A00EFF090007CE0240AF090007BE034001296
:10163A001B25121CF89000747401F0C390007CE022
:0D164A00945890007BE06480949B408C22BB
:03002B000218E5D3
:1018E500C0E0C0F0C083C082C0D075D000C000C0C9
:1018F50001C002C003C004C005C006C00775BC0016
:10190500AFBDEF75F004A4FF900081E5F0F0A3EF03
:10191500F0E5BE5403FF900081E0F0A3E04FF090A6
:101925000074E06002E4F0900076E09000817018A9
:10193500E0FCA3E0FDEC12037AE4FBFA79A0783C25
:101945001201569000778016E0FCA3E0FDEC12032F
:101955007AE4FBFA79A0783C1201569000881206C9
:101965004C900076E004F0D394014002E4F090003E
:1019750076E04488F5BCD007D006D005D004D00366
:10198500D002D001D000D0D0D082D083D0F0D0E02A
:01199500321F
:10001600759D03E4F5BD900076E04488F5BC7F024B
:050026007E00021C2F0A
:101C2F00EF1FAA0670011E4A60107C137D88ED1D00
:0A1C3F00AA0470011C4A60E880F45A
:011C49002278
:081CEF007F187E55DEFEDFFCCC
:011CF70022CA
:081CF8007FEA7E73DEFEDFFCD3
:011D000022C0
:0C1C4A00121C56121C56121C56121C567E
:0E1C560000007F0A7E1F7D93DDFEDEFCDFFABC
:011C6400225D
:0E11A900900070E0FCA3E0FDA3E0FEA3E0FFD9
:1011B70090002012064CE4FFFE7DA07C40900020AA
:1011C700E0F8A3E0F9A3E0FAA3E0FB1202FC500366
:1011D7000213F3E4FFFE7D607C41900020E0F8A35A
:1011E700E0F9A3E0FAA3E0FB1202FC60054003026A
:1011F70013F3900061E0FCA3E0FDA3E0FEA3E0FF92
:10120700900020E0F8A3E0F9A3E0FAA3E0FB1202C4
:10121700FC501990008CE0FEA3E0FF90007BEEF0FD
:10122700A3EFF0121B2B121C4A121C4A900065E018
:10123700F8A3E0F9A3E0FAA3E0FBA3E0FCA3E0FD39
:10124700A3E0FEA3E0FF120061C004C005C006C012
:101257000790008EE0FEA3E0FFC390008DE09FFDA6
:1012670090008CE09EFC12037AA804A905AA06AB9D
:1012770007D007D006D005D00412025FC004C0050E
:10128700C006C007900065E0F8A3E0F9A3E0FAA361
:10129700E0FB900020E0FCA3E0FDA3E0FEA3E0FF5D
:1012A700120061D003D002D001D00012025FC00447
:1012B700C005C006C00790008CE0FCA3E0FDEC125F
:1012C700037AD003D002D001D0001200611203B319
:1012D70090007BEEF0A3EFF00213E4900074E0704F
:1012E700FA7FCD7ECC7D4C7CBD900020E0F8A3E05A
:1012F700F9A3E0FAA3E0FB120065900077E0F8A3FA
:10130700E0F9A3E0FAA3E0FB1202FC40317FCD7EB7
:10131700CC7D4C7C3D900020E0F8A3E0F9A3E0FAF7
:10132700A3E0FB120065900077E0F8A3E0F9A3E0E3
:10133700FAA3E0FB1202FC600250030213F39000D1
:1013470020E0FCA3E0FDA3E0FEA3E0FF900077E030
:10135700F8A3E0F9A3E0FAA3E0FB1202FC60124055
:101367001090007CE0240AF090007BE03400F080CD
:101377002F900020E0FCA3E0FDA3E0FEA3E0FF9098
:101387000077E0F8A3E0F9A3E0FAA3E0FB1202FC80
:10139700500E90007CE024F6F090007BE034FFF0E4
:1013A70090008DE024F6FD90008CE034FFFC900067
:1013B7007BE0FEA3E0FFC39DEC6480F8EE648098B9
:1013C700502A90008FE0240AFD90008EE03400FC44
:1013D700D3EF9DEC6480F8EE648098400F121B2BCE
:0D13E700121CF89000747401F00212E22252
:10182100EF6058900070E0FCA3E0FDA3E0FEA3E0B0
:10183100FF90006112064C900070E0FCA3E0FDA354
:10184100E0FEA3E0FFE4FBFA7980783F12006190AB
:10185100007012064CE4FFFE7DA07C40900070E019
:10186100F8A3E0F9A3E0FAA3E0FB1202FC506490B4
:10187100007012065840A000008058900070E0FCF3
:10188100A3E0FDA3E0FEA3E0FF90006112064C90EF
:101891000070E0FCA3E0FDA3E0FEA3E0FFE4FBFA9F
:1018A1007980783F12006590007012064CE4FFFECB
:1018B1007D607C41900070E0F8A3E0F9A3E0FAA319
:1018C100E0FB1202FC600C400A90007012065841C5
:1018D100600000900070E0FCA3E0FDA3E0FEA3E047
:0418E100FF0211B73A
:03000300021C6577
:101C6500C0E0C083C0829000837401F030B2FDD023
:061C750082D083D0E032B2
:03001300021C7B51
:101C7B00C0E0C083C0829000757401F030B3FDD01A
:061C8B0082D083D0E0329C
:03005300021C91FB
:101C9100C0E0C083C0829000607401F030B6FDD016
:061CA10082D083D0E03286
:03005B00021CA7DD
:101CA700C0E0C083C08290006D7401F030B7FDD0F2
:061CB70082D083D0E03270
:061B2500F0E0FEA3E0FF6A
:101B2B00D3EF94F0EE942640047E267FF0C3EF941F
:101B3B0020EE940050047E007F20EF24F0FDEE3465
:101B4B00D8FCC3E49FFFE49EC2AF900090F0A3EFDC
:0F1B5B00F0AE04AF0590006EEEF0A3EFF0D2AF46
:011B6A002258
:03000B00021B6B6A
:101B6B00C0E0C083C082C0D075D000C004C00530B7
:101B7B00B50590006E8003900090E0FCA3E0FDECB7
:101B8B00F58C8D8AD005D004D0D0D082D083D0E014
:011B9B003217
:10005E0002041FE86480F8E933E83360110460F0AD
:10006E00ED33EC337009E8FCE9FDEAFEEBFF220408
:10007E0060DED3EB9FEA9EE99DE8C2E78CF0C2F703
:10008E0095F0400CE8CCF8E9CDF9EACEFAEBCFFBCF
:10009E001203EA85D0F05804700320D5B3E804703B
:1000AE00075002B2D502042992D5EC0460F7E4CCD5
:1000BE00C0E0C398F8603B94186008400DD0E0FB98
:1000CE00020401E4FBFAC9FC8028E830E406E4C926
:1000DE00FBE4CAFCE830E305E4C9CACBFCE85407EC
:1000EE006010F8C3E913F9EA13FAEB13FBEC13FCF7
:1000FE00D8F130F52FC3E49CFCEF9BFFEE9AFEED9A
:10010E0099FDD0E0FBEF4E4D4C701222DB03020442
:10011E0026EC2CFCEF33FFEE33FEED33FDED30E736
:10012E00EB020401EF2BFFEE3AFEED39FDD0E0FBC2
:10013E0050130BBB0003020429ED13FDEE13FEEF6B
:08014E0013FFEC13FC02040195
:10015600EC4D6011E8497017ED33EC3304600DE4A3
:10016600FCFFFEFD22E933E8330470F802041F1297
:1001760003EA58046009E4CC248150062850090299
:100186000429284003020426C0E0EB4A7044B980E3
:1001960006D0E0FB020415EF4E701CBD8008EBFF95
:1001A600EAFEE9FD80EBE98DF0A4FEE5F002023FF0
:1001B600E9CDF9EAFEEBFFEF89F0A4FCE5F0CE8984
:1001C600F0A42EFFE435F0CD89F0A42DFEE435F041
:1001D6008067EF4E7005BD80D780C3EF8BF0A4AC6F
:1001E600F0EE8BF0A42CFCE435F0F8EF8AF0A42CAA
:1001F600E5F038FCE433CB8DF0A42CFCE5F03BF8BD
:10020600EE8AF0A42CFCE5F038F8E433CF89F0A4AC
:100216002CFCE5F038CF3400CE89F0A42FFFE5F0B2
:100226003EFEE433C98DF0A42EFEE5F039CD8AF00A
:10023600A42FFFE5F03EFEE43DFD33D0E0FB500782
:100246000BBB000F020429EC2CFCEF33FFEE33FE50
:06025600ED33FD0204017E
:10025C00020429EC5D046005E85904700302041FD4
:10026C001203EA580460F6EC4860F2EC7004FDFEF0
:10027C00FF22C860DB2481C85009C3986002500675
:10028C000204269850CAF582E9294B4A7005AB82C4
:10029C0002041575F0007C1A7880C3EF9BEE9AED82
:1002AC0099400DC3EF9BFFEE9AFEED99FDE842F0ED
:1002BC00DC23ACF0D0E0FFD0E0FED0E0FDAB822040
:1002CC00E7101BEB60BAEC2CFCEF33FFEE33FEEDCA
:1002DC0033FD020401E803F830E705C0F075F000C7
:1002EC00EF2FFFEE33FEED33FD40B830E7C280AAAE
:1002FC0074F8CC6480CCC86480C8F58204604FC3A9
:10030C00EB9FF5F0EA9E42F0E99D42F0E89C45F047
:10031C00603C501DE5825FFFE582D313CB5BCBF4D1
:10032C002B5582FB50280ABA002409B900200880FA
:10033C001DE5825BFBE582D313CF5FCFF4C3132F94
:10034C005582FF50090EBE00050DBD00010CC3EB1C
:10035C009FF5F0EA9E42F0E99D42F0E89C45F06082
:09036C0007CC4820E701B3EC22A4
:1003750075F020800E75F010800575F0087D007E03
:10038500007F003392D530D50312063EEC33401082
:10039500EF33FFEE33FEED33FDEC33FCD5F0ED220C
:0E03A500E5F0247EA2D513CC92E7CDCEFF2248
:1003B300EDD2E7CD33EC3392D524814006E4FFFE42
:1003C300FDFC22FCE4CFCECDCC24E0501174FF80A1
:1003D300EDC3CC13CCCD13CDCE13CECF13CF04703E
:0703E300F030D5DE02063EFA
:100D2600E5082433F582E43400F583E005082290D3
:100D36000030300703900033E475F0011206890293
:100D460005E62000E97F2ED2008018EF540F24908C
:100D5600D43440D4FF30040BEF24BFB41A00500340
:100D66002461FFE50960021509050CE50C70020512
:100D76000B30070E900030E475F001120689EF0281
:100D8600062C021BEA7403D2078003E4C207F508A7
:100D96009000301206A0E4F509F50BF50CE50960A4
:100DA600077F20120D6980F5750AFFC201C200C2D5
:100DB60002C203C205C206C208120D35FF700D300D
:100DC60007057F00120D7AAF0CAE0B22B4255FC269
:100DD600D5C204120D35FF24D0B40A00501A75F09E
:100DE6000A780930D50508B6FF0106C6A426F620FE
:100DF600D5047002D20380D924CFB41A00EF500470
:100E0600C2E5D20402106CD20180C6D20080C0D2E4
:100E16000280BCD2D580BAD20580B47F20120D697B
:100E26002002077401B5090040F1120D26FF120DCC
:100E360069020DA3D208D2068095120D26FB120D6B
:100E460026FA120D26F94A4B7006796A7A117BFF4B
:100E560020022EE509602A7E008E82758300120527
:100E6600FF60060EEE650A70F0C2D5EBC0E0EAC080
:100E7600E0E9C0E0EE1210CDD0E0F9D0E0FAD0E023
:100E8600FB1205E6FF60AAEBC0E0EAC0E0E9C0E0BD
:100E9600120D69D0E02401F9D0E03400FAD0E0FB6D
:100EA600E50A0460DCD50AD98087D20280A2121036
:100EB600AF60F7E50A700104120434A90A600DE573
:100EC6000A600914F50A121157EF60F3EA30E702D7
:100ED600F404C3995079EAF4250A0430E701E404DE
:100EE600F50A800D1210AF60C1EA050A250A120440
:100EF60034EA90005FF030E701E4250A04D50A04DD
:100F0600200501141210CDE4C0E012115790005FC5
:100F1600E0601320E70714F0120D51802204F0D090
:100F2600E014C0E07F00120D51E50A6007120D487B
:100F3600150A800B300503120D48D0E0020DA3D030
:100F4600E00480C41210AF609EE50A0412043490D7
:100F5600005FEAF0E50A200502600104240412108D
:010F6600CDBD
:100F670074FF04C0E0121157120D51E50A20050263
:100F77006003120D48D0E0B50AE87F45120D5B907B
:100F8700005FE07F2B30E7047F2DF404C0E0120DF3
:100F970069D0E075F00A84C0F0120D52D0E0120D4E
:100FA70052020DA3791080027908C206C208800890
:100FB700D2D5790A8004790AC2D5E50A047002F508
:100FC7000AE4FAFDFEFF120D26FC7B08200113122E
:100FD7000D26FD7B1030000A120D26FE120D26FF8E
:100FE7007B20EC3382D592D55013C3E43000069FA3
:100FF700FFE49EFEE42001039DFDE49CFCE4CBF8A6
:10100700C201EC700CCFCECDCCE824F8F870F38099
:1010170017C3EF33FFEE33FEED33FDEC33FCEB3359
:10102700FB994002FB0FD8E9EB300105F8D0E0C48B
:1010370048B201C0E00AEC4D4E4F78207B0070C2E9
:10104700EAB50A0040BCC0E01210CFD0F0D0E020D3
:101057000104C4C0E0C4B201C0F0120D52D0F0D5F3
:10106700F0EB020DA31206A90E40530FAB580E1159
:101077004C0E0D420FAF4F0FB7440FB7490E264323
:101087000FBD550EEA460F4A450EB447118A500E5A
:10109700152D0E192E0E3C2B0E1D230E3A20117303
:1010A7002A0DD54800000E34E50AB4FF03750A0679
:1010B700120D26FC120D26FD120D26FE120D26FF1F
:1010C700900058020471790AA2D52003143005094B
:1010D700B910020404B9080104A2D5200602500180
:1010E700042002689202B509005034C0E07F203026
:1010F70003197F30A20272067205500F121126C221
:1011070002C206C205C2087F30800F300503E9C05E
:10111700E0120D69300503D0E0F9D0E0B509CC3015
:1011270005177F30B9100C120D697F583004077FFF
:10113700788003B90803120D693002057F2D020D6F
:10114700697F202008F87F2B2006F322920280CFA8
:101157007F00B40700500B2458F582E43400F58370
:10116700E0FF22286E756C6C2900D201120D263023
:1011770001F8C201780930D50108F6020DD52D50C6
:10118700434958120D262403B405004001E4901189
:101197008593120D5A743A120D5AD2037509040237
:0211A7000FAB8C
:1003EA00E9D2E7C933E833F892D5EDD2E7CD33EC59
:0703FA0033FC5002B2D522D2
:10040100EC30E7100FBF000C0EBE00080DBD00045C
:100411000BEB6014A2D5EB13FCED92E7FD2274FF08
:10042100FCFDFEFF22E480F8A2D574FF13FC7D8061
:03043100E480EF75
:10043400F920E73624F950037907E4F42402FBE5B4
:1004440082158270021583DBF6E024FB501BE96001
:1004540014E4F0E582158270021583E004F0B40A16
:0D04640008E4F0D9EE7401F00A22C2D5229E
:10047100ED33EC3392D5FA602AB4FF33EDC2E77B5A
:10048100FF60067A047996E4227A04799F20D504E4
:100491007A04799A224E614E002B494E46002D492D
:1004A1004E4600E47A08F0A3DAFC7B00740722C010
:1004B10083C082ECC0E0EDC0E0EEC0E0EFC0E0EA56
:1004C10075F010A4CAABF075F04DA42BFBE435F028
:1004D100FCEA2410FAEB34C5FBEC34D9FCEDC2E79D
:1004E100FF75F056A4F42411C5F0F434C58FF0A4BF
:1004F1002AE5F03BE43CF020E7141205A6D0E0FF2A
:10050100D0E0FED0E0FDD0E0FC12025F8014F404E4
:100511001205A6D0E0FFD0E0FED0E0FDD0E0FC1255
:100521000156D082D083E0FAEDD2E7CD33EC33240B
:1005310082FBE4C3CF33CFCE33CECD33CD33DBF328
:100541007B0775F00A846004F0A31B0AE5F0F0A3B1
:100551008FF0740AA4FFACF08EF0740AA42CFEACE8
:10056100F050010C8DF0740AA42CFDE435F0F0A3D9
:05057100DBDE7407222F
:100576003F8000004120000042C80000447A00008D
:10058600461C400047C35000497424004B1896800F
:100596004CBEBC205A0E1BCA6753C21C749DC5AE06
:1005A600FB60065407601C23231205D4EB54386005
:1005B600091205C01205CF120156ECF8EDF9EEFA54
:1005C600EFCB22EB1205CF80F1543803241C9005A3
:1005D60076FE93FC0EEE93FD0EEE930ECE93FF2267
:03000000021A34AD
:0C1A3400787FE4F6D8FD758121021A7B52
:1005E600BB010689828A83E0225002E722BBFE0213
:0905F600E32289828A83E4932246
:1005FF00BB010CE58229F582E5833AF583E02250B1
:10060F0006E92582F8E622BBFE06E92582F8E222FA
:0D061F00E58229F582E5833AF583E4932214
:10062C00BB010689828A83F0225002F722BBFE01AD
:02063C00F322A7
:0E063E00C3E49FFFE49EFEE49DFDE49CFC22CD
:0C064C00ECF0A3EDF0A3EEF0A3EFF02221
:10065800A8828583F0D083D08212066F12066F12AB
:10066800066F12066FE473E493A3C583C5F0C583D0
:10067800C8C582C8F0A3C583C5F0C583C8C582C8EC
:01068800224F
:10068900F8E0FBA3A3E0F925F0F0E58215827002FA
:070699001583E0FA38F0229E
:0906A000EBF0A3EAF0A3E9F0225B
:1006A900D083D082F8E4937012740193700DA3A3E0
:1006B90093F8740193F5828883E4737402936860F4
:0606C900EFA3A3A380DFF4
:101BEA00EFB40A07740D121BF5740A309811A899FC
:101BFA00B8130CC2983098FDA899C298B811F6305B
:071C0A0099FDC299F5992232
:1006CF00EF4E6012EF60010EEDBB010B89828A8342
:1006DF00F0A3DFFCDEFA2289F05007F709DFFCA94F
:0C06EF00F022BBFEFCF309DFFCA9F022A6
:101A40000213F4E493A3F8E493A34003F68001F2B5
:101A500008DFF48029E493A3F85407240CC8C333A7
:101A6000C4540F4420C8834004F456800146F6DF76
:101A7000E4800B0102040810204080901AC0E47E2C
:101A8000019360BCA3FF543F30E509541FFEE4936B
:101A9000A360010ECF54C025E060A840B8E493A332
:101AA000FAE493A3F8E493A3C8C582C8CAC583CA5D
:101AB000F0A3C8C582C8CAC583CADFE9DEE780BE15
:011B240000C0
:00000001FF
