:101C7600E4F594F593F592F591759607F595F5B219
:101C8600F5B1F5B4F5B3F5CAF5C912207D12160DF6
:101C9600900006E4F0A37450F0E4A3F0A3F07BA058
:101CA600FAFDFCFFFE12189F120006121F84D2AF27
:101CB60090005AE014600C14600E240270F2121C9C
:0D1CC600D380ED121EEE80E8121B8980E332
:081E220041005A0041005B0081
:0D000600D28AD2AAD2B3D288D2A8D2B22216
:03001300021FF3D6
:101FF300C0E0C083C082C0D090005AE004F0D39404
:10200300024002E4F030B3FDD0D0D082D083D0E0E0
:01201300329A
:03000300021FAA2F
:101FAA00C0E0C083C082C0D075D000C00790005B7B
:101FBA00E0FFC374019FF030B2FDD007D0D0D082C9
:051FCA00D083D0E032DD
:101FCF005247425F523A20252D3364005247425FF9
:101FDF00473A20252D3364005247425F423A20256D
:041FEF002D3364002A
:101CD300900006E4F0A37450F0E4A3F0A3F07BA01B
:101CE300FAFDFCFFFE12189F12179E900051E07040
:101CF3000C900052E07006900053E06025E49000E1
:101D03004FF0900050F0900051F078007C007D017E
:101D13007B017A007944FE7F0312060D12205312D1
:091D230020A790005AE060C022E4
:10179E007E007F147D007B017A007900120707908E
:1017AE00001774FFF0A3741FF0A374CFF0900044E1
:1017BE00E0FF90001AE4F0A3EFF07B017A007900CD
:1017CE00120E567B017A00790090001BE4F0A37490
:1017DE001FF0E4A3F0A3F0A37410F0E4A3F0FDFC5B
:1017EE00FFFE121AFF7E007F147D007B017A0079C6
:1017FE000012070790001774FFF0A3741FF0A37474
:10180E00DBF0900045E0FF90001AE4F0A3EFF07BD0
:10181E00017A007900120E567B017A007900900051
:10182E001BE4F0A3741FF0E4A3F0A3F0A37410F074
:10183E00E4A3F07D14FCFFFE121AFF7E007F147DE0
:10184E00007B017A00790012070790001774FFF0F1
:10185E00A3741FF0A374E7F0900046E0FF90001A07
:10186E00E4F0A3EFF07B017A007900120E567B01B3
:10187E007A00790090001BE4F0A3741FF0E4A3F04B
:10188E00A3F0A37410F0E4A3F07D28FCFFFE021A6F
:01189E00FF4A
:082096007F0A7E57DEFEDFFC2D
:01209E00221F
:0320A7000220967E
:041F2900A2E692009A
:101F2D00300016D2C40000000000000000000000C8
:101F3D00000000000000C2C422D2C400000000C294
:101F4D00C40000000000000000000000000000229E
:10194B00ED339200121F2DED121F29A2E59200120A
:10195B001F2DA2E49200121F2DA2E39200121F2D45
:10196B00A2E29200121F2DA2E19200121F2D1392E0
:10197B0000121F2DEF339200121F2DEF121F29A201
:10198B00E59200121F2DA2E49200121F2DA2E392EA
:10199B0000121F2DA2E29200121F2DA2E192001243
:1019AB001F2D139200121F2DEB339200121F2DEBE4
:1019BB00121F29A2E59200121F2DA2E49200121F02
:1019CB002DA2E39200121F2DA2E29200121F2DA254
:0C19DB00E19200121F2D139200021F2D3C
:0E205300900000E0FFA3E0FDA3E0FB02194BAC
:0D207D0043B410E4FBFDFF12194B0220A735
:0E206100467265673A20252D356420485A00E6
:101EEE00900006E4F0A37450F0E4A3F0A3F07BA0FE
:101EFE00FAFDFCFFFE12189F121D2C90004FE060A1
:101F0E0005E4F0121C0990005AE0640160EA75BA0B
:0B1F1E0080E4F5F690FF14F0F5BA2205
:101D2C007E007F147D007B017A00790012070790FA
:101D3C00001774FFF0A37420F0A37461F0900047B7
:101D4C00E0FFA3E090001ACFF0A3EFF07B017A0044
:101D5C007900120E567B017A00790090001BE4F09A
:101D6C00A3741FF0E4A3F0A3F0A37410F0E4A3F0A9
:071D7C00FDFCFFFE021AFF4F
:101C090075F10175BA8090FF02740FF0900047E0FA
:101C1900FEA3E0FBAA06E4F9F87F607EE37D16FCEB
:101C2900121E68EE5407FE90FF00EEF0A3EFF0904D
:101C39000047E0FEA3E0FBAA06E4F9F87F607EE333
:101C49007D16FC121E68EE5407FEE4FDFC7B02FAC9
:101C5900F9F8121E6890FF10EEF0A3EFF0A3E4F07C
:0D1C6900A3F0A37480F0E4F5BA75F6012233
:0C208A004F43433A20252D3364252500E8
:101B890075F10175BA8090FF02E4F090FF007403CB
:101B9900F0A374E8F090FF18E4F0A3F0A3F0A3F029
:101BA90090FF20F0A3F0A3F0A3F090FF1C7480F045
:101BB90090FF24F0E4F5BA75F601900006F0A374DD
:101BC90050F0E4A3F0A3F07BA0FAFDFCFFFE12188D
:101BD9009F121D83900050E0600DE4F0900049E0F1
:101BE900FEA3E0FF1219E790005AE0640260E27573
:101BF900BA80E4F5F690FF1CF090FF24F0F5BA22C4
:101D83007E007F147D007B017A00790012070790A3
:101D9300001774FFF0A37420F0A3748AF090004935
:101DA300E0FFA3E090001ACFF0A3EFF07B017A00ED
:101DB3007900120E567B017A00790090001BE4F043
:101DC300A3741FF0E4A3F0A3F0A37410F0E4A3F052
:071DD300FDFCFFFE021AFFF8
:1019E700900000EEF0A3EFF075BA80E4F5F69000F2
:1019F7005BE06039900000E0FCA3E0FDE41201D950
:101A0700E4FBFA79C87842120137E4FBFA797A786D
:101A17004412002E12021290FF18EEF0A3EFF0A36B
:101A2700E4F0A3F090FF20F0A3F0A3803890FF1814
:101A3700E4F0A3F0A3F0A3F0900000E0FCA3E0FD26
:101A4700E41201D9E4FBFA79C87842120137E4FBC2
:101A5700FA797A784412002E12021290FF20EEF0E3
:0C1A6700A3EFF0A3E4F0A3F075F6012259
:1008010000000000000000000000000000000000E7
:10081100000000080808080808080000181800006F
:1008210000486C24120000000000000000000000DD
:100831000000002424247F1212127F1212120000E1
:100841000000081C2A2A0A0C1828282A2A1C080831
:1008510000000022251515152A5854545422000071
:100861000000000C1212120A76252911916E000067
:100871000006060403000000000000000000000064
:100881000040201010080808080808101020400037
:1008910000020408081010101010100808040200CB
:1008A1000000000008086B1C1C6B08080000000019
:1008B10000000000080808087F0808080800000078
:1008C1000000000000000000000000000606040314
:1008D1000000000000000000FE0000000000000019
:1008E10000000000000000000000000006060000FB
:1008F100000080404020201010080804040202007B
:1009010000000018244242424242424224180000A0
:10091100000000080E08080808080808083E000042
:100921000000003C4242422020100804427E0000A8
:100931000000003C4242201820404042221C00009E
:10094100000000203028242422227E20207800006C
:100951000000007E0202021A26404042221C0000D2
:10096100000000382402021A2642424224180000E4
:100971000000007E22221010080808080808000064
:100981000000003C4242422418244242423C000002
:10099100000000182442424264584040241C0000D8
:1009A10000000000000018180000000018180000E6
:1009B100000000000000000800000000000808041A
:1009C100000000402010080402040810204000002C
:1009D1000000000000007F0000007F000000000018
:1009E100000000020408102040201008040200004A
:1009F1000000003C42424640201010001818000040
:100A01000000001C225A555555552D42221C00004C
:100A11000000000808181414243C224242E7000098
:100A21000000001F2222221E22424242221F0000F9
:100A31000000007C4242010101010142221C000030
:100A41000000001F2242424242424242221F000055
:100A51000000003F4212121E12120242423F0000E9
:100A61000000003F4212121E121202020207000091
:100A71000000003C2222010101712122221C000000
:100A8100000000E7424242427E42424242E7000009
:100A91000000003E0808080808080808083E000091
:100AA1000000007C10101010101010101010110F09
:100AB1000000007722120A0E0A1212222277000089
:100AC100000000070202020202020202427F00004D
:100AD10000000077363636362A2A2A2A2A6B000089
:100AE100000000E346464A4A525252626247000001
:100AF1000000001C2241414141414141221C0000B2
:100B01000000003F424242423E0202020207000050
:100B11000000001C2241414141414D53321C600003
:100B21000000003F4242423E1212222242C7000010
:100B31000000007C4242020418204042423E000074
:100B41000000007F4908080808080808081C000080
:100B5100000000E74242424242424242423C00001F
:100B6100000000E74242222424141418080800005F
:100B71000000006B4949494955553622222200009F
:100B8100000000E7422424181818242442E700003A
:100B9100000000772222141408080808081C00002D
:100BA1000000007E2120101008040442423F000092
:100BB10000780808080808080808080808087800E4
:100BC1000000020204040808081010202020404000
:100BD100001E1010101010101010101010101E0018
:100BE1000038440000000000000000000000000088
:100BF100000000000000000000000000000000FFF5
:100C010000060800000000000000000000000000D5
:100C1100000000000000003C4278444242FC000019
:100C2100000000030202021A26424242261A000074
:100C310000000000000000384402020244380000B5
:100C410000000060404040784442424264D80000C5
:100C5100000000000000003C427E0202423C000015
:100C6100000000F08808087E08080808083E000017
:100C7100000000000000007C22221C023C42423C99
:100C8100000000030202023A4642424242E70000EB
:100C91000000000C0C00000E08080808083E0000C7
:100CA1000000003030000038202020202020221EAB
:100CB1000000000302020272120A161222770000DB
:100CC1000000000E0808080808080808083E00008F
:100CD100000000000000007F9292929292B7000003
:100CE100000000000000003B4642424242E7000093
:100CF100000000000000003C42424242423C000031
:100D0100000000000000001B26424242221E020792
:100D1100000000000000007844424242447840E074
:100D210000000000000000774C040404041F0000D0
:100D3100000000000000007C42023C40423E0000F6
:100D4100000000000008083E0808080808300000FC
:100D510000000000000000634242424262DC0000E9
:100D610000000000000000E74224241408080000ED
:100D710000000000000000EB494955552222000007
:100D8100000000000000007624181818246E0000EE
:100D910000000000000000E742242414180808079E
:100DA100000000000000007E22100808447E0000C0
:100DB10000C0202020202010202020202020C00042
:100DC1001010101010101010101010101010101022
:100DD100000608080808081008080808080806009E
:100DE1000C32C20000000000000000000000000002
:10189F00900000EEF0A3EFF0A3ECF0A3EDF0A3EABD
:0418AF00F0A3EBF0C7
:1018B300C006C00724FFFBEA34FFFAA3E0FEA3E05F
:1018C30024FFFFEE34FF900042F0A3EFF0D007D0E7
:1018D30006121DDA900002E0FFA3E090000ACFF0A9
:1018E300A3EFF0900006E0FEA3E0FFC390000BE03F
:1018F3009F90000AE09E504F900000E0FFA3E0900D
:10190300000CCFF0A3EFF0900004E0FEA3E0FFC3D0
:1019130090000DE09F90000CE09E501B900008E0AB
:10192300FEA3E0FF12001D90000DE004F070D890BC
:10193300000CE004F080D090000BE004F070A49061
:07194300000AE004F0809CA3
:01194A00227A
:101EAC00900036EEF0A3EFF090003AEAF0A3EBF0DE
:101EBC00900038ECF0A3EDF0900036E0FAA3E0FBD4
:101ECC00FFAE02C007A3E0FFA3E0900042CFF0A357
:101EDC00EFF0D007121DDA90003AE0FEA3E0FF020B
:021EEC00001DD7
:10127400900023ECF0A3EDF0A3EBF0900021EEF04E
:03128400A3EFF0E5
:10128700E490002FF0900034EEF0A3EFF090002AE6
:10129700E0F9C31390002DF0E0FF131313541FFD63
:1012A7007C00EF54077E0060047F0180027F00EF1F
:1012B7002DFFEE3CFEE9FD7C0012068B900032EE1E
:1012C700F0A3EFF0900025E024E0F0900023E0FC8D
:1012D700A3E0FD90002DE0FF7E00900021E0FAA33F
:1012E700E02FFFEE3ACF24FFFBEF34FFFAE9FFA32D
:1012F700E0F8A3E02FFFEE38CF24FFCF34FF9000B4
:1013070042F0A3EFF0900021E0FEA3E0FF121DDA08
:10131700E4900030F0A3F0900032E0FEA3E0FF90ED
:101327000030E0FCA3E0FDC39FEC9E400302145095
:10133700900025E075F010A42401F582E5F034084B
:10134700F583E5822DF582E5833CF583E4939000F0
:101357002CF0E490002EF090002EE0FFC39408409C
:101367000302143F90002BE07045FE04A807088095
:1013770005C333CE33CED8F9FF90002CE0FDEF5DE7
:1013870060059000268003900028E0FEA3E0FF128E
:10139700001D90002FE004F090002DE0FF90002F3B
:1013A700E08FF084E5F06003021436F002143F90FA
:1013B700002EE0FF7E007401A807088005C333CE26
:1013C70033CED8F9FF90002CE0FDEF5D6019900057
:1013D70021E0FEA3E0FFA3E0FCA3E0FD900026E0F0
:1013E700FAA3E0FB121EAC900022E004F070069016
:1013F7000021E004F0900034E0FEA3E0FFC390007A
:1014070022E09FFD900021E09EFC90002DE07A00F5
:10141700B5051CEAB50418900021EEF0A3EFF09093
:101427000024E004F07011900023E004F08009909C
:10143700002EE004F002135E900031E004F0700625
:09144700900030E004F002131ED5
:011450002279
:101AFF00900014EEF0A3EFF0A3ECF0A3EDF0A3EB46
:101B0F00F0A3EAF0A3E9F0900018E0FBA3E0FAA33A
:101B1F00E0F9120633FB6061900016E0FCA3E0FDD4
:101B2F0090001BE0FFA3E0900026CFF0A3EFF09012
:101B3F00001DE0FFA3E0900028CFF0A3EFF090008E
:101B4F001FE090002AF0900020E090002BF0900012
:101B5F0014E0FEA3E0FF12127490001FE0C313FF06
:101B6F00900015E02FF0900014E03400F090001971
:0A1B7F00E475F00112069D808E222D
:10201400C2B4E4FEC2B5EF30E704D2B68002C2B661
:0D202400D2B5EF25E0FF0EEEB408E9D2B40E
:01203100228C
:0F20320012209F7F051220417F3C1220417F3CEE
:0320410002201466
:07001600241AFFE03400FE94
:0E001D00AD07AC06ECFF122014AF0502201454
:08209F00C2B7122014D2B722CF
:101DDA0090003CEEF0A3EFF0A3ECF0A3EDF07F2A25
:101DEA0012209F90003DE02401FF90003C12001950
:101DFA00EB2401FFE43AFE12001D7F2B12209F9074
:101E0A00003FE090003E120016900043E09000422E
:081E1A001200167F2C02209F2C
:10160D00C2C1122044D2C1122044C2C21220447F52
:10161D001112209F12206F7FB11220327FB2122043
:10162D00327FB31220321220357FB412209F7F03F8
:10163D001220417FC012209F7FAB1220417F0B12E1
:10164D0020417F041220417FC112209F7FC51220AF
:10165D00417FC212209F7F0D122041E4FF122041D5
:10166D007FC312209F7F8D1220417F6A1220417F00
:10167D00C412209F7F8D1220417FEE1220417FC525
:10168D0012209F7F0F1220417FE012209F7F0712B3
:10169D0020417F0E1220417F081220417F0712202A
:1016AD00417F101220417F071220417F02122041FD
:1016BD007F071220417F091220417F0F1220417FA9
:1016CD00251220417F36122041E4FF1220417F0870
:1016DD001220417F041220417F101220417FE11220
:1016ED00209F7F0A1220417F0D1220417F0812207A
:1016FD00417F071220417F0F1220417F07122041A9
:10170D007F021220417F071220417F091220417F65
:10171D000F1220417F251220417F35122041E4FF19
:10172D001220417F091220417F041220417F1012A7
:10173D0020417FFC12209F7F801220417F3A122092
:10174D009F7F051220417F3612209F7F7812204106
:10175D007F2112209F7F2912209F7F2A12209FE434
:10176D00FF1220417F1A122041E4FF1220417F69B0
:10177D001220417F2B12209FE4FF1220417F011286
:10178D002041E4FF1220417FA01220417F2C022036
:01179D009FAC
:0E20440000007F0D7E2D7DD6DDFEDEFCDFFA76
:01205200226B
:0D206F00007F0F7E9D7D35DDFEDEFCDFFA7B
:01207C002241
:101E2A0041004E00420056000042004700004200B6
:101E3A0054000041004F004200490000420058008F
:101E4A00004100500043004400000043004B0000E2
:0D1E5A0000410051004100520041005300C2
:101F8400E4F59275911F43BA8090FEA8743FF090D7
:101F9400FEAD7406F053BA7FD2ADD2AF75DE0F75C5
:061FA400BC8043BC40229A
:03002B000214516B
:10145100C0E0C0F0C083C082C0D075D000C000C061
:1014610001C002C003C004C005C006C00753BCDFF1
:10147100AFBDEF900056F0A3E4F0AFBE900056E090
:10148100F0A3E04FF0900056E0C4F854F0C868F0C3
:10149100A3E0C4540F48F090004EE0F97050900062
:1014A10047E0FEA3E0FF900054EEF0FAA3EFF0FB5B
:1014B100900057E02401FF900056E03400FEEF78E1
:1014C10003CEC313CE13D8F9FF7C007D3212068BF5
:1014D100EF2432FFE43EFE900047F0A3EFF06B7083
:1014E10002EE6A70030215D790004F0215D4E96429
:1014F10001704C900049E0FFA3E0900058CFF0A3A9
:10150100EFF0900057E02401FD900056E03400FC1C
:10151100E41201D97BCF7A3779227842120137124E
:101521000212900049EEF0A3EFF0900058E06E70C7
:1015310003A3E06F70030215D79000500215D490F9
:10154100004EE0FDB4022E900044E090004BF0FC10
:10155100900057E02401FF900056E03400C4F85495
:10156100F0C8EFC4540F48FF900044F0EC6F606680
:10157100900051805EEDB4032E900045E090004C48
:10158100F0FD900057E02401FF900056E03400C4C4
:10159100F854F0C8EFC4540F48FF900045F0ED6FC8
:1015A1006034900052802C900046E090004DF0FD98
:1015B100900057E02401FF900056E03400C4F85435
:1015C100F0C8EFC4540F48FF900046F0ED6F60067D
:1015D1009000537401F090004EE004F0D394044065
:1015E10002E4F0E5BC54F04440FF90004EE04FF5BA
:1015F100BCD007D006D005D004D003D002D001D092
:0C16010000D0D0D082D083D0F0D0E032F6
:10002E00EC4D6011E8497017ED33EC3304600DE4CC
:10003E00FCFFFEFD22E933E8330470F802027E1263
:10004E00024958046009E4CC248150062850090264
:10005E000288284003020285C0E0EB4A7044B98052
:10006E0006D0E0FB020274EF4E701CBD8008EBFF61
:10007E00EAFEE9FD80EBE98DF0A4FEE5F002011742
:10008E00E9CDF9EAFEEBFFEF89F0A4FCE5F0CE89AD
:10009E00F0A42EFFE435F0CD89F0A42DFEE435F06A
:1000AE008067EF4E7005BD80D780C3EF8BF0A4AC98
:1000BE00F0EE8BF0A42CFCE435F0F8EF8AF0A42CD3
:1000CE00E5F038FCE433CB8DF0A42CFCE5F03BF8E6
:1000DE00EE8AF0A42CFCE5F038F8E433CF89F0A4D6
:1000EE002CFCE5F038CF3400CE89F0A42FFFE5F0DC
:1000FE003EFEE433C98DF0A42EFEE5F039CD8AF034
:10010E00A42FFFE5F03EFEE43DFD33D0E0FB5007AB
:10011E000BBB000F020288EC2CFCEF33FFEE33FE1C
:06012E00ED33FD0202604A
:10013400020288EC5D046005E85904700302027E43
:10014400120249580460F6EC4860F2EC7004FDFEBB
:10015400FF22C860DB2481C85009C398600250069E
:100164000202859850CAF582E9294B4A7005AB8290
:1001740002027475F0007C1A7880C3EF9BEE9AED4E
:1001840099400DC3EF9BFFEE9AFEED99FDE842F016
:10019400DC23ACF0D0E0FFD0E0FED0E0FDAB822069
:1001A400E7101BEB60BAEC2CFCEF33FFEE33FEEDF3
:1001B40033FD020260E803F830E705C0F075F00093
:1001C400EF2FFFEE33FEED33FD40B830E7C280AAD7
:1001D40075F020800E75F010800575F0087D007EA6
:1001E400007F003392D530D5031206B3EC334010B0
:1001F400EF33FFEE33FEED33FDEC33FCD5F0ED22AF
:0E020400E5F0247EA2D513CC92E7CDCEFF22EA
:10021200EDD2E7CD33EC3392D524814006E4FFFEE4
:10022200FDFC22FCE4CFCECDCC24E0501174FF8043
:10023200EDC3CC13CCCD13CDCE13CECF13CF0470E0
:07024200F030D5DE0206B327
:100DF100E5082417F582E43400F583E00508229024
:100E01000014300703900017E475F0011206C102C7
:100E110006332000E97F2ED2008018EF540F249072
:100E2100D43440D4FF30040BEF24BFB41A00500374
:100E31002461FFE50960021509050CE50C70020546
:100E41000B30070E900014E475F0011206C1EF0299
:100E51000679021F5D7403D2078003E4C207F50817
:100E61009000141206D8E4F509F50BF50CE50960BC
:100E7100077F20120E3480F5750AFFC201C200C23D
:100E810002C203C205C206C208120E00FF700D3075
:100E910007057F00120E45AF0CAE0B22B4255FC2D1
:100EA100D5C204120E00FF24D0B40A00501A75F006
:100EB1000A780930D50508B6FF0106C6A426F62032
:100EC100D5047002D20380D924CFB41A00EF5004A4
:100ED100C2E5D204021137D20180C6D20080C0D24D
:100EE1000280BCD2D580BAD20580B47F20120E34E4
:100EF1002002077401B5090040F1120DF1FF120E35
:100F010034020E6ED208D2068095120DF1FB120D3D
:100F1100F1FA120DF1F94A4B700679357A127BFF1D
:100F210020022EE509602A7E008E8275830012065A
:100F31004C60060EEE650A70F0C2D5EBC0E0EAC067
:100F4100E0E9C0E0EE121198D0E0F9D0E0FAD0E08B
:100F5100FB120633FF60AAEBC0E0EAC0E0E9C0E0A3
:100F6100120E34D0E02401F9D0E03400FAD0E0FBD5
:100F7100E50A0460DCD50AD98087D20280A2121169
:100F81007A60F7E50A700104120293A90A600DE57F
:100F91000A600914F50A121222EF60F3EA30E7023F
:100FA100F404C3995079EAF4250A0430E701E40412
:100FB100F50A800D12117A60C1EA050A250A1202AA
:100FC10093EA900043F030E701E4250A04D50A04CE
:100FD10020050114121198E4C0E01212229000437E
:100FE100E0601320E70714F0120E1C802204F0D0F9
:100FF100E014C0E07F00120E1CE50A6007120E1318
:10100100150A800B300503120E13D0E0020E6ED0CC
:10101100E00480C412117A609EE50A0412029390E2
:101021000043EAF0E50A20050260010424041211DC
:011031009826
:1010320074FF04C0E0121222120E1CE50A200502FF
:101042006003120E13D0E0B50AE87F45120E269017
:101052000043E07F2B30E7047F2DF404C0E0120E42
:1010620034D0E075F00A84C0F0120E1DD0E0120EEA
:101072001D020E6E791080027908C206C20880082D
:10108200D2D5790A8004790AC2D5E50A047002F53C
:101092000AE4FAFDFEFF120DF1FC7B082001131297
:1010A2000DF1FD7B1030000A120DF1FE120DF1FF61
:1010B2007B20EC3382D592D55013C3E43000069FD7
:1010C200FFE49EFEE42001039DFDE49CFCE4CBF8DA
:1010D200C201EC700CCFCECDCCE824F8F870F380CE
:1010E20017C3EF33FFEE33FEED33FDEC33FCEB338E
:1010F200FB994002FB0FD8E9EB300105F8D0E0C4C0
:1011020048B201C0E00AEC4D4E4F78207B0070C21D
:10111200EAB50A0040BCC0E012119AD0F0D0E0203B
:101122000104C4C0E0C4B201C0F0120E1DD0F0D55B
:10113200F0EB020E6E1206E10F0B531076580EDC26
:101142004C0ED842107A4F1082441082490EF1435D
:101152001088550FB5461015450F7F471255500E92
:10116200E02D0EE42E0F072B0EE8230F0520123E72
:101172002A0EA04800000EFFE50AB4FF03750A0616
:10118200120DF1FC120DF1FD120DF1FE120DF1FF27
:1011920090003C0202D0790AA2D52003143005093E
:1011A200B910020404B9080104A2D52006025001B4
:1011B200042002689202B509005034C0E07F20305A
:1011C20003197F30A20272067205500F1211F1C28A
:1011D20002C206C205C2087F30800F300503E9C093
:1011E200E0120E34300503D0E0F9D0E0B509CC307E
:1011F20005177F30B9100C120E347F583004077F68
:10120200788003B90803120E343002057F2D020ED6
:10121200347F202008F87F2B2006F322920280CF11
:101222007F00B40700500B243CF582E43400F583C0
:10123200E0FF22286E756C6C2900D201120DF1308C
:1012420001F8C201780930D50108F6020EA02D502E
:10125200434958120DF12403B405004001E49012F1
:101262005093120E25743A120E25D2037509040208
:021272001076F4
:10024900E9D2E7C933E833F892D5EDD2E7CD33ECFB
:0702590033FC5002B2D52274
:10026000EC30E7100FBF000C0EBE00080DBD0004FF
:100270000BEB6014A2D5EB13FCED92E7FD2274FFAB
:10028000FCFDFEFF22E480F8A2D574FF13FC7D8004
:03029000E480EF18
:10029300F920E73624F950037907E4F42402FBE557
:1002A30082158270021583DBF6E024FB501BE960A4
:1002B30014E4F0E582158270021583E004F0B40AB9
:0D02C30008E4F0D9EE7401F00A22C2D52241
:1002D000ED33EC3392D5FA602AB4FF33EDC2E77BFD
:1002E000FF60067A0279F5E4227A0279FE20D504CD
:1002F0007A0279F9224E614E002B494E46002D4973
:100300004E4600E47A08F0A3DAFC7B00740722C0B2
:1003100083C082ECC0E0EDC0E0EEC0E0EFC0E0EAF8
:1003200075F010A4CAABF075F04DA42BFBE435F0CA
:10033000FCEA2410FAEB34C5FBEC34D9FCEDC2E73F
:10034000FF75F056A4F42411C5F0F434C58FF0A461
:100350002AE5F03BE43CF020E7141204FDD0E0FF76
:10036000D0E0FED0E0FDD0E0FC1201378014F404B0
:100370001204FDD0E0FFD0E0FED0E0FDD0E0FC12A2
:10038000002ED082D083E0FAEDD2E7CD33EC3324D7
:1003900082FBE4C3CF33CFCE33CECD33CD33DBF3CB
:1003A0007B0775F00A846004F0A31B0AE5F0F0A354
:1003B0008FF0740AA4FFACF08EF0740AA42CFEAC8B
:1003C000F050010C8DF0740AA42CFDE435F0F0A37C
:0503D000DBDE740722D2
:1003D50002027EE86480F8E933E83360110460F0D6
:1003E500ED33EC337009E8FCE9FDEAFEEBFF22048E
:1003F50060DED3EB9FEA9EE99DE8C2E78CF0C2F789
:1004050095F0400CE8CCF8E9CDF9EACEFAEBCFFB54
:1004150012024985D0F05804700320D5B3E8047062
:10042500075002B2D502028892D5EC0460F7E4CCFD
:10043500C0E0C398F8603B94186008400DD0E0FB1D
:10044500020260E4FBFAC9FC8028E830E406E4C94E
:10045500FBE4CAFCE830E305E4C9CACBFCE8540771
:100465006010F8C3E913F9EA13FAEB13FBEC13FC7C
:10047500D8F130F52FC3E49CFCEF9BFFEE9AFEED1F
:1004850099FDD0E0FBEF4E4D4C701222DB030202CA
:1004950085EC2CFCEF33FFEE33FEED33FDED30E75D
:1004A500EB020260EF2BFFEE3AFEED39FDD0E0FBEB
:1004B50050130BBB0003020288ED13FDEE13FEEF94
:0804C50013FFEC13FC020260BE
:1004CD003F8000004120000042C80000447A000037
:1004DD00461C400047C35000497424004B189680B9
:1004ED004CBEBC205A0E1BCA6753C21C749DC5AEB0
:1004FD00FB60065407601C232312052BEB54386058
:10050D000912051712052612002EECF8EDF9EEFA78
:10051D00EFCB22EB12052680F1543803241C9004F6
:10052D00CDFE93FC0EEE93FD0EEE930ECE93FF22B9
:03000000021A736E
:0C1A7300787FE4F6D8FD758121021ABAD4
:10053D00E709F608DFFA8046E709F208DFFA803EA0
:10054D0088828C83E709F0A3DFFA8032E309F6088D
:10055D00DFFA8078E309F208DFFA807088828C83F5
:10056D00E309F0A3DFFA806489828A83E0A3F608A9
:10057D00DFFA805889828A83E0A3F208DFFA804C83
:10058D0080D280FA80C680D4806980F2803380105A
:10059D0080A680EA809A80A880DA80E280CA8033C3
:1005AD0089828A83ECFAE493A3C8C582C8CCC5833B
:1005BD00CCF0A3C8C582C8CCC583CCDFE9DEE7800B
:1005CD000D89828A83E493A3F608DFF9ECFAA9F08A
:1005DD00EDFB2289828A83ECFAE0A3C8C582C8CCE0
:1005ED00C583CCF0A3C8C582C8CCC583CCDFEADEF9
:1005FD00E880DB89828A83E493A3F208DFF980CC5B
:10060D0088F0EF60010E4E60C388F0ED2402B40453
:10061D000050B9F582EB2402B4040050AF232345FA
:06062D00822390058D738D
:10063300BB010689828A83E0225002E722BBFE02C5
:09064300E32289828A83E49322F8
:10064C00BB010CE58229F582E5833AF583E0225063
:10065C0006E92582F8E622BBFE06E92582F8E222AD
:0D066C00E58229F582E5833AF583E49322C7
:10067900BB010689828A83F0225002F722BBFE0160
:02068900F3225A
:10068B00EF8DF0A4A8F0CF8CF0A428CE8DF0A42E83
:02069B00FE223D
:10069D00C5F0F8A3E028F0C5F0F8E58215827002E8
:0606AD001583E038F02285
:101E6800C2D5E830E70FB2D5E4C39BFBE49AFAE4A5
:101E780099F9E498F8EC30E717B2D5121E9E1207CC
:101E88006FE4C39BFBE49AFAE499F9E498F88003B9
:101E980012076F30D50DE4C39FFFE49EFEE49DFD5D
:041EA800E49CFC2298
:0E06B300C3E49FFFE49EFEE49DFDE49CFC2258
:1006C100F8E0FBA3A3E0F925F0F0E58215827002C2
:0706D1001583E0FA38F02266
:0906D800EBF0A3EAF0A3E9F02223
:1006E100D083D082F8E4937012740193700DA3A3A8
:1006F10093F8740193F5828883E4737402936860BC
:06070100EFA3A3A380DFBB
:101F5D00EFB40A07740D121F68740A309811A8990E
:101F6D00B8130CC2983098FDA899C298B811F630E4
:071F7D0099FDC299F59922BC
:10070700EF4E6012EF60010EEDBB010B89828A8309
:10071700F0A3DFFCDEFA2289F05007F709DFFCA916
:0C072700F022BBFEFCF309DFFCA9F0226D
:101A7F00021C76E493A3F8E493A34003F68001F2EB
:101A8F0008DFF48029E493A3F85407240CC8C33368
:101A9F00C4540F4420C8834004F456800146F6DF37
:101AAF00E4800B0102040810204080901E22E47E87
:101ABF00019360BCA3FF543F30E509541FFEE4932C
:101ACF00A360010ECF54C025E060A840B8E493A3F3
:101ADF00FAE493A3F8E493A3C8C582C8CAC583CA1E
:101AEF00F0A3C8C582C8CAC583CADFE9DEE780BED6
:011E6700007A
:1007330075F008758200EF2FFFEE33FECD33CDCC7D
:1007430033CCC58233C5829BED9AEC99E582984000
:100753000CF582EE9BFEED9AFDEC99FC0FD5F0D6DD
:10076300E4CEFBE4CDFAE4CCF9A88222B800C1B907
:100773000059BA002DEC8BF084CFCECDFCE5F0CB45
:10078300F97818EF2FFFEE33FEED33FDEC33FCEB7E
:1007930033FB10D703994004EB99FB0FD8E5E4F939
:1007A300FA227818EF2FFFEE33FEED33FDEC33FC26
:1007B300C933C910D7059BE99A4007EC9BFCE99A1A
:1007C300F90FD8E0E4C9FAE4CCFB2275F010EF2F5F
:1007D300FFEE33FEED33FDCC33CCC833C810D7075F
:1007E3009BEC9AE899400AED9BFDEC9AFCE899F89A
:0E07F3000FD5F0DAE4CDFBE4CCFAE4C8F9222D
:00000001FF
