:020000040800F2
:10000000B00400204501000829120008F70D00087F
:10001000A9100008730B0008CB1F000800000000A7
:10002000000000000000000000000000751400083F
:10003000770B000800000000DF120008C11500085F
:100040005F0100085F0100085F0100085F01000810
:100050005F0100085F0100085F0100085F01000800
:100060005F0100085F0100085F0100085F010008F0
:100070005F0100085F0100085F0100085F010008E0
:100080005F0100085F0100085F0100085F010008D0
:100090005F0100085F0100085F0100085F010008C0
:1000A0005F010008651800085F0100085F01000893
:1000B000451900085F0100085D1900085F0100088C
:1000C0005F0100085F0100085F0100085F01000890
:1000D0005F010008B91D00085F0100085F0100080A
:1000E0005F0100085F0100085F0100085F01000870
:1000F0005F0100085F0100085F0100085F01000860
:100100005F0100085F0100085F0100085F0100084F
:100110005F0100085F0100085F0100085F0100083F
:100120005F0100085F0100085F0100085F0100082F
:10013000DFF80CD000F0BAFC0048004791460008F8
:10014000B00400200648804706480047FEE7FEE767
:10015000FEE7FEE7FEE7FEE7FEE7FEE7FEE7FEE777
:10016000C5150008310100082DE9F0410024061BE7
:10017000254671F1000605DA01240027D0EB0700BF
:1001800067EB0101161E73F1000605DA0027D2EBBA
:100190000702012567EB030300F0DCFA86460E46F2
:1001A00017469C46AC4204D00025D0EB050E65EB0B
:1001B000010624B10020D2EB000760EB030C70466F
:1001C00031463A466346BDE8F081D2B201E000F81C
:1001D000012B491EFBD270470022F6E710B51346EB
:1001E0000A4604461946FFF7F0FF204610BD30B519
:1001F00004460020034600E05B1C934203D2E05C0F
:10020000CD5C401BF8D030BDF0B480EA0102D40FC1
:100210004200B2EB410F02D20246084611464A00A4
:1002200042D0C30DDDB2C1F3C752AD1A202D35DA6D
:10023000C1F3160141F4000204B15242C5F1200697
:1002400002FA06F12A411044B3EBD05F23D0C4B1C7
:10025000012DA0EBC35009DCF0BC4FF0004202EAD4
:10026000C352DBB200F5000000F0DFBA400000F13D
:10027000807000EBC350A0F1807040EAD17049005B
:1002800009E0490841EAC071A0EBC35000F5000045
:10029000400800EBC350F0BC00F0BEBA614201223E
:1002A00002EB4101001BF6E7F0BC704781F0004112
:1002B000AAE780F00040A7E780EA010210B502F04B
:1002C0000043400022D04A001FD0010E01EB126112
:1002D000C0F35600C2F3560240F4000042F400029C
:1002E000A0FB022000047F39140400D0401C50EA17
:1002F000124001D44000491EC2B20C0604EBD010DB
:10030000401C4008802A02D003E0002010BD20F0ED
:100310000100002900DA0020184310BD30B480EA43
:10032000010202F0004530F0004221F0004013D0FD
:1003300090B1C30DD40DC2F31601C0F31600E41A38
:1003400041F4000140F400027D34914201D3641C69
:1003500000E04900002C02DA30BC002070474FF466
:1003600000000023914201D3891A034340084FEA59
:100370004101F7D151B1914202D14FF0004105E066
:1003800002D24FF0010101E06FF0010103EBC45014
:10039000284430BC00F040BA2DE9FE4F804681EA87
:1003A0000300C00F0C46009021F0004123F00045EF
:1003B000B8EB0200A94105D24046214690461C46B2
:1003C0000B46024623F00040104347D0270DC7F3E9
:1003D0000A00C3F30A510290401A019040286BDAD8
:1003E000C3F3130040F4801B0098924620B1002311
:1003F000D2EB030A63EB0B0B01985946C0F14002A4
:10040000504600F0D8F906460D4650465946019A26
:1004100000F0F0F910EB08006141002487EA115266
:1004200084EAE7731A4340D0009A62B3019A012A22
:100430004FEA075215DC001B61EB02014FF000424E
:1004400002EA0752CDE90042001C41F58011324614
:100450002B4600F027FA03B0BDE8F08F4046214656
:10046000F9E7001B61EB0201001C41F58013001845
:100470005B412018A2F5001747EB030140EAD57055
:10048000B6196D4111E06D084FEA360645EAC075B0
:100490004FEA0752001B61EB0201001C41F580117D
:1004A00049084FEA30000019514132462B4603B04B
:1004B000BDE8F04F00F0E7B90098012240000023AA
:1004C000D0EB020263EBE073009821464FEAE07440
:1004D000B8EB000061EB0401E9E783F000435BE760
:1004E00081F0004158E72DE9FE4F81EA030404F052
:1004F000004421F0004100944FF0000B23F0004332
:1005000050EA01045ED052EA03045BD0C3F30A54FC
:10051000C1F30A552C44A4F2F3340194A0FB025415
:10052000C1F3130141F48011C3F3130343F48013A7
:1005300001FB024400FB034E840A970A44EA8154FB
:1005400047EA8357A4FB076802958D0A05FB0785D8
:100550004FEA932C04FB0C542705029D4FEA0658E2
:1005600047EA1637B5EB08056EEB070C870E920EBF
:1005700047EA811742EA8312A7FB0201B6EB0B019F
:1005800064EB00042B0D43EA0C335E1844EB1C5063
:10059000DA465146E7FB0201C5F313044FEA0B3379
:1005A00043EA14534FEA0432019C43EA0603A4F1E0
:1005B0000C040294009CCDE900B400F073F903B080
:1005C000BDE8F08F00200146F9E7C10F80EAE07036
:1005D0000844CA079623002100F027B99623002279
:1005E000114600F022B90EB5C10F80EAE070084450
:1005F000CA07002140F233438DE80E000A460B463D
:1006000000F050F903B000BD00F0004220F00040BF
:10061000C10DC0F3160040F400007F2901DA00206C
:100620007047962903DCC1F19601C84001E0963974
:100630008840002AF4D04042704720F00040C10DAD
:10064000C0F3160040F400007F2901DA0020704753
:10065000962903DCC1F19601C8407047963988405D
:10066000704770B5C1F30A5201F000450024C1F390
:10067000130140F2FF3341F480119A4201DA002065
:1006800070BD40F233439A42A2F2334203DC52423D
:1006900000F0A0F800E090402C43F1D0404270BD43
:1006A00000F0004230F000400AD0C10D01F5607149
:1006B000C0F3160042EA0151C208400711437047D7
:1006C00000200146704701F0004330B421F00041A2
:1006D00050EA010206D00A0DA2F56072C1F31301BF
:1006E000002A02DC30BC00207047440F44EAC104F9
:1006F000C100E01830BC00EBC25000F08DB8000023
:10070000002801DBC0F10040002901DBC1F10041FC
:1007100081427047002801DBC0F10040002901DB65
:10072000C1F100418842704730B50B4601460020B8
:100730002022012409E021FA02F59D4205D303FAA3
:1007400002F5491B04FA02F52844151EA2F1010224
:10075000F1DC30BD2DE9F05F0546002092469B4656
:1007600088460646814640241BE0284641464746C7
:10077000224600F02FF853465A46C01A914110D332
:1007800011461846224600F016F82D1A67EB0108AC
:100790004F4622460120002100F00DF817EB00091A
:1007A0004E41201EA4F10104DFDC484631462A46B2
:1007B0004346BDE8F09F202A04DB203A00FA02F10C
:1007C000002070479140C2F1200320FA03F319433F
:1007D00090407047202A04DB203A21FA02F00021E1
:1007E000704721FA02F3D040C2F120029140084341
:1007F00019467047202A06DBCB17203A41FA02F04F
:1008000043EAE07306E041FA02F3D040C2F120026D
:1008100091400843194670470029A8BF7047401C03
:10082000490008BF20F00100704710B4B0FA80FC06
:1008300000FA0CF050EA010404BF10BC704749B143
:10084000CCF1200421FA04F411FA0CF118BF0121B3
:1008500021430843A3EB0C01CB1D4FEA00614FEA93
:10086000102042BF002010BC704700EBC350104462
:100870000029A4BF10BC7047401C490008BF20F0ED
:10088000010010BC704710B5141E73F1000408DAA3
:10089000401C41F1000192185B411A4301D120F044
:1008A000010010BD2DE9F04D92469B4611B1B1FA01
:1008B00081F202E0B0FA80F220329046FFF77BFF2F
:1008C00004460F4640EA0A0041EA0B0153465A46E5
:1008D000084313D0114653EA010019D0C8F1400271
:1008E0005046FFF777FF05460E46504659464246AA
:1008F000FFF761FF084305D0012004E02046394698
:10090000BDE8F08D0020054346EAE0762C433743EE
:100910000A986305E40AA0EB08000022FD0A44EAF5
:1009200047540A3002D500200146E9E701051019B5
:100930006941DDE9084500196941BDE8F04DA2E7CC
:100940002DE9F04D81EA030404F0004B21F000454D
:1009500014464FF0000A23F0004150EA050220D06F
:1009600054EA01021DD0C5F30A570246C5F313032A
:10097000C1F31300C1F30A5640F4801543F4801309
:10098000A7EB0608101BD64608F2FD3873EB0500EE
:1009900002D308F1010801E092185B41B8F1000FA1
:1009A00003DA00200146BDE8F08D00204FF48011ED
:1009B000064684460EE0171B73EB050705D3121B92
:1009C00063EB050306434CEA010C49084FEA30008B
:1009D00092185B4150EA0107EDD152EA030012D0B0
:1009E00082EA040083EA0501084305D0101BAB41ED
:1009F00006D20122002306E000224FF0004302E06D
:100A00006FF0010253101AEB06004CEB085110EB8B
:100A10000A0041EB0B01BDE8F04DFFF734BF70B5A4
:100A200021F0004303430CD0C1F30A550024D5EB59
:100A3000040564EB0403D617AD1AB34102DB0020B2
:100A4000014670BD201841EB025170BDC1F30A523E
:100A5000C1F3130140F2FF3341F480119A4202DAEC
:100A600000200146704740F233439A42A2F23342DB
:100A700002DC5242FFF7AEBEFFF79DBE30B5041E4A
:100A800071F1000404DB4FF00044404264EB0101CB
:100A9000141E73F1000405DB1C464FF00043524264
:100AA00063EB0403994208BF904230BD064C074DEA
:100AB00006E0E06840F0010394E80700984710342E
:100AC000AC42F6D3FFF738FB786B0008986B000850
:100AD0002DE9F04D00231A461B1A8A4103DB002042
:100AE0000146BDE8F08DC1F30A52C1F3130141F490
:100AF00080154FF0000BD10702D100186D41521E36
:100B00000027044640F2FF11384601EB620A3E46D8
:100B10008046024600204FF48011FFF75BFEC219A9
:100B20007141BB1846EB0100B4EB030C75EB000CF4
:100B300004D3E41A65EB000517460E46241908F1A4
:100B400001006D4180463428E3DDF91946EB0600CB
:100B5000091BA84103D24FF0FF32134601E00022E7
:100B600013461BEB070046EB0A51BDE8F04DFFF7BB
:100B70008ABE00BFFEE7704700B587B00121084676
:100B800000F0AEFB0121042000F0BAFB0320ADF819
:100B9000000004208DF8030069461E4800F08AF822
:100BA00004A801F0C1F80020ADF810004FF6FF7066
:100BB000ADF814000020ADF81600ADF8120004A93D
:100BC0004FF0804001F05EF800231A4603214FF0F9
:100BD000804000F0EDFE01A800F06AFF0A20ADF8A9
:100BE0000C0001A9400700F00DFF0121880700F06B
:100BF000CDFE01221146900700F063FF00214FF067
:100C0000804001F010F80121880700F0C5FE07B010
:100C100000BD00000008014000B587B0012104209C
:100C200000F05EFB0121082000F06AFBC020ADF857
:100C3000000004208DF8030069461C4800F03AF8D3
:100C400004A801F071F80020ADF810004FF6FF7015
:100C5000ADF814000020ADF81600ADF8120004A99C
:100C6000134801F00FF800231A460321104800F042
:100C70009FFE01A800F01CFF0A20ADF80C0001A99E
:100C80000B4800F0BFFE0121094800F07FFE012261
:100C90001146074800F015FF0021054800F0C3FF8A
:100CA0000121034800F078FE07B000BD000C0140B0
:100CB000000800402DE9F0410246002500260020F2
:100CC00000230024002791F803C00CF00F0591F8D1
:100CD00003C00CF0100CBCF1000F03D091F802C05F
:100CE0004CEA050591F800C0BCF1000F31D0146842
:100CF00000202BE04FF0010C0CFA00F3B1F800C01B
:100D00000CEA03069E4220D183004FF00F0C0CFA30
:100D100003F7BC4305FA03FC4CEA040491F803C052
:100D2000BCF1280F06D14FF0010C0CFA00FCC2F800
:100D300014C00AE091F803C0BCF1480F05D14FF090
:100D4000010C0CFA00FCC2F810C0401C0828D1D3DA
:100D50001460B1F800C0BCF1FF0F34DD546800200E
:100D60002EE000F1080C4FF0010808FA0CF3B1F87E
:100D700000C00CEA03069E4221D183004FF00F0C05
:100D80000CFA03F7BC4305FA03FC4CEA040491F89F
:100D900003C0BCF1280F05D100F1080C08FA0CF8CB
:100DA000C2F8148091F803C0BCF1480F07D100F1DC
:100DB000080C4FF0010808FA0CF8C2F81080401C2B
:100DC0000828CED35460BDE8F08102460020936825
:100DD0000B400BB1012000E00020704702460020CC
:100DE000D3680B400BB1012000E000207047416147
:100DF00070470161704700BFFEE7000030B589B061
:100E000005460C460121022000F06AFA681E80B2F5
:100E1000ADF80800A0B2ADF804000020ADF80A005B
:100E2000ADF8060001A9264800F02CFF0121244856
:100E300000F0ACFD01221146214800F042FE0121E4
:100E4000082000F05DFA0320ADF8100018208DF89E
:100E5000130003208DF8120004A91A48FFF72AFF97
:100E60006020ADF814000120ADF816000020ADF8A8
:100E70001A00ADF81C0005A9114800F02BFE08214E
:100E80000F4800F077FE6020ADF814000120ADF8A7
:100E900016000020ADF81A00ADF81C0005A908489E
:100EA00000F076FE0821064800F0B0FE012104485B
:100EB00000F060FD0121024800F06EFD09B030BD78
:100EC00000040040000C01407FB505460C46602040
:100ED000ADF800000120ADF80200ADF806506946FB
:100EE0000A4800F0F7FD0821084800F043FEADF87D
:100EF00006406946054800F04BFE0821034800F013
:100F000085FE0121014800F035FD7FBD0004004051
:100F100010B503F065FA10BD70B5044603F00EFB82
:100F2000D02003F0D5FA03F049FB204603F0D0FAB5
:100F300003F044FB03F002FBD12003F0C9FA03F0F5
:100F40003DFB002003F094FA054603F017FB28460A
:100F500070BD10B5682403F043FA4FF47A7004F0C2
:100F600021FF00216B2000F01EF84FF47A7004F08E
:100F700019FF18211B2000F016F801211C2000F099
:100F800012F87520FFF7C8FFA04208D107211920E9
:100F900000F009F804211A2000F005F801E0002013
:100FA00010BD0120FCE770B505460C4603F0C6FAFB
:100FB000D02003F08DFA03F001FB284603F088FAF5
:100FC00003F0FCFA204603F083FA03F0F7FA03F08B
:100FD000D5FA70BD2DE9F04106460F4614461D4670
:100FE00003F0ACFA002141EA4601C8B203F070FAFE
:100FF00003F0E4FA20B103F0C1FA0120BDE8F0816A
:10100000384603F065FA03F0D9FA03F097FA0121A4
:1010100001EB4601C8B203F05BFA03F0CFFA0DE032
:10102000012C04D1002003F023FA287003E00120F2
:1010300003F01EFA2870601EC4B26D1C002CEFD1A4
:1010400003F09CFA0020D9E72DE9F04105460E4651
:101050001746984603F072FA002141EA4501C8B2EA
:1010600003F036FA03F0AAFA20B103F087FA012060
:10107000BDE8F081304603F02BFA03F09FFA00241C
:101080000CE018F8040003F023FA03F097FA18B103
:1010900003F074FA0120EBE7601CC4B2BC42F0DB41
:1010A00003F06CFA0020E3E700BFFEE710B54FF451
:1010B00080515048FFF792FE28B94FF400514D4837
:1010C000FFF78CFE60B14FF480514A48FFF786FE6F
:1010D000012810D141034748FFF780FE01280AD1BB
:1010E0004FF480514348FFF784FE4FF400514148CC
:1010F000FFF77DFE2CE04FF480513E48FFF76EFE77
:1011000080B94FF400513B48FFF768FE012809D130
:1011100001033848FFF76DFE4FF400513548FFF7E3
:1011200066FE15E04FF480513248FFF757FE012864
:101130000ED141032F48FFF751FE48B94FF400513B
:101140002C48FFF756FE4FF480512A48FFF74FFE18
:101150004FF480412748FFF741FE28B94FF4004182
:101160002448FFF73BFE60B14FF480412148FFF770
:1011700035FE012810D1C1031E48FFF72FFE0128BC
:101180000AD14FF480411B48FFF733FE4FF4004172
:101190001848FFF72CFE2CE04FF480411548FFF76C
:1011A0001DFE80B94FF400411248FFF717FE0128D9
:1011B00009D181030F48FFF71CFE4FF400410D4891
:1011C000FFF715FE15E04FF480410A48FFF706FED1
:1011D00001280ED1C1030748FFF700FE48B94FF4BC
:1011E00000410448FFF705FE4FF480410148FFF736
:1011F000FEFD10BD000C014008B510208DF8030065
:101200004FF47040ADF8000003208DF802006946ED
:101210000448FFF74FFD4FF470410248FFF7E9FD26
:1012200008BD0000000C0140704710B500F044F804
:1012300010BD000070B5002100230F22C47804B354
:10124000154C246804F4E064C4F5E064210AC1F19B
:101250000403CA40447804FA03F18478144021431B
:1012600009010E4C0678A155047804F01F050124ED
:10127000AC4005786D11AD0005F1E025C5F80041E1
:1012800009E0047804F01F050124AC40044D067801
:10129000761145F8264070BD0CED00E000E400E05A
:1012A00080E100E002490143024A116070470000FA
:1012B0000000FA050CED00E008B54FF4E060FFF720
:1012C000F1FF19208DF8000001208DF801008DF844
:1012D00002008DF803006846FFF7ACFF08BD7047B9
:1012E00029B1064AD2690243044BDA6104E0034A99
:1012F000D2698243014BDA6170470000001002405E
:1013000029B1064A92690243044B9A6104E0034AF8
:1013100092698243014B9A617047000000100240BD
:1013200030B500210022002400232D4D6D6805F00A
:101330000C0121B1042905D0082923D105E0294D4C
:10134000056022E0274D05601FE0254D6D6805F41E
:101350007012234D6D6805F48034022505EB92422E
:101360001CB9214D554305600BE01D4D6D6805F41A
:1013700000351DB11C4D5543056002E0194D554324
:10138000056002E0174D056000BF00BF144D6D6899
:1013900005F0F0010909154D6B5C0568DD404560FD
:1013A0000F4D6D6805F4E061090A104D6B5C4568EE
:1013B000DD4085600A4D6D6805F46051C90A0B4D2A
:1013C0006B5C4568DD40C560054D6D6805F44041C6
:1013D000890B074D6B5CC568B5FBF3F5056130BD46
:1013E0000010024000127A0000093D0001000020B8
:1013F000110000200146022902D0042910D108E082
:101400004FF08042928C10B200224FF080439A84B9
:1014100008E0054A128810B20022034B1A8001E04E
:10142000002000BF00BF70472408004008B54820D6
:101430008DF803004FF40060ADF8000003208DF834
:10144000020069460148FFF735FC08BD000C014069
:1014500008B510208DF80300C001ADF8000003208E
:101460008DF8020069460248FFF724FC08BD000021
:10147000000C01407047000070B504460D4600BFE7
:101480004FF480510948FFF7B4FC4FF4005107486E
:10149000FFF7ADFC00BF4FF480410448FFF7A9FC03
:1014A0004FF400410148FFF7A2FC70BD000C014061
:1014B00010B500F001F810BD0CB5002001900090AF
:1014C0003348006840F480303149086000BF30483C
:1014D000006800F4003000900198401C01900098D2
:1014E00018B90198B0F5A06FF1D12948006800F44F
:1014F000003010B10120009001E000200090009821
:10150000012843D12348006840F0100021490860B9
:101510000846006820F0030008600846006840F0B4
:10152000020008601A484068194948600846406847
:1015300048600846406840F480604860084640685B
:1015400020F47C1048600846406840F4E810486089
:101550000846006840F08070086000BF0C480068D2
:1015600000F000700028F9D00948406820F003001E
:10157000074948600846406840F00200486000BFE4
:101580000348406800F00C000828F9D10CBD0000A9
:101590000010024000200240042808D14FF0E02152
:1015A000096941F004014FF0E022116107E04FF0BA
:1015B000E021096921F004014FF0E0221161704738
:1015C0007047000010B51348006840F00100114951
:1015D000086008464068104908400E4948600846BF
:1015E00000680E4908400B4908600846006820F46E
:1015F000802008600846406820F4FE0048604FF4F0
:101600001F008860FFF754FF4FF000600449086036
:1016100010BD0000001002400000FFF8FFFFF6FEC2
:1016200008ED00E0F0B50C46154600220021068CBE
:101630004FF6FE773E400684028B018C4FF60C7607
:1016400032407E1C06EA03162E433243104EB0424F
:101650000ED0104EB0420BD0B0F1804F08D00E4EDD
:10166000B04205D00D4EB04202D00D4EB04206D170
:101670004FF6FD76314044F00106314305E04FF668
:10168000F576314044F00106314302830184F0BD18
:10169000002C0140003401400004004000080040DC
:1016A000000C0040F0B50C46154600220021002633
:1016B000078C4FF6EF7C07EA0C070784028B018C3E
:1016C0004FF6FF7707EA041640F6FF473A404FF619
:1016D000FF7707EA03373A434FF6FF7707EA052714
:1016E0003A43114FB8420ED0104FB8420BD0B0F170
:1016F000804F08D00E4FB84205D00E4FB84202D0EE
:101700000D4FB84206D14FF6DF77394046F010074B
:10171000394305E04FF65F77394044F0100739430D
:1017200002830184F0BD0000002C01400034014020
:101730000004004000080040000C0040F0B50C46DA
:101740001546002200210026078C4FF6FF6C07EAA1
:101750000C070784828B018C4FF6FF7707EA04267B
:101760004FF60C773A404FF6FF7707EA03172F43FF
:101770003A43114FB8420ED0104FB8420BD0B0F1DF
:10178000804F08D00E4FB84205D00E4FB84202D05D
:101790000D4FB84206D14FF6FF57394046F48077D7
:1017A000394305E04FF2FF57394044F4807739431D
:1017B00082830184F0BD0000002C01400034014010
:1017C0000004004000080040000C0040F0B50C464A
:1017D0001546002200210026078C4EF6FF7C07EA02
:1017E0000C070784828B018C4FF6FF7707EA0436DB
:1017F00040F6FF473A404FF6FF7707EA05273A439E
:101800004FF6FF7707EA03373A43114FB8420ED03D
:10181000104FB8420BD0B0F1804F08D00E4FB842F5
:1018200005D00E4FB84202D00D4FB84206D14DF64A
:10183000FF77394046F48057394305E047F6FF57B4
:10184000394044F48057394382830184F0BD00005D
:10185000002C01400034014000040040000800401A
:10186000000C004070B501212A4800F0C2F80028A1
:101870004ED00121274800F08CF827480068FEF779
:10188000A4FE044625480068FEF79FFE0546224652
:1018900023480168284600F09BFB2249086000208D
:1018A00000F074FA204908601E4800681F4908606B
:1018B000084601681EA000F0BDFB1C4800681A49DC
:1018C0000968401A1D4908601848006816490968E7
:1018D00008441B4908601948FFF7CEFD1748006807
:1018E00040F6AC51884202DD0846144908601448AD
:1018F000006840F6AC51884202DD08461049086095
:101900000F4A128891B20D4A128890B2FFF7DCFAA2
:1019100070BD0000002C0140600000207800002015
:1019200050000020740000207C000020880000206F
:1019300050574D5F4F75743D256400008C000020AA
:10194000900000204FF08040008A4FF08040008AD5
:1019500020F001004FF08041088270470448008861
:101960000348008820F0010001490880704700000A
:101970001008004021B1028842F08002028004E099
:1019800002884FF67F731A4002807047CA43028272
:101990007047CA430282704721B1028842F00102B7
:1019A000028004E002884FF6FE731A4002807047FE
:1019B000F0B50C4615461E46002100220023018981
:1019C000028B038C4FF6F877394021434FF6FC47E2
:1019D0003A4040F201173A434FF6DD773B404FF66D
:1019E000FF7707EA06172F433B43018102830384F5
:1019F000F0BD02460020138A0B400BB1012000E02D
:101A00000020704770B505460C46244885420ED02C
:101A1000234885420BD0B5F1804F08D0214885423C
:101A200005D02148854202D02048854200D100E0FF
:101A300000BF208850B92389A28861882846FFF713
:101A4000F1FDE188284600F0F0F825E02088042820
:101A50000AD12389A28861882846FFF723FEE188FE
:101A6000284600F0EBF817E0208808280AD12389DF
:101A7000A28861882846FFF761FEE188284600F0C9
:101A8000EAF809E02389A28861882846FFF79EFECC
:101A9000E188284600F0E8F870BD0000002C014005
:101AA000003401400004004000080040000C0040E9
:101AB000002101804180012181800021C1800181BC
:101AC00070471AB183890B43838102E083898B437A
:101AD0008381704770B5002400220023058C4FF6E7
:101AE000FF6635400584028C8388848B4FF68F75A2
:101AF0002C404FF6FC752C400D882C434FF6FF55BB
:101B00002A400D894FF6FF7606EA05252A434D88BF
:101B100006EA05252A43154DA84202D0144DA842D5
:101B20001DD14FF2FF752A404D894FF6FF7606EA28
:101B300005252A434FF6FF352A408D8806EA0525FC
:101B40002A434EF6FF752B404DF6FF752B408D89CD
:101B500006EA05152B43CD8906EA05152B4383803C
:101B60008483CD888587028470BD0000002C0140ED
:101B7000003401400A460021018C4FF6FF53194002
:101B80004FF6FF7303EA02231943018470470000F4
:101B900070B5002200230024058C4EF6FF763540F8
:101BA0000584038C8488828B48F6FF752A404FF6A3
:101BB000FF452A400D884FF6FF7606EA05252A43A1
:101BC0004DF6FF752B400D8906EA05352B434D88F0
:101BD00006EA05352B430B4DA84202D00A4DA84218
:101BE00008D14BF6FF752C408D894FF6FF7606EA3B
:101BF00085152C4384808283CD88A0F840500384CF
:101C000070BD0000002C0140003401400A46002154
:101C1000018C4DF6FF7319404FF6FF7303EA023350
:101C200019430184704781847047028B4FF6F37328
:101C30001A400283028B0A4302837047028B4FF2E1
:101C4000FF331A400283028B4FF6FF7303EA01232E
:101C50001A4302837047828B4FF6F3731A408283D4
:101C6000828B0A4382837047828B4FF2FF331A4084
:101C70008283828B4FF6FF7303EA01231A43828328
:101C800070470000002202881D4B98420ED01D4B69
:101C900098420BD0B0F1804F08D01B4B984205D032
:101CA0001A4B984202D01A4B984204D14FF68F73C8
:101CB0001A404B881A43174B984207D0164B98424C
:101CC00004D04FF6FF431A40CB881A4302808B881A
:101CD00083850B8803850A4B98420BD0094B9842A9
:101CE00008D00E4B984205D00D4B984202D00D4BB8
:101CF000984201D10B7A038601238382704700004A
:101D0000002C014000340140000400400008004065
:101D1000000C004000100040001400400040014052
:101D200000440140004801404FF6FF7181800021CE
:101D30000180C18041800172704700003EB50546B8
:101D40000C460121C802FFF7DBFAA8B2ADF8040087
:101D5000A0B2ADF800000020ADF80600ADF802001A
:101D60008DF8080069460848FFF78CFF01210648F6
:101D7000FFF70CFE012211460348FFF7A2FE0121E6
:101D80000148FFF709FE3EBD002C01402DE9F04758
:101D900004462046FEF727FC07464FF03332054B3A
:101DA000FEF7A1FB0546FEF75CFC81464846BDE810
:101DB000F08700003333E3BF10B540F225510D48E2
:101DC00000F03EF8012810D10A4800F0F5F80A4961
:101DD000087008460178074800F0F3F800BF40217A
:101DE000044800F020F80128F9D14021014800F012
:101DF00005F810BD003801401500002001F4007204
:101E0000B2F5007F00D100BFCA430280704721B104
:101E1000828942F40052828104E082894DF6FF7388
:101E20001A408281704702460020B1F5007F00D140
:101E300000BF13880B400BB1012000E00020704769
:101E400070B50246002400230025002040F66A16E3
:101E5000B14200D100BFC1F3421501F01F030126BA
:101E600006FA03F3012D02D19689334006E0022DD4
:101E700002D1168A334001E0968A33400C120126C3
:101E800006FA04F41688344013B10CB1012000E0C6
:101E9000002070BDF0B50346002400260025002078
:101EA00040F66A17B94200D100BF1846C1F3421488
:101EB00001F01F06012707FA06F5012C01D10C30AD
:101EC00004E0022C01D1103000E014301AB1076890
:101ED0002F43076002E00768AF430760F0BD0000D2
:101EE0002DE9F04786B005460E460024A24600BF05
:101EF000A1460027B08900B100BF2F462C8A4CF6BE
:101F0000FF700440F08804432C82AC894EF6F31035
:101F10000440B08831890843718908430443AC8187
:101F2000AC8A4FF6FF400440B0890443AC8201A85C
:101F3000FFF7F6F91F48874202D1DDF810A001E053
:101F4000DDF80CA0A88900F4004040B10AEBCA00FB
:101F500000EB0A1031684900B0FBF1F807E00AEB2A
:101F6000CA0000EB0A1031688900B0FBF1F8642068
:101F7000B8FBF0F004012009642101FB1089A88955
:101F800000F4004040B1322000EBC900B0FBF1F09A
:101F900000F00700044308E0322000EB0910642140
:101FA000B0FBF1F000F00F0004432C8106B0BDE857
:101FB000F08700000038014001468888C0F308001F
:101FC0007047C1F308028280704700BFFEE700003F
:101FD0002DE9F74F86B08346924600215046FEF722
:101FE00065F90190FEF75CFB80464FF066320F4BBF
:101FF000FEF779FA06460F4658460799FEF759F953
:1020000081460B49FEF758F98046FEF749FB3246F8
:102010003B46CDE90201FEF7BFF90446FEF721FB7E
:102020000490049809B0BDE8F08F00006666F63FA2
:102030000000B4430FB4054B10B503A9044A02983D
:1020400000F05CF910BC5DF814FB0000493D00088D
:1020500098000020490050EAC12018BF04204A0D12
:1020600018BF40F0010040F2FF72B2EB515F08BFB1
:1020700040F00200012808BF052070472DE9F0411B
:102080004F1E00EBC7010446D1E9000115461E466C
:1020900037F006020DD02A463346FEF724FA7F1E9B
:1020A00004EBC703D3E90023FEF776F937F0060205
:1020B000F1D1022F25D0042F13D0062F18BFBDE871
:1020C000F0812A463346FEF70EFAD4E90A23FEF7DA
:1020D00063F92A463346FEF706FAD4E90823FEF7E9
:1020E0005BF92A463346FEF7FEF9D4E90623FEF7EC
:1020F00053F92A463346FEF7F6F9D4E90423FEF7EE
:102100004BF92A463346FEF7EEF9D4E90223FEF7EF
:1021100043F92A463346FEF7E6F9D4E90023BDE841
:10212000F041FEF739B90122FEF779BCFEF734B968
:102130000022134610461146FEF702BC024A002058
:102140001107FEF76CBC000001FDFFFF02E008C8AC
:10215000121F08C1002AFAD170477047002001E021
:1021600001C1121F002AFBD170470000014908601D
:10217000704700009C0000202DE9FF5F82B0002125
:10218000DDE90430020DDDF840B0034318D044F619
:102190001050A2F2FF3242431514119801281FD0AB
:1021A000A5EB0B00401C5FEA000A4FF000064E4F03
:1021B000DFF83891B046504615D5CAF1000413E057
:1021C000119801244AA3012801D16FEA0B0102985A
:1021D000119AC0E90031C0E9024206B0BDE8F09FA3
:1021E000CBF10000DFE704460021404A491842EBEA
:1021F0000450CDE9001012E0E00707D032463B461C
:1022000040464946FEF76FF98046894632463B46CE
:1022100010461946FEF767F906460F466410002C73
:10222000EAD1DDE90401DDE90023BAF1000F06DAA5
:10223000FEF759F942464B46FEF755F905E0FEF721
:102240007FFB42464B46FEF77BFB04460E460022D0
:10225000284BFEF713FC03D84FF0FF30014607E090
:102260000022254B20463146FEF796F8FEF7EEFB9E
:10227000102409E0002C0ADB0A220023FEF76AFA88
:10228000039B30321A55641E50EA0102F2D1641CDD
:10229000039AC4F111031444119A012A03D00122B4
:1022A00008430DD10AE0084304D000204FF0110B81
:1022B000119072E7A3EB0B056D1E0DE05B4504DD8D
:1022C0004FF0000205F1010504E003DA4FF00002CF
:1022D000A5F10105002AECD002981199C0E902315C
:1022E000C0E9004579E70000000014400000F03F1D
:1022F000300000000000F0430000E03F2DE9FF4FF8
:1023000095B09B468946064600250FE2252877D1E1
:1023100000242746F84A0121059400E0044316F8FA
:10232000013F203B01FA03F01042F7D130782A2810
:1023300011D06FF02F033078A0F13002092A16D89F
:10234000059A44F0020402EB820203EB42021044BD
:10235000761C0590EFE759F8042B0592002A03DA62
:10236000504244F40054059044F00204761C307846
:102370002E2816D116F8010F44F004042A280DD097
:102380006FF02F023078A0F13003092B09D807EB4A
:10239000870302EB4303C718761CF3E759F8047B65
:1023A000761C30786C280FD006DC4C2817D06828B3
:1023B0000DD06A2814D104E0742810D07A280FD1E7
:1023C0000DE044F400140AE044F4801401E044F405
:1023D00040147278824202D104F58014761C761C77
:1023E000307866280BD013DC582877D009DC002819
:1023F00075D04528F6D04628F4D047281AD19DE15B
:1024000018E0632835D0642879D0652812D195E189
:10241000702873D008DC6728F1D069286FD06E2847
:102420000DD06F2806D1B5E073282CD0752875D053
:10243000782874D05A46179990476D1C75E1C4F3FB
:102440000250022809D003280DD0D9F80010042822
:102450000DD00D6009F1040967E1D9F80010EA1701
:10246000C1E90052F6E7D9F800100D80F2E70D70CF
:10247000F0E719F8041B8DF8001000208DF801001A
:10248000EA46012003E059F804AB4FF0FF30610742
:102490004FF0000102D40DE008F101018846B94275
:1024A0000FDA8045F8DB1AF808100029F4D108E0AB
:1024B00008F1010188468142FADB1AF80810002968
:1024C000F6D105985B46A0EB080721463846179AD7
:1024D00000F094FA284400EB080507E04DE029E1FC
:1024E0000DE01AF8010B5A4617999047B8F1010808
:1024F000F7D25B4621463846179A13E142E00A229A
:102500000092C4F302524FF0000A022A08D059F890
:1025100004CB032A4FEAEC710AD00DE029E02AE04F
:1025200009F1070121F00702F2E802C1914609E032
:102530000FFA8CFC4FEAEC71042A03D14FFA8CFCA1
:102540004FEAEC71002907DA0A460021DCF1000CA1
:1025500061EB02012D2202E0220504D52B228DF829
:102560000420012203E0E20701D02022F7E7904691
:1025700059E00A2102E010220DE010214FF0000A7C
:1025800000910BE010224FF0000A44F004040827E9
:10259000009203E008224FF0000A0092C4F30252B6
:1025A000022A05D059F804CB0021032A08D009E0FB
:1025B00009F1070121F00702F2E802C1914605E0A6
:1025C0001FFA8CFC042A01D10CF0FF0C4FF000081C
:1025D000220728D5702806D0009B83F0100353EA09
:1025E0000A0305D00EE040228DF80420012208E005
:1025F0005CEA010206D030228DF804208DF8050037
:1026000002229046009B83F0080353EA0A030AD192
:102610005CEA010201D1620705D530228DF8042061
:102620004FF001087F1E582804D034A003900EA854
:1026300002900DE036A0F9E753466046009AFEF797
:1026400089F884460398825C0298401E02900270CA
:102650005CEA0100F0D1029806A9081A00F1200AEC
:10266000600702D524F4803400E00127574502DDDD
:10267000A7EB0A0000E0002000EB0A01009005989B
:102680004144401A0590E00306D45B462146179A60
:10269000059800F0B3F90544002706E001A85A4662
:1026A000C05D179990476D1C7F1C4745F6DBE00322
:1026B0000CD55B462146179A059800F09FF9054412
:1026C00004E030205A46179990476D1C0099481E27
:1026D00000900029F5DC08E0029802995A4600783B
:1026E000491C0291179990476D1CBAF10001AAF19B
:1026F000010AF1DC65E100000928010030313233C4
:10270000343536373839616263646566000000002D
:102710003031323334353637383941424344454617
:102720000000000000F058F90544761C30780028BD
:102730007FF4ECAD19B02846BDE8F08F620700D4F5
:10274000062709F1070222F0070CFCE80223E14604
:1027500003F000485FEA080C02D00FF2702C0DE085
:102760005FEA045C02D50FF2682C07E05FEAC47CE4
:1027700002D00FF2602C01E0AFF2700C4FF0FF3886
:1027800023F00043CDF850C065280CD006DC452866
:1027900009D046281DD047283DD13DE0662818D0F5
:1027A00067287ED138E00021112F01DB112000E0E5
:1027B000781CCDE9000106A90EA8FFF7DDFCDDE9D4
:1027C0000F010E9A03910021009207F1010A049172
:1027D0004DE04FF000400097CDE9011006A90EA88A
:1027E000FFF7CAFCDDE90F0203920E9B119900224C
:1027F000DDF80CA00093049211B9791C00EB010ADA
:10280000B7EB0A0004D4C0F1FF3007F1010A0490CD
:10281000AAEB0700019044E0012F00DA0127002114
:10282000112F01DD112000E03846CDE9000106A995
:102830000EA8FFF7A1FCDDE90F010E9A039100211C
:1028400004910092BA4621070CD40399514500DA4D
:102850008A46BAF1010F05DD009AAAF10101515C27
:10286000302908D0B84202DA10F1040F06DA01214B
:10287000CDE9011015E0AAF10101E9E7002805DC26
:10288000049901440491AAEB000102E0411C514566
:1028900000DD8A460499401A401C01904FF0004028
:1028A0000290200704D40198504501DBCDF8048044
:1028B00000208DF84F0002980DF14F07B0F1004F46
:1028C00025D02B200E9002984FF0020800280CDA39
:1028D000404202902D200E9007E00A210298FDF759
:1028E00023FF3031029007F8011DB8F10001A8F173
:1028F0000108F2DC02980028EFD1791E0E980870CA
:10290000307800F0200040F0450007F8020D12A8D2
:10291000C01B00F107081498007800B1012000EBFB
:102920000A01019801EBE07105984144401A401EEC
:102930000590E00306D45B462146179A059800F0FF
:102940005DF805441498007818B15A4617999047D5
:102950006D1CE00324D55B462146179A059800F0CC
:102960004DF805441CE00498002807DBDDE903016D
:10297000884203DD0098405C179901E017993020E8
:102980005A469047049805F10105401C04900198AF
:10299000401E019004D12E205A46179990476D1C75
:1029A000BAF10001AAF1010ADDDC05E017F8010B1C
:1029B0005A46179990476D1CB8F10001A8F101081B
:1029C000F4DC5B462146179A0598ABE62D00000023
:1029D0002B000000200000002DE9F04104460025F6
:1029E0001E461746880404D405E039462020B04727
:1029F0006D1C641EF9D52846BDE8F0812DE9F04133
:102A0000044600251E469046C80301D5302700E045
:102A10002027880404D505E041463846B0476D1CA0
:102A2000641EF9D52846BDE8F08100002DE9FE4F6F
:102A300006460F460025684601F098F9002442E05A
:102A400056F8240057F82410A0EB010ABAF1000F41
:102A500001DB514601E0CAF100010846FDF7B5FD72
:102A600083464FF08F41FDF759FC80465DF8240006
:102A70000021FDF745FE16D05DF824104046FDF715
:102A80004DFC82464FF07E51FDF710FC814629F047
:102A9000004A0F48416A5046FDF73CFE12D2012021
:102AA000A04005430EE00A48C1694046FDF728FEF4
:102AB00005D30748016A4046FDF72CFE02D20120EB
:102AC000A0400543641C032CBADB2846BDE8FE8FFA
:102AD000185E00082DE9F04D8D4F21F0004A86B0B8
:102AE00005460C46BA452ADBAAEB070028430AD064
:102AF0008848824501DC1AD1CDB106B02846BDE830
:102B0000F04DFFF710BB844A844B2846FDF7EBFCE1
:102B100007460E46824A834B28462146FDF7E3FCD2
:102B200006B03A463346BDE8F04DFDF735BC01200E
:102B3000FFF71CFB06B0BDE8F04DFFF7F9BA7A4885
:102B4000824542DABAF1795F0BDA2846FFF782FA5A
:102B5000042808BFFFF7F2FA284606B02146BDE870
:102B6000F08D2A460B461046FDF7BDFC8346024613
:102B70006E480E460B4606217844FFF77FFA5A4608
:102B80003346FDF7B0FC804669488A465A463346CC
:102B900004217844FFF772FA5A463346FDF7A3FC46
:102BA00000223B46FDF7F8FB02460B4640465146E5
:102BB000FDF7C6FE2A462346FDF795FC06B02A46D9
:102BC0002346BDE8F04DFDF7E7BB284624F0004161
:102BD00000223D463B46FDF783FC4FF0FF32FDF7F8
:102BE0001EFF0646024653480F460B460621784410
:102BF000FFF744FA32463B46FDF775FCCDE900018C
:102C00004D4832463B4604217844FFF737FA3246B6
:102C10003B46FDF768FC00222B46FDF7BDFB8346D3
:102C200002913046394603F079F8804643480D4614
:102C3000504517DCDDE900015A46029BFDF780FE96
:102C400042462B46FDF74FFC42462B46FDF7A4FBC0
:102C50000122FDF7E4FE304A304BFDF73EFC304ADE
:102C6000304B4CE04FF0000A52460B464046FDF711
:102C700093FBCDE9031052462B4610461946FDF74B
:102C800032FC32463B46FDF72BFCDDE90332FDF713
:102C900057FE06460F46DDE900015A46029BFDF746
:102CA0004FFE83460091012230463946FDF7B7FEBC
:102CB000194A1A4BFDF714FC06460F4601224046FE
:102CC0002946FDF7ACFE5A46009BFDF70CFC324648
:102CD0003B46FDF702FC06460F46012250462946B8
:102CE000FDF79DFE0E4DDFF858802A464346FDF75E
:102CF000F7FB32463B46FDF7F3FB2A464346FDF71A
:102D0000EFFB002CD8BF81F0004106B0BDE8F08D8C
:102D10000000F03F0000F07F075C143326A6913CD2
:102D2000182D4454FB21F93F0000E03FBC3E000059
:102D3000D23E0000463E00005C3E00003333EF3FD1
:102D4000FB21E93F2DE9F84F04460D4621F00040F4
:102D500000917349814211DC7249884201DC06D13D
:102D60002CB120462946BDE8F84FFFF7DCB96E4884
:102D7000002DCCBF6D496E49BDE8F88F6D49814289
:102D800011DD6D498142D8BF4FF0FF366DDD204621
:102D90002946FFF75FF9042808BFFFF7CFF920465F
:102DA0002946BDE8F88F6549654F25F00045814209
:102DB00033DD6449814219DD002632464FF08043FD
:102DC00020462946FDF7E8FA80468A460122204639
:102DD0002946FDF724FE00223B46FDF77EFB4246D6
:102DE0005346FDF7ADFD04460D463EE001260022A8
:102DF000BA463B4620462946FDF7CEFA80460F46A6
:102E00000022534620462946FDF767FB42463B46D3
:102E1000FDF796FD04460D4627E04B4981421BDD38
:102E2000DFF828A102260022534620462946FDF756
:102E30005AFB00223B46FDF7AFFA80460F460022C0
:102E4000534620462946FDF748FB42463B46FDF7E0
:102E500077FD04460D4608E0032622462B46002057
:102E60003B49FDF76DFD04460D4622462B461046B4
:102E70001946FDF738FB8B46824602460B46FDF7A6
:102E800032FB07460246334888460B460621784403
:102E9000FFF7F4F852465B46FDF725FB82462E48C5
:102EA0008B463A46434605217844FFF7E7F83A4611
:102EB0004346FDF718FB02460B46002E5046594686
:102EC0000CDAFDF769FA22462B46FDF70CFB01B040
:102ED00022462B46BDE8F04FFDF702BBFDF75CFA3A
:102EE00022462B46FDF7FFFA1C4A7A4402EBC60342
:102EF000D3E90023FDF7F1FA22462B46FDF7EDFA60
:102F0000174A7A4402EBC603D3E90023FDF7E8FA37
:102F1000009A002AB8BF81F00041BDE8F88F000098
:102F2000000010440000F07F182D4454FB21F93FAD
:102F3000FB21F9BF0000DC3F0000203E0000F33F12
:102F40000000F03F0000E63F008003400000F83F33
:102F50000000F0BF5E3C00001C3C0000BA3B0000DB
:102F6000823B00002DE9F04D9446CCF1000423F0A3
:102F700000464CEA0404524F46EAD4749A46884606
:102F800021F00042BC4206D8454240EA050442EA2C
:102F9000D474BC4204D9BDE8F04D6246FFF7C6B810
:102FA000AAF14055A5F17F6555EA0C040BD0022427
:102FB00004EAAA74434DDFF810E144EAD87452EAF7
:102FC000000B04D00CE0BDE8F04DFFF7BBBE002CB9
:102FD00014BF012CBDE8F08D022C30D0032C32D070
:102FE00056EA0C0B0AD0BE4220D1BA4209D126F0D3
:102FF000804622F080423346114617E000291ADB52
:1030000025E0DFF8C8B0FB44002C04BFDBE9000179
:10301000BDE8F08D012C02BFDBE9000181F0004129
:10302000BDE8F08D022C0AD0032C0CD0BA4212D18C
:10303000B8F1000F0BDA23482549BDE8F08D28468A
:103040002449BDE8F08D28467146BDE8F08D1D4845
:103050002149BDE8F08D921B12153C2AC4BF1948C6
:103060001D490EDCBAF1000FBEBF12F13C0F00206B
:10307000014606DB6246FDF763FC21F00041FFF7E5
:1030800061FE002C08BFBDE8F08D012C04BF81F06B
:103090000041BDE8F08D114A114B022C07D0FDF71D
:1030A0001CFA2A46BDE8F04D0A4BFDF716BAFDF7AB
:1030B00014FA2A46BDE8F04D064BFDF711BA0000A0
:1030C0000000F07F182D4454FB2109C0163B00007E
:1030D000FB21F9BFFB210940FB21F93F075C1433B9
:1030E00026A6A13C0146114A12784A434FF0E0233C
:1030F0005A6100229A611A46126942F001021A616D
:1031000000BF4FF0E022106900F001021AB100F494
:103110008032002AF5D04FF0E022126922F001023D
:103120004FF0E0231A6100229A617047940000205A
:103130002DE9F0410446E07800F0C006E07800F0A8
:103140003F05607800F0010098B1EF102846E917BC
:1031500005EB5171C910A5EBC101491C01F0FF0835
:103160000B48006820B10A4841460268384690473B
:1031700000BF607800F0080030B10548406818B121
:10318000B011034A516888470020BDE8F081000073
:10319000A000002038B5044664B120208DF800005E
:1031A00028208DF8010030208DF8020038208DF89D
:1031B000030004E0A32204216846FDF706F86A46EE
:1031C000042140F69E2002F07BFC02F065F838BD39
:1031D0003EB5044602208DF80000CA208DF801009B
:1031E000E3208DF8020009208DF803006A460421CF
:1031F000682002F065FCA3208DF8000004F0400078
:1032000048B1C0208DF80100C8208DF80200C2200E
:103210008DF8030006E0A3208DF801008DF8020070
:103220008DF8030004F4C07048B1C4208DF8040088
:10323000CC208DF80500C6208DF8060006E0A320FE
:103240008DF804008DF805008DF80600A3208DF898
:1032500007008DF808008DF809006A460A2140F63B
:10326000A72002F02DFC04F0030018B120208DF8F7
:10327000000002E0D8208DF800006A46012140F6E7
:10328000B62002F01DFC04F0200018B1012000F06F
:10329000ADF802E0002000F0A9F804F4C07008B313
:1032A00004F4807060B1B2208DF800008B208DF89E
:1032B0000100B6208DF802009B208DF803000BE082
:1032C000B0208DF8000080208DF80100B4208DF82A
:1032D000020090208DF803006A46042140F6A220E7
:1032E00002F0EEFB04F0010020B3F8208DF800009E
:1032F0006A4601214FF40B6002F0E2FBFA2107203D
:1033000000F02CFC072000F0F3FB012000F013FC80
:10331000642000F0F3FC4FF4FA7000F002FDC821C5
:10332000304800F0A3FB282000F0BCFB0A2000F08E
:10333000CCFB08E0D8208DF800006A4601214FF44C
:103340000B6002F0BDFB04F0020018B1D9208DF82B
:10335000000002E0D8208DF800006A46012140F20A
:103360003D7002F0ADFB04F0040018B1012000F044
:1033700069F802E0002000F065F804F0100018B1D0
:103380000120FFF707FF02E00020FFF703FF44F0F2
:1033900008001549488101F07FFF00201249887319
:1033A00004F0400018B10846807B801D887304F447
:1033B000C07020B10C48807B801D0B49887304F0DD
:1033C000140020B10848807B10300749887304F04E
:1033D000030020B10448807B001D0349887300204E
:1033E0003EBD000009E3CA02A00000203EB504462D
:1033F0006CB10EA1D1E900208968CDE900200291CD
:103400006A4609214FF4976002F05AFB3EBD0AA2BA
:10341000D2E900109268CDE9010200916A460921C3
:103420004FF4976002F04CFBF0E70000B8AAB38DB0
:10343000B4980D355D000000B8AAAAAAB088C3C52B
:10344000C700000038B5044664B1C0208DF8000004
:10345000C2208DF80100C4208DF80200C6208DF82E
:10346000030004E08B2204216846FCF7AEFE6A46A6
:10347000042140F6982002F023FB01F00DFF38BD37
:1034800010B5C8234FF48062024940F6F63001F0CF
:1034900097FD10BD405E00082DE9F04F8DB0074646
:1034A000884615469946DDE9166B002400203080D9
:1034B0006B49887B5A4605A901F04EFE18B1601E83
:1034C0000DB0BDE8F08F6648807A00F01400002847
:1034D00067D09DF8140000069DF8151040EA0140E1
:1034E0009DF8161040EA01209DF817100843286047
:1034F0009DF8180000069DF8191040EA01409DF85B
:103500001A1040EA01209DF81B10084368609DF8DE
:103510001C0000069DF81D1040EA01409DF81E1099
:1035200040EA01209DF81F100843A8609DF8200084
:1035300000069DF8211040EA01409DF8221040EA63
:1035400001209DF823100843E86004F11000C4B284
:10355000286800140190686800140290A86800149C
:103560000390E8680014049001984043029901FB1D
:103570000100039901FB0100049901FB010ABAF162
:10358000706F02DBBAF1885F05DD01F085FE002077
:103590003080401E94E7B6F9000040F4807030801F
:1035A00000BF2F48807A00F0400020B305A9601CBE
:1035B000085C095D40EA012000B2A8F8000005A9F6
:1035C000E01C095C05AAA01C105C41EA002000B2C6
:1035D000A8F8020005A9601D095C201D105C41EAE5
:1035E000002000B2A8F80400A01DC4B2B6F9000083
:1035F00040F0080030801A48408900F4C07008B3D9
:1036000005A9601C085C095D40EA012000B2388011
:1036100005A9E01C095C05AAA01C105C41EA002079
:1036200000B2788005A9601D095C201D105C41EA8C
:10363000002000B2B880A01DC4B2B6F9000040F06E
:10364000700030800648807A00F0030018B105A9A8
:103650000819FFF76DFD484601F044F900202FE7F7
:10366000A000002070B588B0064601A801F0FCFA61
:10367000BDF804000021C90341EA5045C403444891
:10368000007A00F0030056F8200005904048007AC8
:1036900000F0040010B10598404205903C48007AC3
:1036A000C0F3C10056F8200006903948007A00F0B7
:1036B000200010B10698404206903548007AC0F3C9
:1036C000811056F8200007903148008900F480707E
:1036D00010B10798404207900598C117A0FB04233A
:1036E00001FB043100FB0510810041EA9270059056
:1036F0000698C117A0FB042301FB043100FB051051
:10370000810041EA927006900798C117A0FB04233C
:1037100001FB043100FB0510810041EA9270079023
:103720000598000E8DF808000598000C8DF809002A
:103730000598000A8DF80A000598C0B28DF80B00B4
:103740000698000E8DF80C000698000C8DF80D0000
:103750000698000A8DF80E000698C0B28DF80F008A
:103760000798000E8DF810000798000C8DF81100D6
:103770000798000A8DF812000798C0B28DF8130060
:1037800002AA0C214FF4257002F09AF908B070BD1E
:10379000A000002030B585B0044616A207CA02ABCF
:1037A00007C3C82C03DD4FF0FF3005B030BDC82083
:1037B00090FBF4F0401E85B2280A8DF80000E8B2B4
:1037C0008DF801006A46022140F2162002F078F9D5
:1037D00010B14FF0FF30E8E702AA0C2140F6C120FB
:1037E00002F06EF910B14FF0FF30DEE7044884813B
:1037F0000020DAE7FEF2ABC4AAF1DFDFBBAFDFDF08
:10380000A00000201FB504464848007A00F00300DD
:1038100054F8200001904548007A00F0040010B1EF
:103820000198404201904148007AC0F3C10054F829
:10383000200002903D48007A00F0200010B102986C
:10384000404202903948007AC0F3811054F82000B9
:1038500003903648008900F4807010B1039840420C
:1038600003903349019880FB0101800F40EA8100F9
:1038700001902F49029880FB0110820042EA91706A
:1038800002902B49039880FB0110820042EA91705C
:1038900003900198000E8DF800000198000C8DF83F
:1038A00001000198000A8DF802000198C0B28DF85D
:1038B00003006A4604214FF4747002F001F918B154
:1038C0004FF0FF3004B010BD0298000E8DF80000DC
:1038D0000298000C8DF801000298000A8DF8020091
:1038E0000298C0B28DF803006A4604214FF4757047
:1038F00002F0E6F810B14FF0FF30E3E70398000E56
:103900008DF800000398000C8DF801000398000A60
:103910008DF802000398C0B28DF803006A460421B6
:103920004FF4767002F0CCF8CCE70000A000002045
:1039300009E3CA0210B586B0044647A000680390A8
:1039400046A00068029046A00068019045A000686B
:10395000009004F0030003A9085C8DF8140003A88C
:10396000C4F3C101405C8DF8150003A8C4F38111B4
:10397000405C8DF8160004F0030002A9085C8DF885
:10398000100002A8C4F3C101405C8DF8110002A828
:10399000C4F38111405C8DF8120005AA032140F2A6
:1039A000264002F08DF818B14FF0FF3006B010BD80
:1039B00004AA032140F22A4002F082F810B14FF02D
:1039C000FF30F3E7019805900098049004F004009C
:1039D00058B19DF8140040F001008DF814009DF8D6
:1039E000100040F001008DF8100004F0200058B1E4
:1039F0009DF8150040F001008DF815009DF81100AC
:103A000040F001008DF8110004F4807058B19DF869
:103A1000160040F001008DF816009DF8120040F0ED
:103A200001008DF8120005AA03214FF4886002F00E
:103A300047F810B14FF0FF30B8E704AA032140F275
:103A4000314002F03DF810B14FF0FF30AEE70648CC
:103A500004810020AAE700004CCD6C000CC92C00AA
:103A60003656760026466600A0000020F8B50546CA
:103A70000E464FF47A7095FBF0F000FB06F4200E32
:103A80008DF80000200C8DF80100200A8DF802004E
:103A9000E0B28DF803006A4604214FF4AE7002F0E4
:103AA0000FF8F8BD38B50446052094FBF0F084B259
:103AB00020128DF80000E0B28DF801006A46022164
:103AC0004FF4AD7001F0FCFF38BD38B50446052059
:103AD00094FBF0F084B220128DF80000E0B28DF873
:103AE00001006A4602214FF4AC7001F0E9FF38BDD5
:103AF00038B504460020009004F0010020B19DF884
:103B0000000040F03000009004F0020020B19DF869
:103B1000000040F00C00009004F0040020B19DF87B
:103B2000000040F0030000906A4601214FF4A470A9
:103B300001F0C6FF38BD38B50446012C01DA012476
:103B400002E0042C00DD0424601EC0B200906A462E
:103B5000012140F24F1001F0B3FF38BD2DE9FC47C1
:103B600006460F4606F0070010B1B7F5C86F03DD33
:103B70004FF0FF30BDE8FC873846FCF72FFD81464B
:103B80005949FCF7CBFB8046684601F047F89DF8A1
:103B90000000022806D0042816D0082826D01028B5
:103BA00048D135E04FF08D414046FCF785FB81461A
:103BB000FCF743FD84B24D494046FCF77DFB81464E
:103BC000FCF73BFD85B238E04FF08C414046FCF7F6
:103BD00073FB8146FCF731FD84B245494046FCF752
:103BE0006BFB8146FCF729FD85B226E04FF08B4147
:103BF0004046FCF761FB8146FCF71FFD84B23D495E
:103C00004046FCF759FB8146FCF717FD85B214E0EE
:103C10004FF08A414046FCF74FFB8146FCF70DFD13
:103C200084B235494046FCF747FB8146FCF705FD69
:103C300085B202E04FF0FF309CE700BF20128DF804
:103C40000400E0B28DF8050028128DF80600E8B2F5
:103C50008DF8070006F00100A0B101AA02214FF47F
:103C6000EA7001F02DFF10B14FF0FF3082E70DF147
:103C7000060202214FF4927001F022FF10B14FF0C2
:103C8000FF3077E706F00200A0B101AA02214FF44D
:103C9000EC7001F015FF10B14FF0FF306AE70DF145
:103CA000060202214FF4947001F00AFF10B14FF0A8
:103CB000FF305FE706F00400A0B101AA02214FF433
:103CC000EE7001F0FDFE10B14FF0FF3052E70DF144
:103CD000060202214FF4967001F0F2FE10B14FF08F
:103CE000FF3047E7002045E700004843000040461A
:103CF0000000C045000040450000C04438B50446FF
:103D0000052094FBF0F085B228128DF80000E8B28F
:103D10008DF801006A4602214FF4EF7001F0D0FEE9
:103D200038BD38B50446052094FBF0F085B2281262
:103D30008DF80000E8B28DF801006A4602214FF4C8
:103D4000ED7001F0BDFE38BD70B504460D46E1B220
:103D50000548FEF736F900BF80210348FEF763F8F7
:103D60000028F9D0204670BD003801407CB50546DA
:103D700028494968087801AB04220D21FDF72AF98A
:103D800008B107207CBD9DF80700C0F301109DF825
:103D9000041001F0E00140EAE1008DF800009DF818
:103DA0000700C0F381009DF8051001F0E00140EA32
:103DB000E1008DF801009DF8070000F003009DF878
:103DC000061001F0E00140EAE1008DF80200002455
:103DD0001CE01DF8040018B9002045F8240013E089
:103DE0000D4845F8240006E055F824000B49FCF77F
:103DF00063FA45F824001DF80400401EC0B20DF817
:103E000004000028F0D100BF601CC4B2032CE0DB2A
:103E10000020B7E7180000207B14AE3E1D5A843FF7
:103E20002DE9F04F87B005460C46914601208DF8EC
:103E3000100000208DF81100FE4A1268917CFD4AA6
:103E40005268107804AB0222FDF7FEF820B14FF063
:103E5000FF3007B0BDE8F08FC82001F0A3FF0020BD
:103E60008DF81000F34A1268D17BF24A526810783C
:103E700004AB0122FDF7E8F810B14FF0FF30E8E79E
:103E8000EC4A12685179EB4A5268107804AB01226F
:103E9000FDF7DAF810B14FF0FF30DAE7E54A1268C3
:103EA000917CE44A5268107804AB0122FDF7CCF80B
:103EB00010B14FF0FF30CCE7DE4A1268D17DDD4A09
:103EC0005268107804AB0122FDF7BEF810B14FF034
:103ED000FF30BEE7D74A12681179D64A5268107887
:103EE00004AB0122FDF7B0F810B14FF0FF30B0E79E
:103EF0000C208DF81000CF4A12681179CD4A526813
:103F0000107804AB0122FDF79FF810B14FF0FF309D
:103F10009FE70F2001F046FFC648806A407A8DF87F
:103F20001000C44A12689178C24A5268107804ABF3
:103F30000122FDF789F810B14FF0FF3089E7BD4845
:103F4000806A007A8DF81000BA4A12685178B94A2E
:103F50005268107804AB0122FDF776F810B14FF0EB
:103F6000FF3076E7B9F1000F07D0B248806A807A57
:103F700040F0E0008DF8100004E0AE48806A807ADE
:103F80008DF81000AB4A12689179AA4A52681078ED
:103F900004AB0122FDF758F810B14FF0FF3058E79D
:103FA000B9F1000F07D0A348806AC07A40F0E00062
:103FB0008DF8100003E0A048C07A8DF810009D4AEB
:103FC0001268D1799B4A5268107804AB0122FDF740
:103FD0003BF810B14FF0FF303BE7B9F1000F02D0D2
:103FE000C82001F0DFFE40208DF81000914A1268D1
:103FF0001179904A5268107804AB0122FDF724F839
:1040000010B14FF0FF3024E778208DF81000894A76
:1040100012685179874A5268107804AB0122FDF783
:1040200013F810B14FF0FF3013E78349888901F08E
:10403000B9FE00208DF810007E4A126851797D4A41
:104040005268107804AB0122FCF7FEFF10B14FF06C
:10405000FF30FEE6774A1268917A764A5268107805
:1040600004AB0222FCF7B6FF10B14FF0FF30F0E6D0
:104070009DF811009DF8101040EA012B0C209BFBCD
:10408000F0F0C6B20020A86068602860A0606060A0
:104090002060824665E0674A1268D17A654A5268B4
:1040A000107804AB0C22FCF795FF10B14FF0FF30F5
:1040B000CFE69DF811009DF8101040EA012000B2F3
:1040C000ADF808009DF813009DF8121040EA012099
:1040D00000B2ADF80A009DF815009DF8141040EAF2
:1040E000012000B2ADF80C00BDF9081020680844AA
:1040F0002060BDF90A10606808446060BDF90C10CA
:10410000A0680844A0609DF817009DF8161040EACA
:10411000012000B2ADF800009DF819009DF81810BC
:1041200040EA012000B2ADF802009DF81B009DF8A6
:104130001A1040EA012000B2ADF80400BDF90010E9
:10414000286808442860BDF902106868084468605F
:10415000BDF90410A8680844A8600AF1010000F045
:10416000FF0AB24597DB3448D0F800C02868C11771
:10417000090441EA10410704624600233846FBF770
:10418000F3FF32460023CDE90201FBF7EDFF286083
:104190002948D0F800C06868C117090441EA1041F5
:1041A0000704624600233846FBF7DEFF3246002351
:1041B000CDE90201FBF7D8FF68601F48D0F800C0C6
:1041C000A868C117090441EA1041070462460023A8
:1041D0003846FBF7C9FF32460023CDE90201FBF761
:1041E000C3FFA8601448D0F804C02168C8170004B1
:1041F00040EA11480F046246002338464146FBF767
:10420000B3FF32460023CDE90201FBF7ADFF20608A
:104210000948D0F804C06068C117090441EA104198
:104220000704624600233846FBF79EFF3246002310
:1042300004E0000018000020185E0008CDE902012B
:10424000FBF792FF60601148D0F804C0A068C11766
:10425000090441EA10410704624600233846FBF78F
:1042600083FF32460023CDE90201FBF77DFFA0600A
:10427000A068002804DDA068A0F58030A06003E0FD
:10428000A06800F58030A0600020E2E5185E00081C
:104290002DE9FC5F06460F4600253D494968087830
:1042A00001AB03220D21FCF795FE10B10720BDE8FC
:1042B000FC9F9DF8040000F01F008DF804009DF89D
:1042C000050000F01F008DF805009DF8060000F0C5
:1042D0001F008DF80600002456E056F8240057F819
:1042E0002410A0EB010BBBF1000F01DB594601E0EC
:1042F000CBF100010846FCF768F94FF08F410090C0
:10430000FCF70CF8814601A8005D68B321490868F4
:10431000FCF764F9834659461F48FBF7FFFF8046C8
:1043200004E01E494046FBF7C7FF804601A8005D38
:10433000401EC0B201A908550028F2D141464846A6
:10434000FBF7ECFF83464FF07E51FBF7AFFF824651
:104350002AF0004B0F4881695846FCF7DBF912D26E
:104360000120A04005430EE00A4801694846FCF7D9
:10437000C7F905D3074841694846FCF7CBF902D293
:104380000120A0400543641C032CA6DB28468EE7D1
:1043900018000020185E000800B04C4554E3853F2B
:1043A00010B54FF480610D48FCF721FDFDF750F882
:1043B0004FF400610948FCF71AFD0220FEF792FE57
:1043C0004FF480610548FCF714FD0520FEF78AFED6
:1043D0004FF480610148FCF70AFD10BD000C01405C
:1043E00008B501210820FCF78BFF10208DF8030091
:1043F0008001ADF8000003208DF8020069460B48EB
:10440000FCF758FC4FF40060ADF80000694607481F
:10441000FCF750FC4FF480610448FCF7EAFC4FF4D1
:1044200000610248FCF7E5FC08BD0000000C0140FB
:1044300010B54FF480610D48FCF7D9FCFDF708F882
:104440004FF400610948FCF7D4FC0220FEF74AFE55
:104450004FF480610548FCF7CCFC0520FEF742FED6
:104460004FF480610148FCF7C2FC10BD000C014014
:1044700070B5054600260024FCF7D8FF00BF1BE0FE
:104480004FF480611148FCF7B2FC0220FEF72AFECF
:104490004FF480610D48FCF7ACFC6006040E4FF44D
:1044A00000610A48FCF791FC08B1601CC4B201200D
:1044B000FEF718FE701CC6B2082EE1DB15B9FFF737
:1044C000B7FF01E0FFF76CFF204670BD000C014014
:1044D00070B50446FCF7BCFF4FF480611648FCF74A
:1044E00086FC002525E004F08000002805DD4FF45F
:1044F00000611148FCF77DFC04E04FF400610E48B8
:10450000FCF775FC6006040E0220FEF7EBFD4FF48D
:1045100080610948FCF76DFC0220FEF7E3FD4FF4D3
:1045200080610548FCF763FC0220FEF7DBFD681C98
:10453000C5B2082DD7DB70BD000C014010B5FCF7EB
:1045400087FF4FF400610C48FCF753FC4FF4806187
:104550000948FCF74EFC0520FEF7C4FD4FF400614E
:104560000548FCF744FC0620FEF7BCFD4FF48061D3
:104570000148FCF73CFC10BD000C014010B5FCF7F5
:1045800067FF4FF480610C48FCF731FC4FF4006189
:104590000948FCF72CFC4FF480610748FCF729FC24
:1045A0000620FEF79FFD4FF400610348FCF721FC55
:1045B0000620FEF797FD10BD000C014010B5002449
:1045C000FCF734FF4FF400611248FCF712FC0120A5
:1045D000FEF788FD4FF480610E48FCF70AFC0120CD
:1045E000FEF780FD07E0601CC4B2FA2C03DDFFF784
:1045F000C5FF012010BD4FF400610648FCF7E5FB44
:104600000028F0D14FF480610248FCF7F0FB002055
:10461000F0E70000000C014010B50446204600F011
:104620000FF80346E01C00F00BF843EAC00083B229
:10463000A01D00F005F843EA801083B2184610BDB3
:10464000014691F90020002A01DD00201EE091F9C9
:104650000020002A01DA042018E091F90120002A44
:1046600001DD012012E091F90120002A01DA052084
:104670000CE091F90220002A01DD022006E091F908
:104680000220002A01DA062000E00720704700001F
:104690001FB5482001F068FB4FF4164001F050FAB6
:1046A000002140F60F60FCF7A9FBFCF7A5FDFCF725
:1046B000FDFCFCF72DFC06E05EA0FDF7BBFC4FF413
:1046C0007A7001F06FFBFCF744FC0028F4D006E0A0
:1046D0005AA0FDF7AFFC4FF47A7001F063FB00F0D5
:1046E0004DFA0028F4D1FCF747FAFCF795FAFCF7ED
:1046F0009CFD41F61F4140F2DB50FDF71FFB64209B
:1047000001F050FB55A0FDF795FC91E0564A574942
:10471000574800F021F900287DD14320FCF7FCFB2D
:104720005449087008460078000253490860442044
:10473000FCF7F2FB4F4908704F48006809780843BE
:104740004D4908604520FCF7E7FB4A4908700846D8
:1047500000780002494908604620FCF7DDFB454926
:1047600008704648006809780843444908604720B3
:10477000FCF7D2FB3F490870084600780002404928
:1047800008604820FCF7C8FB3A4908703C480068BC
:10479000097808433A4908600220FCF72BFE3949A2
:1047A00008600420FCF726FE37490860334800887B
:1047B00000F4004020B9314800683049086008E042
:1047C0002E480088C043401CC0F30E0040422B49D5
:1047D00008602B48036829480268274801682BA015
:1047E000FDF728FC20480068FBF75AFF04460D46F9
:1047F0001E480068FBF754FF06460F461C48006839
:10480000FBF74EFF804642460B4628A0CDE90067E5
:10481000CDE9024500E008E0FDF70CFC1A4802680B
:104820001848016828A0FDF705FC142001F0BAFA29
:104830006CE700006572726F722021004D50555F69
:10484000363035305F646D705F696E6974206973EE
:10485000206572726F7220210000000072756E6E0A
:10486000696E6720210000005800002054000020DD
:1048700050000020000000205C00002060000020AC
:104880006400002080000020840000206779726F9F
:10489000783D25642C6779726F793D25642C6779A2
:1048A000726F7A3D25640D0A000000007069746320
:1048B000683D25662C726F6C6C3D25662C7961779E
:1048C0003D25660D0A000000456E636F6465725FEA
:1048D0004C3D25642C456E636F6465725F523D25C7
:1048E000640D0A007047000070B50446002624F0ED
:1048F0000104184890F8240008B1002070BD154844
:10490000807A10B94FF0FF30F8E71248057C807AC2
:104910002040104908740846007CA04202D04FF0A5
:10492000FF3600E0002614B90A48007D18B10120C6
:1049300001F0ACF902E0002001F0A8F93CB100F070
:10494000ABFC20B1034805744FF0FF30D6E730468A
:10495000D4E70000180000202DE9F04F99B004467C
:104960000D4616464FF07E574FF000084FF00009F5
:104970004FF0000A12A813A918AB0EAACDE9001037
:1049800014A916A8FEF788FD18B1012019B0BDE8DA
:10499000F08FBDF84C0000F4807000287ED00E9897
:1049A000FBF713FE83464FF09D41FBF7B7FC07462C
:1049B0000F98FBF70AFE83464FF09D41FBF7AEFCD4
:1049C00080461098FBF701FE83464FF09D41FBF7B0
:1049D000A5FC81461198FBF7F8FD83464FF09D41F9
:1049E000FBF79CFC824639464FF08040FBF764FCA5
:1049F00049460590FBF760FC414607904FF0404068
:104A0000FBF75AFC51460590FBF756FC06900799B8
:104A1000FBF7FAFB8346FBF743FECDE90801FEF7FF
:104A200059F84FF06632544BCDE90A01FBF75BFDB4
:104A3000CDE90C01FBF747FE206049464FF080406E
:104A4000FBF73AFC49460290FBF736FC41460490DE
:104A50004FF04040FBF730FC41460290FBF72CFC46
:104A600003900499FBF722FC83464FF07E51FBF73D
:104A7000CBFB0590FBF714FECDE9080139464FF05A
:104A80008040FBF719FC41460390FBF715FC4946B3
:104A900004904FF08040FBF70FFC00E068E05146C7
:104AA0000390FBF709FC83460499FBF7ADFB0590E7
:104AB000FBF7F6FDCDE90601DDE90823FEF752FA22
:104AC0004FF066322C4BCDE90A01FBF70CFDCDE926
:104AD0000C01FBF7F8FD286051465046FBF7ECFB54
:104AE000494604904846FBF7E7FB414603904046A1
:104AF000FBF7E2FB394601903846FBF7DDFB0090FF
:104B00000199FBF781FB02900399FBF7CFFB8346EA
:104B10000499FBF7CBFB0590FBF7C2FDCDE908013B
:104B200051463846FBF7C8FB494604904046FBF720
:104B3000C3FB03900499FBF767FB4FF0804105909E
:104B4000FBF7BAFB8346FBF7ABFDCDE90601DDE9D8
:104B50000823FEF707FA4FF06632074BCDE90A014A
:104B6000FBF7C1FCCDE90C01FBF7ADFD306001E0C6
:104B700002200BE7002009E766A64C4070B5002430
:104B8000FCF7C6F900F024F9002840D1782000F0A5
:104B90002FFFC4B20CB1012070BD7820FFF7A4FE36
:104BA000C4B20CB10220F7E7642000F0D3FEC4B217
:104BB0000CB10320F0E7FEF763FCC4B20CB1042093
:104BC000EAE71548FFF728FD0546FEF7B3FEC4B235
:104BD0000CB10520E0E740F27310FEF7F9FAC4B219
:104BE0000CB10620D8E76420FEF7D4FDC4B20CB1A6
:104BF0000720D1E701F000F804460CB10820CBE70C
:104C0000012000F0A3FDC4B21CB10920C4E70A20B2
:104C1000C2E70020C0E70000440000200146114820
:104C2000407A30B1012807D0022808D003280CD1DF
:104C300008E0022008700BE00420087008E008205B
:104C4000087005E01020087002E04FF0FF30704758
:104C500000BF0448C07C18B108784006000E0870F8
:104C60000020F4E71800002001461348407A30B1D4
:104C7000012808D002280AD0032810D10BE04FF4F5
:104C8000804008800EE041F69C7008800AE04FF4F6
:104C90008050088006E04FF40060088002E04FF08A
:104CA000FF30704700BF0448C07C10B10888401036
:104CB00008800020F5E700001800002001460248A7
:104CC000007C0870002070471800002001460F4843
:104CD000007A30B1012807D0022809D003280FD16B
:104CE0000AE0FA2008800EE04FF4FA7008800AE02B
:104CF0004FF47A70088006E04FF4FA60088002E012
:104D00000020088000BF00BF00207047180000206E
:104D100001460E48007A30B1012807D0022808D099
:104D200003280CD108E00A4808600BE00948086035
:104D300008E00948086005E00848086002E04FF014
:104D4000FF30704700BF0020FBE700001800002084
:104D50000000034300008342333303423333834173
:104D600001461248C07A082817D2DFE800F017047D
:104D7000070A0D101318BC20088013E06220088079
:104D800010E02A2008800DE0142008800AE00A20A4
:104D9000088007E00520088004E000BF00BF002075
:104DA000088000BF00BF00207047000018000020EE
:104DB0000146064890F8240010B14FF0FF307047CC
:104DC0000248C08908800020F9E700001800002090
:104DD0001CB580208DF80000654A1268917C644AF9
:104DE000526810786B460122FCF72EF910B14FF093
:104DF000FF301CBD642000F0D5FF00208DF80000BE
:104E00005B4A1268917C5A4A526810786B460122BC
:104E1000FCF71AF910B14FF0FF30EAE7544A126874
:104E2000917D534A526810786B460622FCF7D2F8FF
:104E300010B14FF0FF30DCE79DF80500C007400FD0
:104E40009DF8031001F0010140EA41009DF80110B6
:104E500001F0010140EA010494B1012C03D10121C8
:104E60004348C17431E0022C03D100214048C17491
:104E70002BE021463FA0FDF7DDF84FF0FF30B8E70B
:104E80003B4A1268D1783A4A526810786B46012240
:104E9000FCF7A0F810B14FF0FF30AAE79DF8000032
:104EA00000F00F042CB93D48FDF7C4F84FF0FF3077
:104EB0009FE7042C06D13AA0FDF7BCF801212C484D
:104EC000C17402E000212A48C174FF212848817280
:104ED000FF2027490872FF2125484172C1724FF611
:104EE000FF71C181FF21017481740121017380F878
:104EF0002210002180F823104175017516300160E1
:104F000041608160163880F8241080F82510C18433
:104F10004FF4FA6000F062FC10B14FF0FF3068E728
:104F2000022000F02BFB10B14FF0FF3061E72A2088
:104F300000F0CEFC10B14FF0FF305AE7322000F005
:104F400009FD10B14FF0FF3053E70020FFF7CCFC14
:104F500010B14FF0FF304CE7002000F051FB10B1D2
:104F60004FF0FF3045E7002000F042FD002040E711
:104F700018000020556E737570706F727465642030
:104F8000736F6674776172652070726F6475637495
:104F9000207265762025642E0A000000286B000828
:104FA00048616C662073656E73697469766974799B
:104FB000207061727420666F756E642E0A000000A6
:104FC0002DE9F04385B005460E469046994629489E
:104FD00090F8250020B14FF0FF3005B0BDE8F08318
:104FE00016B94FF0FF30F8E7002423E0281B102803
:104FF00001DD102000E0281B87B232193946204617
:1050000000F05EFD10B14FF0FF30E6E701AA39462F
:10501000204600F001F910B14FF0FF30DDE7301904
:105020003A4601A9FBF7E3F810B16FF00100D4E7AD
:10503000E01984B2AC42D9DB4FEA28208DF8000099
:1050400008F0FF008DF801000A4A1268917E094AB3
:10505000526810786B460222FBF7F6FF10B14FF052
:10506000FF30BAE70121034880F82510A0F8269008
:105070000020B2E71800002038B50446282C02DDD5
:105080004FF0FF3038BDDCB9002000F0EBFB002012
:105090008DF8000007208DF801002E4A1268917CDF
:1050A0002C4A526810786B460222FBF7CDFF10B1F4
:1050B0004FF0FF30E6E70021264801750020E1E7C8
:1050C000012000F0CFFB20208DF80000012C06D13C
:1050D00000208DF80100052000F0FAFB17E0052CF8
:1050E00006DC01208DF80100052000F0F1FB0EE048
:1050F000142C06DC02208DF801000A2000F0E8FBE9
:1051000005E003208DF80100142000F0E1FB9DF87C
:105110000100072101EB8010C0B28DF801000D4A9B
:105120001268917C0B4A526810786B460222FBF79A
:105130008BFF10B14FF0FF30A4E7082105488172C2
:1051400000210173012101750020FFF7CDFB002034
:1051500098E7000018000020F8B504460F461646F0
:105160002C4890F8240010B94FF0FF30F8BD2948C2
:10517000807A10B94FF0FF30F8E7264A1268917A2A
:10518000244A526810786B460222FBF723FF10B1C5
:105190004FF0FF30EAE79DF801009DF8001040EA6B
:1051A0000125A54203DA00203070401EDEE71948D1
:1051B00040684088B5EB600F17DD164A1268517CD5
:1051C000144A526810786B460122FBF703FF10B1B6
:1051D0004FF0FF30CAE79DF8000000F0100020B14A
:1051E00000F05AF86FF00100C0E7E2B2094B1B680B
:1051F000D97A084B5B6818783B46FBF7EBFE10B199
:105200004FF0FF30B2E795FBF4F0401E3070002005
:10521000ACE7000018000020F8B504460D4616461D
:1052200016B94FF0FF30F8BD1A48807A10B94FF028
:10523000FF30F8E720128DF80000E0B28DF8010091
:105240009DF801002844134949684989884202DDD4
:105250004FF0FF30E7E70F4A1268117E0D4A52689F
:1052600010786B460222FBF7EFFE10B14FF0FF30D3
:10527000D9E7EAB2074B1B68597D064B5B68187883
:105280003346FBF7A7FE10B14FF0FF30CBE700200D
:10529000C9E700001800002008B57048807A10B9EE
:1052A0004FF0FF3008BD002000906C4A1268D17B9F
:1052B0006A4A526810786B460122FBF7C5FE10B1AE
:1052C0004FF0FF30EEE7654A12685179634A526841
:1052D00010786B460122FBF7B7FE10B14FF0FF309C
:1052E000E0E75E4A126811795C4A526810786B46B2
:1052F0000122FBF7A9FE10B14FF0FF30D2E757486B
:1053000090F82400002853D00C200090534A1268D3
:105310001179524A526810786B460122FBF794FECD
:1053200010B14FF0FF30BDE7322000F03BFDC02050
:1053300000904A48807A00F0010020B19DF80000FA
:1053400040F020000090454A12681179434A5268A3
:1053500010786B460122FBF777FE10B14FF0FF305B
:10536000A0E73E48407C10B10220009001E0002000
:1053700000903A4A1268D17B384A526810786B46DE
:105380000122FBF761FE10B14FF0FF308AE70020E9
:105390000090324A12685179304A526810786B4650
:1053A0000122FBF751FE002855D04FF0FF3079E77E
:1053B00004200090294A12681179284A526810780E
:1053C0006B460122FBF740FE10B14FF0FF3069E75A
:1053D0002248807C20B92148807A00F0010010B971
:1053E0004020009001E0602000901C4A1268117972
:1053F0001A4A526810786B460122FBF725FE10B15D
:105400004FF0FF304EE7322000F0CCFC1348407CD8
:1054100010B10120009001E0002000900F4A1268B6
:10542000D17B0E4A526810786B460122FBF70CFEC6
:1054300010B14FF0FF3035E7084A12685179074A3A
:1054400052681078054B10330122FBF7FDFD10B1B7
:105450004FF0FF3026E7002024E70000180000206E
:105460002DE9F04F8DB083460F4602200C90424844
:1054700090F8240020B1002000F068F9012600E037
:10548000002603A8FFF722FC05A8FFF7C7FB01A829
:10549000FFF766FC02A8FFF78BFC374890F80AA0DC
:1054A00004A8FFF70BFC002407E000223946584609
:1054B000FEF7B6FC00B902E0641C022CF5DB00BF6D
:1054C000022C01D1002528E0002407E0012206A9D2
:1054D00009A8FEF7A5FC00B902E0641C022CF5DB6C
:1054E00000BF022C01D1002517E006A93846FDF7C0
:1054F0009DFA00F0FF0809A95846FEF7C9FE00F022
:10550000FF090025B9F1000F01D145F00105B8F1FF
:10551000000F01D145F0020500BFFF2016490872B7
:10552000FF2115484172C1724FF6FF71C181FF2101
:105530008172017401210173BDF80C0000F04EF975
:105540009DF8140000F01AF8BDF8040000F0C0F94E
:10555000BDF8080000F0FEF9504600F049FA9DF849
:105560001000FFF7C1F916B1012000F0EFF828464E
:105570000DB0BDE8F08F00001800002038B50446DB
:105580001E48807A10B94FF0FF3038BD022C06D08B
:10559000042C07D0082C08D0102C0CD108E00020D7
:1055A00000900BE00820009008E01020009005E03B
:1055B0001820009002E04FF0FF30E6E700BF0F48F0
:1055C000407A9DF80010B0EBE10F01D10020DCE73C
:1055D0000A4A1268D179094A526810786B4601224A
:1055E000FBF732FD10B14FF0FF30CEE79DF8000021
:1055F000C110024841720020C7E7000018000020D7
:1056000038B504465048807CA04201D1002038BD06
:10561000002C46D04C4A126811794B4A52681078D7
:105620006B460122FBF7D6FC10B14FF0FF30EEE7DE
:105630009DF8000020F020000090434A1268117984
:10564000414A526810786B460122FBF7FDFC10B10D
:105650004FF0FF30DBE7032000F0A4FB02200090B6
:10566000394890F8220020B19DF8000040F08000F9
:105670000090354890F8230020B19DF8000040F0DC
:1056800030000090304A1268117D2F4A526810781D
:105690006B460122FBF7D8FC002851D04FF0FF30B9
:1056A000B5E7294A12681179274A526810786B4683
:1056B0000122FBF78FFC10B14FF0FF30A7E7224823
:1056C000807A00F0010028B19DF8000040F0200031
:1056D000009004E09DF8000020F0200000901A4A9D
:1056E00012681179184A526810786B460122FBF74C
:1056F000ABFC10B14FF0FF3089E7032000F052FB04
:10570000114890F8220010B18020009001E00020A4
:1057100000900D4890F8230020B19DF8000040F063
:1057200030000090084A1268117D074A52681078CC
:105730006B460122FBF788FC10B14FF0FF3066E7A3
:1057400001488474002062E71800002038B5044640
:10575000214890F82400A04201D1002038BD24B394
:105760001D4890F8250010B94FF0FF30F6E70020F3
:1057700000F08CFA0020FFF743FF1749C88C00F0B7
:10578000E9F8002000901449496808786B46012226
:105790002321FBF759FC01210F4880F82410012038
:1057A00000F074FAFFF778FD13E0002000F06EFAC5
:1057B0000948007C00900849496808786B46012236
:1057C0002321FBF741FC0021034880F82410FFF758
:1057D00063FD0020C2E700001800002038B5044631
:1057E0001F48807A10B94FF0FF3038BDFA2C09D02D
:1057F000B4F5FA7F09D0B4F57A7F09D0B4F5FA6F21
:105800000CD108E0002000900BE00820009008E098
:105810001020009005E01820009002E04FF0FF30CB
:10582000E3E700BF0E48007A9DF80010B0EBE10FEF
:1058300001D10020D9E70A4A12689179084A5268D2
:1058400010786B460122FBF7FFFB10B14FF0FF30E1
:10585000CBE79DF80000C010014908720020C4E7A2
:105860001800002038B50446184890F82300A042DC
:1058700001D1002038BD14B13020009001E000209B
:1058800000901248807C20B19DF8000040F002009A
:1058900000900E4890F8220020B19DF8000040F0E2
:1058A00080000090094A1268117D084A52681078F9
:1058B0006B460122FBF7C8FB10B14FF0FF30D9E770
:1058C000024880F823400020D4E7000018000020A0
:1058D00038B504461E48807A10B94FF0FF3038BD05
:1058E000BC2C02DB0120009015E0622C02DB0220C0
:1058F000009010E02A2C02DB032000900BE0142C17
:1059000002DB0420009006E00A2C02DB0520009058
:1059100001E0062000900E48C07A9DF800108842F1
:1059200001D10020DBE70A4A12689178084A5268E0
:1059300010786B460122FBF787FB10B14FF0FF3068
:10594000CDE79DF800100248C1720020C7E70000B3
:105950001800002038B504462448807A10B94FF06A
:10596000FF3038BD214890F8240010B14FF0FF30CF
:10597000F7E71E48007D50B134B1282C04DCE0B2BA
:10598000FFF77AFB0020ECE70020FFF775FB042C03
:1059900001DA042404E0B4F57A7F01DD4FF47A746F
:1059A0004FF47A7090FBF4F0401EC0B200900F4AA2
:1059B000126851780D4A526810786B460122FBF745
:1059C00043FB10B14FF0FF30CBE79DF80000401CC7
:1059D0004FF47A7191FBF0F081B20448C181014625
:1059E000C9894810FFF774FF0020BAE718000020AB
:1059F00038B5044604F0700010B10120009005E0B5
:105A000014B10020009001E0402000902B4A126861
:105A1000917C2A4A526810786B460122FBF714FBEE
:105A200020B1002125488172481E38BD9DF8000034
:105A300020F04001214801730020009004F0400054
:105A400020B99DF8000040F00400009004F0200010
:105A500020B99DF8000040F00200009004F0100012
:105A600020B99DF8000040F00100009004F008000B
:105A700020B99DF8000040F0380000900F4A1268ED
:105A8000D17C0E4A526810786B460122FBF7DCFA93
:105A900020B1002109488172481EC6E724B1082CB4
:105AA00002D00020FFF7DEFE044884720021017559
:105AB000322000F077F90020B7E70000180000203E
:105AC000F8B504460D46164616B94FF0FF30F8BD3E
:105AD0001A48807A10B94FF0FF30F8E720128DF89D
