:020000040800F2
:10000000F004002049010008ED100008190D000857
:100010003B1000081F0B0008F51C00080000000042
:10002000000000000000000000000000E9120008CD
:10003000210B0008000000009311000805140008BF
:100040006301000863010008630100086301000800
:1000500063010008630100086301000863010008F0
:1000600063010008630100086301000863010008E0
:1000700063010008630100086301000863010008D0
:1000800063010008630100086301000863010008C0
:1000900063010008630100086301000863010008B0
:1000A000630100083D1600086301000863010008B1
:1000B0002D170008630100083D17000863010008C0
:1000C0006301000863010008630100086301000880
:1000D00063010008E51A00086301000863010008D5
:1000E0006301000863010008630100086301000860
:1000F0006301000863010008630100086301000850
:10010000630100086301000863010008630100083F
:10011000630100086301000863010008630100082F
:10012000630100086301000863010008630100081F
:10013000DFF810D000F090FC00480047BD3C0008FC
:10014000AFF30080F00400200648804706480047CF
:10015000FEE7FEE7FEE7FEE7FEE7FEE7FEE7FEE777
:10016000FEE7FEE709140008310100082DE9F0411F
:100170000024061B254671F1000605DA012400273C
:10018000D0EB070067EB0101161E73F1000605DADC
:100190000027D2EB0702012567EB030300F0DEFA2C
:1001A00086460E4617469C46AC4204D00025D0EB4E
:1001B000050E65EB010624B10020D2EB000760EBD1
:1001C000030C704631463A466346BDE8F081D2B230
:1001D00001E000F8012B491EFBD270470022F6E730
:1001E00010B513460A4604461946FFF7F0FF2046AD
:1001F00010BD30B504460020034600E05B1C93426E
:1002000003D2E05CCD5C401BF8D030BDF0B480EA96
:100210000102D40F4200B2EB410F02D2024608465F
:1002200011464A0042D0C30DDDB2C1F3C752AD1A28
:10023000202D35DAC1F3160141F4000204B1524217
:10024000C5F1200602FA06F12A411044B3EBD05F53
:1002500023D0C4B1012DA0EBC35009DCF0BC4FF09A
:10026000004202EAC352DBB200F5000000F0E1BA3E
:10027000400000F1807000EBC350A0F1807040EAB4
:10028000D170490009E0490841EAC071A0EBC350B0
:1002900000F50000400800EBC350F0BC00F0C0BA0D
:1002A0006142012202EB4101001BF6E7F0BC7047FE
:1002B00081F00041AAE780F00040A7E780EA010250
:1002C00010B502F00043400022D04A001FD0010EBA
:1002D00001EB1261C0F35600C2F3560240F4000075
:1002E00042F40002A0FB022000047F39140400D075
:1002F000401C50EA124001D44000491EC2B20C0614
:1003000004EBD010401C4008802A02D003E00020FB
:1003100010BD20F00100002900DA0020184310BDB4
:1003200030B480EA010202F0004530F0004221F0D2
:10033000004013D090B1C30DD40DC2F31601C0F329
:100340001600E41A41F4000140F400027D349142A9
:1003500001D3641C00E04900002C02DA30BC00200C
:1003600070474FF400000023914201D3891A0343E0
:1003700040084FEA4101F7D151B1914202D14FF00B
:10038000004105E002D24FF0010101E06FF00101F0
:1003900003EBC450284430BC00F042BA420005D000
:1003A000C0F3C7525242914201DC0020704700EB7B
:1003B000C15070472DE9FE4F804681EA0300C00F0F
:1003C0000C46009021F0004123F00045B8EB0200FC
:1003D000A94105D24046214690461C460B4602469E
:1003E00023F00040104347D0270DC7F30A00C3F3A2
:1003F0000A510290401A019040286BDAC3F31300AF
:1004000040F4801B0098924620B10023D2EB030AEF
:1004100063EB0B0B01985946C0F14002504600F0C7
:10042000CEF906460D4650465946019A00F0E6F9C7
:1004300010EB08006141002487EA115284EAE77357
:100440001A4340D0009A62B3019A012A4FEA075238
:1004500015DC001B61EB02014FF0004202EA07527B
:10046000CDE90042001C41F5801132462B4600F0D8
:100470001DFA03B0BDE8F08F40462146F9E7001BA6
:1004800061EB0201001C41F5801300185B4120184C
:10049000A2F5001747EB030140EAD570B6196D418C
:1004A00011E06D084FEA360645EAC0754FEA07527B
:1004B000001B61EB0201001C41F5801149084FEA65
:1004C00030000019514132462B4603B0BDE8F04FD1
:1004D00000F0DDB90098012240000023D0EB0202B9
:1004E00063EBE073009821464FEAE074B8EB00003C
:1004F00061EB0401E9E783F000435BE781F0004131
:1005000058E72DE9FE4F81EA030404F0004421F08E
:10051000004100944FF0000B23F0004350EA010427
:100520005ED052EA03045BD0C3F30A54C1F30A5508
:100530002C44A4F2F3340194A0FB0254C1F3130140
:1005400041F48011C3F3130343F4801301FB02440D
:1005500000FB034E840A970A44EA815447EA835712
:10056000A4FB076802958D0A05FB07854FEA932CCB
:1005700004FB0C542705029D4FEA065847EA16373C
:10058000B5EB08056EEB070C870E920E47EA811754
:1005900042EA8312A7FB0201B6EB0B0164EB0004F5
:1005A0002B0D43EA0C335E1844EB1C50DA465146DF
:1005B000E7FB0201C5F313044FEA0B3343EA14537C
:1005C0004FEA0432019C43EA0603A4F10C040294AE
:1005D000009CCDE900B400F069F903B0BDE8F08FEC
:1005E00000200146F9E770B521F0004303430CD029
:1005F000C1F30A550024D5EB040564EB0403D617B8
:10060000AD1AB34102DB0020014670BD201841EB5A
:10061000025170BDC10F80EAE0700844CA079623FA
:10062000002100F006B996230022114600F001B91E
:100630000EB5C10F80EAE0700844CA07002140F2FD
:1006400033438DE80E000A460B4600F02FF903B045
:1006500000BD00F0004220F00040C10DC0F31600C4
:1006600040F400007F2901DA00207047962903DC5E
:10067000C1F19601C84001E096398840002AF4D0C3
:100680004042704720F00040C10DC0F3160040F416
:1006900000007F2901DA00207047962903DCC1F1B0
:1006A0009601C840704796398840704770B5C1F3CD
:1006B0000A5201F000450024C1F3130140F2FF3358
:1006C00041F480119A4201DA002070BD40F23343B8
:1006D0009A42A2F2334203DC524200F07FF800E07B
:1006E00090402C43F1D0404270BD00F0004230F009
:1006F00000400AD0C10D01F56071C0F3160042EA56
:100700000151C2084007114370470020014670475D
:1007100001F0004330B421F0004150EA010206D05C
:100720000A0DA2F56072C1F31301002A02DC30BC8D
:1007300000207047440F44EAC104C100E01830BCF7
:1007400000EBC25000F06CB8002801DBC0F10040A3
:10075000002901DBC1F10041884270472DE9F05FBB
:100760000546002092469B46884606468146402420
:100770001BE0284641464746224600F02FF85346E4
:100780005A46C01A914110D311461846224600F02D
:1007900016F82D1A67EB01084F462246012000216A
:1007A00000F00DF817EB00094E41201EA4F10104E2
:1007B000DFDC484631462A464346BDE8F09F202A02
:1007C00004DB203A00FA02F1002070479140C2F1A8
:1007D000200320FA03F3194390407047202A04DBDA
:1007E000203A21FA02F00021704721FA02F3D040AA
:1007F000C2F120029140084319467047202A06DBC7
:10080000CB17203A41FA02F043EAE07306E041FADE
:1008100002F3D040C2F120029140084319467047CC
:100820000029A8BF7047401C490008BF20F0010004
:10083000704710B4B0FA80FC00FA0CF050EA0104E2
:1008400004BF10BC704749B1CCF1200421FA04F474
:1008500011FA0CF118BF012121430843A3EB0C014D
:10086000CB1D4FEA00614FEA102042BF002010BCB0
:10087000704700EBC35010440029A4BF10BC704760
:10088000401C490008BF20F0010010BC704710B5A3
:10089000141E73F1000408DA401C41F100019218A3
:1008A0005B411A4301D120F0010010BD2DE9F04D4C
:1008B00092469B4611B1B1FA81F202E0B0FA80F2A1
:1008C00020329046FFF77BFF04460F4640EA0A00BD
:1008D00041EA0B0153465A46084313D0114653EAE6
:1008E000010019D0C8F140025046FFF777FF0546D6
:1008F0000E46504659464246FFF761FF084305D071
:10090000012004E020463946BDE8F08D0020054373
:1009100046EAE0762C4337430A986305E40AA0EBE5
:1009200008000022FD0A44EA47540A3002D500209C
:100930000146E9E7010510196941DDE9084500199B
:100940006941BDE8F04DA2E72DE9F04D81EA0304CD
:1009500004F0004B21F0004514464FF0000A23F04C
:10096000004150EA050220D054EA01021DD0C5F32F
:100970000A570246C5F31303C1F31300C1F30A5625
:1009800040F4801543F48013A7EB0608101BD646ED
:1009900008F2FD3873EB050002D308F1010801E00D
:1009A00092185B41B8F1000F03DA00200146BDE860
:1009B000F08D00204FF48011064684460EE0171B90
:1009C00073EB050705D3121B63EB050306434CEAE3
:1009D000010C49084FEA300092185B4150EA0107C8
:1009E000EDD152EA030012D082EA040083EA050145
:1009F000084305D0101BAB4106D20122002306E0BC
:100A000000224FF0004302E06FF0010253101AEB96
:100A100006004CEB085110EB0A0041EB0B01BDE85E
:100A2000F04DFFF734BF000030B5041E71F1000433
:100A300004DB4FF00044404264EB0101141E73F1EB
:100A4000000405DB1C464FF00043524263EB0403F5
:100A50008B4208BF824230BD064C074D06E0E0687D
:100A600040F0010394E8070098471034AC42F6D3F5
:100A7000FFF762FB705F0008905F00082DE9F04D02
:100A800000231A461B1A8A4103DB00200146BDE8F9
:100A9000F08DC1F30A52C1F3130141F480154FF0F8
:100AA000000BD10702D100186D41521E00270446E9
:100AB00040F2FF11384601EB620A3E46804602468C
:100AC00000204FF48011FFF789FEC2197141BB1855
:100AD00046EB0100B4EB030C75EB000C04D3E41AF5
:100AE00065EB000517460E46241908F101006D411B
:100AF00080463428E3DDF91946EB0600091BA841BE
:100B000003D24FF0FF32134601E0002213461BEBE5
:100B1000070046EB0A51BDE8F04DFFF7B8BEFEE70F
:100B20007047000010B588B00121084600F032FB84
:100B30000121042000F03CFB0320ADF80400042058
:100B40008DF8070001A91D4800F088F805A800F0FD
:100B500097FF0020ADF814004FF6FF71ADF81810A4
:100B6000ADF81A00ADF816004FF0804405A92046F4
:100B700000F038FF00231A460321204600F006FE4D
:100B800002A800F069FE0A21ADF8101002A9204663
:100B900000F01CFE0121204600F0E6FD0122114676
:100BA000204600F061FE0021204600F0F1FE012108
:100BB000204600F0DFFD08B010BD00000008014035
:100BC00010B588B00121042000F0E4FA01210820CA
:100BD00000F0EEFAC020ADF8040004208DF8070004
:100BE00001A91C4800F03AF805A800F049FF0020D0
:100BF000ADF814004FF6FF71ADF81810ADF81A00FB
:100C0000ADF81600144C05A9204600F0EBFE0023B9
:100C10001A460321204600F0B9FD02A800F01CFE90
:100C20000A21ADF8101002A9204600F0CFFD0121E5
:100C3000204600F099FD01221146204600F014FEE6
:100C40000021204600F0A4FE0121204600F092FD84
:100C500008B010BD000C0140000800402DE9F04133
:100C60000022CC7804F00F03E40601D58C782343EE
:100C70000C784FF00F0714F0FF0F4FF0010C1CD051
:100C800005680CFA02F40E882640A64211D196009F
:100C900007FA06F825EA080503FA06F848EA050502
:100CA000CE78282E02D0482E02D002E0446100E027
:100CB0000461521C082AE4D305600A88FF2A1ED961
:100CC0004568002202F108060CFA06F40E88264058
:100CD000A64210D1960007FA06F825EA080503FA9D
:100CE00006F848EA0505CE78282E00D14461CE7872
:100CF000482E00D10461521C082AE3D34560BDE8A8
:100D0000F0810246002092680A4200D0012070471C
:100D10004161704701617047FEE70000F0B589B09E
:100D200004460D460121022000F034FA641EADF89D
:100D30000840ADF804500024ADF80A40ADF8064074
:100D4000244F01A9384600F04DFE0121384600F03D
:100D50000BFD01221146384600F086FD01210820D6
:100D600000F026FA0321ADF8101018208DF81300BA
:100D70008DF8121004A91848FFF770FF6026ADF82F
:100D800014600125ADF81650ADF81A40ADF81C40BE
:100D900005A9384600F072FD0821384600F0B0FD84
:100DA000ADF81460ADF81650ADF81A40ADF81C401F
:100DB00005A9384600F0AEFD0821384600F0DEFDFA
:100DC0000121384600F0C4FC0121384600F0D2FC75
:100DD00009B0F0BD00040040000C014002F014BE58
:100DE00010B5044602F0C0FED02002F087FE02F0EB
:100DF000FFFE204602F082FE02F0FAFE02F0B4FE90
:100E0000D12002F07BFE02F0F3FE002002F042FE51
:100E1000044602F0CBFE204610BD10B5FFF7DEFF02
:100E2000642004F037F880216B2000F02FF8642054
:100E300004F030F800216B2000F028F81821192068
:100E400000F024F800211C2000F020F8C82000F059
:100E5000B1F80021382000F019F800216A2000F0D4
:100E600015F80021232000F011F87520FFF7B8FFD6
:100E7000682801D0002010BD01216B2000F006F889
:100E800000216C2000F002F8012010BD70B505466D
:100E90000C4602F069FED02002F030FE02F0A8FEFF
:100EA000284602F02BFE02F0A3FE204602F026FEAA
:100EB00002F09EFEBDE8704002F078BE10B54320FF
:100EC000FFF78EFF104C000220604420FFF788FFE0
:100ED0002168014321604520FFF782FF0B4C00028F
:100EE00020604620FFF77CFF2168014321604720F6
:100EF000FFF776FF064C000220604820FFF770FFE6
:100F000021680143216010BDCC000020BC000020FE
:100F1000C00000202DE9F04106460F4615461C464C
:100F200002F022FE7006000E02F0E8FD02F060FE04
:100F300020B102F03BFE0120BDE8F081384602F00E
:100F4000DDFD02F055FE02F00FFE012000EB460031
:100F5000C0B202F0D3FD02F04BFE08E0012D0CD030
:100F6000012002F097FD20706D1EEDB2641C002D73
:100F7000F4D102F01BFE0020DEE7002002F08AFD23
:100F80002070F1E7BC2801D3012110E0622801D3D1
:100F900002210CE02A2801D3032108E0142801D300
:100FA000042104E00A2801D3052100E006211A20CB
:100FB000FFF76CBF10B504464FF47A70844200D935
:100FC0000446042C00D20424B0FBF4F0401EC1B24D
:100FD0001920FFF75BFF6008BDE81040FFF7D2BFA4
:100FE0002DE9F04104460F4616461D4602F0BCFDB1
:100FF0006006000E02F082FD02F0FAFD20B102F060
:10100000D5FD0120BDE8F081384602F077FD02F001
:10101000EFFD00240BE0285D02F070FD02F0E8FD1A
:1010200018B102F0C3FD0120ECE7641CE4B2B44245
:10103000F1D302F0BBFD0020E4E7FEE770B54FF40A
:1010400080510C4C4D0000280AD0012811D12046B7
:10105000FFF760FE29462046BDE87040FFF758BE06
:101060002046FFF755FE29462046BDE87040FFF7B1
:1010700051BE70BD000C014070B54FF480410C4C66
:101080004D0000280AD0012811D12046FFF742FE6A
:1010900029462046BDE87040FFF73ABE2046FFF7DC
:1010A00037FE29462046BDE87040FFF733BE70BDCD
:1010B000000C014038B50121082000F079F810201B
:1010C0008DF803004FF47044ADF8004003208DF814
:1010D0000200054D69462846FFF7C0FD2146284617
:1010E000FFF718FE38BD0000000C0140704700F00B
:1010F0003DB8000070B50F23C27801260178002AA0
:101100001ED0144A126802F4E062C2F5E062120ACC
:10111000C2F10404D3404578A54082781A402A439E
:10112000120101F1E02181F80024007800F01F0194
:101130008E404009800000F1E020C0F8006170BDE1
:1011400001F01F0086404809800000F1E020C0F84F
:10115000806170BD0CED00E002490843024908605F
:10116000704700000000FA050CED00E008B54FF4F0
:10117000E060FFF7F1FF19208DF8000001208DF8E5
:1011800001008DF802008DF803006846FFF7B2FFFA
:1011900008BD7047054A002903D0D1690143D161D8
:1011A0007047D1698143D16170470000001002404F
:1011B000054A002903D09169014391617047916903
:1011C00081439161704700000010024010B5264A2B
:1011D000516801F00C01254B002927D0042927D0A4
:1011E000082927D00360516801F0F0010909204B5C
:1011F0005C5C0168E1404160546804F4E064240AE6
:101200001C5D21FA04F48460546804F46054E40A18
:101210001B5DD940C160526802F44042920B144BEE
:101220001B1F9A5CB1FBF2F1016110BD0360DAE7AC
:101230000360D8E7516801F47011536803F48033F8
:10124000022404EB914133B153689B0307D5094B4A
:1012500059430160C7E7074B59430160C3E7034B9C
:1012600059430160BFE700000010024000127A00FD
:101270000400002000093D000021022803D00428BA
:1012800007D0002070474FF08042B2F924009184CB
:101290007047024AB2F900001180704724080040EC
:1012A00008B548208DF803004FF40060ADF8000049
:1012B00003208DF8020069460148FFF7CFFC08BD06
:1012C000000C014008B510208DF80300C001ADF8F6
:1012D000000003208DF8020069460248FFF7BEFCBB
:1012E00008BD0000000C0140704700F001B800008C
:1012F0000CB50022019200922748016841F4803128
:1013000001604FF4A063016801F40031009101997C
:10131000491C0191009911B901999942F3D10168D1
:10132000890302D50121009100E000920099012972
:1013300030D11A490A6842F010020A600A6822F0A5
:1013400003020A600A6842F002020A6041684160D2
:1013500041684160416841F480614160416821F425
:101360007C114160416841F4E8114160016841F03D
:101370008071016001688901FCD5416821F0030199
:101380004160416841F0020141604168C1F381015F
:101390000229FAD10CBD00000010024000200240DA
:1013A00070B505460C46002D03DA0020FFF746FE17
:1013B00002E00120FFF742FE284603F0B1FC094A93
:1013C0001080002C03DA0020FFF756FE02E0012017
:1013D000FFF752FE204603F0A3FC0249091D0880D6
:1013E00070BD00003C0400404FF0E021042804D010
:1013F000086920F0040008617047086940F00400A3
:10140000086170477047000010B50F48016841F04F
:101410000101016041680D4A1140416001680C4AB8
:1014200011400160016821F480210160416821F4CC
:10143000FE0141604FF41F018160FFF756FF05492F
:101440004FF00060086010BD001002400000FFF87F
:10145000FFFFF6FE08ED00E070B5048C24F00104F7
:101460000484058B048C25F0F3054FF6FF7606EA1D
:10147000031313432B43104A90420ED00F4A90425D
:101480000BD0B0F1804F08D00D4A904205D00D4AE4
:10149000904202D00C4A904205D124F002020A4345
:1014A00042F0010104E024F00A020A4342F0010183
:1014B0000383018470BD0000002C01400034014012
:1014C0000004004000080040000C0040F0B5048C0F
:1014D00024F010040484068B048C4FF6FF7505EA93
:1014E000011726F4734605EA0333334305EA022263
:1014F0001A43104B98420ED00F4B98420BD0B0F1CC
:10150000804F08D00D4B984205D00D4B984202D029
:101510000C4B984205D124F02001394341F01001D1
:1015200004E024F0A0030B4343F010010283018484
:10153000F0BD0000002C01400034014000040040D8
:1015400000080040000C0040F0B5048C24F48074C6
:101550000484858B048C4FF6FF7707EA012625F07B
:10156000F30507EA031313432B43104A90420ED0AE
:101570000F4A90420BD0B0F1804F08D00D4A9042F4
:1015800005D00D4A904202D00C4A904205D124F475
:101590000071314341F4807104E024F420620A4375
:1015A00042F4807183830184F0BD0000002C01406F
:1015B000003401400004004000080040000C0040DE
:1015C000F0B5048C24F480540484868B048C4FF68C
:1015D000FF7505EA013726F4734605EA0222324315
:1015E00005EA03331343104A90420ED00F4A90424B
:1015F0000BD0B0F1804F08D00D4A904205D00D4A73
:10160000904202D00C4A904205D124F40051394353
:1016100041F4805104E024F402420A4342F4805130
:1016200083830184F0BD0000002C014000340140A0
:101630000004004000080040000C00402DE9F0418B
:10164000304C0121204600F0BAF8002857D0012183
:10165000204600F08CF82C4A111F081F02F0AAFB4C
:10166000FFF72CFC284C083CA08900B2FEF7D2FF03
:10167000024626480168206801F07EF9244E306059
:101680000220FFF7F9FD60610420FFF7F5FD4142FC
:10169000A161606903F022FD1E4F38601E481F4D96
:1016A0000068012820D01E48006801281CD0208A2C
:1016B00000B2FEF7BDFF4FF0FF32FEF794FFFEF7DA
:1016C000F5FF286030683968164C401A2968421ABC
:1016D0002260154D0844286000F00EFB2968206840
:1016E000BDE8F041FFF75CBE208A00B2FEF792FF32
:1016F0000246D4E9050103F001FC2860E2E7BDE8F9
:10170000F0810000002C0140B80000206C00002097
:1017100060000020640000202000002068000020FD
:1017200024000020A8000020AC0000204FF08040E2
:10173000018A018A21F00101018270470348018872
:10174000018821F00101018070470000100800406D
:10175000002904D0018841F0800101807047018890
:1017600021F0800101807047C94301827047C9435D
:1017700001827047002904D0018841F001010180F5
:101780007047018821F001010180704770B505891B
:10179000048B068C25F007050D434FF6FC410C40E9
:1017A00040F201110C4326F022064FF6FF7101EAC8
:1017B00003111143314305810483018470BD024646
:1017C0000020128A0A4200D00120704770B50546F9
:1017D0000C461D48854209D01C48854206D0B5F10B
:1017E000804F03D01A48854200D01A48208861886B
:1017F000A288238960B1042813D008281AD028466B
:10180000FFF7DEFEE1882846BDE8704000F0DEB854
:101810002846FFF721FEE1882846BDE8704000F029
:10182000B9B82846FFF752FEE1882846BDE8704067
:1018300000F0B8B82846FFF787FEE1882846BDE8E3
:10184000704000F0BBB80000002C014000340140A3
:101850000004004000080040002101804180012276
:101860008280C18001817047002A03D082890A43A7
:101870008281704782898A438281704770B5028C69
:1018800022F480720284028C8388848B24F070049A
:1018900024F003040D88254322F400720E894FF6CC
:1018A000FF7404EA062616434A8804EA02223243F9
:1018B000114EB04202D0114EB04217D122F4006650
:1018C0004A8904EA0222324322F480668A8804EAC2
:1018D0000222324323F4805323F400538E8904EA16
:1018E00006161E43CB8904EA0313334383808583A2
:1018F000C9888187028470BD002C014000340140FA
:10190000028C22F400724FF6FF7303EA01211143A7
:101910000184704770B5028C22F480520284058CD9
:101920008288838B23F4E04323F440760C884FF6BF
:10193000FF7303EA0424344325F400550E8903EAB7
:1019400006362E434D8803EA05353543094EB0422D
:1019500002D0094EB04205D122F480468A8903EABA
:101960008212324382808483C988A0F840100584A3
:1019700070BD0000002C014000340140028C22F4B4
:1019800000524FF6FF7303EA01311143018470479F
:1019900081847047028B22F00C020283028B0A437F
:1019A00002837047028B22F440620283028B4FF65F
:1019B000FF7303EA01210A4302837047828B22F0FE
:1019C0000C028283828B0A4382837047828B22F4CB
:1019D00040628283828B4FF6FF7303EA01210A4340
:1019E0008283704730B502881B4C1C4DA0420DD03D
:1019F000A8420BD0B0F1804F08D0194B984205D0C7
:101A0000184B984202D0184B984203D122F0700331
:101A10004A881A43154B984206D0154B984203D07A
:101A200022F44073CA881A4302808A8882850A8811
:101A30000285A0420AD0A84208D00E4A904205D0A2
:101A40000D4A904202D00D4A904201D1097A018696
:101A50000121818230BD0000002C01400034014092
:101A60000004004000080040000C0040001000404E
:101A70000014004000400140004401400048014083
:101A80004FF6FF71818000210180C1804180017289
:101A9000704700003EB504460D460121C802FFF71D
:101AA00087FBADF80440ADF800500020ADF806000B
:101AB000ADF802008DF80800094C69462046FFF792
:101AC00091FF01212046FFF74FFE012211462046DB
:101AD000FFF7CAFE01212046FFF74CFE3EBD000085
:101AE000002C014010B5254C40F22551204600F055
:101AF00060F8012822D1204600F0F4F8204BC1B252
:101B00001970002201B30120012922D0052925D016
:101B1000022928D0032926D0042924D0062927D039
:101B2000072925D0082923D05A609A60DA601A6103
:101B30004021204600F036F80128F9D12046BDE8C2
:101B40001040402100F01EB85A609A60DA601A61B5
:101B5000EEE758609A60DA601A61E9E75A609860C7
:101B6000DA601A61E4E75A609A60DA601861DFE7C8
:101B70005A609A60D8601A61DAE7000000380140C4
:101B8000140000208A05C94301807047002904D051
:101B9000818941F4005181817047818921F400518C
:101BA000818170470246002012880A4200D001203D
:101BB000704770B5002440F66A12C1F3421301F079
:101BC0001F05012606FA05F2012B0CD0022B0DD0C1
:101BD000838A1340090A8E40008830400BB100B15F
:101BE0000124204670BD83891340F3E7038A134024
:101BF000F0E710B540F66A13C1F3421301F01F0479
:101C00000121A140012B07D0022B07D014303AB19B
:101C100002680A43026010BD0C30F8E71030F6E7A6
:101C200002688A43026010BD30B585B004460D4697
:101C3000208A4CF6FF710840E98801432182A0897F
:101C40004EF6F3110840A9882A8911436A89024394
:101C50001143A181A08A4FF6FF410840A9890143A1
:101C6000A1826846FFF7B2FA1D48844201D1039869
:101C700000E00298A189090408D500EBC00101EB3E
:101C8000001029684900B0FBF1F007E000EBC0014B
:101C900001EB001029688900B0FBF1F06422B0FB71
:101CA000F2F109010B096FF018056B4300EB83009B
:101CB000A3891D044FF0320307D503EBC000B0FB2E
:101CC000F2F000F00700084306E003EB0010B0FB61
:101CD000F2F000F00F000843208105B030BD000095
:101CE000003801408088C0F308007047C1F3080144
:101CF00081807047FEE700000A480B49826B8A42E8
:101D000000DA8163836B40F6AC52934200DD82635C
:101D1000C36B8B4200DAC163C16B914200DDC263C9
:101D2000704700007000002054F2FFFF0FB4054B15
:101D300010B503A9044A029800F09AF810BC5DF8A7
:101D400014FB000045340008D4000020490050EA8C
:101D5000C12018BF04204A0D18BF40F0010040F216
:101D6000FF72B2EB515F08BF40F00200012808BFCC
:101D7000052070472DE9F0414F1E00EBC7010446D6
:101D8000D1E9000115461E4637F006020DD02A465D
:101D90003346FEF7B6FB7F1E04EBC703D3E90023EF
:101DA000FEF708FB37F00602F1D1022F25D0042FF1
:101DB00013D0062F18BFBDE8F0812A463346FEF740
:101DC000A0FBD4E90A23FEF7F5FA2A463346FEF7CC
:101DD00098FBD4E90823FEF7EDFA2A463346FEF7CE
:101DE00090FBD4E90623FEF7E5FA2A463346FEF7D0
:101DF00088FBD4E90423FEF7DDFA2A463346FEF7D2
:101E000080FBD4E90223FEF7D5FA2A463346FEF7D3
:101E100078FBD4E90023BDE8F041FEF7CBBA0122FC
:101E2000FEF7E1BBFEF7C6BA002213461046114684
:101E3000FEF78ABD024A00201107FEF7D4BB00005E
:101E400001FDFFFF02E008C8121F08C1002AFAD1F5
:101E500070477047002001E001C1121F002AFBD12A
:101E6000704700000149086070470000D80000205A
:101E70002DE9FF4F8DB00F460546002606E02528C8
:101E80000BD0DDE90F1290476D1C761C28780028D6
:101E9000F5D111B03046BDE8F08F0024A246A1462E
:101EA0000122E94900E0044315F8013F203B02FA12
:101EB00003F00842F7D128782A2810D06FF02F02BB
:101EC0002878A0F13001092914D80AEB8A0102EB25
:101ED000410144F0020400EB010A6D1CF0E701CF60
:101EE0005FEA000A03D544F40054CAF1000A44F042
:101EF00002046D1C28782E2817D115F8010F44F024
:101F000004042A280ED06FF02F022878A0F13001A7
:101F100009290AD809EB890102EB410100EB01090B
:101F20006D1CF2E757F8049B6D1C28786C280FD0C5
:101F300006DC4C2817D068280DD06A2814D104E09C
:101F4000742810D07A280FD10DE044F400140AE070
:101F500044F4801401E044F440146978814202D1D1
:101F600004F580146D1C6D1C28786E281ED00CDCC6
:101F7000632830D004DC00288BD0582811D19FE092
:101F8000642867D069280CD164E073282DD004DC64
:101F90006F2872D0702804D194E075286ED078280C
:101FA0006DD0DDE90F129047761C4BE1C4F302506F
:101FB000022806D0032809D0042801CF09D00660E2
:101FC00040E101CFF117C0E900613BE101CF06809C
:101FD00038E1067036E117F8040B8DF80000002098
:101FE0008DF80100EB46012003E057F804BB4FF0E9
:101FF000FF3061074FF0000102D40DE008F101014C
:10200000884649450FDA8045F8DB1BF8081000299F
:10201000F4D108E008F1010188468142FADB1BF89F
:1020200008100029F6D1DDE90F23AAEB080081464C
:10203000214600F031F9304400EB080604E0DDE908
:102040000F121BF8010B9047B8F10108F7D2214697
:102050004846F2E00A21C4F302524FF0000B089107
:10206000022A04D001CFC117032A09D00AE0FF1DBC
:1020700027F00707F7E8020108E02CE01EE01FE068
:1020800000B2C117042A01D140B2C117021E71F17A
:10209000000206DA0023D0EB030063EB01012D22DE
:1020A00002E0220504D52B228DF82420012203E032
:1020B000E20701D02022F7E7904653E00A210BE027
:1020C000102109E010214FF0000B44F004044FF000
:1020D0000809089103E008214FF0000B0891C4F3B0
:1020E0000252022A04D001CF0021032A06D006E0C2
:1020F000FF1D27F00707F7E8020103E080B2042A7A
:1021000000D1C0B24FF0000822072BD52A78702AE0
:1021100007D0DDF820C08CF0100C5CEA0B0C05D069
:102120000EE040228DF82420012208E050EA01034D
:1021300006D030238DF824308DF8252002229046D9
:10214000089B83F0080353EA0B030BD150EA01020A
:1021500001D1620706D530228DF824204FF0010806
:10216000A9F101092A78582A04D038A20B9208AAAA
:102170000A920BE03AA2F9E75B46089AFEF7EEFAFC
:102180000B9B9B5C0A9A521E0A92137050EA010242
:10219000F2D10A98ADEB000000F1200B600702D5E8
:1021A00024F4803401E04FF00109D94502DDA9EBA8
:1021B0000B0000E0002000EB0B0141440890AAEB6B
:1021C000010AE00306D4DDE90F232146504600F062
:1021D00063F806444FF0000908E009A911F8090066
:1021E000DDE90F12904709F10109761CC145F4DBC6
:1021F000E0030CD5DDE90F232146504600F04CF8F2
:10220000064404E0DDE90F1230209047761C08995F
:10221000481E08900029F5DC08E00A980A99007821
:10222000491C0A91DDE90F129047761CBBF10001B1
:10223000ABF1010BF1DC21465046DDE90F2300F044
:1022400019F806446D1C21E60928010030313233AB
:1022500034353637383961626364656600000000E2
:1022600030313233343536373839414243444546CC
:10227000000000002DE9F041044600251E461746E7
:10228000880404D405E039462020B0476D1C641E44
:10229000F9D52846BDE8F0812DE9F0410446002536
:1022A0001E469046C80301D5302700E02027880449
:1022B00004D505E041463846B0476D1C641EF9D58B
:1022C0002846BDE8F08100002DE9FE4F074688460C
:1022D0000025684601F0C8F800246FF00F0AE946AF
:1022E000012657F8240058F82410401A00D540421F
:1022F000FEF790F95146FEF751F859F8241011F005
:10230000FF4F0ED0FEF70CF84FF07E51FDF7D0FFD7
:102310000B4920F0004088420BDD06FA04F005432B
:1023200007E0084908440849884202D306FA04F045
:102330000543641C032CD4DB2846BDE8FE8F000057
:10234000295C0F3E666666C19A99D9002DE9F04D69
:102350008D4F21F0004A86B005460C46BA452ADB6F
:10236000AAEB070028430AD08848824501DC1AD12D
:10237000CDB106B02846BDE8F04DFFF750BD844A08
:10238000844B2846FEF7BDF807460E46824A834B2B
:1023900028462146FEF7B5F806B03A463346BDE872
:1023A000F04DFEF707B80120FFF75CFD06B0BDE871
:1023B000F04DFFF739BD7A48824542DABAF1795FCC
:1023C0000BDA2846FFF7C2FC042808BFFFF732FDEE
:1023D000284606B02146BDE8F08D2A460B46104639
:1023E000FEF78FF8834602466E480E460B460621DE
:1023F0007844FFF7BFFC5A463346FEF782F8804622
:1024000069488A465A46334604217844FFF7B2FCAD
:102410005A463346FEF775F800223B46FDF7CAFFE1
:1024200002460B4640465146FEF78EFA2A462346A0
:10243000FEF767F806B02A462346BDE8F04DFDF7E3
:10244000B9BF284624F0004100223D463B46FEF736
:1024500055F84FF0FF32FEF7C6F8064602465348DD
:102460000F460B4606217844FFF784FC32463B4674
:10247000FEF747F8CDE900014D4832463B460421BE
:102480007844FFF777FC32463B46FEF73AF80022E5
:102490002B46FDF78FFF834602913046394602F006
:1024A000BDFC804643480D46504517DCDDE9000180
:1024B0005A46029BFEF748FA42462B46FEF721F8A1
:1024C00042462B46FDF776FF0122FEF78CF8304A94
:1024D000304BFEF710F8304A304B4CE04FF0000A1A
:1024E00052460B464046FDF765FFCDE903105246C4
:1024F0002B4610461946FEF704F832463B46FDF7D8
:10250000FDFFDDE90332FEF71FFA06460F46DDE95F
:1025100000015A46029BFEF717FA834600910122FA
:1025200030463946FEF75FF8194A1A4BFDF7E6FFC9
:1025300006460F46012240462946FEF754F85A4601
:10254000009BFDF7DEFF32463B46FDF7D4FF064613
:102550000F46012250462946FEF745F80E4DDFF89A
:1025600058802A464346FDF7C9FF32463B46FDF7F1
:10257000C5FF2A464346FDF7C1FF002CD8BF81F0B6
:10258000004106B0BDE8F08D0000F03F0000F07F94
:10259000075C143326A6913C182D4454FB21F93FC7
:1025A0000000E03F3C3A0000523A0000C63900000B
:1025B000DC3900003333EF3FFB21E93F2DE9F84FD1
:1025C00004460D4621F0004000917349814211DC20
:1025D0007249884201DC06D12CB120462946BDE86B
:1025E000F84FFFF71CBC6E48002DCCBF6D496E49FB
:1025F000BDE8F88F6D49814211DD6D498142D8BF38
:102600004FF0FF366DDD20462946FFF79FFB04287B
:1026100008BFFFF70FFC20462946BDE8F88F654943
:10262000654F25F00045814233DD6449814219DD63
:10263000002632464FF0804320462946FDF7BAFE79
:1026400080468A46012220462946FDF7CCFF00221B
:102650003B46FDF750FF42465346FEF775F90446E8
:102660000D463EE001260022BA463B46204629465A
:10267000FDF7A0FE80460F4600225346204629461D
:10268000FDF739FF42463B46FEF75EF904460D462C
:1026900027E04B4981421BDDDFF828A102260022FA
:1026A000534620462946FDF72CFF00223B46FDF706
:1026B00081FE80460F460022534620462946FDF7FC
:1026C0001AFF42463B46FEF73FF904460D4608E036
:1026D000032622462B4600203B49FEF735F90446E7
:1026E0000D4622462B4610461946FDF70AFF8B463B
:1026F000824602460B46FDF704FF07460246334872
:1027000088460B4606217844FFF734FB52465B4669
:10271000FDF7F7FE82462E488B463A464346052192
:102720007844FFF727FB3A464346FDF7EAFE0246A8
:102730000B46002E504659460CDAFDF73BFE22466A
:102740002B46FDF7DEFE01B022462B46BDE8F04FDA
:10275000FDF7D4BEFDF72EFE22462B46FDF7D1FE37
:102760001C4A7A4402EBC603D3E90023FDF7C3FEFB
:1027700022462B46FDF7BFFE174A7A4402EBC603FA
:10278000D3E90023FDF7BAFE009A002AB8BF81F012
:102790000041BDE8F88F0000000010440000F07F09
:1027A000182D4454FB21F93FFB21F9BF0000DC3F09
:1027B0000000203E0000F33F0000F03F0000E63F35
:1027C000008003400000F83F0000F0BFDE3700004B
:1027D0009C3700003A370000023700002DE9F04D29
:1027E0009446CCF1000423F000464CEA0404594F0F
:1027F00046EAD4749A46884621F00042BC4206D884
:10280000454240EA050442EAD474BC4204D9BDE81A
:10281000F04D6246FFF706BBAAF14055A5F17F6572
:1028200055EA0C040BD0022404EAAA744A4DDFF8DE
:102830002CE144EAD87452EA000B04D00CE0BDE865
:10284000F04DFFF7BBBE002C14BF012CBDE8F08D8E
:10285000022C30D0032C32D056EA0C0B0AD0BE42E8
:1028600020D1BA4209D126F0804622F08042334678
:10287000114617E000291ADB25E0DFF8E4B0FB443D
:10288000002C04BFDBE90001BDE8F08D012C02BF84
:10289000DBE9000181F00041BDE8F08D022C0AD097
:1028A000032C0CD0BA4212D1B8F1000F0BDA2A482F
:1028B0002C49BDE8F08D28462B49BDE8F08D28460F
:1028C0007146BDE8F08D24482849BDE8F08D921B83
:1028D00012153C2AC4BF204F244E10DCBAF1000F61
:1028E000BEBF12F13C0F00273E4608DB6246FEF7F2
:1028F0002BF821F00041FFF761FE07460E4694B128
:10290000012C08BF86F000460DD0194A194B022C45
:102910003846314615D0FDF7EEFD2A46BDE8F04DAC
:10292000114BFDF7E8BD0022134638463146FEF74D
:102930007BF804BF0220FFF795FA38463146BDE820
:10294000F08DFDF7D8FD2A46BDE8F04D064BFDF7AA
:10295000D5BD00000000F07F182D4454FB2109C0B4
:1029600096360000FB21F9BFFB210940FB21F93F0E
:10297000075C143326A6A13C70B51446FDF798FCFD
:1029800005462146074C6068FDF798FC0646294637
:102990002068FDF793FC3146FDF738FCBDE8704038
:1029A000FDF757BE7000002070B50446E07800F0D7
:1029B000C00500F03F006178094EC90707D0C30881
:1029C00000F00701491C32680AB118469047607848
:1029D000000703D5716809B1A8098847002070BDB8
:1029E000DC00002008B500280CD020208DF8000065
:1029F00028208DF8010030208DF8020038208DF855
:102A0000030004E0A32204216846FDF7E0FB6A46C8
:102A1000042140F69E2002F04BF901F0CFFD08BDE5
:102A20003EB5044602208DF80000CA208DF8010052
:102A3000E3208DF8020009208DF803006A46042186
:102A4000682002F035F9A3208DF80000610609D551
:102A5000C0218DF80110C8218DF80210C2218DF817
:102A6000031005E08DF801008DF802008DF80300D9
:102A700014F4C07F09D0C4218DF80410CC218DF846
:102A80000510C6218DF8061005E08DF804008DF8BC
:102A900005008DF806008DF807008DF808008DF808
:102AA00009006A460A2140F6A72002F001F9A007B2
:102AB0004FF0D80503D020208DF8000001E08DF8FC
:102AC00000506A46012140F6B62002F0F1F8A00657
:102AD00003D5012000F09AF802E0002000F096F8FB
:102AE00014F4C07F20D0E0050CD5B2208DF8000092
:102AF0008B208DF80100B6208DF802009B208DF808
:102B000003000BE0B0208DF8000080208DF801005C
:102B1000B4208DF8020090208DF803006A4604214D
:102B200040F6A22002F0C4F8E0074FF40B6323D074
:102B3000F8208DF800006A460121184602F0B8F826
:102B4000FA21072000F0ACFB072000F07BFB0120FE
:102B500000F094FB642000F055FC4FF4FA7000F094
:102B600061FCC821274800F035FB282000F04AFB13
:102B70000A2000F057FB06E08DF800506A4601215C
:102B8000184602F095F8A00703D5D9208DF800006B
:102B900001E08DF800506A46012140F23D7002F0DC
:102BA00087F8600703D5012000F05CF802E0002000
:102BB00000F058F8E00603D50120FFF713FF02E00C
:102BC0000020FFF70FFF104D44F00800688101F06E
:102BD000F5FC0020A873600601D50620A87314F444
:102BE000C07F02D0A87B801DA87314F0140F02D000
:102BF000A87B1030A873A00702D0A87B001DA87383
:102C000000203EBD09E3CA02DC0000200EB54FF4EF
:102C1000976300280CD00DA0D0E900128068CDE9A0
:102C2000001202906A460921184602F041F80EBDD2
:102C300009A0D0E900128068CDE9001202906A462E
:102C40000921184602F034F80EBD0000B8AAB38D71
:102C5000B4980D355D000000B8AAAAAAB088C3C513
:102C6000C700000008B500280CD0C0208DF8000077
:102C7000C2208DF80100C4208DF80200C6208DF816
:102C8000030004E08B2204216846FDF7A0FA6A469F
:102C9000042140F6982002F00BF801F08FFC08BDEB
:102CA000C8234FF48062024940F6F63001F036BB8B
:102CB000345200082DE9FF4F8DB01646DDE91A5257
:102CC000074688460024A146A5F80090DFF864B1C5
:102CD00005A99BF80E0001F0E3FB4FF0FF3A18B195
:102CE000504611B0BDE8F08FBBF80A3013F0140F56
:102CF00061D09DF817009DF814109DF8162040EA49
:102D000001609DF81510090441EA02210843306072
:102D10009DF81B109DF818209DF81A4041EA0261A9
:102D20009DF81920120442EA0422114371609DF8B3
:102D30001F209DF81C409DF81EC042EA04629DF8C9
:102D40001D40240444EA0C242243B2609DF8234031
:102D50009DF820C09DF822B044EA0C6C9DF82140FB
:102D6000240444EA0B244CEA040CC6F80CC01024DA
:102D70000014019008140290101403904FEA2C40A4
:102D8000049001980299404301FB01010398049AC1
:102D9000404302FB02000844A0F17060B0F1007FE4
:102DA00005D901F00BFCA5F80090504699E728885A
:102DB00040F480702880590605A818D50219065DD0
:102DC000517841EA0621A8F80010D178967841EAB6
:102DD0000621A8F802105179127941EA0221A8F8D7
:102DE0000410A41DE4B2298841F00801298013F4DD
:102DF000C07F15D00119065D4A7842EA06223A8062
:102E0000CA788E7842EA06227A804A79097942EABB
:102E10000121B980A41DE4B2298841F07001298004
:102E2000990702D02044FFF7BFFD109800F090FFF3
:102E3000002056E7DC00002030B587B00446684625
:102E400001F0F4F8BDF80000420CC1033C480389CE
:102E500003F0030054F820000490580702D50498AA
:102E600040420490C3F3C10054F820000590980636
:102E700002D5059840420590C3F3811054F8200014
:102E80000690D80502D50698404206900498A0FB0B
:102E90000145C31703FB015300FB0230830043EAE3
:102EA000947004900598A0FB0145C31703FB0153E0
:102EB00000FB0230830043EA947005900698A0FB63
:102EC0000145C31703FB015100FB0210810041EAD9
:102ED000947006900498000E8DF804000498000C7D
:102EE0008DF805000498000A8DF8060004988DF806
:102EF00007000598000E8DF808000598000C8DF865
:102F000009000598000A8DF80A0005988DF80B0055
:102F10000698000E8DF80C000698000C8DF80D0038
:102F20000698000A8DF80E0006988DF80F0001AA89
:102F30000C214FF4257001F0BBFE07B030BD00003E
:102F4000DC00002030B585B0044616A1D1E90002AE
:102F50008968CDE9032102904FF0FF35C82C02D9D2
:102F6000284605B030BDC820B0FBF4F1491E080A60
:102F70008DF800008DF801106A46022140F21620FB
:102F800001F096FE08B12846EBE702AA0C2140F6B4
:102F9000C12001F08DFE08B12846E2E70448848193
:102FA0000020DEE7FEF2ABC4AAF1DFDFBBAFDFDF5C
:102FB000DC0000201FB53F49098901F0030250F8E9
:102FC000222001924A0702D5019A52420192C1F38E
:102FD000C10250F8222002928A0602D5029A524279
:102FE0000292C1F3811250F822000390C80502D565
:102FF0000398404203903048019981FB00218B00E7
:1030000043EA92710191029981FB00218B0043EA0E
:1030100092710291039981FB0001800F40EA8100C7
:1030200003900198000E8DF800000198000C8DF8B7
:1030300001000198000A8DF8020001988DF8030044
:103040006A4604214FF4747001F032FE4FF0FF34F1
:1030500010B1204604B010BD0298000E8DF800009B
:103060000298000C8DF801000298000A8DF8020009
:1030700002988DF803006A4604214FF4757001F040
:1030800017FE08B12046E5E70398000E8DF8000012
:103090000398000C8DF801000398000A8DF80200D7
:1030A00003988DF803006A4604214FF4767001F00E
:1030B000FFFDCFE7DC00002009E3CA0230B587B08E
:1030C00004463FA0006804903EA0006803903EA024
:1030D000006802903DA00068019004F0030004AB7A
:1030E000195C8DF81810C4F3C102995C8DF81910A1
:1030F000C4F381115B5C8DF81A3003AB185C8DF85A
:103100001400985C8DF81500585C8DF8160006AA1E
:10311000032140F2264001F0CBFD4FF0FF3510B106
:10312000284607B030BD05AA032140F22A4001F02D
:10313000BFFD08B12846F4E7029806900198059073
:1031400060070BD59DF8180040F001008DF81800BD
:103150009DF8140040F001008DF81400A0060BD576
:103160009DF8190040F001008DF819009DF8150038
:1031700040F001008DF81500E0050BD59DF81A0010
:1031800040F001008DF81A009DF8160040F0010093
:103190008DF8160006AA03214FF4886001F088FD1F
:1031A00008B12846BDE705AA032140F2314001F0ED
:1031B0007FFD08B12846B4E7054804810020B0E748
:1031C0004CCD6C000CC92C003656760026466600A5
:1031D000DC00002008B54FF47A7290FBF2F048430F
:1031E000010E8DF80010010C8DF80110010A8DF808
:1031F00002108DF803006A4604214FF4AE7001F00E
:1032000057FD08BD08B50521B0FBF1F0010A8DF8A6
:1032100000108DF801006A4602214FF4AD7001F0F4
:1032200047FD08BD08B50521B0FBF1F0010A8DF896
:1032300000108DF801006A4602214FF4AC7001F0D5
:1032400037FD08BD08B500210091C10701D030212C
:103250000091810704D59DF8001041F00C01009108
:10326000400704D59DF8000040F0030000906A4636
:1032700001214FF4A47001F01BFD08BD08B5002822
:103280000BD0042800D90420401E00906A4601217A
:1032900040F24F1001F00CFD08BD0120F4E70000E2
:1032A0002DE9FC410546084669074FF0FF3602D07C
:1032B000B0F5C86F02D93046BDE8FC81FDF7B3F91F
:1032C0004B49FDF72DF80746684600F08DFE9DF846
:1032D0000000022807D0042814D0082821D0102884
:1032E0002ED03046E8E70E213846FDF757F8FDF7B7
:1032F000C9F984B23F493846FCF7E0FFFDF7C2F94F
:1033000080B22BE00D213846FDF748F8FDF7BAF9F9
:1033100084B239493846FCF7D1FFFDF7B3F980B2E2
:103320001CE00C213846FDF739F8FDF7ABF984B203
:1033300032493846FCF7C2FFFDF7A4F980B20DE030
:103340000B213846FDF72AF8FDF79CF984B22C4989
:103350003846FCF7B3FFFDF795F980B2210A8DF8E6
:1033600004108DF80540010A8DF806108DF807004D
:10337000E80701AC11D001AA02214FF4EA7001F074
:1033800097FC08B1304697E7A21C02214FF49270D7
:1033900001F08EFC08B130468EE7A80711D501AACE
:1033A00002214FF4EC7001F083FC08B1304683E752
:1033B000A21C02214FF4947001F07AFC08B130464F
:1033C0007AE7680711D501AA02214FF4EE7001F0E7
:1033D0006FFC08B130466FE7A21C02214FF49670D3
:1033E00001F066FC08B1304666E7002064E70000A3
:1033F00000004843000040460000C0450000404532
:103400000000C04408B50521B0FBF1F0010A8DF8B9
:1034100000108DF801006A4602214FF4EF7001F0B0
:1034200047FC08BD08B50521B0FBF1F0010A8DF895
:1034300000108DF801006A4602214FF4ED7001F092
:1034400037FC08BD70B50446064DE1B22846FEF7CC
:103450004DFC80212846FEF7A5FB0028F9D0204628
:1034600070BD0000003801402DE9FC4105462648AA
:1034700001AB042240680D210078FDF74BFD10B12F
:103480000720BDE8FC819DF807009DF80420C0F3EB
:10349000011102F0E00241EAD2018DF800109DF81E
:1034A0000520C0F3810102F0E00241EAD2018DF86B
:1034B00001109DF8061000F0030001F0E00140EA61
:1034C000D1008DF8020000246E46305D20B10F4817
:1034D00045F824000E4F0AE0002045F824000CE0D7
:1034E00055F824003946FCF7E9FE45F82400305D24
:1034F000401E10F0FF003055F2D1641CE4B2032CE2
:10350000E3D30020BDE70000280000207B14AE3E7E
:103510001D5A843F2DE9F04788B005460C46924677
:1035200001208DF8140000278DF81570DFF8B8839E
:1035300005AB0222D8F80000817CD8F8040000789E
:10354000FDF74EFD4FF0FF3918B1484608B0BDE811
:10355000F087C82001F09EFC8DF81470D8F80000A8
:1035600005AB0122C17BD8F804000078FDF738FDD7
:1035700008B14846EAE7D8F8000005AB01224179D6
:10358000D8F804000078FDF72BFD08B14846DDE7C8
:10359000D8F8000005AB0122817CD8F8040000783F
:1035A000FDF71EFD08B14846D0E7D8F8000005AB8E
:1035B0000122C17DD8F804000078FDF711FD08B1A3
:1035C0004846C3E7D8F8000005AB01220179D8F8D6
:1035D00004000078FDF704FD08B14846B6E70C2664
:1035E0008DF81460D8F8000005AB01220179D8F8F5
:1035F00004000078FDF7F4FC08B14846A6E70F2068
:1036000001F048FCD8F82800407A8DF81400D8F86A
:10361000000005AB01228178D8F804000078FDF79E
:10362000DFFC08B1484691E7D8F82800007A8DF809
:103630001400D8F8000005AB01224178D8F8040046
:103640000078FDF7CDFC08B148467FE7BAF1000FDE
:1036500007D0D8F82800807A40F0E0008DF81400F8
:1036600004E0D8F82800807A8DF81400D8F800001B
:1036700005AB01228179D8F804000078FDF7B0FC91
:1036800008B1484662E7BAF1000F07D0D8F8280021
:10369000C07A40F0E0008DF8140002E018208DF8A8
:1036A0001400D8F8000005AB0122C179D8F8040055
:1036B0000078FDF795FC08B1484647E7BAF1000FDE
:1036C00002D0C82001F0E6FB40208DF81400D8F8A5
:1036D000000005AB01220179D8F804000078FDF75D
:1036E0007FFC08B1484631E778208DF81400D8F8FF
:1036F000000005AB01224179D8F804000078FDF7FD
:103700006FFC08B1484621E7322001F0C3FB8DF879
:103710001470D8F8000005AB01224179D8F80400F4
:103720000078FDF75DFC08B148460FE7D8F80000C7
:1037300005AB0222817AD8F804000078FDF7EAFB95
:1037400008B1484602E79DF815009DF8141040EABC
:103750000120B0FBF6F0C6B2AF606F602F60A760CB
:1037600067602760002756E0D8F8000005AB0C2200
:10377000C17AD8F804000078FDF7CCFB08B14846C0
:10378000E4E69DF815009DF8141040EA012000B20F
:10379000ADF80C009DF817109DF8162041EA0221A3
:1037A00009B2ADF80E109DF819209DF8183042EAC4
:1037B000032212B2ADF8102023681844206060681C
:1037C00008446060A0681044A0609DF81B009DF84C
:1037D0001A1040EA012000B2ADF804009DF81D1057
:1037E0009DF81C2041EA022109B2ADF806109DF8AF
:1037F0001F209DF81E3042EA032212B2ADF80820C5
:103800002B6818442860686808446860A8681044F9
:10381000A8607F1CFFB2B742A6D328688322C117D5
:10382000090441EA104100040023FCF79FFC3246E2
:103830000023FCF79BFC286068688322C1170904F9
:1038400041EA104100040023FCF790FC32460023BB
:10385000FCF78CFC6860A8688322C117090441EA60
:10386000104100040023FCF781FC32460023FCF7E2
:103870007DFCA86020684FF40065C117090441EA87
:10388000104100042A460023FCF770FC3246002356
:10389000FCF76CFC206060682A46C117090441EA05
:1038A000104100040023FCF761FC32460023FCF7C2
:1038B0005DFC6060A0682A46C117090441EA104116
:1038C00000040023FCF752FC32460023FCF74EFCB8
:1038D000A060002803DDA0F58030A06002E000F5C4
:1038E0008030A060002031E6280000202DE9F84F4C
:1038F00081468A4600252F486B46032240680D21E9
:103900000078FDF707FB10B10720BDE8F88F9DF8A0
:10391000000000F01F008DF800009DF8010000F08D
:103920001F008DF801009DF8020000F01F008DF8C7
:10393000020000246F464FF0010859F824005AF89D
:103940002410401A00D54042FCF764FE6FF00F01CE
:10395000FCF724FD0646385DF8B1174ADFF85CB085
:1039600004E059461046FCF7A9FC0246385D401EAB
:1039700010F0FF003855F4D111463046FCF7D0FC6A
:103980004FF07E51FCF794FC0D4920F00040884236
:103990000BDD08FA04F0054307E00A483044B0F1B3
:1039A000D97F02D908FA04F00543641C032CC4DB58
:1039B0002846AAE7280000200000C84154E3853FBC
:1039C000295C0F3E0000E0BE70B50E4D4FF48064E0
:1039D00021462846FDF79CF9FDF774FC6100284656
:1039E000FDF796F9022001F06FFA21462846FDF70F
:1039F00091F9052001F068FA21462846BDE870409B
:103A0000FDF786B9000C0140F8B501210820FDF74B
:103A1000CFFB10208DF803008401ADF80040032097
:103A20008DF802000A4E69463046FDF717F9650029
:103A3000ADF8005069463046FDF710F92146304692
:103A4000FDF768F929463046FDF764F9F8BD000036
:103A5000000C014070B50E4D4FF48064214628469D
:103A6000FDF756F9FDF72EFC61002846FDF752F9E7
:103A7000022001F029FA21462846FDF74BF90520DE
:103A800001F022FA21462846BDE87040FDF740B912
:103A9000000C01402DE9F047804600250024FDF789
:103AA000FFFB154F4FF480664FF4006931463846EE
:103AB000FDF72EF9022001F007FA31463846FDF7EE
:103AC00029F96006040E49463846FDF71AF908B18F
:103AD000641CE4B2012001F0F7F96D1CEDB2082D71
:103AE000E4D3B8F1000F04D0FFF76EFF2046BDE825
:103AF000F087FFF7AFFFF9E7000C01402DE9F04137
:103B00000546FDF7DFFB174F4FF480663146384618
:103B1000FDF7FEF800244FF40068280604D541465E
:103B20003846FDF7F7F803E041463846FDF7F0F870
:103B30006806050E022001F0C7F931463846FDF748
:103B4000E9F8022001F0C0F931463846FDF7E0F807
:103B5000022001F0B9F9641CE4B2082CDDD3BDE801
:103B6000F0810000000C014070B5FDF7ABFB0E4D7D
:103B70004FF4006421462846FDF7CCF86610314624
:103B80002846FDF7C7F8052001F09EF92146284692
:103B9000FDF7BEF8062001F097F931462846BDE84A
:103BA0007040FDF7B5B80000000C014070B5FDF79E
:103BB00089FB0E4D4FF4806421462846FDF7A8F896
:103BC000660031462846FDF7A3F821462846FDF752
:103BD000A1F8062001F078F931462846FDF79AF859
:103BE000BDE87040062001F06FB90000000C0140F4
:103BF0002DE9F0410024FDF753FB144D4FF400660E
:103C000031462846FDF786F8012001F05DF92F15B1
:103C100039462846FDF77EF8012001F055F908E005
:103C2000641CE4B2FA2C04D9FFF7C0FF0120BDE800
:103C3000F08131462846FDF764F80028F0D1394676
:103C40002846FDF765F80020F1E70000000C014070
:103C500000B50246104600F00DF80346D01C00F0F7
:103C600009F843EAC003901D00F004F843EA80100D
:103C700080B200BD90F90010002902DD4FF0000075
:103C8000704702DA4FF00400704790F901100029E4
:103C900002DD4FF00100704702DA4FF00500704777
:103CA00090F90200002802DD4FF00200704702DAAE
:103CB0004FF0060070474FF007007047482001F0B2
:103CC000D3F84FF4165001F0ADF9002140F60F6023
:103CD000FDF724F8FDF7EEF94FF47A7405E012A031
:103CE000FEF724F8204601F0D5F8FDF796F80028F5
:103CF000F5D005E00EA0FEF719F8204601F0CAF84D
:103D000000F026F90028F5D1FCF70CFFFCF758FF6E
:103D1000FDF7EDF940F2CF214FF4FA70FDF7BAFE4E
:103D20000A2001F0B7F8FBE76572726F722021007C
:103D30004D50555F363035305F646D705F696E6928
:103D400074206973206572726F7220210000000078
:103D5000704700002DE9F041002620F00104144DC9
:103D600095F82400002802D00020BDE8F081A97A4F
:103D70004FF0FF3839B12F7C21402974A14200D087
:103D8000464624B901E04046EFE7287D18B10120FE
:103D900001F00AF802E0002001F006F82CB100F072
:103DA0000DFC10B12F744046DFE73046DDE7000020
:103DB000280000202DE9F74F8EB0054606A807A978
:103DC000CDE900100CAB02AA08A90AA8FEF772FF01
:103DD00018B1012011B0BDE8F08FBDF81C00C0057E
:103DE0007ED50298FCF716FC6FF01D042146FCF707
:103DF000D5FA06460398FCF70DFC2146FCF7CEFAEF
:103E000007460498FCF706FC2146FCF7C7FA8046F3
:103E10000598FCF7FFFB2146FCF7C0FA814601211B
:103E20003046FCF7BBFA83464146FCF747FA824628
:103E30004FF040413846FCF741FA04464946FCF74A
:103E40003DFA5146FCF7E2F9FCF74FFCFEF77EFA2B
:103E50004FF0663A52463D4BFCF753FBFCF758FCDB
:103E6000286001214046FCF799FA41460D90FCF785
:103E700025FA054620463946FCF720FA2946FCF784
:103E800017FA4FF07E51FCF7C1F9FCF72EFC0446FF
:103E90000D4658463946FCF711FA834649460D98B7
:103EA000FCF70CFA5946FCF7B1F9FCF71EFC224668
:103EB0002B46FEF793FC5246244BFCF722FBFCF703
:103EC00027FC0F99086049464846FCF7F7F9044675
:103ED00041464046FCF7F2F905463946384600E0CF
:103EE00032E0FCF7EBF9834631463046FCF7E6F961
:103EF0005946FCF78BF92946FCF7DAF92146FCF71D
:103F0000D7F9FCF7F2FB04460D4649463046FCF76C
:103F1000D5F9064641463846FCF7D0F93146FCF75C
:103F200075F90121FCF73AFAFCF7DFFB22462B4634
:103F3000FEF754FC5246054BFCF7E3FAFCF7E8FBAE
:103F400010990860002045E7022043E766A64C4030
:103F500010B5FCF743FF00F00BF908B10A2010BDC3
:103F6000782000F04DFEC0B208B1012010BD7820CD
:103F7000FFF7F0FEC0B208B1022010BD642000F0CF
:103F8000FDFDC0B208B1032010BDFEF789FEC0B22E
:103F900008B1042010BD1348FFF75AFEFFF78EF852
:103FA000C0B208B1052010BD40F27310FEF738FD15
:103FB000C0B208B1062010BD6420FEF7C3FFC0B236
:103FC00008B1072010BD00F0AFFE08B1082010BDF9
:103FD000012000F0EBFCC0B208B1092010BD0020A8
:103FE00010BD0000540000200F4A517A002908D06B
:103FF000012909D002290AD003290BD04FF0FF3044
:1040000070470221017007E00421017004E00821DB
:10401000017001E010210170D17C11B101784900DB
:10402000017000207047000028000020114A517ADA
:10403000002908D001290AD002290CD003290ED06A
:104040004FF0FF3070474FF4804101800AE041F6A5
:104050009C71018006E04FF48051018002E04FF432
:1040600000610180D17C11B10188490801800020E4
:1040700070470000280000200249097C01700020E0
:1040800070470000280000200E49097A002909D055
:1040900001290AD002290CD003290ED00021018069
:1040A00000207047FA210180FAE74FF4FA7101808D
:1040B000F6E74FF47A710180F2E74FF4FA6101807C
:1040C000EEE70000280000200C49097A002908D0FA
:1040D000012909D002290AD003290BD04FF0FF3063
:1040E00070470749016007E00649016004E006499E
:1040F000016001E0054901600020704728000020B0
:1041000000000343000083423333034233338341CF
:104110000F49C97A072917D2DFE801F01604070A08
:104120000D101300BC21018010E0622101800DE020
:104130002A2101800AE01421018007E00A21018080
:1041400004E00521018001E000210180002070478A
:1041500028000020054991F82420002A02D04FF0C1
:10416000FF307047C9890180002070472800002077
:104170002DE9FC4180208DF80000544C6B46012253
:104180002068817C60680078FCF72AFF4FF0FF36DA
:1041900010B13046BDE8FC81642000F07BFE0025B4
:1041A0008DF8005020686B460122817C60680078A1
:1041B000FCF716FF08B13046ECE720686B46062294
:1041C000817D60680078FCF7A5FE08B13046E1E724
:1041D0009DF805009DF80310C007400F01F0010194
:1041E00040EA41019DF8010000F001000143012770
:1041F00061B1012906D0022906D035A0FDF796FD50
:104200003046C7E7E77414E0E57412E020686B46B7
:104210000122C17860680078FCF77CFE08B1304666
:10422000B8E79DF8000000F00F0008B3042824D080
:10423000E574FF2104F80A1F04F8021C04F8011CAD
:1042400061704FF6FF70A080A1712172A770277670
:104250006576E572A572E56025616561A576E5760E
:10426000A5834FF4FA6000F0DFFB58B1304691E7C8
:104270002148FDF75BFD30468CE720A0FDF756FD99
:10428000E774D6E7022000F0CBFA08B1304681E7A8
:104290002A2000F035FC08B130467BE7322000F0E0
:1042A0006DFC08B1304675E70020FFF753FD08B1FB
:1042B00030466FE7002000F0EDFA08B1304669E7BC
:1042C000002000F09DFC002064E700002800002092
:1042D000556E737570706F7274656420736F667459
:1042E000776172652070726F647563742072657691
:1042F0002025642E0A000000205F000848616C66DB
:104300002073656E7369746976697479207061725F
:104310007420666F756E642E0A0000002DE9FF4F51
:1043200085B005460E461746DFF8A0804FF0FF39EE
:1043300098F82500002803D0484609B0BDE8F08F62
:104340000EB1002425E04846F7E7281B102800DDC1
:1043500010201FFA80FA3019834602465146204643
:1043600000F0A6FC08B14846E7E701AA51462046FE
:1043700000F0ECF808B14846DFE75846524601A97C
:10438000FBF737FF10B16FF00100D6E704EB0A002E
:1043900084B2AC42D9D3380A8DF800008DF8017090
:1043A000D8F800006B460222817ED8F8040000781D
:1043B000FCF716FE08B14846BFE7012088F8250043
:1043C0000898A8F826000020B7E700002800002081
:1043D0002DE9F84304464FF0FF37282C02D9384620
:1043E000BDE8F8832D4D4FF0070900268CB1012060
:1043F00000F056FB20208DF800004FF00108012C42
:104400001CD0052C20D88DF80180052000F078FB09
:1044100029E0002000F044FB8DF800608DF8019049
:1044200028686B460222817C68680078FCF7D8FD1A
:1044300008B13846D4E72E750020D1E78DF8016029
:10444000052000F05DFB0EE0142C06D802208DF84C
:1044500001000A2000F054FB05E003208DF8010064
:10446000142000F04DFB9DF8010009EB80108DF841
:10447000010028686B460222817C68680078FCF79E
:10448000AFFD08B13846ABE70820A8722E7385F857
:1044900014800020FFF75EFC0020A1E72800002028
:1044A0002DE9F843054689461746274E4FF0FF3859
:1044B00096F8240000280DD0B07A68B130686B46B9
:1044C0000222817A70680078FCF724FD30B1404602
:1044D000BDE8F8834046FBE74046F9E79DF8010058
:1044E0009DF8001040EA0124AC4203D2002038704D
:1044F0004046EDE770684188B4EB510F12D931683E
:1045000000786B46497C0122FCF704FD08B1404667
:10451000DEE79DF80000C00604D500F04FF86FF00C
:104520000100D5E73068EAB24B46C17A706800787E
:10453000FCF7F0FC08B14046CAE7B4FBF5F0401EBA
:1045400038700020C4E70000280000202DE9F8435F
:104550000E4690464FF0FF35B8F1000F10D0164FC1
:10456000B97A79B1010A8DF80010C4B28DF8014012
:10457000A0197C686189884206D92846BDE8F8837D
:104580002846FBE72846F9E738686B460222017E99
:104590002078FCF725FD08B12846EFE73868F2B22D
:1045A0004346417D78680078FCF7B4FC08B12846A2
:1045B000E4E70020E2E7000028000020F8B5594DAC
:1045C0004FF0FF36A87A00280CD000240094286809
:1045D0006B460122C17B68680078FCF701FD18B1C9
:1045E0003046F8BD3046F8BD28686B460122417957
:1045F00068680078FCF7F4FC08B13046F8BD28681C
:104600006B460122017968680078FCF7E9FC08B183
:104610003046F8BD95F8240090B30C20009028682F
:104620006B460122017968680078FCF7D9FC08B173
:104630003046F8BD322000F02DFCC0200090A87A52
:10464000C00701D0E020009028686B460122017964
:1046500068680078FCF7C4FC08B13046F8BD687C97
:1046600010B10220009000E0009428686B460122FF
:10467000C17B68680078FCF7B3FC10B13046F8BD28
:104680000BE0009428686B46012241796868007845
:10469000FCF7A6FCB8B33046F1E704200090286888
:1046A0006B460122017968680078FCF799FC08B133
:1046B0003046E4E7A87C78B9A87AC0070CD060201F
:1046C000009028686B460122017968680078FCF741
:1046D00087FC20B13046D2E740200090F1E732203D
:1046E00000F0D8FB687C10B10120009000E000943D
:1046F00028686B460122C17B68680078FCF770FC73
:1047000010B13046BBE70BE02868064B0122417927
:10471000686810330078FCF763FC08B13046AEE7F8
:104720000020ACE7280000202DE9F0438BB0814643
:1047300088463A4D95F82400002804D0002000F067
:1047400035F9012600E0002602A8FFF79DFC04A829
:10475000FFF74AFC6846FFF7DBFC01A8FFF7FAFC0D
:10476000AF7A03A8FFF788FC0024002241464846A0
:10477000FEF7D0FE10B1641C022CF6DB022C19D01F
:104780000024012205A908A8FEF7C4FE10B1641C8C
:10479000022CF6DB022C0FD005A94046FDF794FD54
:1047A00000F0FF0808A94846FFF7A0F8C0B20024AF
:1047B00020B104E0002407E0002405E00124B8F162
:1047C000000F01D144F00204FF2028726872E872E1
:1047D0004FF6FF71E981A872287401202873BDF893
:1047E000080000F021F99DF8100000F019F8BDF85C
:1047F000000000F085F9BDF8040000F0BFF938466C
:1048000000F0FEF99DF80C00FFF7A4FA16B10120A4
:1048100000F0CCF80BB02046BDE8F0832800002063
:1048200038B51B4C4FF0FF35A17A002909D002287A
:1048300009D004280AD008280BD010280CD028460C
:1048400038BD284638BD0020009007E008200090C1
:1048500004E01020009001E018200090607A9DF89C
:104860000010B0EBD10F01D1002038BD20686B469D
:104870000122C17960680078FCF7B2FB08B12846D4
:1048800038BD9DF80000C0086072002038BD0000EF
:1048900028000020F8B50446434DA87CA04201D171
:1048A0000020F8BD40484FF0FF36D0E90010ACB30F
:1048B000097900786B460122FCF72CFB08B13046E1
:1048C000F8BD9DF8000020F02000009028686B469D
:1048D0000122017968680078FCF782FB08B1304654
:1048E000F8BD032000F0D6FA0220009095F82200CF
:1048F00008B18220009095F8230020B19DF80000B7
:1049000040F03000009028686B460122017D686805
:104910000078FCF765FBE8B33046F8BDFFE709799E
:1049200000786B460122FCF7F5FA08B13046F4E74F
:10493000A87AC00705D09DF8000040F02000009044
:1049400004E09DF8000020F02000009028686B46ED
:104950000122017968680078FCF742FB08B1304613
:10496000DBE7032000F096FA95F8220010B18020D2
:10497000009001E00020009095F8230020B19DF800
:10498000000040F03000009028686B46017D6868A8
:10499000007800E005E00122FCF722FB08B1304678
:1049A000BBE7AC740020B8E72800002038B51D4CE8
:1049B00094F82410814201D1002038BD0025F0B1C7
:1049C00094F82500C0B1002000F0EEF90020FFF7B8
:1049D00061FFE08C00F0D2F8009560686B46012220
:1049E00000782321FCF7FCFA012084F8240000F071
:1049F000DBF9FFF7E3FD12E04FF0FF3038BD002098
:104A000000F0D2F9207C009060686B4601220078AB
:104A10002321FCF7E5FA84F82450FFF7CFFD0020AE
:104A200038BD00002800002038B51C4C4FF0FF3581
:104A3000A17A00290CD0FA280CD0B0F5FA7F0CD05E
:104A4000B0F57A7F0CD0B0F5FA6F0CD0284638BD9F
:104A5000284638BD0020009007E00820009004E0C0
:104A60001020009001E018200090207A9DF800109E
:104A7000B0EBD10F01D1002038BD20686B46012278
:104A8000817960680078FCF7ABFA08B1284638BD38
:104A90009DF80000C0082072002038BD28000020CA
:104AA00038B50446154D95F82300A04201D10020E9
:104AB00038BD14B13020009001E000200090A87CA7
:104AC00020B19DF8000040F00200009095F822000F
:104AD00020B19DF8000040F08000009028686B46EF
:104AE0000122017D68680078FCF77AFA10B14FF076
:104AF000FF3038BD85F82340002038BD2800002055
:104B000038B51D4C4FF0FF35A17A002904D0BC28E0
:104B100004D30120009017E0284638BD622802D354
:104B20000220009010E02A2802D3032000900BE01E
:104B3000142802D30420009006E00A2802D305209E
:104B4000009001E006200090E07A9DF80010884275
:104B500001D1002038BD20686B4601228178606851
:104B60000078FCF73DFA08B1284638BD9DF80000F2
:104B7000E072002038BD000028000020F8B504468F
:104B80001E4D4FF0FF37A87A002804D095F8240076
:104B900018B13846F8BD3846F8BD287D50B134B15B
:104BA000282C04D8E0B2FFF713FC0020F8BD002049
:104BB000FFF70EFC4FF47A76042C01D2042402E0B5
:104BC000B44200D93446B6FBF4F0401E0090286889
:104BD0006B460122417868680078FCF701FA08B159
:104BE0003846F8BD9DF80000401CB6FBF0F0E881A7
:104BF0004008FFF785FF0020F8BD000028000020D6
:104C0000F8B5044614F0700F4FF0000602D00120F2
:104C1000009004E00CB1009601E040200090234D8C
:104C20006B4601222868817C68680078FCF7D8F917
:104C30004FF0FF3710B1AE723846F8BD9DF8000056
:104C400020F0400028730096600601D404200090F4
:104C5000A00604D49DF8000040F002000090E00699
:104C600004D49DF8000040F001000090200704D417
:104C70009DF8000040F03800009028686B46012243
:104C8000C17C68680078FCF7ABF910B1AE723846A9
:104C9000F8BD24B1082C02D00020FFF701FFAC7250
:104CA0002E75322000F0F6F80020F8BD2800002014
:104CB0002DE9F8430E4690464FF0FF35B8F1000F4E
:104CC00010D0164FB97A79B1010A8DF80010C4B22C
:104CD0008DF80140A0197C686189884206D9284670
:104CE000BDE8F8832846FBE72846F9E738686B46B5
:104CF0000222017E2078FCF773F908B12846EFE71D
:104D00003868F2B24346417D78680078FCF768F96C
:104D100008B12846E4E70020E2E700002800002070
:104D2000002800DA4042704710B588B002A905A8F3
:104D3000FFF7FAFC032802D0012008B010BD01A83B
:104D4000FFF7C2F90598FBF765FC01990C46FBF7E4
:104D5000B5FAFBF77EFC05900698FBF75BFC214655
:104D6000FBF7ACFAFBF775FC06900798FBF752FCD3
:104D70002146FBF7A3FAFBF76CFC079005A8FEF7AA
:104D800019F96846FFF752F9BDF80000029941434E
:104D9000029103994143039104994143049102A86C
:104DA000FEF74AF80020C8E7F8B51B4C002322465E
:104DB00094F8246006CA5D1E002E11D010B10220A6
:104DC000009000E000931078C97B6B460122FCF74D
:104DD00007F908B12846F8BD9DF80000607419E095
:104DE000A67A26B128B1667C1EB10020F8BD2846FF
:104DF000F8BD10B10120009000E000931078C97B4D
:104E00006B460122FCF7ECF808B12846F8BD9DF886
:104E1000000060740020F8BD280000202DE9F0415A
:104E200006460F46FBF72AFE041E0D4618BF01205A
:104E3000284320F00040C0F17F6000F1E040C00F47
:104E40000ED0301C18BF0120384320F00040C0F1C4
:104E50007F6000F1E040C00F04BF0120FDF702F8C1
:104E600020462946BDE8F08110B504466FF00400E5
:104E7000FCF7BAFA0649E008087000EB4002C2EB02
:104E8000C0104FF6FF7202EAC000488010BD00005B
:104E9000D00000200B49498848434FF0E021486189
:104EA00000238B61086940F0010008610869C207AE
:104EB00001D0C003FAD5086920F0010008618B61B8
:104EC00070470000D00000200B49097848434FF09C
:104ED000E021486100238B61086940F0010008610E
:104EE0000869C20701D0C003FAD5086920F00100A3
:104EF00008618B6170470000D00000202DE9F74F5A
:104F000082B083463B4D3C4801900026DFF8EC80A0
:104F1000DFF8EC900027D8F800003A4C012828D0A0
:104F2000D9F80000012824D0374820636763E7627E
:104F3000D8F80000DFF8D480012839D0D9F8000073
:104F400001283BD067622946606AFBF7FDFB00D26F
:104F500065624046616AFBF7F7FB01D2C4F8248022
:104F60002B48006801282FD02A48006801282BD040
:104F70002CE04FF07E5A5146606BFBF747F96063B7
:104F8000504506D103985844FFF7CAFEFBF742FB91
:104F9000E0622148E16AFBF7C3F920631F498842B8
:104FA00000DA21631E48216B8142C1DD2063BFE727
:104FB000216B606AFBF77CF96062C4E7216B606A71
:104FC000FBF724F96062BEE74FF07C563146049847
:104FD000FBF774F90546606A019980F00040FBF721
:104FE0006DF92946FBF764F9A06205B0BDE8F04F02
:104FF000FBF72FBB000030420000A0412000002042
:1050000024000020700000206666663F000030C269
:10501000180000201C00002000005C429A99193FF3
:105020000000404070B586B0054601218803FCF7BA
:10503000BFF801210420FCF7BBF818208DF81700F9
:105040004FF40070ADF8140003248DF81640214E83
:1050500005A93046FBF702FE04208DF81700000278
:10506000ADF8140005A93046FBF7F8FD01950020C6
:10507000ADF80800ADF80A00ADF80C000C21ADF851
:105080000E10ADF81000144D01A92846FCF7CCFD18
:1050900001212846FCF77AFD40212846FCF772FDE5
:1050A000012240F225512846FCF7A3FD4FF4A060F1
:1050B000FCF752F825208DF800008DF801408DF89E
:1050C000024001208DF803006846FCF713F806B093
:1050D00070BD000000080140003801402DE9F0419A
:1050E00032480027324E0068012858D03148006805
:1050F000012857D0F76130483049006809680844F2
:10510000FBF788FA04467061B069FBF7EEFA4FF0DE
:1051100066322B4BFBF7F5F9FBF7FAFA804620468F
:10512000FBF7E3FA4FF03332264BFBF7EAF904467C
:105130000D464046FBF7D9FA22462B46FBF73AF9D3
:10514000FBF7E6FA0446B0610146306AFBF75EF809
:10515000F169FBF7ADF830621B49884200DD31622E
:105160001A48316A814200D93062F168306AFBF72F
:10517000A5F805462046B168FBF7A0F82946FBF7DD
:1051800045F830611249134A0968914202D8124A1F
:10519000914200DD3762BDE8F041FBF75ABA0F4893
:1051A000F061A8E70E48F061A5E7000018000020B4
:1051B000700000201C000020C4000020C800002057
:1051C0006666E63F3333D33F00401C4600401CC6B2
:1051D000B0000020000020C2000020420000A041DA
:1051E0000000A0C175191A0C6A231B1C1F207274C1
:1051F000433B4138393A6B6C376F06246D6E700053
:105200006800000476005401F7FD000183000000EF
:1052100000080000000100183200050000002041D5
:105220000000D242295C0F3E9A99993E3333733F76
:10523000295C0F3E00007000000000240000000206
:105240000003000000650054FFEF0000FA80000B2F
:1052500012820001030C30C30E8C8CE914D540027D
:1052600013710F8E3883F8833000F883258EF8830E
:105270003000F883FFFFFFFF0FFEA9D624000400D3
:105280001A8279A10000003CFFFF0000001000001E
:1052900038836FA2003E03304000000002CAE309D9
:1052A0003E800000200000000000000040000000E0
:1052B00060000000000C0000000C186E0000069258
:1052C0000A16C0DFFFFF0256FD8CD377FFE1C496BC
:1052D000E0C5BEAA00000000FFFF0B2B0000165720
:1052E000000003594000000000001DFA00026C1D80
:1052F000000000003FFFDFEB003EB3B6000D227858
:1053000000002F3C00000000001942B5000039A247
:105310000000B365D90E9FC91DCF4C34300000008A
:10532000500000003BB67AE80064000000C80000AE
:1053300000000000100000001000FA921000225E31
:10534000000D229F0001000000320000FF46000017
:1053500063D400001000000004D6000004CC00005C
:1053600004CC0000000010720000004000000000AB
:105370000000000000060002000500070000000019
:10538000006400000000000000000005000500644B
:1053900000200000000000000000000000004000AD
:1053A0000000030000000032F8980000FF650000D4
:1053B000830F0000FF9BFC000000000000000000C5
:1053C00000000000000000000000000000000000DD
:1053D00000000000000000000000000000000000CD
:1053E0000000100040000000000000060000B26A4B
:1053F000000200000001FB830068000000D9FC00EF
:105400007CF1FF830000000000650000006403E8F9
:1054100000640028000000250000000016A0000025
:105420000000100000001000002F0000000001F438
:105430000000100000280000FFFF4581FFFFFA7206
:105440000000000000000000004400050005BAC68E
:10545000004778A2000000010000000000000600E4
:10546000000000140000254D002F706D000005AEF7
:10547000000C02D00000000000000000000000004E
:1054800000000000001B0000000000000000000001
:1054900000000000006400000008000000000000A0
:1054A00000000000000000000000000000000000FC
:1054B00000000000000000000000000000000000EC
:1054C00000000000000000000000000000000000DC
:1054D00000000000000000000000000000000000CC
:1054E00000000000000000000000000000000000BC
:1054F00000000000001B0000000000000000000091
:10550000000E000E00000AC7000400000000003278
:10551000FFFFFF9C00000B2B0000000200000001B9
:1055200000000064FFE50000000000000000000033
:105530000000000000000001000000000001000069
:1055400000000000000180000001800000018000D8
:10555000002426D300000000000000000006001018
:105560000096003C00000000000000000000000069
:10557000000000000C0A4E68CDCF7709501667591D
:10558000C619CE82000000000000000000000000EC
:1055900000000000000000000000000017D7840099
:1055A000030000000000000000000000C7938F9D72
:1055B0001E1B1C190000000000000000000000007D
:1055C0000000000000000000000000000203188539
:1055D0000000400000000003000000030000000085
:1055E000000000004000000000000000000000007B
:1055F00000000000000000000000000000000000AB
:10560000000000000000000000000000000000009A
:105610000000000000000000677DDF7E72902E55C4
:105620004CF6E688000000000000000000000000CA
:1056300000000000D8DCB4B8B0D8B9ABF3F8FAB3C6
:10564000B7BB8E9EAEF132F51BF1B4B8B08097F1C6
:10565000A9DFDFDFAADFDFDFF2AAC5CDC7A90CC94A
:105660002C97F1A989264666B28999A92D557DB056
:10567000B08AA896365676F1BAA3B4B280C0B8A85C
:105680009711B28398BAA3F0240844106418B2B9F1
:10569000B49883F1A329557DBAB5B1A38393F000E3
:1056A0002850F5B2B6AA839328547CF1B9A382930B
:1056B00061BAA2DADEDFDB819AB9AEF5606870F11B
:1056C000DABAA2DFD9BAA2FAB9A38292DB31BAA2BE
:1056D000D9BAA2F8DF85A4D0C1BBAD83C2C5C7B813
:1056E000A2DFDFDFBAA0DFDFDFD8D8F1B8AAB38D41
:1056F000B4980D355DB2B6BAAF8C96198F9FA70ED0
:10570000161EB49AB8AA872C547CBAA4B08AB69153
:10571000325676B28494A4C808CDD8B8B4B0F19902
:1057200082A82D557D98A80E161EA22C547C92A4FA
:10573000F02C5078F184A898C4CDFCD80DDBA8FCDF
:105740002DF3D9BAA6F8DABAA6DED8BAB2B68696DA
:10575000A6D0F3C841DAA6C8F8D8B0B4B882A892E7
:10576000F52C548898F135D9F418D8F1A2D0F8F96D
:10577000A884D9C7DFF8F883C5DADF69DF83C1D829
:10578000F40114F1A8824EA884F311D182F5D992C4
:10579000289788F109F41C1CD884A8F3C0F9D1D942
:1057A0009782F129F40DD8F3F9F9D1D982F4C20323
:1057B000D8DEDF1AD8F1A2FAF9A88498D9C7DFF8A1
:1057C000F8F883C7DADF69DFF883C3D8F40114F18E
:1057D00098A8822EA884F311D182F5D99250978887
:1057E000F109F41CD884A8F3C0F8F9D1D99782F153
:1057F00049F40DD8F3F9F9D1D982F4C403D8DEDF26
:10580000D8F1AD8898CCA809F9D98292A8F57CF195
:10581000883ACF944A6E98DB6931DAADF2DEF9D876
:105820008795A8F221D1DAA5F9F417D9F1AE8ED077
:10583000C0C3AE82C684C3A88595C8A588F2C0F14E
:10584000F4010EF18E9EA8C63E56F554F18872F40E
:105850000115F19845856EF58E9E0488F142985A9F
:105860008E9E068869F4011CF1981E1108D0F5047B
:10587000F11E970202983625DBF9D985A5F3C1DA26
:1058800085A5F3DFD88595A8F309DAA5FAD8829221
:10589000A8F578F1881A849F26889821DAF41DF3F8
:1058A000D8879F39D1AFD9DFDFFBF9F40CF3D8FAF1
:1058B000D0F8DAF9F9D0DFD9F9D8F40BD8F3879F0B
:1058C00039D1AFD9DFDFF41DF3D8FAFCA869F9F9B3
:1058D000AFD0DADEFAD9F88F9FA8F1CCF398DB4588
:1058E000D9AFDFD0F8D8F18F9FA8CAF38809DAAF13
:1058F0008FCBF8D8F2AD978D0CD9A5DFF9BAA6F306
:10590000FAF412F2D8950DD1D9BAA6F3FADAA5F2C3
:10591000C1BAA6F3DFD8F1BAB2B68696A6D0CAF35A
:1059200049DAA6CBF8D8B0B4B8D8AD84F2C0DFF16C
:105930008FCBC3A8B2B68696C8C1CBC3F3B0B48828
:1059400098A821DB718D9D71859521D9ADF2FAD88A
:105950008597A828D9F408D8F28D29DAF405D9F268
:1059600085A4C2F2D8A88D9401D1D9F411F2D887B8
:1059700021D8F40AD8F28498A8C801D1D9F411D852
:10598000F3A4C8BBAFD0F2DEF8F8F8F8F8F8F8F8EE
:10599000D8F1B8F6B5B9B08A95A3DE3CA3D9F8D84A
:1059A0005CA3D9F8D87CA3D9F8D8F8F9D1A5D9DF68
:1059B000DAFAD8B18530F7D9DED8F830ADDADED8EA
:1059C000F2B48C99A32D557DA083DFDFDFB591A0C4
:1059D000F629D9FBD8A0FC29D9FAD8A0D051D9F8FA
:1059E000D8FC51D9F9D879D9FBD8A0D0FC79D9FA0B
:1059F000D8A1F9F9F9F9F9A0DADFDFDFD8A1F8F8D1
:105A0000F8F8F8ACDEF8ADDE8393AC2C547CF1A84A
:105A1000DFDFDFF69D2CDAA0DFD9FADB2DF8D8A87E
:105A200050DAA0D0DED9D0F8F8F8DB55F8D8A8784D
:105A3000DAA0D0DFD9D0FAF8F8F8F8DB7DF8D89CF6
:105A4000A88CF530DB38D9D0DEDFA0D0DEDFD8A8D7
:105A500048DB58D9DFD0DEA0DFD0DED8A868DB7005
:105A6000D9DFDFA0DFDFD8F1A888902C547C98A87C
:105A7000D05C38D1DAF2AE8CDFF9D8B087A8C1C1DA
:105A8000B188A8C6F9F9DA36D8A8F9DA36D8A8F96B
:105A9000DA36D8A8F9DA36D8A8F9DA36D8F78D9DEB
:105AA000ADF818DAF2AEDFD8F7ADFA30D9A4DEF9E6
:105AB000D8F2AEDEFAF983A7D9C3C5C7F1889BA790
:105AC0007AADF7DEDFA4F8849408A797F300AEF26E
:105AD0009819A488C6A39488F632DFF28393DB0971
