:10198E00564F55543A2025342E3166205600494F75
:10199E0055543A2025372E3266206D41004241546F
:0A19AE003A2025342E316620560041
:051A0900420053000043
:10185E00E4F594F593759204F591F596F595F5B238
:10186E00F5B1F5B4F5B3F5CAF5C9438E4053890FFA
:10187E00758B40758DA2C28FC28ED2AB1219B8D2A3
:10188E00AF1212DB900006E4F0A37450F0E4A3F064
:10189E00A3F07BA0FAFDFCFFFE12169C1215867FAC
:1018AE00CD7ECC7D6C7C4090004DE0F8A3E0F9A39A
:1018BE00E0FAA3E0FB1202CC5004D28E80DEC28E80
:0218CE0080DABE
:101586007E007F147D007B017A00790012065F9051
:10159600001774FFF0A37419F0A3748EF09000493D
:1015A600E0FCA3E0FDA3E0FEA3E0FF90001A120614
:1015B6000D7B017A007900120CE07B017A0079003C
:1015C60090001BE4F0A3741FF0E4A3F0A3F0A3744F
:1015D60010F0E4A3F0FDFCFFFE1217D47E007F148A
:1015E6007D007B017A00790012065F90001774FF78
:1015F600F0A37419F0A3749CF0900044E0FCA3E0FF
:10160600FDA3E0FEA3E0FF90001A12060D7B017A0F
:10161600007900120CE07B017A00790090001BE44F
:10162600F0A3741FF0E4A3F0A3F0A37410F0E4A3F6
:10163600F07D14FCFFFE1217D47E007F147D007B24
:10164600017A00790012065F90001774FFF0A37408
:1016560019F0A374ABF090004DE0FCA3E0FDA3E00D
:10166600FEA3E0FF90001A12060D7B017A007900B6
:10167600120CE07B017A00790090001BE4F0A37461
:101686001FF0E4A3F0A3F0A37410F0E4A3F07D2808
:06169600FCFFFE0217D468
:03001B0002195A6D
:10195A00C0E0C083C082C0D0900054E004F070069A
:10196A00900053E004F0C3900054E094F4900053C4
:10197A00E094014006B292E4F0A3F0D0D0D082D035
:04198A0083D0E032F4
:10068B00000000000000000000000000000000005F
:10069B0000000008080808080808000018180000E7
:1006AB0000486C2412000000000000000000000055
:1006BB000000002424247F1212127F121212000059
:1006CB000000081C2A2A0A0C1828282A2A1C0808A9
:1006DB0000000022251515152A58545454220000E9
:1006EB000000000C1212120A76252911916E0000DF
:1006FB0000060604030000000000000000000000DC
:10070B0000402010100808080808081010204000AE
:10071B000002040808101010101010080804020042
:10072B000000000008086B1C1C6B08080000000090
:10073B0000000000080808087F08080808000000EF
:10074B00000000000000000000000000060604038B
:10075B000000000000000000FE0000000000000090
:10076B000000000000000000000000000606000072
:10077B0000008040402020101008080404020200F2
:10078B000000001824424242424242422418000018
:10079B00000000080E08080808080808083E0000BA
:1007AB000000003C4242422020100804427E000020
:1007BB000000003C4242201820404042221C000016
:1007CB00000000203028242422227E2020780000E4
:1007DB000000007E0202021A26404042221C00004A
:1007EB00000000382402021A26424242241800005C
:1007FB000000007E222210100808080808080000DC
:10080B000000003C4242422418244242423C000079
:10081B00000000182442424264584040241C00004F
:10082B00000000000000181800000000181800005D
:10083B000000000000000008000000000008080491
:10084B0000000040201008040204081020400000A3
:10085B000000000000007F0000007F00000000008F
:10086B0000000002040810204020100804020000C1
:10087B000000003C424246402010100018180000B7
:10088B000000001C225A555555552D42221C0000C4
:10089B000000000808181414243C224242E7000010
:1008AB000000001F2222221E22424242221F000071
:1008BB000000007C4242010101010142221C0000A8
:1008CB000000001F2242424242424242221F0000CD
:1008DB000000003F4212121E12120242423F000061
:1008EB000000003F4212121E121202020207000009
:1008FB000000003C2222010101712122221C000078
:10090B00000000E7424242427E42424242E7000080
:10091B000000003E0808080808080808083E000008
:10092B000000007C10101010101010101010110F80
:10093B000000007722120A0E0A1212222277000000
:10094B00000000070202020202020202427F0000C4
:10095B0000000077363636362A2A2A2A2A6B000000
:10096B00000000E346464A4A525252626247000078
:10097B000000001C2241414141414141221C000029
:10098B000000003F424242423E02020202070000C8
:10099B000000001C2241414141414D53321C60007B
:1009AB000000003F4242423E1212222242C7000088
:1009BB000000007C4242020418204042423E0000EC
:1009CB000000007F4908080808080808081C0000F8
:1009DB00000000E74242424242424242423C000097
:1009EB00000000E7424222242414141808080000D7
:1009FB000000006B49494949555536222222000017
:100A0B00000000E7422424181818242442E70000B1
:100A1B00000000772222141408080808081C0000A4
:100A2B000000007E2120101008040442423F000009
:100A3B00007808080808080808080808080878005B
:100A4B000000020204040808081010202020404077
:100A5B00001E1010101010101010101010101E008F
:100A6B0000384400000000000000000000000000FF
:100A7B00000000000000000000000000000000FF6C
:100A8B00000608000000000000000000000000004D
:100A9B00000000000000003C4278444242FC000091
:100AAB00000000030202021A26424242261A0000EC
:100ABB00000000000000003844020202443800002D
:100ACB0000000060404040784442424264D800003D
:100ADB00000000000000003C427E0202423C00008D
:100AEB00000000F08808087E08080808083E00008F
:100AFB00000000000000007C22221C023C42423C11
:100B0B00000000030202023A4642424242E7000062
:100B1B000000000C0C00000E08080808083E00003E
:100B2B000000003030000038202020202020221E22
:100B3B000000000302020272120A16122277000052
:100B4B000000000E0808080808080808083E000006
:100B5B00000000000000007F9292929292B700007A
:100B6B00000000000000003B4642424242E700000A
:100B7B00000000000000003C42424242423C0000A8
:100B8B00000000000000001B26424242221E02070A
:100B9B00000000000000007844424242447840E0EC
:100BAB0000000000000000774C040404041F000048
:100BBB00000000000000007C42023C40423E00006E
:100BCB00000000000008083E080808080830000074
:100BDB0000000000000000634242424262DC000061
:100BEB0000000000000000E7422424140808000065
:100BFB0000000000000000EB49495555222200007F
:100C0B00000000000000007624181818246E000065
:100C1B0000000000000000E7422424141808080715
:100C2B00000000000000007E22100808447E000037
:100C3B0000C0202020202010202020202020C000B9
:100C4B001010101010101010101010101010101099
:100C5B000006080808080810080808080808060015
:100C6B000C32C20000000000000000000000000079
:10169C00900000EEF0A3EFF0A3ECF0A3EDF0A3EAC2
:0416AC00F0A3EBF0CC
:1016B000C006C00724FFFBEA34FFFAA3E0FEA3E064
:1016C00024FFFFEE34FF900042F0A3EFF0D007D0EC
:1016D000061218D0900002E0FFA3E090000ACFF0BD
:1016E000A3EFF0900006E0FEA3E0FFC390000BE044
:1016F0009F90000AE09E504F900000E0FFA3E09012
:10170000000CCFF0A3EFF0900004E0FEA3E0FFC3D5
:1017100090000DE09F90000CE09E501B900008E0B0
:10172000FEA3E0FF12000A90000DE004F070D890D4
:10173000000CE004F080D090000BE004F070A49066
:07174000000AE004F0809CA8
:01174700227F
:10191800900036EEF0A3EFF090003AEAF0A3EBF077
:10192800900038ECF0A3EDF0900036E0FAA3E0FB6D
:10193800FFAE02C007A3E0FFA3E0900042CFF0A3F0
:10194800EFF0D0071218D090003AE0FEA3E0FF02B3
:02195800000A83
:1010FE00900023ECF0A3EDF0A3EBF0900021EEF0C6
:03110E00A3EFF05C
:10111100E490002FF0900034EEF0A3EFF090002A5D
:10112100E0F9C31390002DF0E0FF131313541FFDDA
:101131007C00EF54077E0060047F0180027F00EF96
:101141002DFFEE3CFEE9FD7C001205D7900032EE4A
:10115100F0A3EFF0900025E024E0F0900023E0FC04
:10116100A3E0FD90002DE0FF7E00900021E0FAA3B6
:10117100E02FFFEE3ACF24FFFBEF34FFFAE9FFA3A4
:10118100E0F8A3E02FFFEE38CF24FFCF34FF90002B
:1011910042F0A3EFF0900021E0FEA3E0FF1218D08F
:1011A100E4900030F0A3F0900032E0FEA3E0FF9065
:1011B1000030E0FCA3E0FDC39FEC9E40030212DA85
:1011C100900025E075F010A4248BF582E5F034063B
:1011D100F583E5822DF582E5833CF583E493900068
:1011E1002CF0E490002EF090002EE0FFC394084014
:1011F100030212C990002BE07045FE04A807088085
:1012010005C333CE33CED8F9FF90002CE0FDEF5D5E
:1012110060059000268003900028E0FEA3E0FF1205
:10122100000A90002FE004F090002DE0FF90002FC5
:10123100E08FF084E5F060030212C0F00212C99061
:10124100002EE0FF7E007401A807088005C333CE9D
:1012510033CED8F9FF90002CE0FDEF5D60199000CE
:1012610021E0FEA3E0FFA3E0FCA3E0FD900026E067
:10127100FAA3E0FB121918900022E004F070069026
:101281000021E004F0900034E0FEA3E0FFC39000F1
:1012910022E09FFD900021E09EFC90002DE07A006D
:1012A100B5051CEAB50418900021EEF0A3EFF0900B
:1012B1000024E004F07011900023E004F080099014
:1012C100002EE004F00211E8900031E004F0700615
:0912D100900030E004F00211A8C5
:0112DA0022F1
:1017D400900014EEF0A3EFF0A3ECF0A3EDF0A3EB74
:1017E400F0A3EAF0A3E9F0900018E0FBA3E0FAA369
:1017F400E0F912057FFB6061900016E0FCA3E0FDB8
:1018040090001BE0FFA3E0900026CFF0A3EFF09040
:10181400001DE0FFA3E0900028CFF0A3EFF09000BC
:101824001FE090002AF0900020E090002BF0900040
:1018340014E0FEA3E0FF1210FE90001FE0C313FFAC
:10184400900015E02FF0900014E03400F09000199F
:0A185400E475F0011205E9808E2210
:101A2D00C2B3E4FEC2B4EF30E704D2B58002C2B552
:0D1A3D00D2B4EF25E0FF0EEEB408E9D2B3FD
:011A4A002279
:0F1A4B0012001E7F05121A5A7F3C121A5A7F3C56
:031A5A00021A2D40
:07000300241AFFE03400FEA7
:0E000A00AD07AC06ECFF121A2DAF05021A2D41
:08001E00C2B6121A2DD2B6225F
:1018D00090003CEEF0A3EFF0A3ECF0A3EDF07F2A34
:1018E00012001E90003DE02401FF90003C12000613
:1018F000EB2401FFE43AFE12000A7F2B12001E9037
:10190000003FE090003E120003900043E090004250
:081910001200037F2C02001EEF
:1012DB00C2B7121A5DD2B7121A5DC2CC121A5D7F59
:1012EB001112001E121A6C7FB1121A4B7FB2121A16
:1012FB004B7FB3121A4B121A4E7FB412001E7F0390
:10130B00121A5A7FC012001E7FAB121A5A7F0B1291
:10131B001A5A7F04121A5A7FC112001E7FC5121A65
:10132B005A7FC212001E7F0D121A5AE4FF121A5A6C
:10133B007FC312001E7F8D121A5A7F6A121A5A7FB0
:10134B00C412001E7F8D121A5A7FEE121A5A7FC5D5
:10135B0012001E7F0F121A5A7FE012001E7F071217
:10136B001A5A7F0E121A5A7F08121A5A7F07121A2C
:10137B005A7F10121A5A7F07121A5A7F02121A5AE0
:10138B007F07121A5A7F09121A5A7F0F121A5A7FA5
:10139B0025121A5A7F36121A5AE4FF121A5A7F086C
:1013AB00121A5A7F04121A5A7F10121A5A7FE1121C
:1013BB00001E7F0A121A5A7F0D121A5A7F08121A30
:1013CB005A7F07121A5A7F0F121A5A7F07121A5A8C
:1013DB007F02121A5A7F07121A5A7F09121A5A7F62
:1013EB000F121A5A7F25121A5A7F35121A5AE4FF16
:1013FB00121A5A7F09121A5A7F04121A5A7F1012A4
:10140B001A5A7FFC12001E7F80121A5A7F3A120062
:10141B001E7F05121A5A7F3612001E7F78121A5A37
:10142B007F2112001E7F2912001E7F2A12001EE44C
:10143B00FF121A5A7F1A121A5AE4FF121A5A7F69AC
:10144B00121A5A7F2B12001EE4FF121A5A7F011236
:10145B001A5AE4FF121A5A7FA0121A5A7F2C020052
:01146B001E62
:0E1A5D0000007F0D7E2D7DD6DDFEDEFCDFFA63
:011A6B002258
:0D1A6C00007F0F7E9D7D35DDFEDEFCDFFA84
:011A7900224A
:101A0E00410048004200510000440049000000001F
:0E1A1E004400440000000044004D00000000A1
:1019B800E4F592759102F5B275B10443BA8090FED0
:1019C800A8743FF090FEADE04406F053BA7F75DE90
:0A19D8000F75BC80D2AD43BC402265
:03002B0002146C50
:10146C00C0E0C0F0C083C082C0D075D000C000C046
:10147C0001C002C003C004C005C006C00753BCDFD6
:10148C00AFBDEF900051F0A3E4F0AFBE900051E07F
:10149C00F0A3E04FF0900051E0FEA3E07806CEC33D
:1014AC0013CE13D8F9F0EE900051F0900048E014F0
:1014BC00603A24F7606F240A600302155D900051B6
:1014CC00E0FCA3E0FDE412034AE4FBFA79D2783D98
:1014DC001201267B3D7A0A795778BE1200359000AE
:1014EC004912060D9000487401F08065900051E09F
:1014FC00FEA3E0FF7C007D051205D7AC06AD07E42A
:10150C0012034AE4FBFA7980784312022FE4FBFAC7
:10151C00797A784412012690004412060D90004806
:10152C00740AF0802C900051E0FCA3E0FDE412035F
:10153C004AE4FBFA7970783C1201267B3D7A0A79F1
:10154C0057783E12003590004D12060D900048E47D
:10155C00F0E5BC54F04440FF900048E04FF5BCD09F
:10156C0007D006D005D004D003D002D001D000D0D3
:0A157C00D0D082D083D0F0D0E0324E
:10002E000203B8E86480F8E933E83360110460F045
:10003E00ED33EC337009E8FCE9FDEAFEEBFF220438
:10004E0060DED3EB9FEA9EE99DE8C2E78CF0C2F733
:10005E0095F0400CE8CCF8E9CDF9EACEFAEBCFFBFF
:10006E0012038385D0F05804700320D5B3E80470D2
:10007E00075002B2D50203C292D5EC0460F7E4CC6D
:10008E00C0E0C398F8603B94186008400DD0E0FBC8
:10009E0002039AE4FBFAC9FC8028E830E406E4C9BE
:1000AE00FBE4CAFCE830E305E4C9CACBFCE854071C
:1000BE006010F8C3E913F9EA13FAEB13FBEC13FC27
:1000CE00D8F130F52FC3E49CFCEF9BFFEE9AFEEDCA
:1000DE0099FDD0E0FBEF4E4D4C701222DB03020374
:1000EE00BFEC2CFCEF33FFEE33FEED33FDED30E7CE
:1000FE00EB02039AEF2BFFEE3AFEED39FDD0E0FB5B
:10010E0050130BBB00030203C2ED13FDEE13FEEF03
:08011E0013FFEC13FC02039A2D
:10012600EC4D6011E8497017ED33EC3304600DE4D3
:10013600FCFFFEFD22E933E8330470F80203B8122F
:10014600038358046009E4CC248150062850090230
:1001560003C22840030203BFC0E0EB4A7044B980E3
:1001660006D0E0FB0203AEEF4E701CBD8008EBFF2D
:10017600EAFEE9FD80EBE98DF0A4FEE5F002020F50
:10018600E9CDF9EAFEEBFFEF89F0A4FCE5F0CE89B4
:10019600F0A42EFFE435F0CD89F0A42DFEE435F071
:1001A6008067EF4E7005BD80D780C3EF8BF0A4AC9F
:1001B600F0EE8BF0A42CFCE435F0F8EF8AF0A42CDA
:1001C600E5F038FCE433CB8DF0A42CFCE5F03BF8ED
:1001D600EE8AF0A42CFCE5F038F8E433CF89F0A4DD
:1001E6002CFCE5F038CF3400CE89F0A42FFFE5F0E3
:1001F6003EFEE433C98DF0A42EFEE5F039CD8AF03B
:10020600A42FFFE5F03EFEE43DFD33D0E0FB5007B2
:100216000BBB000F0203C2EC2CFCEF33FFEE33FEE8
:06022600ED33FD02039A16
:10022C000203C2EC5D046005E8590470030203B8D4
:10023C00120383580460F6EC4860F2EC7004FDFE87
:10024C00FF22C860DB2481C85009C39860025006A5
:10025C000203BF9850CAF582E9294B4A7005AB825C
:10026C000203AE75F0007C1A7880C3EF9BEE9AED1A
:10027C0099400DC3EF9BFFEE9AFEED99FDE842F01D
:10028C00DC23ACF0D0E0FFD0E0FED0E0FDAB822070
:10029C00E7101BEB60BAEC2CFCEF33FFEE33FEEDFA
:1002AC0033FD02039AE803F830E705C0F075F0005F
:1002BC00EF2FFFEE33FEED33FD40B830E7C280AADE
:1002CC0074F8CC6480CCC86480C8F58204604FC3D9
:1002DC00EB9FF5F0EA9E42F0E99D42F0E89C45F078
:1002EC00603C501DE5825FFFE582D313CB5BCBF402
:1002FC002B5582FB50280ABA002409B9002008802B
:10030C001DE5825BFBE582D313CF5FCFF4C3132FC4
:10031C005582FF50090EBE00050DBD00010CC3EB4C
:10032C009FF5F0EA9E42F0E99D42F0E89C45F060B2
:09033C0007CC4820E701B3EC22D4
:1003450075F020800E75F010800575F0087D007E33
:10035500007F003392D530D5031205FFEC334010F2
:10036500EF33FFEE33FEED33FDEC33FCD5F0ED223C
:0E037500E5F0247EA2D513CC92E7CDCEFF2278
:100C7B00E5082417F582E43400F583E0050822909B
:100C8B000014300703900017E475F00112061902E7
:100C9B00057F2000E97F2ED2008018EF540F24909F
:100CAB00D43440D4FF30040BEF24BFB41A005003EC
:100CBB002461FFE50960021509050CE50C700205BE
:100CCB000B30070E900014E475F001120619EF02B9
:100CDB0005C50219E27403D2078003E4C207F508C5
:100CEB00900014120630E4F509F50BF50CE50960DC
:100CFB00077F20120CBE80F5750AFFC201C200C22D
:100D0B0002C203C205C206C208120C8AFF700D3064
:100D1B0007057F00120CCFAF0CAE0B22B4255FC2C0
:100D2B00D5C204120C8AFF24D0B40A00501A75F0F5
:100D3B000A780930D50508B6FF0106C6A426F620A9
:100D4B00D5047002D20380D924CFB41A00EF50041B
:100D5B00C2E5D204020FC1D20180C6D20080C0D23C
:100D6B000280BCD2D580BAD20580B47F20120CBED3
:100D7B002002077401B5090040F1120C7BFF120C25
:100D8B00BE020CF8D208D2068095120C7BFB120C1B
:100D9B007BFA120C7BF94A4B700679BF7A107BFFFA
:100DAB0020022EE509602A7E008E827583001205D3
:100DBB009860060EEE650A70F0C2D5EBC0E0EAC093
:100DCB00E0E9C0E0EE121022D0E0F9D0E0FAD0E07A
:100DDB00FB12057FFF60AAEBC0E0EAC0E0E9C0E0D0
:100DEB00120CBED0E02401F9D0E03400FAD0E0FBC5
:100DFB00E50A0460DCD50AD98087D20280A21210E2
:100E0B000460F7E50A7001041203CDA90A600DE531
:100E1B000A600914F50A1210ACEF60F3EA30E7022E
:100E2B00F404C3995079EAF4250A0430E701E40489
:100E3B00F50A800D12100460C1EA050A250A120397
:100E4B00CDEA900043F030E701E4250A04D50A040B
:100E5B0020050114121022E4C0E01210AC900043E4
:100E6B00E0601320E70714F0120CA6802204F0D0E8
:100E7B00E014C0E07F00120CA6E50A6007120C9D7F
:100E8B00150A800B300503120C9DD0E0020CF8D034
:100E9B00E00480C4121004609EE50A041203CD9096
:100EAB000043EAF0E50A2005026001042404121055
:010EBB002214
:100EBC0074FF04C0E01210AC120CA6E50A20050267
:100ECC006003120C9DD0E0B50AE87F45120CB0907F
:100EDC000043E07F2B30E7047F2DF404C0E0120CBC
:100EEC00BED0E075F00A84C0F0120CA7D0E0120C52
:100EFC00A7020CF8791080027908C206C208800893
:100F0C00D2D5790A8004790AC2D5E50A047002F5B3
:100F1C000AE4FAFDFEFF120C7BFC7B082001131285
:100F2C000C7BFD7B1030000A120C7BFE120C7BFF3D
:100F3C007B20EC3382D592D55013C3E43000069F4E
:100F4C00FFE49EFEE42001039DFDE49CFCE4CBF851
:100F5C00C201EC700CCFCECDCCE824F8F870F38045
:100F6C0017C3EF33FFEE33FEED33FDEC33FCEB3305
:100F7C00FB994002FB0FD8E9EB300105F8D0E0C437
:100F8C0048B201C0E00AEC4D4E4F78207B0070C295
:100F9C00EAB50A0040BCC0E0121024D0F0D0E0202A
:100FAC000104C4C0E0C4B201C0F0120CA7D0F0D54B
:100FBC00F0EB020CF81206390D95530F00580D6624
:100FCC004C0D62420F044F0F0C440F0C490D7B4328
:100FDC000F12550E3F460E9F450E094710DF500D60
:100FEC006A2D0D6E2E0D912B0D72230D8F2010C8B6
:100FFC002A0D2A4800000D89E50AB4FF03750A067C
:10100C00120C7BFC120C7BFD120C7BFE120C7BFF7A
:10101C0090003C02040A790AA2D520031430050979
:10102C00B910020404B9080104A2D520060250012B
:10103C00042002689202B509005034C0E07F2030D1
:10104C0003197F30A20272067205500F12107BC278
:10105C0002C206C205C2087F30800F300503E9C00A
:10106C00E0120CBE300503D0E0F9D0E0B509CC306D
:10107C0005177F30B9100C120CBE7F583004077F57
:10108C00788003B90803120CBE3002057F2D020CC8
:10109C00BE7F202008F87F2B2006F322920280CFFF
:1010AC007F00B40700500B243CF582E43400F58338
:1010BC00E0FF22286E756C6C2900D201120C7B307B
:1010CC0001F8C201780930D50108F6020D2A2D501D
:1010DC00434958120C7B2403B405004001E49010E2
:1010EC00DA93120CAF743A120CAFD20375090402E6
:0210FC000F00E3
:10038300E9D2E7C933E833F892D5EDD2E7CD33ECC0
:0703930033FC5002B2D52239
:10039A00EC30E7100FBF000C0EBE00080DBD0004C4
:1003AA000BEB6014A2D5EB13FCED92E7FD2274FF70
:1003BA00FCFDFEFF22E480F8A2D574FF13FC7D80C9
:0303CA00E480EFDD
:1003CD00F920E73624F950037907E4F42402FBE51C
:1003DD0082158270021583DBF6E024FB501BE96069
:1003ED0014E4F0E582158270021583E004F0B40A7E
:0D03FD0008E4F0D9EE7401F00A22C2D52206
:10040A00ED33EC3392D5FA602AB4FF33EDC2E77BC1
:10041A00FF60067A04792FE4227A04793820D50419
:10042A007A047933224E614E002B494E46002D49FB
:10043A004E4600E47A08F0A3DAFC7B00740722C077
:10044A0083C082ECC0E0EDC0E0EEC0E0EFC0E0EABD
:10045A0075F010A4CAABF075F04DA42BFBE435F08F
:10046A00FCEA2410FAEB34C5FBEC34D9FCEDC2E704
:10047A00FF75F056A4F42411C5F0F434C58FF0A426
:10048A002AE5F03BE43CF020E71412053FD0E0FFF8
:10049A00D0E0FED0E0FDD0E0FC12022F8014F4047C
:1004AA0012053FD0E0FFD0E0FED0E0FDD0E0FC1224
:1004BA000126D082D083E0FAEDD2E7CD33EC3324A3
:1004CA0082FBE4C3CF33CFCE33CECD33CD33DBF390
:1004DA007B0775F00A846004F0A31B0AE5F0F0A319
:1004EA008FF0740AA4FFACF08EF0740AA42CFEAC50
:1004FA00F050010C8DF0740AA42CFDE435F0F0A341
:05050A00DBDE74072296
:10050F003F8000004120000042C80000447A0000F4
:10051F00461C400047C35000497424004B18968076
:10052F004CBEBC205A0E1BCA6753C21C749DC5AE6D
:10053F00FB60065407601C232312056DEB543860D3
:10054F0009120559120568120126ECF8EDF9EEFAB9
:10055F00EFCB22EB12056880F1543803241C900571
:10056F000FFE93FC0EEE93FD0EEE930ECE93FF2235
:030000000217489C
:0C174800787FE4F6D8FD75812102178F30
:10057F00BB010689828A83E0225002E722BBFE027A
:09058F00E32289828A83E49322AD
:10059800BB010CE58229F582E5833AF583E0225018
:1005A80006E92582F8E622BBFE06E92582F8E22262
:0D05B800E58229F582E5833AF583E493227C
:1005C500BB010689828A83F0225002F722BBFE0115
:0205D500F3220F
:1005D700EF8DF0A4A8F0CF8CF0A428CE8DF0A42E38
:0205E700FE22F2
:1005E900C5F0F8A3E028F0C5F0F8E582158270029D
:0605F9001583E038F0223A
:0E05FF00C3E49FFFE49EFEE49DFDE49CFC220D
:0C060D00ECF0A3EDF0A3EEF0A3EFF02260
:10061900F8E0FBA3A3E0F925F0F0E582158270026A
:070629001583E0FA38F0220E
:09063000EBF0A3EAF0A3E9F022CB
:10063900D083D082F8E4937012740193700DA3A350
:1006490093F8740193F5828883E473740293686064
:06065900EFA3A3A380DF64
:1019E200EFB40A07740D1219ED740A309811A89910
:1019F200B8130CC2983098FDA899C298B811F63065
:071A020099FDC299F599223C
:10065F00EF4E6012EF60010EEDBB010B89828A83B2
:10066F00F0A3DFFCDEFA2289F05007F709DFFCA9BF
:0C067F00F022BBFEFCF309DFFCA9F02216
:1017540002185EE493A3F8E493A34003F68001F235
:1017640008DFF48029E493A3F85407240CC8C33396
:10177400C4540F4420C8834004F456800146F6DF65
:10178400E4800B0102040810204080901A09E47ED2
:10179400019360BCA3FF543F30E509541FFEE4935A
:1017A400A360010ECF54C025E060A840B8E493A321
:1017B400FAE493A3F8E493A3C8C582C8CAC583CA4C
:1017C400F0A3C8C582C8CAC583CADFE9DEE780BE04
:011A2C0000B9
:00000001FF
