:1019B900E4F594F593F592F591F596F595F5B2F56B
:1019C900B1F5B4F5B3F5CAF5C91217A0121B33D294
:0919D900AF121361121B2A80F801
:0919280041006600420067000066
:101A7C00EF1FAA0670011E4A60107C137D88ED1DB5
:0A1A8C00AA0470011C4A60E880F40F
:011A9600222D
:10001600759DFFE4F5BD900066E04488F5BC7F025F
:050026007E00021A7CBF
:071B330012001675A8A022A4
:03002B000214D1EB
:1014D100C0E0C0F0C083C082C0D075D000C000C0E1
:1014E10001C002C003C004C005C006C00775BC002E
:1014F100AFBDEF75F004A4FF900067E5F0F0A3EF36
:10150100F0E5BE5403FF900067E0F0A3E04FF090D8
:101511000066E07025A3E0FEA3E0FF7C007D0512DC
:101521000E14AC06AD07EC120A58E4FBFA79807888
:10153100431209B69000620215EB900066E0B40117
:1015410025A3E0FEA3E0FF7C007D05120E14AC068E
:10155100AD07EC120A58E4FBFA798078431209B618
:1015610090005A0215EB900066E0B40224A3E0FE5D
:10157100A3E0FF7C007D05120E14AC06AD07EC1252
:101581000A58E4FBFA798078431209B690005E802C
:1015910059900066E0B40319A3E0FCA3E0FDEC124E
:1015A1000A58E4FBFA795C783D1208AD9000498055
:1015B10039900066E0B40419A3E0FCA3E0FDEC124D
:1015C1000A58E4FBFA795C783D1208AD90004D8031
:1015D10019900067E0FCA3E0FDEC120A58E4FBFA65
:1015E100795C783D1208AD900045120E609000665E
:1015F100E004F0D394054002E4F0900066E04488F2
:10160100F5BCD007D006D005D004D003D002D0015C
:0D161100D000D0D0D082D083D0F0D0E03215
:061B3A0000007F09DFFE40
:011B40002282
:061B410000007F1BDFFE27
:011B4700227B
:061B480000007F21DFFE1A
:011B4E002274
:081B21007F187E55DEFEDFFC9B
:011B29002299
:081B2A007FEA7E73DEFEDFFCA2
:011B32002290
:0E1AE90000007F2E7E997DF5DDFEDEFCDFFA2B
:011AF70022CC
:0F1AF800D2B5D2B4121B41C2B5121B48C2B422E0
:0E1B0700C2B4C2B5D2B4121B48D2B5021B48FC
:10002E00E4FFD2B50000D2B4000030B50D0FEFD30F
:0E003E0094FA40F6121B077F0122C2B47F0025
:01004C002291
:05197C00900020EFF0D7
:10198100C2B4E4A3F0900020E0FF5480D39400405F
:1019910004D2B58002C2B5EF25E0900020F0121B01
:1019A1003AD2B4121B3AC2B4121B3A900021E0049D
:0719B100F0E0C3940840CEF2
:0119B800220C
:10005600564F313A25352E32665620494F313A25CC
:1000660034646D4100564F323A25352E326656209D
:10007600494F323A2534646D4100564F333A25359F
:100086002E32665620494F333A2534646D410000BE
:1000960000000000000000002F000000000700071D
:1000A6000000147F147F1400242A7F2A1200626441
:1000B60008132300364955225000000503000000AE
:1000C600001C224100000041221C000014083E08CA
:1000D600140008083E0808000000A0600000080898
:1000E60008080800006060000000201008040200F4
:1000F6003E5149453E0000427F4000004261514961
:1001060046002141454B31001814127F1000274547
:10011600454539003C4A494930000171090503004B
:10012600364949493600064949291E000036360037
:100136000000005636000000081422410000141486
:10014600141414000041221408000201510906008B
:10015600324959513E007C1211127C007F494949AF
:1001660036003E41414122007F4141221C007F4929
:10017600494941007F09090901003E4149497A0080
:100186007F0808087F0000417F4100002040413F72
:1001960001007F08142241007F40404040007F025A
:1001A6000C027F007F0408107F003E4141413E0063
:1001B6007F09090906003E4151215E007F09192980
:1001C600460046494949310001017F0101003F408F
:1001D60040403F001F2040201F003F4038403F0066
:1001E6006314081463000708700807006151494545
:1001F6004300007F41410000552A552A5500004121
:10020600417F0000040201020400404040404000DB
:100216000001020400002054545478007F484444EE
:100226003800384444442000384444487F00385459
:1002360054541800087E0901020018A4A4A47C00E6
:100246007F080404780000447D4000004080847DDF
:1002560000007F102844000000417F4000007C041D
:10026600180478007C0804047800384444443800B4
:10027600FC242424180018242418FC007C080404F8
:100286000800485454542000043F444020003C4099
:1002960040207C001C2040201C003C4030403C009C
:1002A6004428102844001CA0A0A07C004464544CA0
:1002B600441414141414140000000000000000007C
:1002C60000000000000000000000F8000000000030
:1002D6000000333000000000100C06100C06000071
:1002E6000000000000000040C07840C078400004D4
:1002F6003F04043F040400007088FC08300000003E
:100306001820FF211E0000F008F000E01800000091
:10031600211C031E211E0000F00888700000001E2C
:100326002123241927211010160E000000000000BA
:1003360000000000000000000000E01804020000B9
:100346000000071820400000020418E0000000002A
:1003560040201807000000404080F0804040000226
:1003660002010F01020200000000F000000000017F
:1003760001011F01010100000000000000000080D3
:10038600B070000000000000000000000000000047
:100396000101010101010100000000000000000050
:1003A60030300000000000000000008060180400EB
:1003B6006018060100000000E010080810E00000C8
:1003C6000F102020100F00001010F8000000000091
:1003D60020203F20200000007008080888700000D8
:1003E6003028242221300000300888884830000058
:1003F60018202020110E000000C02010F800000078
:10040600070424243F240000F80888880808000010
:1004160019212020110E0000E01088881800000025
:100426000F112020110E0000380808C838080000F7
:1004360000003F0000000000708808088870000077
:100446001C222121221C0000E010080810E00000F8
:1004560000312222110F00000000C0C00000000081
:1004660000003030000000000000800000000000A6
:10047600008060000000000000804020100800009E
:100486000102040810200040404040404040000463
:100496000404040404040000081020408000000046
:1004A60020100804020100007048080808F0000047
:1004B60000003036010000C030C828E810E0000710
:1004C60018272423140B000000C038E00000002089
:1004D6003C23020227382008F8888888700000200C
:1004E6003F202020110E00C03008080808380007F9
:1004F6001820202010080008F808080810E000203E
:100506003F202020100F0008F88888E808100020F7
:100516003F20202320180008F88888E808100020CB
:100526003F200003000000C030080808380000071C
:10053600182020221E020008F808000008F80820EB
:100546003F210101213F20000808F80808000000AB
:1005560020203F2020000000000808F8080800C0FE
:100566008080807F00000008F888C02818080020D6
:100576003F20012638200008F8080000000000206F
:100586003F20202020300008F8F800F8F808002066
:100596003F003F003F200008F830C00008F8082060
:1005A6003F200007183F00E01008080810E0000F81
:1005B60010202020100F0008F808080808F0002076
:1005C6003F210101010000E01008080810E0000FBB
:1005D60018242438504F0008F8888888887000202E
:1005E6003F2000030C3020007088080808380000FF
:1005F60038202121221C00180808F80808180000D5
:1006060000203F2000000008F808000008F8080055
:100616001F202020201F000878880000C838080006
:100626000007380E010000F80800F80008F800037B
:100636003C0700073C0300081868808068180820FB
:10064600302C03032C30200838C800C838080000B6
:1006560000203F2000000010080808C838080020C5
:1006660038262120201800000000FE0202020000A9
:1006760000007F40404000000C30C0000000000039
:100686000000010638C00000020202FE0000000061
:100696004040407F00000000000402020204000007
:1006A60000000000000000000000000000000080C4
:1006B60080808080808080000202040000000000AC
:1006C6000000000000000000008080808000000024
:1006D60019242222223F2008F80080800000000012
:1006E6003F112020110E00000000808080000000D5
:1006F6000E112020201100000000808088F80000E4
:100706000E112020103F2000008080808000000015
:100716001F222222221300008080F0888888180079
:1007260020203F2020000000008080808080000084
:100736006B94949493600008F800808080000020F9
:100746003F210000203F2000809898000000000014
:1007560020203F2020000000000080989800000024
:10076600C08080807F000008F80000808080002024
:100776003F24022D302000000808F8000000000089
:1007860020203F2020000080808080808080002004
:100796003F20003F20003F808000808080000020B6
:1007A6003F210000203F2000008080808000000064
:1007B6001F202020201F00808000808000000080F5
:1007C600FFA12020110E0000000080808080000024
:1007D6000E112020A0FF8080808000808080002075
:1007E600203F2120000100000080808080800000E2
:1007F60033242424241900008080E0808000000037
:1008060000001F2020000080800000008080000083
:100816001F202020103F20808080000080808000E4
:10082600010E300806010080800080008080800F65
:10083600300C030C300F00008080008080800000A8
:1008460020312E0E31200080808000008080808044
:10085600818E7018060100008080808080800000F4
:1008660021302C2221300000000000807C02020092
:10087600000000003F404000000000FF00000000B4
:10088600000000FF0000000002027C800000000063
:1008960040403F000000000006010102020404007F
:0708A600000000000000004B
:10193100440045000000004400490000000044004C
:101941004D0000000044005A0000000044005E0009
:10195100000000440062000000004100510041000D
:101961005200410053004200540000420056000062
:051971004200580000D7
:101A300090001FEFF0121AF87F7812197C12002E16
:101A4000E4FF12197C12002E90001FE0FF12197C97
:061A500012002E021B072C
:101A560090001EEFF0121AF87F7812197C12002EF1
:101A66007F4012197C12002E90001EE0FF12197C96
:061A760012002E021B0706
:0518C000900000EFF0B4
:1018C500E4A3F0A3F0900001E0FEA3E0FFC39408B9
:1018D500EE9400504DEF24B0FF121A30E4FF121AB7
:1018E500307F10121A30E4900003F0A3F09000004E
:1018F500E0FF121A56900004E004F0700690000311
:10190500E004F0C3900004E09480900003E09400AC
:1019150040DB900002E004F070AB900001E004F0C1
:0219250080A39D
:01192700229D
:1017A000121AE97FAE121A307F20121A307F1012FF
:1017B0001A307FB0121A307FC8121A30E4FF121AA2
:1017C000307F10121A307F40121A307F81121A3087
:1017D0007FFF121A307FA1121A307FA6121A307FB3
:1017E000A8121A307F3F121A307FA4121A307FD30A
:1017F000121A30E4FF121A307FD5121A307FF0121D
:101800001A307FD9121A307F22121A307FDA121A58
:10181000307F12121A307FDB121A307F20121A30FA
:101820007F8D121A307F14121A307FAF121A30E4F3
:04183000FF0218C0DB
:1019E20090001EEFF0ED24B0FF121A3090001EE0BE
:1019F20054F0C4540F4410FF121A3090001EE054E9
:071A02000F4401FF021A303E
:0716F0007B017A007900FF85
:1016F700900015EFF0A3ECF0A3EDF0A3EBF0A3EA55
:04170700F0A3E9F072
:10170B00E4A3F0A3F0A3F0900018E0FBA3E0FAA38E
:10171B00E0F990001DE0F582758300120DD5607421
:10172B0024E090001BF0900015E0D3947E4010E471
:10173B00F0900017E004F07006900016E004F090B3
:10174B000015E0FFA3A3E0FD1219E2E490001CF0EA
:10175B0090001CE0FFC39406502A90001BE075F02C
:10176B0006A42495F582E5F03400F583E5822FF588
:10177B0082E43583F583E493FF121A5690001CE044
:10178B0004F080CC900015E02406F090001DE004DE
:04179B00F00217122F
:01179F002227
:1013610090005AE0FCA3E0FDA3E0FEA3E0FFE4FB54
:10137100FA797A78441208AD90005A120E607E0014
:101381007F157D007B017A007900120EB290001862
:1013910074FFF0A37400F0A37456F0900045E0FCD4
:1013A100A3E0FDA3E0FEA3E0FF90001B120E6090FE
:1013B100005AE0FCA3E0FDA3E0FEA3E0FF120A91C6
:1013C10090001FEEF0A3EFF07B017A007900120F7D
:1013D10043E4FDFC1216F090005EE0FCA3E0FDA3E7
:1013E100E0FEA3E0FFE4FBFA797A78441208AD90BD
:1013F100005E120E607E007F157D007B017A007910
:1014010000120EB290001874FFF0A37400F0A374E0
:101411006BF0900049E0FCA3E0FDA3E0FEA3E0FF38
:1014210090001B120E6090005EE0FCA3E0FDA3E0C3
:10143100FEA3E0FF120A9190001FEEF0A3EFF07BF4
:10144100017A007900120F437D017C00E41216F04D
:10145100900062E0FCA3E0FDA3E0FEA3E0FFE4FB5B
:10146100FA797A78441208AD900062120E607E001B
:101471007F157D007B017A007900120EB290001871
:1014810074FFF0A37400F0A37480F090004DE0FCB1
:10149100A3E0FDA3E0FEA3E0FF90001B120E60900D
:1014A1000062E0FCA3E0FDA3E0FEA3E0FF120A91CD
:1014B10090001FEEF0A3EFF07B017A007900120F8C
:1014C100437B017A0079007D027C00E4FF0216F77C
:0C1B1500D288D2A8D28AD2AA438F3022F4
:03000300021A9747
:101A9700C0E0C083C082900052E4F030B2FDD08233
:051AA700D083D0E03205
:03001300021AAC22
:101AAC00C0E0C083C082900053E4F030B3FDD0821C
:051ABC00D083D0E032F0
:03005300021AC1CD
:101AC100C0E0C083C082900051E4F030B6FDD08206
:051AD100D083D0E032DB
:051976004200690000C1
:101AD600438E805389F0758A80758C44C28DD28C72
:031AE600D2A92260
:03000B0002161EBC
:10161E00C0E0C0F0C083C082C0D075D000C000C092
:10162E0001C002C003C004C005C006C00790006917
:10163E00E475F001120E26FEC3E5F094F4EE94016B
:10164E0050030216D5900069E4F0A3F0900051E02B
:10165E006023900054E475F001120E26AFF0FEE404
:10166E00FCFD7B607AEAF9F8C3120E4A500790002F
:10167E0054E4F0A3F0900052E06023900056E4751D
:10168E00F001120E26AFF0FEE4FCFD7B607AEAF963
:10169E00F8C3120E4A5007900056E4F0A3F09000E3
:1016AE0053E06023900058E475F001120E26AFF05F
:1016BE00FEE4FCFD7B607AEAF9F8C3120E4A50078D
:1016CE00900058E4F0A3F0D007D006D005D004D097
:1016DE0003D002D001D000D0D0D082D083D0F0D0B1
:0216EE00E032E8
:1008AD00EC4D6011E8497017ED33EC3304600DE445
:1008BD00FCFFFEFD22E933E8330470F8020AFD1255
:1008CD000AC858046009E4CC248150062850090256
:1008DD000B07284003020B04C0E0EB4A7044B980BB
:1008ED0006D0E0FB020AF3EF4E701CBD8008EBFF53
:1008FD00EAFEE9FD80EBE98DF0A4FEE5F002099634
:10090D00E9CDF9EAFEEBFFEF89F0A4FCE5F0CE8925
:10091D00F0A42EFFE435F0CD89F0A42DFEE435F0E2
:10092D008067EF4E7005BD80D780C3EF8BF0A4AC10
:10093D00F0EE8BF0A42CFCE435F0F8EF8AF0A42C4B
:10094D00E5F038FCE433CB8DF0A42CFCE5F03BF85E
:10095D00EE8AF0A42CFCE5F038F8E433CF89F0A44E
:10096D002CFCE5F038CF3400CE89F0A42FFFE5F054
:10097D003EFEE433C98DF0A42EFEE5F039CD8AF0AC
:10098D00A42FFFE5F03EFEE43DFD33D0E0FB500724
:10099D000BBB000F020B07EC2CFCEF33FFEE33FE0D
:0609AD00ED33FD020ADF3C
:1009B300020B07EC5D046005E859047003020AFDAD
:1009C300120AC8580460F6EC4860F2EC7004FDFEAD
:1009D300FF22C860DB2481C85009C3986002500617
:1009E300020B049850CAF582E9294B4A7005AB8281
:1009F300020AF375F0007C1A7880C3EF9BEE9AED40
:100A030099400DC3EF9BFFEE9AFEED99FDE842F08E
:100A1300DC23ACF0D0E0FFD0E0FED0E0FDAB8220E1
:100A2300E7101BEB60BAEC2CFCEF33FFEE33FEED6B
:100A330033FD020ADFE803F830E705C0F075F00084
:100A4300EF2FFFEE33FEED33FD40B830E7C280AA4F
:100A530075F020800E75F010800575F0087D007E1E
:100A6300007F003392D530D503120E3CEC33401097
:100A7300EF33FFEE33FEED33FDEC33FCD5F0ED2227
:0E0A8300E5F0247EA2D513CC92E7CDCEFF2263
:100A9100EDD2E7CD33EC3392D524814006E4FFFE5D
:100AA100FDFC22FCE4CFCECDCC24E0501174FF80BC
:100AB100EDC3CC13CCCD13CDCE13CECF13CF047059
:070AC100F030D5DE020E3C0F
:100EDE00E5082418F582E43400F583E00508229035
:100EEE000015300703900018E475F001120E6C0225
:100EFE000DBC2000E97F2ED2008018EF540F2490F5
:100F0E00D43440D4FF30040BEF24BFB41A00500386
:100F1E002461FFE50960021509050CE50C70020558
:100F2E000B30070E900015E475F001120E6CEF02F7
:100F3E000E02021A097403D2078003E4C207F508F1
:100F4E00900015120E83E4F509F50BF50CE509601A
:100F5E00077F20120F2180F5750AFFC201C200C261
:100F6E0002C203C205C206C208120EEDFF700D309A
:100F7E0007057F00120F32AF0CAE0B22B4255FC2F5
:100F8E00D5C204120EEDFF24D0B40A00501A75F02B
:100F9E000A780930D50508B6FF0106C6A426F62044
:100FAE00D5047002D20380D924CFB41A00EF5004B6
:100FBE00C2E5D204021224D20180C6D20080C0D271
:100FCE000280BCD2D580BAD20580B47F20120F2108
:100FDE002002077401B5090040F1120EDEFF120F58
:100FEE0021020F5BD208D2068095120EDEFB120E86
:100FFE00DEFA120EDEF94A4B700679227A137BFF67
:10100E0020022EE509602A7E008E82758300120D65
:10101E00D560060EEE650A70F0C2D5EBC0E0EAC0F0
:10102E00E0E9C0E0EE121285D0E0F9D0E0FAD0E0AF
:10103E00FB120DBCFF60AAEBC0E0EAC0E0E9C0E025
:10104E00120F21D0E02401F9D0E03400FAD0E0FBF9
:10105E00E50A0460DCD50AD98087D20280A212127A
:10106E006760F7E50A700104120B12A90A600DE51C
:10107E000A600914F50A12130FEF60F3EA30E70263
:10108E00F404C3995079EAF4250A0430E701E40424
:10109E00F50A800D12126760C1EA050A250A120BC5
:1010AE0012EA900044F030E701E4250A04D50A0460
:1010BE0020050114121285E4C0E012130F900044B3
:1010CE00E0601320E70714F0120F09802204F0D01D
:1010DE00E014C0E07F00120F09E50A6007120F004E
:1010EE00150A800B300503120F00D0E0020F5BD003
:1010FE00E00480C4121267609EE50A04120B12907F
:10110E000044EAF0E50A20050260010424041212EC
:01111E00854B
:10111F0074FF04C0E012130F120F09E50A20050235
:10112F006003120F00D0E0B50AE87F45120F13904D
:10113F000044E07F2B30E7047F2DF404C0E0120F52
:10114F0021D0E075F00A84C0F0120F0AD0E0120F20
:10115F000A020F5B791080027908C206C208800864
:10116F00D2D5790A8004790AC2D5E50A047002F54E
:10117F000AE4FAFDFEFF120EDEFC7B0820011312BB
:10118F000EDEFD7B1030000A120EDEFE120EDEFFA9
:10119F007B20EC3382D592D55013C3E43000069FE9
:1011AF00FFE49EFEE42001039DFDE49CFCE4CBF8EC
:1011BF00C201EC700CCFCECDCCE824F8F870F380E0
:1011CF0017C3EF33FFEE33FEED33FDEC33FCEB33A0
:1011DF00FB994002FB0FD8E9EB300105F8D0E0C4D2
:1011EF0048B201C0E00AEC4D4E4F78207B0070C230
:1011FF00EAB50A0040BCC0E0121287D0F0D0E02060
:10120F000104C4C0E0C4B201C0F0120F0AD0F0D57F
:10121F00F0EB020F5B120E8C0FF8531163580FC9CE
:10122F004C0FC54211674F116F44116F490FDE43C9
:10123F0011755510A246110245106C471342500FFD
:10124F00CD2D0FD12E0FF42B0FD5230FF220132BF3
:10125F002A0F8D4800000FECE50AB4FF03750A064C
:10126F00120EDEFC120EDEFD120EDEFE120EDEFF81
:10127F0090003D020B4F790AA2D5200314300509C7
:10128F00B910020404B9080104A2D52006025001C6
:10129F00042002689202B509005034C0E07F20306C
:1012AF0003197F30A20272067205500F1212DEC2AE
:1012BF0002C206C205C2087F30800F300503E9C0A5
:1012CF00E0120F21300503D0E0F9D0E0B509CC30A2
:1012DF0005177F30B9100C120F217F583004077F8C
:1012EF00788003B90803120F213002057F2D020FFA
:1012FF00217F202008F87F2B2006F322920280CF37
:10130F007F00B40700500B243DF582E43400F583D1
:10131F00E0FF22286E756C6C2900D201120EDE30B0
:10132F0001F8C201780930D50108F6020F8D2D5052
:10133F00434958120EDE2403B405004001E4901314
:10134F003D93120F12743A120F12D2037509040251
:02135F00116318
:100AC800E9D2E7C933E833F892D5EDD2E7CD33EC74
:070AD80033FC5002B2D522ED
:100ADF00EC30E7100FBF000C0EBE00080DBD000478
:100AEF000BEB6014A2D5EB13FCED92E7FD2274FF24
:100AFF00FCFDFEFF22E480F8A2D574FF13FC7D807D
:030B0F00E480EF90
:100B1200F920E73624F950037907E4F42402FBE5CF
:100B220082158270021583DBF6E024FB501BE9601C
:100B320014E4F0E582158270021583E004F0B40A31
:0D0B420008E4F0D9EE7401F00A22C2D522B9
:100B4F00ED33EC3392D5FA602AB4FF33EDC2E77B75
:100B5F00FF60067A0B7974E4227A0B797D20D50435
:100B6F007A0B7978224E614E002B494E46002D4963
:100B7F004E4600E47A08F0A3DAFC7B00740722C02B
:100B8F0083C082ECC0E0EDC0E0EEC0E0EFC0E0EA71
:100B9F0075F010A4CAABF075F04DA42BFBE435F043
:100BAF00FCEA2410FAEB34C5FBEC34D9FCEDC2E7B8
:100BBF00FF75F056A4F42411C5F0F434C58FF0A4DA
:100BCF002AE5F03BE43CF020E714120D7CD0E0FF67
:100BDF00D0E0FED0E0FDD0E0FC1209B68014F404A2
:100BEF00120D7CD0E0FFD0E0FED0E0FDD0E0FC1293
:100BFF0008ADD082D083E0FAEDD2E7CD33EC3324C9
:100C0F0082FBE4C3CF33CFCE33CECD33CD33DBF343
:100C1F007B0775F00A846004F0A31B0AE5F0F0A3CC
:100C2F008FF0740AA4FFACF08EF0740AA42CFEAC03
:100C3F00F050010C8DF0740AA42CFDE435F0F0A3F4
:050C4F00DBDE7407224A
:100C5400020AFDE86480F8E933E83360110460F0C7
:100C6400ED33EC337009E8FCE9FDEAFEEBFF220406
:100C740060DED3EB9FEA9EE99DE8C2E78CF0C2F701
:100C840095F0400CE8CCF8E9CDF9EACEFAEBCFFBCD
:100C9400120AC885D0F05804700320D5B3E8047054
:100CA400075002B2D5020B0792D5EC0460F7E4CCEE
:100CB400C0E0C398F8603B94186008400DD0E0FB96
:100CC400020ADFE4FBFAC9FC8028E830E406E4C940
:100CD400FBE4CAFCE830E305E4C9CACBFCE85407EA
:100CE4006010F8C3E913F9EA13FAEB13FBEC13FCF5
:100CF400D8F130F52FC3E49CFCEF9BFFEE9AFEED98
:100D040099FDD0E0FBEF4E4D4C701222DB03020B39
:100D140004EC2CFCEF33FFEE33FEED33FDED30E756
:100D2400EB020ADFEF2BFFEE3AFEED39FDD0E0FBDC
:100D340050130BBB0003020B07ED13FDEE13FEEF84
:080D440013FFEC13FC020ADFAF
:100D4C003F8000004120000042C80000447A0000AF
:100D5C00461C400047C35000497424004B18968031
:100D6C004CBEBC205A0E1BCA6753C21C749DC5AE28
:100D7C00FB60065407601C2323120DAAEB54386049
:100D8C0009120D96120DA51208ADECF8EDF9EEFA5C
:100D9C00EFCB22EB120DA580F1543803241C900DDF
:100DAC004CFE93FC0EEE93FD0EEE930ECE93FF22B3
:03000000021834AF
:0C183400787FE4F6D8FD75812102187B56
:100DBC00BB010689828A83E0225002E722BBFE0235
:090DCC00E32289828A83E4932268
:100DD500BB010CE58229F582E5833AF583E02250D3
:100DE50006E92582F8E622BBFE06E92582F8E2221D
:0D0DF500E58229F582E5833AF583E4932237
:100E0200BB010689828A83F0225002F722BBFE01CF
:020E1200F322C9
:100E1400EF8DF0A4A8F0CF8CF0A428CE8DF0A42EF2
:020E2400FE22AC
:100E2600C5F0F8A3E028F0C5F0F8E5821582700257
:060E36001583E038F022F4
:0E0E3C00C3E49FFFE49EFEE49DFDE49CFC22C7
:100E4A00EB9FF5F0EA9E42F0E99D42F0EC6480C81F
:060E5A0064809845F022BF
:0C0E6000ECF0A3EDF0A3EEF0A3EFF02205
:100E6C00F8E0FBA3A3E0F925F0F0E582158270020F
:070E7C001583E0FA38F022B3
:090E8300EBF0A3EAF0A3E9F02270
:100E8C00D083D082F8E4937012740193700DA3A3F5
:100E9C0093F8740193F5828883E473740293686009
:060EAC00EFA3A3A380DF09
:101A0900EFB40A07740D121A14740A309811A899C0
:101A1900B8130CC2983098FDA899C298B811F6303D
:071A290099FDC299F5992215
:100EB200EF4E6012EF60010EEDBB010B89828A8357
:100EC200F0A3DFFCDEFA2289F05007F709DFFCA964
:0C0ED200F022BBFEFCF309DFFCA9F022BB
:101840000219B9E493A3F8E493A34003F68001F2EC
:1018500008DFF48029E493A3F85407240CC8C333A9
:10186000C4540F4420C8834004F456800146F6DF78
:10187000E4800B0102040810204080901928E47EC7
:10188000019360BCA3FF543F30E509541FFEE4936D
:10189000A360010ECF54C025E060A840B8E493A334
:1018A000FAE493A3F8E493A3C8C582C8CAC583CA5F
:1018B000F0A3C8C582C8CAC583CADFE9DEE780BE17
:01197B00006B
:00000001FF
