:020000040000FA
:100000004813002019020000210200002302000012
:100010002502000027020000290200000000000065
:100020000000000000000000000000002B020000A3
:100030002D020000000000002F020000310200002D
:1000400033020000330200005D050000C904000017
:100050003302000033020000A90200003302000056
:1000600033020000330200003302000033020000BC
:1000700033020000330200003302000033020000AC
:10008000330200003302000033020000330200009C
:10009000330200003302000033020000330200008C
:1000A000330200003302000033020000330200007C
:1000B00033020000330200000000000000000000D6
:1000C000330200003302000033020000330200005C
:1000D0003302000033020000330200000000000081
:1000E0000000000000000000000000000000000010
:1000F0000000000000000000000000000000000000
:1001000000000000000000000000000000000000EF
:1001100000000000000000000000000000000000DF
:1001200000000000000000000000000000000000CF
:1001300000000000000000000000000000000000BF
:1001400000000000000000000000000000000000AF
:10015000000000000000000000000000000000009F
:10016000000000000000000000000000000000008F
:10017000000000000000000000000000000000007F
:10018000000000000000000000000000000000006F
:10019000000000000000000000000000000000005F
:1001A000000000000000000000000000000000004F
:1001B000000000000000000000000000000000003F
:1001C000000000000000000000000000000000002F
:1001D000000000000000000000000000000000001F
:1001E000000000000000000000000000000000000F
:1001F00000000000000000000000000000000000FF
:10020000DFF810D000F03EF800480047990A0000DF
:10021000AFF3008048130020064880470648004797
:10022000FEE7FEE7FEE7FEE7FEE7FEE7FEE7FEE7A6
:10023000FEE7FEE7E90400000102000040EA0103D6
:100240009B0703D009E008C9121F08C0042AFAD28C
:1002500003E011F8013B00F8013B521EF9D2704750
:10026000D2B201E000F8012B491EFBD270470022F8
:10027000F6E710B513460A4604461946FFF7F0FFA5
:10028000204610BD064C074D06E0E06840F0010333
:1002900094E8070098471034AC42F6D3FFF7B4FF58
:1002A000582D0000782D00002DE9F843002500208E
:1002B00000904FF4807801240026234F404600F040
:1002C00081FD38B1D7F80403204018B1404600F052
:1002D0006FFD2543640008F104081FFA88F8761CB6
:1002E000082EEBD34FF4BE74204600F06BFD48B1EE
:1002F000204600F05DFD45F000456A4601210020E2
:1003000000F01EFD15F0FF0F16D0012600242E422E
:100310000ED007EB8401D1F81005C0F30420D1F80A
:100320001015C1F30141094A52F8242002B1904747
:100330007600641C082CEAD3002D02DA684601F02E
:100340009BFABDE8F88300000060004050020020E6
:1003500008B5112000F0C8FC122000F0C5FC1320E5
:1003600000F0C2FC142000F0BFFC00F01FFE08B13A
:1003700000F048F917480068009003208DF801004C
:10038000154A69460D2000F0ADFD08B100F03AF9BC
:1003900001210D2000F050FD0F4A69460E2000F0AB
:1003A000A1FD08B100F02EF901210E2000F044FD5E
:1003B0000121112000F012F80121122000F00EF8A6
:1003C0000121132000F00AF80121142000F006F8A2
:1003D00008BD0000B024000069090000012282402D
:1003E0004FF0A043002902D0C3F808257047C3F896
:1003F0000C2570472DE9F0470546884691460026B2
:100400001DE02038C7B27E2D04D9002508F101086F
:1004100008F0FF084146284601F01AF900240B496C
:1004200007EB470001EB4007385D01F0FAF9641C67
:10043000E4B2062CF8D3AD1DEDB2761CF6B219F875
:1004400006000028DDD1BDE8F0870000C6240000CA
:100450002DE9F0470646884692460027DFF864906B
:100460002AE020380401802E04D9002608F1020871
:1004700008F0FF084146304601F0EAF8002519F877
:10048000040001F0CEF9641C6D1CEDB2082DF6D30A
:1004900008F10100C1B2304601F0DAF8002519F880
:1004A000040001F0BEF9641C6D1CEDB2082DF6D3FA
:1004B0000836F6B27F1CFFB21AF807000028D0D128
:1004C000BDE8F087EE2600000149024801F04CBB70
:1004D000F0020020003000400249014808607047E7
:1004E0000090D0034C00002000B51A48016841F488
:1004F00070010160BFF34F8FBFF36F8F4FF0102279
:10050000D2F80002002803DBD2F8040200281CDA2B
:10051000012001F08FF81523C2F8003201F090F8A5
:10052000C2F8043201F08CF8002001F083F8BFF328
:100530004F8F08487C380168074A01F4E061114395
:100540000160BFF34F8F00BFFDE75DF804EBFFF7DD
:10055000C3BF000088ED00E00400FA050148006810
:100560000047000010000020002809DB00F01F02F7
:10057000012191404009800000F1E020C0F8801284
:1005800070470000014A024900F013B85B090000FF
:100590004800002002E008C8121F08C1002AFAD152
:1005A00070477047002001E001C1121F002AFBD1F3
:1005B00070472DE9F04116460F460446002503E03A
:1005C0003946B047641C6D1C20780028F8D12846B5
:1005D000BDE8F08172B609480068C00700D000BECF
:1005E000BFF34F8F0548E4380168054A01F4E06124
:1005F00011430160BFF34F8F00BFFDE7F0ED00E056
:100600000400FA050EB500210091019102906A469E
:1006100044F20100FFF7DEFF0EBD10B58268C3682B
:100620009A1A002A03D000F085F9002010BD052099
:1006300010BD002905D012B1531E134203D009206A
:1006400070470E2070470160838000218160C16087
:100650000020704710B58268C3689A1A83889A424E
:1006600003D800F071F9002010BD042010BD000077
:10067000F0B589B004460D461F46264E7260002D27
:100680001BD0A888296882B22348FFF7D2FF002830
:1006900014D1A889A96882B21F481030FFF7C9FF9A
:1006A00000280BD120221D4901A8FFF7C7FD606972
:1006B0000790207C20B1012003E0072009B0F0BDA5
:1006C00000208DF818008DF82070607C08B10E2095
:1006D00000E000208DF81900E0680390A068049005
:1006E00020680290606801900A480D4A01A908300C
:1006F00000F04CFA0028E1D1B0702068401C06D010
:1007000004490122491CC81D00F074FAD6E70020F4
:10071000D4E700002C00002024030020382D000026
:100720009920000010B501461048FFF793FF0446DA
:10073000CCB90F480F490278895C19B1001D00F04F
:100740006BFF02E00C3000F043FE60B90849074837
:100750000839FFF762FF30B905490122083904481A
:1007600000F058FA0446204610BD00003403002073
:10077000340000200400002000F002B800F008B8A7
:1007800072B602480168491C0160704728000020C9
:1007900003490868401E0860002800D162B670470F
:1007A000280000202DE9F04105460C464FF0A047F7
:1007B00020684FF00106411C06D006FA00F1C7F888
:1007C0000815206800F098FA6068411C02D00021EA
:1007D00000F078FA2868A169C0F82415607D227DB0
:1007E00029681043C1F86C05D4E900122868C0F8E4
:1007F0001425C0F80C15207D012815D1A068411CD6
:1008000002D0002100F05EFAE068411C05D086406D
:10081000C7F80865E06800F06FFAD4E9022128689B
:10082000C0F80815C0F81025BDE8F0812DE9F041A9
:1008300005460C464FF0A04720684FF00106411CCA
:1008400006D006FA00F1C7F80815206800F05EFA35
:100850006068411C02D0002100F03DFA2868A169BF
:10086000C0F82415607D227D29681043C1F86C050D
:10087000D4E900122868C0F80C15C0F81425207DB2
:10088000012815D1A068411C02D0002100F023FAF4
:10089000E068411C05D08640C7F80865E06800F0B4
:1008A00035FAD4E902212868C0F80815C0F81025E7
:1008B000BDE8F08105494FF0FF3241F820200828BB
:1008C00002D3084480F84020704700005002002006
:1008D000F0B507464FF0FF30002A02D04FF000037A
:1008E00001E04FF0080302D04FF0080501E04FF09F
:1008F0000A050B4C04E054F82360761C03D05B1C03
:10090000AB42F8D3F0BDE51958B285F8280044F899
:100910002310002AF6D1E11881F84070F0BD0000E4
:10092000500200200249084490F928007047000056
:1009300050020020826883881A4003689A5C0A701B
:100940008168491C81607047C26883881A400368C7
:100950009954C168491CC160704710B50446E0B2A3
:10096000FFF7E0FE204610BD0D2804D00E2805D16B
:10097000132000F010BA122000F00DBA70470000EA
:1009800070B504460D464FF48E71206800F034FABD
:100990004FF4A271206800F02FFA13492068C0F8C4
:1009A0000413206840F307306907090E002804DBB0
:1009B00000F1E02080F8001405E000F00F0000F1E5
:1009C000E02080F8141D206840F30730002809DB80
:1009D00000F01F02012191404009800000F1E02059
:1009E000C0F8001170BD00008000020070B5044620
:1009F0000D464FF48871206800F00FFA4FF49071A3
:100A0000206800F00AFA4FF49271206800F005FAAD
:100A10004FF4A271206800F000FA4FF4AC71206826
:100A200000F0FBF912492068C0F80413206840F375
:100A300007306907090E002804DB00F1E02080F888
:100A4000001405E000F00F0000F1E02080F8141D14
:100A5000206840F30730002809DB00F01F02012165
:100A600091404009800000F1E020C0F8001170BD05
:100A70001003420010B5044622460121002000F078
:100A80005FF9002154F821300BB1012010BD491C41
:100A90000029F7D0002010BDFFF75AFC01F0CCFA76
:100AA00001F012F800F0E8FD082201210DA000F08D
:100AB00062FE102202210BA000F05DFE4FF4FA74DA
:100AC00000211420FFF78AFC204600F025F80121C0
:100AD0001420FFF783FC204600F01EF805A0FFF766
:100AE00051FDEDE720323032302E30382E312021CA
:100AF0000000000020323032302E30382E3120C736
:100B0000E0B7E7210D0A0000C20800F0070301204A
:100B1000895C98400840704770B50446002C07D0A7
:100B2000044E4FF47A45711C28468847641EFAD15A
:100B300070BD0000902400002DE9F04105460F46ED
:100B400016462C780B4840F82460083040F82430D2
:100B5000787B002802D0384600F054FF0EB1064AD8
:100B600000E0002223463946281DBDE8F04100F090
:100B700095BA000018000020251B000038B5049C21
:100B8000001D009400F0FCFA38BD0000F0B589B0FB
:100B9000054616462C78144840F82460124A086925
:100BA000121D42F82400A2F10807487F3855202280
:100BB00001A8FFF743FB05942878385C48B10EB1D3
:100BC0000A4A00E0002201A9281D00F019FC09B022
:100BD000F0BD0EB1064A00E0002201A905F10C00AB
:100BE00000F006FBF3E7000008000020BD22000033
:100BF0005921000030B40478054B1B5D002B03D055
:100C000030BC001D00F034BC30BC0C3000F02ABBFE
:100C10000400002030B40478054B1B5D002B03D08A
:100C200030BC001D00F0A4BC30BC0C3000F090BB08
:100C30000400002070B5DDE904654FF0A04441EAEE
:100C4000420141EA830141EA062104EB800041EAC6
:100C50000541C0F8001770BD70B5DDE904654FF0BF
:100C6000A04441EA420141EA830141EA062104EB42
:100C7000800041EA0541C0F8001770BD70B5DDE99C
:100C800004654FF0A04441EA420141EA830141EA90
:100C9000062104EB800041EA0541C0F8001770BD51
:100CA00070B5DDE904654FF0A04441EA420141EA34
:100CB000830141EA062104EB800041EA0541C0F8C6
:100CC000001770BD1CB500220B4600921146019220
:100CD000FFF7C2FF1CBD1CB500220B460092114657
:100CE0000192FFF7CBFF1CBD4FF0A04202EB80004A
:100CF0000321C0F8001770471CB5002100910B4676
:100D0000012201911146FFF7A7FF1CBD1CB5002170
:100D100000910B46012201911146FFF7AFFF1CBD68
:100D20004FF0A04202EB800000F5E060026822F480
:100D300040320260026842EA0141016070470000EF
:100D400038B5084B1B6800936C46451807E054F80B
:100D50002030D3F8201502C2C3F82015401C85426C
:100D6000F5D838BD002D000042090021002A00D12D
:100D7000491E00F01F00012282400A4201D00120DA
:100D80007047002070474FF0A0420121814002F5DA
:100D9000A162116070474FF0A04303F20453196839
:100DA0000122824022EA010058600A409A6070479E
:100DB00008B503490844002101600068009008BD9F
:100DC00000600040034908440068012800D000206A
:100DD00070470000006000404058002800D001200B
:100DE000704708B5002242504058009008BD405856
:100DF000002800D00120704708B50022425040581A
:100E0000009008BDD0F80403084000D001207047CE
:100E10004058002800D00120704708B500224250F9
:100E20004058009008BD0000002802D00149800110
:100E300008477047312D00002DE9F04105460F4667
:100E4000284600F001FDF0B12846FFF76BFD083899
:100E500000F06AFD032807D0012812D0032128469C
:100E6000BDE8F041FFF75CBF4FF0A04000F5A26085
:100E70000068E84000F0010008B10321EFE702211B
:100E8000EDE70221EBE7284600F0EAFC002823D03A
:100E90002846FFF747FD04464FF4807000EB8400BE
:100EA00082B220460D4E06EB8000D0F8101541F0BE
:100EB0000101C0F810151046FFF77AFF002F0BD084
:100EC0002846FFF72FFD064951F82000002803D0DF
:100ED0000120A040C6F80403BDE8F0810060004096
:100EE000500200202DE9FC410C4605461146002722
:100EF000DFF8AC8008EB050090F92800C017401C13
:100F0000002801D0082747E0A078C0F34002284617
:100F1000FFF7DEFC0646701C3DD0A078410717D4D1
:100F2000C0070AD04FF0A04000EB8500D0F80017B2
:100F300021F00201C0F8001707E06378284600217D
:100F400000910A460191FFF775FE284600F06EFCFD
:100F5000A078800716D52178124800EB860000F5AE
:100F6000A2600268104B1A4002604FF4F8524FF42E
:100F7000403302EA052203EA01410A4301680A43B9
:100F8000026009E008EB0600227810F8401F41EAF1
:100F90008211017000E004273846BDE8FC810000A2
:100FA0005002002000600040FFE0FCFF70B51A4DC9
:100FB00095F84E00002801D0082070BD0024661E60
:100FC0002046FFF7D1FE10B1281980F82860641C74
:100FD000E4B2202CF4D300242046FFF76BFC641C01
:100FE000E4B20A2CF8D3002045F84A0F0B4C0C4908
:100FF000C020087001264FF0E0214020C1F8000118
:101000004FF4BE70FFF7D4FEA00404F541742060D5
:101010002E71002070BD00005002002000600040D2
:1010200006E400E00121B1EB507F01D101207047BF
:10103000002070470121B1EB507F01D101207047A2
:101040000020704770B50E4600F076FC044684B16F
:1010500000250020FFF790FB207908B1012502E070
:101060002660012020710020FFF788FB0DB11120C0
:1010700070BD002070BD0000017901EB810202EB20
:10108000C101054A02EB810100680622C0F8002573
:10109000022081F82D007047F00200202DE9FC416C
:1010A00006460D46174698463079334A00EB8001D4
:1010B00001EBC00102EB810494F82D10002902D04D
:1010C0000820BDE8FC812D4951F820103068FFF759
:1010D000B9FF08B11120F4E72760C4F804800027A5
:1010E000A76084F8307084F82F70687B84F8320031
:1010F0004FF00608CDE90087002203231146286837
:10110000FFF7CEFDCDE90087002203231146686872
:10111000FFF7C6FD3068D5E9001200F5A160016057
:101120004260A968C1612068012208B3306840F3B9
:101130000730297B002805DB00F1E020490180F819
:10114000001406E000F00F0000F1E020490180F8F3
:10115000141D306840F30730002809DB00F01F0140
:1011600002FA01F14009800000F1E020C0F800110E
:1011700084F82D200020A4E7F00200200C2D0000B0
:101180002DE9F04186B080460C9E0C4617461D4660
:10119000142101A8FFF76BF88DF80540029504971C
:1011A0000EB1202200E0002201A9404600F004F820
:1011B00006B0BDE8F081000030B40D461346017959
:1011C00001EB810202EBC101044A02EB81040168D8
:1011D0002A46204630BC00F09FBD0000F0020020EF
:1011E0000149024800F0D0BFA002002000200040CA
:1011F0002DE9F04105460F4616462B79174903EBBA
:10120000430000EBC30001EB800494F82A0000289F
:1012100002D00820BDE8F081114850F8231028685A
:10122000FFF710FF08B11120F4E739462846FFF711
:10123000B9FA6660386920601EB1397F2846FFF729
:101240009FFB28680421C0F800150020143460605A
:10125000A060607520600121A175DBE7A00200207D
:10126000042D00002DE9F05F0546287900EB4003CE
:1012700003EBC000354B03EB8004002063684FF4A0
:101280000176002B02D02B68C3F80863A36953B121
:10129000E06938B1606810B12868C0F804631120B3
:1012A000BDE8F09F012028B12161E26194F8291086
:1012B00031B109E0A261E16000216162E161F5E71D
:1012C00010B9284600F072FB606820B12868C0F8A9
:1012D00004630020E4E74FF4A27949462868FFF749
:1012E0008BFD4FF4927A4FF4847B51462868FFF7C8
:1012F0007EFD074659462868FFF779FD8046494636
:101300002868FFF774FD064648EA060858EA070809
:10131000EBD057EA060007D12146286800F018FBF9
:10132000616AA0698842E0D80020A0610FB1032063
:10133000B6E70EB10F20B3E794F82900012110B1F0
:1013400028680160C5E728684160C2E7A002002064
:101350002DE9F04704460B46207900EB400101EBF4
:10136000C0001A4901EB8005204600F031F810B1A9
:101370001120BDE8F0876A61AB6000272F6285F815
:10138000287000264FF48E7949462068FFF734FD17
:1013900020684FF00108C0F808802946206800F056
:1013A00022FE686870B92946206800F0FFFD58B138
:1013B00049462068FFF71BFD0028F9D02068C0F8D7
:1013C0000C806F613046D4E70F26FAE7A0020020B8
:1013D000007900EB400101EBC000044901EB800003
:1013E0004069002800D0012070470000A0020020C2
:1013F0000149024800F07ABFCC02002000200040E2
:101400002DE9F04105460F4616462B79164903EBA8
:10141000C30001EB800494F82000002802D00820CB
:10142000BDE8F081114850F823102868FFF70AFE44
:1014300008B11120F4E739462846FFF7F7F966604E
:10144000386920601EB1397F2846FFF7CFFA286837
:101450000821C0F800150020A061E0616061012151
:1014600084F82010DCE70000CC020020082D0000EA
:101470002DE9F05F04460F4690462079DFF8ECA096
:1014800000EBC0000AEB80053846FFF7CBFD98B1B2
:10149000002668684FF4047910B12068C0F80893FA
:1014A000A86960B1E86948B1686810B12068C0F8FF
:1014B00004931120BDE8F09F1020FBE701264FF0B8
:1014C000000B36B32F61C5F81C8000254FF48871DE
:1014D0002068FFF7A2FC4FF4A2712068FFF79DFC83
:1014E0002068C0F83475C0F83885C6B12068D0F8D7
:1014F000001241F02001C0F80012207900EBC0007A
:101500000AEB8000406870B12068C0F80493284658
:10151000D0E7C5F81880EF60C5F81CB0D5E72068A3
:1015200001210160E9E74FF488784FF4A279414640
:101530002068FFF76DFC074649462068FFF768FC06
:1015400006464FF492712068FFF762FC3743074369
:10155000EDD0217901EBC1010AEB8101C1F818B08E
:1015600000B10325002ED2D00F25D0E7CC020020F9
:101570002DE9F04704460F4616462079254900EB31
:10158000C00001EB80053846FFF74CFD30B1204626
:1015900000F042F820B11120BDE8F0871020FBE7F1
:1015A0006E61AF604FF000084FF4907A51462068AA
:1015B000FFF733FC4FF4AC7631462068FFF72DFC83
:1015C00020686A69A968C0F84415C0F848252068F1
:1015D0004FF00109C0F808906868C8B95146206802
:1015E000FFF716FC074631462068FFF711FC07435A
:1015F000F4D010B14FF00F0808E02068C0F80C904C
:1016000031462068FFF704FC0028F9D0002068610B
:101610004046C1E7CC0200200079054900EBC0003C
:1016200001EB80004069002800D0012070470000D5
:10163000CC0200200149086000F002B804E5014036
:10164000024801680029FCD07047000000E4014016
:1016500010B50446B031C8B200F0DFF8102040EAFF
:10166000141000F0DAF804F00F00BDE8104040F06C
:10167000010000F0D2B8000070B54FF4FA74304E9B
:10168000E501711C28468847641EFAD1AE2000F09F
:10169000C4F8202000F0C1F8102000F0BEF8B020FF
:1016A00000F0BBF8C82000F0B8F8002000F0B5F852
:1016B000102000F0B2F8402000F0AFF8812000F0D8
:1016C000ACF8FF2000F0A9F8A12000F0A6F8A620B1
:1016D00000F0A3F8A82000F0A0F83F2000F09DF84B
:1016E000A42000F09AF8D32000F097F8002000F032
:1016F00094F8D52000F091F8F02000F08EF8D92071
:1017000000F08BF8222000F088F8DA2000F085F84D
:10171000122000F082F8DB2000F07FF8202000F09B
:101720007CF88D2000F079F8142000F076F8AF20D6
:1017300000F073F8BDE87040002000F003B800002E
:10174000C024000070B50646002505F1B000C0B207
:1017500000F063F8002000F060F8102000F05DF861
:101760000024304600F05DF8641C802CF9D36D1C19
:10177000082DEAD370BD082A0ED0102A4CD10129B9
:101780003BD002293ED0032941D0042944D102464E
:1017900006210020FEF75CBE09293DD2DFE801F0FA
:1017A0003C050A0F14191E23280002460021084692
:1017B000FEF720BE024601210020FEF71BBE0246B6
:1017C00002210020FEF716BE024603210020FEF78C
:1017D00011BE024604210020FEF70CBE0246052180
:1017E0000020FEF707BE024606210020FEF702BEDB
:1017F000024607210020FEF7FDBD024600210846F3
:10180000FEF726BE024602210020FEF721BE024658
:1018100004210020FEF71CBE70470146002000F0A6
:10182000D5B80146402000F0D1B8000010B50549F8
:10183000C20800F007008B5C0124844023438B54D2
:1018400010BD00009A0200200449084490F92800C5
:10185000082801DB0120704700207047500200205B
:101860000449084490F92800082801D20120704753
:1018700000207047500200202DE9F0478246DFF833
:1018800090804FF0A049002408EB040090F9480034
:10189000401C32D0204600F03DF8074651463846FD
:1018A000FFF732F948B3204600F03EF8054609EB51
:1018B0008700D0F80007C0F30146022E12D00221A3
:1018C0003846FFF72DFA0120B840C9F82005384600
:1018D000FFF728F858F820207AB1032D0AD0022EFD
:1018E00002D003E00321EBE7012D03D0032E04D146
:1018F000022D02D1294638469047641C022CC3D3DE
:101900005046FFF7B7F80028BDD1BDE8F0870000CA
:10191000500200200349084490F8480020F0C0001D
:1019200070470000500200200249084490F8480027
:1019300080097047500200200349884201D10348C2
:101940007047002070470000002000401000002079
:1019500070B505460C464FF48471A06900280BD081
:101960002846FFF749FAD5F81805626AE1688854F5
:10197000606A401C606270BD2846FFF73DFAD5F8EA
:10198000180570BD1FB501238DF80030029101923A
:1019900006C8684690471FBD1FB501238DF800306B
:1019A0000291019206C8684690471FBD10B50446D3
:1019B0004FF492712068FFF71FFA4FF4847120688A
:1019C000FFF71AFA20680121016010BD1CB58DF8DF
:1019D00004008DF80510094C0020207000900223AF
:1019E00001AA3C210648FFF7C9F821780029FCD05C
:1019F00008B100201CBD01201CBD0000000000201B
:101A0000E02C00002DE9F041044640F20C60216812
:101A1000890001F1A041C1F800076168890001F166
:101A2000A041C1F800072068FFF7ADF96068FFF733
:101A3000AAF9216840F20D60890001F1A041C1F8C6
:101A400000076168890001F1A041C1F80007042086
:101A5000FFF7EAF900254FF0A0474FF00108207981
:101A6000D7F81015C14001F0010010B1002D1ED0B3
:101A700010E0207808FA00F6C7F80C650420FFF79C
:101A8000D3F92068FFF77FF90420FFF7CDF96D1C2B
:101A9000092DE4DB207908FA00F8C7F80C8504204A
:101AA000FFF7C2F96068BDE8F041FFF76CB9BDE827
:101AB000F08100000078002802D10249012008705E
:101AC00070470000000000201FB50C48D0E90D232E
:101AD000016BC06B8DE80E00039008480023084A94
:101AE00069462030FFF728F808B1FEF78BFD034860
:101AF0002030001DFFF7C0FA1FBD0000C02C000001
:101B0000B51A000001460320CA0701D04FF4024075
:101B10008A0701D548F20120490701D548F2022081
:101B2000704700001FB502788DF8002002798DF80B
:101B3000042042798DF80520027A8DF80620027B78
:101B40008DF8072002690292406903900548054A12
:101B5000083A50F8210052F8212001466846904783
:101B60001FBD0000200000202DE9F04F87B0054682
:101B70000C464FF4927841462846FFF72DF94FF076
:101B8000020901274FF4827640B141462846FFF70B
:101B900028F931462846FFF71FF9E8B14FF4827162
:101BA0002846FFF719F9010004F10C00DFF864A1E1
:101BB000EB4645F307364FF00008069052D04FF43D
:101BC00082712846FFF70DF994F82000400624D4CE
:101BD00094F82E00C8B120E0A068C5F80803C4F846
:101BE0000890A068C5F804034FF4B0712846FFF7C9
:101BF000F3F818B1D5F80002800501D42F626F61A7
:101C000084F82E7007B0BDE8F08F2146284600F01A
:101C1000FAFB80F0010084F82E0094F820004007C1
:101C200048D414220BF104000699FEF707FB4FF489
:101C3000B0712846FFF7D5F84FF4AE712846FFF78C
:101C4000D0F894F8300010B194F82E0090B3002032
:101C5000C5F80002C4F80880C5F808A33046FEF7AE
:101C600083FC27E04FF4A4712846FFF7BAF8207BE5
:101C700068B14FF40070C5F80002801CA060C5F880
:101C800008A3A068C5F80403AF602F62BAE7142266
:101C90000BF104000699FEF7D1FA94F8300048B928
:101CA0000020C5F80002C4F80880C5F808A3304633
:101CB000FEF75AFCD5F8C404C5F8C404810702D560
:101CC0008DF8007013E0410702D58DF800900EE00A
:101CD000C00703D003208DF8000008E094F82E0020
:101CE00018B104208DF8000001E08DF8008094F810
:101CF000300008B984F82F8094F82000400703D5FD
:101D000094F82E000028C1D0D4E9002168469047FD
:101D100078E7000002029C012DE9F05F05460C46C1
:101D200016461F464FF0000A4FF0080BD14685F8C3
:101D30002E90F068FFF77EF958B19B48C4F808036D
:101D400095F82F0038B1A868C4F804031120BDE845
:101D5000F09F1020FBE7780703D4F80601D4012098
:101D600000E0002085F82F001422314605F10C0018
:101D7000FEF764FAC7F3001085F830002F62707820
:101D8000C4F888054FF482712046FFF72AF84FF413
:101D900092712046FFF725F84FF4B0712046FFF707
:101DA00020F84FF4A4712046FFF71BF8F8074FF016
:101DB000010802D0C4F8508501E0C4F85095B80776
:101DC00002D5C4F8408501E0C4F840953078E8B306
:101DD00001287CD0022850D003281DD04FF0070ADC
:101DE000380704D43078032801D044F80B802868E1
:101DF00000286DD0780701D5C5F80890780603D47F
:101E0000A86840F00200A860A86840F40070A860CC
:101E1000A868C4F80403C4E03069FFF70BF950B3B5
:101E20004FF48070C4F800027168F068C4F844058B
:101E3000C4F848154FF4A8712046FEF7D2FFC4F845
:101E40002080C4F808804FF4A87100E030E02046FC
:101E5000FEF7C2FF0028F6D04FF4A8712046FEF727
:101E6000C0FFB1683069C4F84405C4F848154FF4A0
:101E70008020A860B4E7102069E77168F068C4F8B2
:101E80004405C4F848153069FFF7D4F870B1B1685B
:101E90003069C4F83405C4F838154FF48450C4F8D8
:101EA00000020220A860C4F8208099E710204EE7C5
:101EB0007168F068C4F84405C4F84815B80608D538
:101EC0004FF48070C4F800028002A86007E009E0C7
:101ED00019E04FF40070C4F800020220A860C4F8B2
:101EE00020807DE77168F068C4F83405C4F83815BF
:101EF0004FF48050C4F800020220A8604FF0000B9D
:101F0000C4F820806CE700264FF4A4712046FEF749
:101F100063FF00B101264FF4827B59462046FEF74D
:101F20005BFF20B159462046FEF75BFF01264FF4C8
:101F3000927B59462046FEF74FFFE0B159462046B6
:101F4000FEF74FFF4FF4B0712046FEF745FFD4F87F
:101F5000001242420A40920504D4C4F82080C4F81A
:101F60001480002638B1C80505D54FF4A471204669
:101F7000FEF737FF0026002EC6D0D4F8C404C4F8FC
:101F8000C40485F82F9018B1FFF7BCFD824608E025
:101F9000780606D42946204600F035FA08B94FF0F5
:101FA000030A5046D3E6000002029C012DE9F041ED
:101FB00007460C4665694FF48E760FE094F82800CA
:101FC00010B10020BDE8F08131463846FEF70FFF22
:101FD0000028F3D02146384600F005F8206AA842D0
:101FE000F2D30120EEE770B505460C464FF48E7132
:101FF0002846FEF701FF216AA068415C226A521C54
:102000002262C5F81C1570BD1FB500228DF8002096
:10201000029181680191426106C8684690471FBDE0
:102020001FB500228DF80020029181680191426164
:1020300006C8684690471FBD00B58BB018220C49F2
:1020400005A8FEF7FBF80B4801904FF48070029052
:102050000949039104900723084A01A905A8FEF73E
:1020600007FB002801D0FEF7CDFA0BB000BD000041
:102070009824000050000020500100208120000022
:102080000178022904D0012905D14068FEF7BABAC7
:102090004068FEF7B7BA70477CB501782C4C002930
:1020A00041D001290ED002290BD18DF80010C06853
:1020B0000190611C0122C81DFEF79CFD6168684605
:1020C00088477CBD017A71B1406801782148FEF7EC
:1020D000C1FA204D012668B18DF800600190616859
:1020E0006846884710E01A490122491CC81DFEF7BE
:1020F00081FD7CBDA868E968081A28B100208DF828
:102100000000616868468847A868E968081AA988D5
:10211000884206D80E490122491CC81DFEF76AFDF7
:102120007CBDA6707CBD0B4809491030FEF775FADE
:1021300030B103208DF800006168684688477CBD97
:102140000349012201F10800FEF764FD7CBD000097
:102150002C000020240300201FB502788DF80020F9
:1021600042680192027A8DF80820C0680390054801
:10217000044A121F50F8210052F8212001466846F7
:1021800090471FBD0C0000202DE9FF4705460C4677
:102190004FF400712846FEF735FE01274FF4017811
:1021A000002618B34FF4927949462846FEF71FFEE1
:1021B000E0B149462846FEF71FFEC5F8088394F8AB
:1021C000290000B96F6002208DF80000D5F8800466
:1021D000C5F880040390A0690290E0680190A661B0
:1021E000E661D4E90012684690472BE004212846B6
:1021F000FEF708FE30B34FF484712846FEF7F7FD72
:1022000000B321462846FFF7A3FB616AA069884214
:1022100018D1E06950B1E268616AA0612069E060AC
:10222000E66166622046FFF7ADFB0BE094F82900FB
:1022300000B96F60C5F80883A661E268616A20464C
:10224000FFF7A0FB4FF48E7841462846FEF7CFFDFE
:1022500080B16069216A814202D294F8280028B3D3
:1022600041462846FEF7C8FD606918B161692046FD
:10227000FFF7CAFE4FF4A27841462846FEF7B7FDA5
:10228000002818D041462846FEF7B6FD94F82900EC
:1022900000B12F60A06900280DD0A661E268616AD4
:1022A00004B02046BDE8F047FFF76CBB2146284646
:1022B000FFF799FEDEE7BDE8FF8700001FB5027853
:1022C0008DF8002042680192027A8DF80820C068DB
:1022D00003900548044A121F50F8210052F82120AB
:1022E0000146684690471FBD0C0000202DE9FF41C4
:1022F00005460C464FF4927739462846FEF788FD8E
:102300000026B8B139462846FEF787FD02208DF831
:102310000000D5F88004C5F880040390D5F83C058A
:102320000290E0680190A661E661D4E90012684677
:10233000904726E04FF4887739462846FEF768FD37
:10234000F8B139462846FEF768FDD5F83C15A06976
:10235000884216D1E06978B1E268D5F8000220F031
:102360002000C5F80002E069A0612069E060E66134
:102370002046FFF711FB04E0A6612046E268FFF764
:102380000BFB4FF4A27739462846FEF741FD68B1B2
:1023900039462846FEF741FDA06938B1A661E661DD
:1023A000D5F83C152046E268FFF7F6FA4FF4907630
:1023B00031462846FEF72CFD60B131462846FEF72F
:1023C0002CFD0120E860606920B1D5F84C1520464D
:1023D000FFF726FE4FF4AC7631462846FEF718FD8F
:1023E00000280ED031462846FEF717FD6069002808
:1023F00007D0D5F84C1504B02046BDE8F041FFF7F2
:102400000FBEBDE8FF8110B501220B7B002B23D04E
:10241000012B28D0022B13D0032B2AD18B685B030E
:1024200004D5D0F84C350C69A34207D18B685B0307
:102430001FD4D0F84C3549698B421AD0002218E0DD
:10244000D0F84C350C69A34204D1D0F83C35496929
:102450008B420ED000220CE0D0F84C3509698B423B
:1024600007D0002205E0D0F83C3509698B4200D046
:1024700000222AB90021C0F800150621C0F8001575
:10248000104610BD00000000000000000000000029
:102490000338FDD870470000080000000600000067
:1024A00007000000050000000000000000E0D70168
:1024B000010000000000000000000000000000001B
:1024C0000338FDD870470000000000000000002F16
:1024D000000000000700070000147F147F14002490
:1024E0002A7F2A12006264081323003649552250BD
:1024F00000000503000000001C22410000004122F2
:102500001C000014083E08140008083E08080000DB
:1025100000A06000000808080808000060600000D3
:10252000002010080402003E5149453E0000427F51
:102530004000004261514946002141454B3100189D
:1025400014127F10002745454539003C4A4949305F
:102550000001710905030036494949360006494919
:10256000291E000036360000000056360000000824
:102570001422410000141414141400004122140801
:1025800000020151090600324959513E007C1211E6
:10259000127C007F49494936003E41414122007F7B
:1025A0004141221C007F49494941007F0909090135
:1025B000003E4149497A007F0808087F0000417FBA
:1025C0004100002040413F01007F08142241007F6C
:1025D00040404040007F020C027F007F0408107FD3
:1025E000003E4141413E007F09090906003E41513C
:1025F000215E007F091929460046494949310001F9
:10260000017F0101003F4040403F001F2040201F4C
:10261000003F4038403F006314081463000708700F
:10262000080700615149454300007F4141000055C2
:102630002A552A55000041417F000004020102048E
:10264000004040404040000001020400002054547B
:102650005478007F484444380038444444200038CB
:102660004444487F00385454541800087E0901023D
:102670000018A4A4A47C007F080404780000447D12
:102680004000004080847D00007F1028440000004E
:10269000417F4000007C04180478007C0804047822
:1026A00000384444443800FC24242418001824240E
:1026B00018FC007C0804040800485454542000040A
:1026C0003F444020003C4040207C001C2040201C17
:1026D000003C4030403C004428102844001CA0A08E
:1026E000A07C004464544C441414141414140000CA
:1026F00000000000000000000000000000000000DA
:1027000000F800000000000000333000000000105E
:102710000C06100C0600000000000000000040C085
:102720007840C0784000043F04043F040400007077
:1027300088FC08300000001820FF211E0000F0086F
:10274000F000E018000000211C031E211E0000F014
:102750000888700000001E2123241927211010165C
:102760000E0000000000000000000000000000005B
:1027700000E01804020000000007182040000002DA
:102780000418E0000000004020180700000040404E
:1027900080F0804040000202010F010202000000B0
:1027A00000F0000000000101011F01010100000014
:1027B00000000000000080B0700000000000000079
:1027C0000000000000000001010101010101000002
:1027D0000000000000000030300000000000000099
:1027E000000080601804006018060100000000E08E
:1027F00010080810E000000F102020100F0000103B
:1028000010F8000000000020203F20200000007091
:102810000808088870000030282422213000003089
:102820000888884830000018202020110E00000081
:10283000C02010F8000000070424243F240000F802
:102840000888880808000019212020110E0000E0E7
:10285000108888180000000F112020110E00003889
:102860000808C83808000000003F000000000070A1
:10287000880808887000001C222121221C0000E02A
:1028800010080810E0000000312222110F000000A3
:1028900000C0C00000000000003030000000000058
:1028A00000800000000000008060000000000000C8
:1028B0008040201008000001020408102000404061
:1028C00040404040400004040404040404000008A4
:1028D0001020408000000020100804020100007059
:1028E00048080808F0000000003036010000C03041
:1028F000C828E810E0000718272423140B00000064
:10290000C038E0000000203C23020227382008F8ED
:10291000888888700000203F202020110E00C030E1
:10292000080808083800071820202010080008F8B8
:1029300008080810E000203F202020100F0008F8B1
:102940008888E8081000203F20202320180008F87D
:102950008888E8081000203F200003000000C030F5
:1029600008080838000007182020221E020008F876
:1029700008000008F808203F210101213F2000083D
:1029800008F8080800000020203F20200000000078
:102990000808F8080800C08080807F00000008F860
:1029A00088C028180800203F20012638200008F899
:1029B000080000000000203F20202020300008F800
:1029C000F800F8F80800203F003F003F200008F81A
:1029D00030C00008F808203F200007183F00E01032
:1029E00008080810E0000F10202020100F0008F841
:1029F00008080808F000203F210101010000E01054
:102A000008080810E0000F18242438504F0008F878
:102A1000888888887000203F2000030C30200070D8
:102A20008808080838000038202121221C001808D6
:102A300008F8080818000000203F2000000008F8EF
:102A400008000008F808001F202020201F00087838
:102A5000880000C83808000007380E010000F80898
:102A600000F80008F800033C0700073C03000818C2
:102A700068808068180820302C03032C3020083828
:102A8000C800C83808000000203F200000001008DF
:102A90000808C83808002038262120201800000027
:102AA00000FE020202000000007F40404000000CD7
:102AB00030C000000000000000010638C000000225
:102AC0000202FE000000004040407F0000000000C5
:102AD00004020202040000000000000000000000E8
:102AE00000000000000080808080808080800002E4
:102AF00002040000000000000000000000000000D0
:102B00008080808000000019242222223F2008F8C3
:102B1000008080000000003F112020110E00000006
:102B2000008080800000000E112020201100000095
:102B300000808088F800000E112020103F20000047
:102B4000808080800000001F22222222130000804B
:102B500080F0888888180020203F20200000000096
:102B6000808080808000006B94949493600008F8CB
:102B7000008080800000203F210000203F20008056
:102B80009898000000000020203F20200000000056
:102B900000809898000000C08080807F000008F8C6
:102BA000000080808000203F24022D30200000089B
:102BB00008F8000000000020203F20200000808056
:102BC000808080808000203F20003F20003F808068
:102BD000008080800000203F210000203F20000076
:102BE000808080800000001F202020201F00808027
:102BF00000808000000080FFA12020110E00000056
:102C0000008080808000000E112020A0FF80808046
:102C100080008080800020203F21200001000000F3
:102C200080808080800000332424242419000080C8
:102C300080E0808000000000001F202000008080D5
:102C4000000000808000001F202020103F20808096
:102C500080000080808000010E3008060100808026
:102C60000080008080800F300C030C300F0000804B
:102C70008000808080000020312E0E312000808076
:102C800080000080808080818E70180601000080A6
:102C90008080808080000021302C222130000000C4
:102CA0000000807C020200000000003F4040000065
:102CB0000000FF00000000000000FF000000000214
:102CC000027C800000000040403F00000000000641
:102CD00001010202040400000000000000000000E6
:102CE0000000000000300040000000000100000073
:102CF0001F0000001E0000000000980102000000FC
:102D000000000050E1110000F1130000C9040000B0
:102D100001000000000000000000000000000000B2
:102D200000000000000000000000000000000000A3
:102D30000338FDD870470000FFFFFFFFFFFFFFFFD4
:102D4000FFFFFFFFFFFFFFFF00000000000000008B
:102D50000000D60107010000782D000000000020CF
:102D60005000000094050000C82D00005000002015
:102D7000F8120000A40500000000000000000000A0
:102D80000000000000000000000000000000000043
:102D90000000000000000000000000000000000033
:102DA0000000000000000000000000000000000023
:102DB0000020004000000000002000400000000053
:082DC000000000000090D003A8
:0400000500000201F4
:00000001FF
