:08028800021A00000208000048
:06001D0012000602029D24
:10023A00E51B451A7002FF22E51BB5090DE51AB543
:10024A000808E4F51AF51B7F0122851A08851B099F
:03025A007F002200
:100273007E007F107D007B007A00790A12020EE473
:05028300F51AF51B2235
:030023000201DAFD
:1001DA00C0E0C0D075D000C000309821C3E51B94A0
:1001EA0010E51A94004006751A00751B00051BE5F8
:1001FA001B7002051A14240AF8A699C298D000D0D6
:04020A00D0D0E0323E
:10025D00758920758DFA758BFAD28E4387804398F8
:06026D0050D2ACD2AF221A
:10000600D288D2A8D2AFD290C291D292C293C294D1
:07001600D2A0D2A102025D9D
:0C029D00D292C2931202C1C290D29122F0
:0C02A900D290C2911202C1C292D29322E4
:0C02B500D290C2911202C1D292C29322D8
:030003000202CA2C
:0302CA000580327A
:0802C1007F127EEBDEFEDFFC84
:0102C9002212
:0C029000021C0000021E00000220000002
:1000B200E51D451C70467599F53099FDC2997599F3
:1000C2000C3099FDC299E4F5993099FDC299E4F595
:1000D200993099FDC299E4F5993099FDC299E4F5F8
:1000E200993099FDC29975990C3099FDC29975990B
:0D00F200F53099FDC299751C00751D642242
:1000FF00E51F451E70467599F53099FDC2997599A2
:10010F00C33099FDC2997599033099FDC2997599BC
:10011F00063099FDC2997599963099FDC299E4F50B
:10012F00993099FDC2997599503099FDC299759979
:0D013F00F53099FDC299751E00751F0A224A
:10014C00E521452070467599F53099FDC299759950
:10015C00C33099FDC2997599073099FDC29975996B
:10016C00073099FDC2997599963099FDC299E4F5BD
:10017C00993099FDC2997599553099FDC299759927
:0D018C00F53099FDC29975200075210A22F9
:100199007599F53099FDC2997599FE3099FDC29905
:1001A900E4F5993099FDC299E4F5993099FDC29920
:1001B900E4F5993099FDC299E4F5993099FDC29910
:1001C9007599FE3099FDC2997599F53099FDC299D5
:0101D9002203
:03000000020026D5
:0C002600787FE4F6D8FD75812102006DA2
:10020E00EF4E6012EF60010EEDBB010B89828A8307
:10021E00F0A3DFFCDEFA2289F05007F709DFFCA914
:0C022E00F022BBFEFCF309DFFCA9F0226B
:1000320002001DE493A3F8E493A34003F68001F2C7
:1000420008DFF48029E493A3F85407240CC8C333CF
:10005200C4540F4420C8834004F456800146F6DF9E
:10006200E4800B0102040810204080900288E47EA4
:10007200019360BCA3FF543F30E509541FFEE49393
:10008200A360010ECF54C025E060A840B8E493A35A
:10009200FAE493A3F8E493A3C8C582C8CAC583CA85
:1000A200F0A3C8C582C8CAC583CADFE9DEE780BE3D
:01029C000061
:00000001FF
