:0F029900020B0000020D00000208000A010A001B
:0802B6007F0F7E5ADEFEDFFC23
:0102BE00221D
:1001C100E5087061E50924EC602124F6602724E24A
:1001D100602D24F6603624F6603F2446704775088A
:1001E10000750914D2B2C2B3C2CC227508007509D8
:1001F1001EC2B2801275080075093CC2B280157525
:100201000800750946D2B2D2B3C2CC227508007576
:100211000950D2B2C2B3D2CC2275080075090AC204
:06022100B2D2B3D2CC22E0
:10000E00E50A6006C2B2C2B3C2CCC3EF9408EE6476
:10001E008094804011D3EF940CEE6480948050064F
:10002E00D2B2C2B3C2CCC3EF9412EE6480948040BD
:10003E0011D3EF9416EE648094805006C2B2D2B300
:10004E00C2CCC3EF941CEE648094804011D3EF9425
:10005E0020EE648094805006C2B2C2B3D2CCC3EFFD
:10006E009426EE648094804011D3EF942AEE64803F
:10007E0094805006C2B2C2B3C2CCC3EF9430EE64C9
:10008E008094804011D3EF9434EE648094805006B7
:10009E00D2B2D2B3D2CCC3EF943AEE648094804005
:1000AE0011D3EF943EEE648094805006D2B2D2B358
:1000BE00C2CCC3EF9444EE648094804011D3EF948D
:1000CE0048EE648094805006D2B2C2B3D2CCC3EF55
:1000DE00944EEE648094804011D3EF9452EE64807F
:1000EE0094805006C2B2D2B3D2CCC3EF9458EE6411
:1000FE008094804013D3EF945CEE6480948050081B
:10010E00750A01E4F50DF50EC3EF9458EE64809474
:10011E0080400BD3EF945CEE648094804003E4F552
:07012E000AE4F50BF50C22B9
:10028400438E805389F0758AAE758CFBC28DC28C07
:05029400D2A9D2AF2247
:10022700E4F594F593F592F591F596F595F5B2F514
:10023700B1F5B4F5B3F5CAF5C9C2B2C2B3C2CC12AF
:100247000284E50A6024E50E450D70031201C11210
:1002570002B6050EE50E7002050DC394F4E50D64B4
:100267008094814005E4F50DF50E30CDD5D28C2074
:0D027700CDFDC28CAF0CAE0B12000E80C589
:03000B000202A945
:0D02A900C0E0050CE50C7002050BD0E03242
:03000000020135C5
:0C013500787FE4F6D8FD75810E02017C95
:10014100020227E493A3F8E493A34003F68001F2AB
:1001510008DFF48029E493A3F85407240CC8C333BF
:10016100C4540F4420C8834004F456800146F6DF8E
:10017100E4800B0102040810204080900299E47E83
:10018100019360BCA3FF543F30E509541FFEE49383
:10019100A360010ECF54C025E060A840B8E493A34A
:1001A100FAE493A3F8E493A3C8C582C8CAC583CA75
:1001B100F0A3C8C582C8CAC583CADFE9DEE780BE2D
:0102A8000055
:00000001FF
