:020000040000FA
:10000000001000201902000021020000230200005D
:100010002502000027020000290200000000000065
:100020000000000000000000000000002B020000A3
:100030002D020000000000002F020000310200002D
:1000400033020000330200003302000033020000DC
:1000500033020000330200003302000033020000CC
:1000600033020000330200003302000033020000BC
:1000700033020000330200003302000033020000AC
:10008000330200003302000033020000330200009C
:10009000330200003302000033020000330200008C
:1000A000330200003302000033020000330200007C
:1000B00033020000330200000000000000000000D6
:1000C000330200003302000033020000330200005C
:1000D0003302000033020000330200000000000081
:1000E0000000000000000000000000000000000010
:1000F0000000000000000000000000000000000000
:1001000000000000000000000000000000000000EF
:1001100000000000000000000000000000000000DF
:1001200000000000000000000000000000000000CF
:1001300000000000000000000000000000000000BF
:1001400000000000000000000000000000000000AF
:10015000000000000000000000000000000000009F
:10016000000000000000000000000000000000008F
:10017000000000000000000000000000000000007F
:10018000000000000000000000000000000000006F
:10019000000000000000000000000000000000005F
:1001A000000000000000000000000000000000004F
:1001B000000000000000000000000000000000003F
:1001C000000000000000000000000000000000002F
:1001D000000000000000000000000000000000001F
:1001E000000000000000000000000000000000000F
:1001F00000000000000000000000000000000000FF
:10020000DFF810D000F01AF800480047290300007A
:10021000AFF30080001000200648804706480047E2
:10022000FEE7FEE7FEE7FEE7FEE7FEE7FEE7FEE7A6
:10023000FEE7FEE79502000001020000064C074DB4
:1002400006E0E06840F0010394E8070098471034A6
:10025000AC42F6D3FFF7D8FF88030000A8030000E4
:10026000044940200860054903480860091D044806
:100270000860704700E100E00312030010650040D1
:100280000313020002490148086070470090D00340
:100290000000800000B51A48016841F47001016057
:1002A000BFF34F8FBFF36F8F4FF01022D2F80002D1
:1002B000002803DBD2F8040200281CDA012000F039
:1002C0004DF81523C2F8003200F04EF8C2F804329F
:1002D00000F04AF8002000F041F8BFF34F8F0848C3
:1002E0007C380168074A01F4E06111430160BFF303
:1002F0004F8F00BFFDE75DF804EBFFF7C3BF0000C1
:1003000088ED00E00400FA0502E008C8121F08C1E9
:10031000002AFAD170477047002001E001C1121F86
:10032000002AFBD170470000FFF79AFFDFF8248016
:10033000094D01274FF4FA794FF47A46C8F8007056
:10034000C8F804704C46691C30468847641EFAD1D0
:10035000F4E70000006000408003000001490860ED
:1003600000F002B804E50140024801680029FCD011
:100370007047000000E401400000000000000000A1
:100380000338FDD870470000A8030000000080007B
:100390000400000008030000A80300000000002083
:0C03A00000100000180300000090D003C3
:0400000500000201F4
:00000001FF
