:020000040002F8
:1060000020480020C5630200CD630200CF63020078
:10601000D1630200D3630200D563020000000000D8
:10602000000000000000000000000000D763020034
:10603000D963020000000000DB630200DD630200A0
:106040004D660200DF630200B5690200DF630200F3
:10605000DF630200DF63020091650200DF6302007C
:10606000DF630200DF630200DF630200DF63020020
:10607000DF630200DF630200DF630200DF63020010
:10608000DF630200A1660200DF630200DF6302003B
:10609000DF630200DF63020045670200DF63020086
:1060A000DF630200DF630200DF630200DF630200E0
:1060B000DF630200DF630200000000000000000058
:1060C000DF630200DF630200DF630200DF630200C0
:1060D000DF630200DF630200DF63020000000000F4
:1060E00000000000000000000000000000000000B0
:1060F00000000000000000000000000000000000A0
:10610000000000000000000000000000000000008F
:10611000000000000000000000000000000000007F
:10612000000000000000000000000000000000006F
:10613000000000000000000000000000000000005F
:10614000000000000000000000000000000000004F
:10615000000000000000000000000000000000003F
:10616000000000000000000000000000000000002F
:10617000000000000000000000000000000000001F
:10618000000000000000000000000000000000000F
:1061900000000000000000000000000000000000FF
:1061A00000000000000000000000000000000000EF
:1061B00000000000000000000000000000000000DF
:1061C00000000000000000000000000000000000CF
:1061D00000000000000000000000000000000000BF
:1061E00000000000000000000000000000000000AF
:1061F000000000000000000000000000000000009F
:10620000DFF810D000F086F90048004735B70200EB
:10621000AFF300802048002030B450E8012F93B243
:10622000C48923448489A34228BF1B1B0489A34239
:1062300002BFBFF32F8F002007E0C3EA020340E84C
:106240000134002CE9D14FF001000A6030BC7047E6
:1062500050E8012FC2EA024240E801210029F7D1AB
:10626000704730B450E8022F1FFAA2F3C488A3424B
:1062700002BFBFF32F8F00200DE0C489234484891F
:10628000A34228BF1B1BC2EA034340E80234002C90
:10629000E8D14FF001000A6030BC704750E8022F8F
:1062A000C2EA224240E802210029F7D170470346A2
:1062B00053E8022FD988B2EB324F4FF0000017BFDE
:1062C00092B241EA014142EA014104E05A68B2EB6C
:1062D000324F08BF012043E80212002AE8D170477C
:1062E00030B4044654E8000F0D4644E80053002B38
:1062F000F8D1156030BC704730B4044654E8000F44
:1063000040EA010544E80053002BF7D1156030BC8A
:10631000704730B4044654E8000F00EA010544E831
:106320000053002BF7D1156030BC704730B40446E1
:1063300054E8000F80EA010544E80053002BF7D130
:10634000156030BC704730B4044654E8000F00EBD1
:10635000010544E80053002BF7D1156030BC7047AD
:1063600030B4044654E8000FA0EB010544E80053A4
:10637000002BF7D1156030BC704770B404464FF065
:10638000000054E8006F0D68AE4207BF44E80023E8
:10639000012044E800630E60002B1CBF0020F0E7E2
:1063A00070BC704730B4044654E8000F88422CBFDC
:1063B000451A054644E80053002BF5D1156030BC62
:1063C000704700000648804706480047FEE7FEE7A2
:1063D000FEE7FEE7FEE7FEE7FEE7FEE7FEE7FEE795
:1063E0005D670200016202002DE9F05F05460020B2
:1063F00092469B4688460646814640241BE0284636
:1064000041464746224600F074F853465A46C01AA1
:10641000914110D311461846224600F016F82D1A65
:1064200067EB01084F4622460120002100F00DF8DD
:1064300017EB00094E41201EA4F10104DFDC4846A1
:1064400031462A464346BDE8F09F202A04DB203A25
:1064500000FA02F1002070479140C2F1200320FAB7
:1064600003F319439040704700487047DC3903003C
:1064700040EA01039B0703D009E008C9121F08C0C6
:10648000042AFAD203E011F8013B00F8013B521E46
:10649000F9D27047D2B201E000F8012B491EFBD2BD
:1064A00070470022F6E710B513460A46044619461F
:1064B000FFF7F0FF204610BD421C10F8011B002919
:1064C000FBD1801A704730B504460020034600E037
:1064D0005B1C934203D2E05CCD5C401BF8D030BD26
:1064E000034611F8012B00F8012B002AF9D11846B8
:1064F0007047202A04DB203A21FA02F0002170477D
:1065000021FA02F3D040C2F120029140084319461B
:1065100070470000064C074D06E0E06840F00103BC
:1065200094E8070098471034AC42F6D3FFF76CFEAE
:10653000245303004453030070B58C1810F8015B1A
:1065400015F0070301D110F8013B2A1106D110F80C
:10655000012B03E010F8016B01F8016B5B1EF9D110
:106560002B0705D40023521E0DD401F8013BFAE796
:1065700010F8013BCB1A921C03E013F8015B01F801
:10658000015B521EF9D5A142D8D3002070BD000096
:106590002DE9F84F0026002000904FF48077012568
:1065A000002410E0384606F0F7FB40B100BF254854
:1065B0000068284018B1384606F0E0FB2E436D0015
:1065C000381D87B2641C082CECD34FF4BE7006F063
:1065D000E3FB50B14FF4BE7006F0D0FB46F000462E
:1065E0006A460121002006F06FFBF0B210B30125CE
:1065F00000241DE005EA0600C0B100BF124850F8B3
:106600002400C0F30420814600BF0F4850F8240046
:10661000C0F301408246204602F036FA8046B8F1C7
:10662000000F02D051464846C04700BF6D00641CB1
:10663000082CDFD306F0004010B168460AF0B2F92A
:10664000BDE8F88F046300401065004010B54FF4BA
:10665000807005F0D6FE80B14FF4807005F0DAFE50
:10666000012005F0E1FE0D48407930B901200B49C9
:10667000487108460168002088474FF4827005F091
:10668000C0FE50B14FF4827005F0C4FE022005F048
:10669000CBFE024801680120884710BD98230020E6
:1066A00010B5034A1068034A1168884710BD0000FE
:1066B000E8230020E423002010B500F083F910BD8A
:1066C0002DE9F047074688461646C24607EB4701C4
:1066D0001B4800EBC109D9F8140020B1012811D0E2
:1066E000022826D11EE0484600F0A4F90546B5422E
:1066F00001D2002405E0344632465146484600F0B7
:10670000E0F918E0484600F095F90546B54201D297
:10671000284600E03046044622465146484600F0EE
:10672000D0F908E032465146484600F091F9044657
:1067300001E0002400BF00BF2046BDE8F087000054
:10674000B035002010B507F04BFA10BD01480249E2
:10675000086070470090D0039424002010B505F025
:10676000FBF928B184480088C0F3042083490860FD
:1067700005F04EFA10B182488249486705F08AFA5E
:1067800030B17D48E0380068C0F342307E4908608F
:1067900005F0AEFA28B17D48006820F080707B4992
:1067A000086005F0C7FA48B10020794908604FF049
:1067B0008041C1F810017449091F086005F0E8FA2A
:1067C00018B1032070496431086005F003FB68B11B
:1067D00005207049086001206E497831086000206A
:1067E0006C49083108603F20091F086005F014FB60
:1067F000002855D06048E0300068674908605E486E
:10680000E4300068091D08605B48E8300068091D35
:1068100008605948EC300068091D08605648F0309F
:106820000068091D08605448F4300068091D0860BC
:106830005148F83000685849203108604E48FC3013
:106840000068091D086055480068091D0860534824
:10685000001D0068091D0860504808300068091DC7
:1068600008604E480C300068091D08604B48103025
:106870000068494940310860484814300068091DE3
:106880000860464818300068091D086043481C30FD
:106890000068091D0860414820300068091D086033
:1068A00005F02CF930B13448CC38006800F04F00C6
:1068B0003B49086005F07EF940B13A48006800F0B5
:1068C000010018B16FF001003649086005F0C2F907
:1068D00028B13548006840F48060334908602B488F
:1068E0007438006840F47000284974390860BFF3B8
:1068F0004F8FBFF36F8F00BF05F0E0F820B12B483A
:10690000006821491C31086000BF28480838006829
:1069100000F0004028B92548001F006800F0004042
:1069200030B3012007F04EFC1520204908390860DB
:1069300007F052FC15214FF01020C0F8041207F0A8
:106940004BFC002007F03EFC00BFBFF34F8F0F4809
:10695000F038006800F4E06015490843001D0B4959
:10696000F0390860BFF34F8F00BF00BF00BFFDE7E5
:10697000FFF7ECFE10BD000024030010403501407D
:106980000DF0ADBA00C007403C050040FCED00E052
:106990000C0100401056004020C5004024040010A7
:1069A000E40E0040000400403C17004008120010B4
:1069B0000000FA0510B502490868804710BD0000C4
:1069C000A023002010B5124C02202061606111A0AC
:1069D000A0611349E1614FF4007121620021A162BD
:1069E0006162E1620BA0A0640E49E164102121659F
:1069F0000021A1656165E1650BA1E01DFFF770FD58
:106A00000AA12046FFF76CFD2020A07110BD0000F8
:106A1000983500205465726D696E616C000000004D
:106A20001036002010380020525454005345474778
:106A30004552000010B501460A69CB689A4204D855
:106A40008C68641EE41AA01801E0D41A601E10BD00
:106A50002DE9F0470446894617464FF0000AE568DD
:106A600000BFD4F81080A84503D9A8EB0500461E46
:106A700004E0A5EB0800401CA1680E1AA068401BAA
:106A8000B04201D9304601E0A068401B0646BE4234
:106A900001D2304600E03846064661684819324661
:106AA0004946FFF7E5FCB244B144BF1B3544A0683A
:106AB000A84200D10025E560002FD2D15046BDE8A4
:106AC000F0872DE9F047044689461546E668A06838
:106AD000871BAF4208D9616888192A464946FFF7E3
:106AE000C7FC7019E06010E0B8466168881942463A
:106AF0004946FFF7BDFCA5EB070809EB0701424635
:106B00006068FFF7B5FCC4F80C80BDE8F08702E0D0
:106B100008C8121F08C1002AFAD170477047002028
:106B200001E001C1121F002AFBD170470146202954
:106B300008DA012088400A4A104008B10120704755
:106B40000020FCE7402909DAA1F12000012202FA25
:106B500000F008B10120F2E70020F0E70120EEE7A5
:106B6000FC06FFBD00BFEFF31081084672B6704708
:106B7000F8B505460E46C6B96946284608F062FFD4
:106B8000044643F202018C4208D000BF274627B1D9
:106B900000BF384600F0CAFA00BF00BF9DF80000F1
:106BA000C0F3400000B1F8BD00BF0021284608F046
:106BB0005BFF0446002C5CD0112C5AD00D2C21D147
:106BC0002D492E4A891AC908022242EA01402A4662
:106BD0002B4906F06FFB1321284676DF0446002C74
:106BE00047D0204607F0EAF807462349234A891A86
:106BF000C908022242EA01402B463A4621A106F08A
:106C000065FB36E00B2C0BD11B491C4A891AC908BD
:106C1000022242EA01402A46284906F04BFB28E0BE
:106C200043F2020084420BD11349144A891AC9085D
:106C3000022242EA01402A46214906F03BFB18E0C5
:106C4000204607F0BBF807460B490C4A891AC908C9
:106C5000012242EA01402B463A461AA106F036FBD1
:106C600000BF274627B100BF384600F05FFA00BFDB
:106C700000BF00BF97E700008C530300545303008C
:106C80008841030073645F626C655F6761705F6475
:106C90006973636F6E6E65637428292072657475FD
:106CA000726E6564202573206F6E20636F6E6E5F59
:106CB00068616E646C652025642E00004842030004
:106CC000FC410300417373657274696E672E207016
:106CD0006D5F636F6E6E5F736563757265282920E3
:106CE00072657475726E6564202573206F6E206303
:106CF0006F6E6E5F68616E646C652025642E0000A7
:106D000070B505460C4605B10CB9002070BD287859
:106D100040082178B0EB510F01D00020F6E70622A1
:106D2000611C681CFFF7CFFB08B90120EEE70020CB
:106D3000ECE7014601F0030008B90120704700208C
:106D4000FCE7024650680068401E084008B9012070
:106D500070470020FCE70246002104E0505C08B1C7
:106D600001207047491C0629F8D30020F9E710B527
:106D70000346D868884206D88818401E1C69A0427D
:106D800001D8012010BD0020FCE7000010B504462A
:106D90006CB10848C068A04209D806480069A04202
:106DA00005D3204604F017FA08B1012010BD0020D9
:106DB000FCE700009824002070B504460D4604F25C
:106DC0002740FFF7C8FF0646012D06D0022D0DD043
:106DD000032D11D0042D19D113E0A07928B194F816
:106DE000240010B90EB1012070BD00BFE07910B1D0
:106DF0000EB10220F8E700BF207A08B10320F3E7C4
:106E000000BF607A08B10420EEE700BF0020EBE786
:106E10000146481C052290FBF2F302FB1300C0B2AE
:106E20007047014691F82420012A01D1EE2000E0AC
:106E30001F20704710B501220221002001F090FAB6
:106E4000044600BF1CB1072C01D0204610BD00BF76
:106E500007220221012001F083FA044600BF1CB181
:106E6000072C01D02046F1E700BF0A220021084686
:106E700001F076FA044600BF1CB1072C01D0204671
:106E8000E4E700BF0020E1E730B5ABB0AC216846D5
:106E9000FFF707FB02208DF8000001208DF80200AB
:106EA00006208DF803000120ADF81000104905916F
:106EB00001218DF87C104FF49671229144F25061BB
:106EC00023910C48299069460B4800F01CFC0446AD
:106ED00000BF254625B100BF284600F027F900BFB6
:106EE00000BF0121044800F00BFC2BB030BD0000B6
:106EF00052220020E9E10200CC24002070B50446B3
:106F0000012C02D102F09CF80EE00321074800F0AA
:106F1000C1FC054600BF2E4626B100BF304600F03A
:106F200005F900BF00BF00BF70BD0000CC240020E9
:106F300070B58CB004460D461646002005E0C0F141
:106F40000F01615C0DF80010401C1028F7D30D21D3
:106F500004A8FFF7A6FA002005E02A5CC0F10F03A1
:106F600004A9CA54401C0328F7D3684646DF002012
:106F700005E0C0F10F0208A9895C3154401C0328C8
:106F8000F7D30CB070BD10B50446022001F090F8A4
:106F900010BD000010B5044602480178204600F0FC
:106FA000FFFD10BD7C23002010B5002407E0074939
:106FB000096811F83400012106F05EFF641C0448E2
:106FC00000788442F3D3002010BD0000A8230020E5
:106FD000AC2300202DE9F84306460D4617460A2F3C
:106FE00002D20720BDE8F88307F08AF838B907F025
:106FF0001DF8044600BF204600B1F3E700BF184863
:10700000066018480570184807601848002101609C
:1070100041608160C160164A1160516015E006EB65
:10702000C50814480068009098F802008DF8010027
:1070300098F80000104A694606F074FF044600BF45
:10704000204600B1CEE700BF00BF281EA5F1010118
:10705000CDB2E4D1094A0021094800F07DF8C1E72A
:10706000A8230020AC230020B0230020B02D002056
:10707000B8230020583603009DA70200DD900200CF
:107080005436030010B572B600BF06F0F7F900BF22
:1070900000BF05F07DFF0028FBD100BF00BF1849ED
:1070A000184A891AC908012242EA014016A106F0CD
:1070B000F7F800BF1748006800F0010000B100BEFB
:1070C00000BF0F490F4A891AC908022242EA01404B
:1070D00011A106F0E5F800BFBFF34F8F0D48E4386B
:1070E000006800F4E06010490843001D0949E439D4
:1070F0000860BFF34F8F00BF00BF00BFFDE7000077
:10710000FC53030054530300466174616C206572A4
:10711000726F7200F0ED00E053797374656D207248
:1071200065736574000000000000FA053EB5044672
:10713000002000900190029002946A46002144F2DF
:107140000100FFF79FFF3EBD10B5024802F05AF85C
:1071500010BD0000C023002010B503460C460AB93C
:10716000072010BD19684A61012C01D1012000E0FF
:10717000002008610020F4E738B51348006800904B
:107180000823582211491248006804F07EFE044684
:107190000CB1204638BD0F4A69460F4802F038F856
:1071A00004460CB12046F5E701210B4802F0D6F861
:1071B00001230A4A1946084801F0F6FF0120084950
:1071C00008702046E6E700006C360300C02D002062
:1071D0005C36030053130300C0230020FFFF7F0031
:1071E000CC2300202DE9F04106460D4617463446D3
:1071F000207F10B10020BDE8F081A76103F0B0FA54
:10720000401941F10001C4E90201206900B1256182
:10721000214600200BF0C8FBEDE770B5044625467B
:1072200000202877294601200BF0BEFB70BD10B569
:10723000044620460AF09EF910BD000070B50446D1
:1072400025460E488068B0B1ADB9FFF78BFC064605
:107250000A4800680A490860084840684FF0E02181
:10726000C1F804010020054988601EB900BF62B65C
:1072700000BF00BF00BF00BF70BD0000282E00206F
:1072800000E100E0F8B505460C4617462088001DD1
:10729000B84201D90C20F8BD684679DF064600BF28
:1072A000304600B1F7E700BF0320218868542088EA
:1072B000401C20801920218868542088401C208090
:1072C00020884119BDF800000BF0CEFB218808444E
:1072D00020800020DFE7704770B504460D46204649
:1072E00004F0B0F870BD10B50446637903F00302F2
:1072F0002179208804F05EF810BD10B5044620798D
:1073000018B9204600F008F803E02046FFF7EBFF2D
:1073100000BF00BF10BD00002DE9FE4307463E88B8
:107320004FF00008002259480178304600F04EFC2A
:107330007879C0F3800028B90021384607F0B4FD01
:10734000BDE8FE8306F5807188B201AB01220721FA
:1073500007F0CAFE0546C5B1284606F02FFD814656
:107360004B494C4A891AC908012242EA0140334676
:107370004A46494905F0AAFF294630460AF012FC60
:107380000021384607F090FDDAE7304603F018FD9B
:1073900004464FF6FF718C421BD1029803F060FC4B
:1073A00004464FF6FF70844213D02146304603F066
:1073B000E5FC3046FFF7EEFD58B930460AF086FB93
:1073C0003046FFF7E7FD20B90021384607F06CFD95
:1073D000B6E74FF6FF7084421FD108F09BF80446D1
:1073E0004FF6FF70844212D129492A4A891AC908E6
:1073F000012242EA014029A105F052FF0421304652
:107400000AF0D0FB0021384607F04EFD98E72146F0
:10741000304603F0B3FC4FF0010806F5807188B2E6
:107420002246072107F0E8FE054625B90121384626
:1074300007F03AFD28E0862D07D130460AF078FBA8
:107440000121384607F030FD1EE0284606F0B6FC64
:1074500081460F490F4A891AC908012242EA0140B0
:1074600033464A461A49009405F040FF2946304603
:107470000AF098FB0021384607F016FDB8F1000F1E
:1074800002D0204603F084FC00BF59E77923002096
:10749000945303005453030048480300436F756C32
:1074A00064206E6F7420616C6C6F63617465206E14
:1074B000657720706565725F696420666F72206908
:1074C0006E636F6D696E6720626F6E642E000000E0
:1074D00064490300002114E00C48D0F81024012373
:1074E00008E000BFD0680079884201D1002303E0A2
:1074F000D0680268002AF4D100BF0BB1084670477B
:10750000491C0A29E8DB4FF0FF30F8E7783100200A
:107510002DE9FC41054688461646002437880020A0
:10752000308095F82D0058B13A463146404600F07B
:1075300071FB044600BF204608B1BDE8FC8100BFD6
:10754000A87850B13A4631464046FFF79BFE0446C4
:1075500000BF204600B1F0E700BFE87860B1E978ED
:1075600048B23B463246414602F04EFC044600BF5C
:10757000204600B1E1E700BF686868B1696891F929
:1075800000003B46324641460BF04DFA044600BF30
:10759000204600B1D1E700BF288900280EDD434610
:1075A0000622022105F10800CDE900670BF063FB1C
:1075B000044600BF204600B1BFE700BF288A00286C
:1075C0000EDD43460722032105F11000CDE90067D7
:1075D0000BF051FB044600BF204600B1ADE700BFF1
:1075E000288B00280EDD43461522142105F11800D2
:1075F000CDE900670BF03FFB044600BF204600B119
:107600009BE700BF286A58B13B4632464146286A8C
:1076100001F04CFB044600BF204600B18DE700BFDF
:10762000686A58B13B4632464146686A04F0C0F881
:10763000044600BF204600B17FE700BF95F82C004C
:1076400000280BDD3B463246414628460AF05EFCE8
:10765000044600BF204600B16FE700BF287858B14C
:107660003B4632464146284604F07FF9044600BFB7
:10767000204600B161E700BF20465EE7F8B504464A
:107680000E461546002000902B466A46314620469D
:1076900000F008F807460FB90020F8BDBDF800005B
:1076A0002044FAE7F0B504460D461E4604B10AB977
:1076B0000020F0BD002103E0605C401C084481B262
:1076C000481CA84206DA10888842F5DC481C205C79
:1076D000B042F1D1A94201DB0020EAE7881C87B261
:1076E000605C10B1605C401E00E0002083B213B10A
:1076F000F818A84201DD0020DBE717801846D8E71C
:1077000080F83010704770B504460D4605B10CB9CD
:107710000E2070BD05F1780001F069FA08B9072064
:10772000F7E70020A0702C2205F17801201DFEF75C
:107730009FFE002084F83000D5F8A4006063D5F8DF
:10774000A800A0634FF6FF70A4F8240404F582603B
:10775000C4F82004002140F22C40C4F82614A4F8F8
:107760002A140155207810B9FF2084F8540004F140
:107770005500C4F810042046FFF753FB40F21441B3
:10778000085304F2144204F155012846FFF7C0FEE5
:10779000064600BF304600B1BBE700BF04F231200F
:1077A0004FF4836108512046FFF73BFBA4F81C040B
:1077B0004FF48360015904F21C4205F13C00FFF7CD
:1077C000A7FE064600BF304600B1A2E700BF012178
:1077D00051200155208B81B248200153012084F8AB
:1077E0003C0000212164502001556169616404F16D
:1077F0003C02002104F1540072DF064600BF30460F
:1078000000B186E700BF01202070304681E770B5E7
:1078100004460D462E462088102804D0112807D093
:1078200026280FD109E02146304606F08FFD0AE0F8
:107830002146304606F037FF05E02146304607F086
:10784000F8F800E000BF00BF70BD70B5044694F8C2
:10785000540074DF012084F82E04002084F83004E2
:107860000021502001550621204602F0E8FA054685
:1078700000BF284600B170BD00BFA178204600F0CF
:1078800009F8054625B1A06B10B12846A16B8847C1
:107890000020F0E770B504460E46207808B90820AD
:1078A00070BDA670002140F22C40C4F82614A4F844
:1078B0002A140155A07910B1A078012809D0E079E7
:1078C00010B1A078012804D0E07970B1A078022826
:1078D0000BD1606B30B1012084F82D040820616B5E
:1078E000884702E0002084F82D0431462046FFF747
:1078F00063FAA070606BA0B1A078032802D0A078D2
:1079000004280ED1607960B194F82E0448B90020A3
:1079100084F83004012084F82F040720616B884725
:1079200002E0002084F82F04182104F13C00FEF747
:10793000B8FD012084F83C0004F12C0007F0C4FFDE
:1079400020B194F82C105120015502E00121512062
:10795000015594F8240060B104F1280007F0B4FF49
:1079600020B194F828105220015502E00121522044
:107970000155002150200155A078052824D2DFE8C8
:1079800000F01F030A11180004F13C0120460AF020
:1079900039FB054619E004F13C0120460AF01AFBC8
:1079A000054612E004F13C0120460AF03DFB054685
:1079B0000BE004F13C0120460AF064FB054604E0BC
:1079C000002084F8310000E000BF00BFA07898B12B
:1079D00004F13C0204F15400D4F8201472DF05468F
:1079E0000DB128465CE794F8301094F8540073DF2A
:1079F00005460DB1284653E7606B18B194F8310085
:107A0000616B884700204BE72DE9F041044600BF39
:107A100014B90E20BDE8F08100BF1C2221461C488D
:107A2000FEF726FD1B481A490860206860B12068EF
:107A30007ADF05460DB12846ECE7164821680A684A
:107A400002604968416005E012487BDF05460DB1E0
:107A50002846DFE7002617E006EB86000E4901EB1B
:107A6000800700BF4FF6FF70388000BF0B4800EB67
:107A7000461078600A4A0021381DFFF76DFB054665
:107A80000DB10320C6E7761C002EE5D00020C1E72B
:107A9000A4290020782200209029002070290020AD
:107AA000852B030010B50446204600F0A5F820B150
:107AB0002146034804F08BFA10BD0020FCE70000CB
:107AC000D029002070B504460D46164620460BF01E
:107AD000A3F808B9002070BD034951F824003246CC
:107AE000294602F021FAF6E7DC29002010B5044609
:107AF000204600F081F820B12146034804F067FADF
:107B000010BD0020FCE70000D829002010B5044675
:107B1000204600F071F820B12146034804F057FADE
:107B200010BD0020FCE70000D429002070B50446F9
:107B30000025204600F060F850B12146054804F0C9
:107B400046FA06460EB1022000E00120054600BFBD
:107B5000284670BDCC29002070B50446002520467B
:107B600000F04AF850B12146054804F030FA0646C4
:107B70000EB1022000E00120054600BF284670BD7E
:107B8000C829002010B51821044804F0F0F9044673
:107B9000182C00D110BDE0B2FCE70000C029002085
:107BA00070B505460C4620460BF036F850B1284615
:107BB00000F022F830B1044901EB8400294604F0BA
:107BC00006FA70BD0020FCE7DC29002070B50546F0
:107BD0000C46164620460BF01FF850B1284600F020
:107BE0000BF830B1034901EB84003246294602F01C
:107BF000FCF870BDDC29002010B50446142C01DB14
:107C0000002010BD2146024804F0E1F9F9E7000028
:107C1000C42900202DE9FC4105460C461746208862
:107C20000930B84202D90C20BDE8FC8168466DDFFE
:107C3000064600BF304600B1F6E700BF08202188A5
:107C400068542088401C20801B202188685420888C
:107C5000401C208020882844DDF801100160BDF818
:107C6000051081802088801D20809DF8000040083C
:107C700018B900202188685402E001202188685446
:107C80002088401C20800020CEE70000F8B5054683
:107C90000F460024288821283FD004DC102812D069
:107CA00011287DD104E03B2851D05628F9D166E057
:107CB0004149424A891AC908032242EA014040A1C7
:107CC00005F0EEFA76E03C493C4A891AC9080322DD
:107CD00042EA01403EA105F0E3FA072000F06EFB06
:107CE000044600BF264626B100BF3046FFF71EFA05
:107CF00000BF00BFA8883949088008460188384875
:107D000004F018FB044600BF264626B100BF3046EB
:107D1000FFF70CFA00BF00BF4CE02749274A891A39
:107D2000C908042242EA01402EA105F0B9FA002058
:107D30000090A88869468FDF044600BF264626B11A
:107D400000BF3046FFF7F2F900BF00BF32E01A492A
:107D50001A4A891AC908042242EA014026A105F0FC
:107D60009FFAA888132176DF044600BF264626B175
:107D700000BF3046FFF7DAF900BF00BF1AE00E4936
:107D80000E4A891AC908042242EA014020A105F0DE
:107D900087FAA888132176DF044600BF264600E054
:107DA00007E026B100BF3046FFF7C0F900BF00BFB3
:107DB00000E000BF00BFF8BDFC53030054530300B4
:107DC000446973636F6E6E65637465642E000000B2
:107DD000436F6E6E65637465642E00005022002050
:107DE000C024002050485920757064617465207269
:107DF0006571756573742E004741545420436C6956
:107E0000656E742054696D656F75742E00000000F6
:107E100047415454205365727665722054696D65EC
:107E20006F75742E0000000070B505460E46288858
:107E3000102802D011282CD115E01748006860B92D
:107E400001F01EF8044600BF34B11448006818B1B0
:107E5000204612490968884700BF0F480068401C47
:107E60000D49086016E00C480068401E0A49086089
:107E70000846006860B9FEF7DDFF044600BF34B174
:107E80000648006818B1204604490968884700BFC1
:107E900000E000BF00BF70BD7422002070220020EF
:107EA00070B504460D462088102806D0112808D049
:107EB00012280ED0502810D107E0204606F00EFA06
:107EC0000CE0204606F0D6FB08E0204606F0E2FD76
:107ED00004E0204606F0EAF900E000BF00BF70BDF4
:107EE0002DE9F04104460F46A6882088102806D0C8
:107EF000112817D019283DD01A2848D116E009F0CA
:107F000083F9304608F0F4FF20B900BF0420FFF7E2
:107F10000DF906E0E07B022803D131461D4804F04C
:107F200065F834E0304609F093F930E0207A05092D
:107F3000042D01DB012000E00020024631461548F7
:107F40000C3001F052FF032D01DB012000E0002086
:107F5000024631460F48083001F047FF022D01DB91
:107F6000012000E00020024631460A48001D01F0D1
:107F70003CFF0CE0207A48B9607AC0F3C0052A467D
:107F8000314604480C3001F030FF00BF00BF00BF95
:107F9000BDE8F081CC29002070B504460D4600BF35
:107FA0000748007800B970BD00BF204602F0C2FD4E
:107FB00020460AF0BBF8204602F0B8F900BFF2E70D
:107FC000B422002070B5044620460AF047FD05465D
:107FD00005F0010070BD38B505F0C0FD044600BFD6
:107FE000254625B100BF2846FFF7A0F800BF00BF17
:107FF000002000906946012005F0F0FB044600BF18
:10800000254625B100BF2846FFF790F800BF00BF06
:10801000684605F093FC044600BF254625B100BF25
:108020002846FFF783F800BF00BF38BD014601486E
:10803000405C70473834030010B50146094B585C6A
:1080400000BF4FF0A044234600BFD3F81045C44002
:1080500004F001040CB1012000E00020024682F08F
:10806000010010BD383403007CB500240DE0084841
:10807000055D03260020009033460246014601902C
:10808000284604F0DFFD00BF641C042CEFD37CBD48
:108090003834030010B5044604F0010008B100F0C4
:1080A0004BF804F0020008B1FFF7DEFF10BD00003E
:1080B00010B502460949885C00BF4FF0A044214634
:1080C000D1F80435012484409C43C1F808450124BB
:1080D00084401C40C1F80C4500BF10BD343403007F
:1080E00010B504460249085D012104F024FE10BDCC
:1080F0003434030010B504460249085D002104F041
:108100001AFE10BD3434030010B50146094B585C0B
:1081100000BF4FF0A044234600BFD3F80445C4403D
:1081200004F001040CB1012000E00020024682F0BE
:10813000010010BD343403007CB500240CE0094874
:10814000055D00200090034601221146019028465B
:1081500004F078FD00BF641C042CF0D300F004F898
:108160007CBD00003434030010B5002403E0204639
:10817000FFF7B6FF641C042CF9D310BD10B5002422
:1081800003E02046FFF7B6FF641C042CF9D310BDB2
:1081900002464FF0FF30002106E0054B5B5C934246
:1081A00001D1084602E0491C0429F6D300BF7047FC
:1081B0003834030070B505460C46002606480560B5
:1081C00014B120460AF042FA0448006810B9FEF7DC
:1081D00031FE0646304670BD702200207422002019
:1081E00010B5002000F014FB044600BF1CB1062CA3
:1081F00001D0204610BD00BF012000F009FB04465D
:1082000000BF1CB1062C01D02046F3E700BF0020C0
:10821000F0E700002DE9F04106460F464FF0000858
:1082200000243046FFF7B4FF0446042C3ED20FB3BF
:10823000012F02D0022F38D130E004EB4400214955
:1082400011F8008004EB44000844407850B11E4A05
:108250004FF480411D480068FEF7C4FF05460DB984
:108260001948067004EB4400164908448078184900
:1082700008551AE015480068FEF7CFFF1448005D66
:1082800004EB44010F4A11448978884205D104EB7C
:1082900044001146084490F8028006E004EB4400D4
:1082A0000849084490F8018000BF00BFB8F1000FF2
:1082B00006D00848006818B1404606490968884752
:1082C000BDE8F081402900206822002044340300EA
:1082D000692200206422002010B50446042C03D239
:1082E0002046FFF7A9FE10BD0020FCE770B505464B
:1082F000042D06D0072D15D00A2D29D109F0F0FE46
:1083000027E013211448008876DF0446082C08D0A3
:1083100000BF264626B100BF3046FEF707FF00BF6C
:1083200000BF16E00C4800884FF6FF7188420ED15E
:108330000A48FFF78AFA0446082C08D000BF2646F0
:1083400026B100BF3046FEF7F1FE00BF00BF00E0DF
:1083500000BF00BF70BD000050220020CC240020D0
:1083600030B503460020042B23D2012A07D101296E
:1083700003D103F10E04E4B200E00024224679B1F7
:10838000012902D0022911D104E003EB43040A4D74
:108390002A550DE003EB4304074D2C44627007E0BF
:1083A00003EB4304044D2C44A27001E0072000BFFE
:1083B00000E0072030BD00004029002070B50446D1
:1083C00000250548007800F0010018B1204600F0B3
:1083D0005BF80546284670BD5C2200202DE9F0417F
:1083E00005460F4600241F4805601F48076005F03A
:1083F000020000B3002606E0012211463046FFF7D6
:10840000AFFF0446761C042E01D2002CF4D034B900
:1084100040F2333204211548FEF7DCFD044614B95E
:10842000FEF7C2FD04462CB9114A00211148FEF79F
:1084300093FE044600BF05F0010080B10120FFF764
:1084400029FE2CB90C4A00210C48FEF785FE044693
:108450002CB90B4A01210B48FEF77EFE044620464C
:10846000BDE8F0815C220020642200204834030033
:10847000798902004434030069B202003C340300ED
:10848000876F0200403403002DE9F04704460026C0
:108490000025DA48007820B10020D849087002F0A1
:1084A000CFFE182C7ED2DFE804F00C16174A7EB2FD
:1084B000F6F4F3F2F1F0EFEEEDECEBEAE9E8E7E6E3
:1084C000E5E402F0BDFECE480068FEF7A6FE0646D3
:1084D000CC4804708DE100BF0020FFF715FE58B1B5
:1084E0000020FFF7FDFD022C02D14FF4E16001E016
:1084F0004FF47A60054609E00020FFF7FBFD022CEF
:1085000001D1C82001E04FF4C8700546BD48047091
:108510004FF40040A5FB00104FF47A73CF1840F1E0
:1085200000015A0000233846FDF75EFF8146002215
:108530004946B3480068FEF755FE064659E100205B
:10854000FFF7E2FD58B10020FFF7CAFD032C02D16E
:108550004FF4487001E04FF47A60054609E00020CE
:10856000FFF7C8FD032C01D1C82001E04FF4C8700B
:108570000546A44804704FF40040A5FB00104FF4DA
:108580007A728F1840F10001520000233846FDF73F
:108590002BFF81460022494699480068FEF722FEDB
:1085A000064626E124E10020FFF7AEFD58B1002089
:1085B000FFF796FD042C02D14FF47A6001E04FF4EE
:1085C0007A6005460AE00020FFF794FD042C02D1F2
:1085D0004FF4C87001E04FF4C87005468948047034
:1085E0004FF40040A5FB00104FF47A73CF1840F110
:1085F00000015A0000233846FDF7F6FE81460022AE
:1086000049467F480068FEF7EDFD0646F1E0002090
:10861000FFF77AFD50B10020FFF762FD052C01D174
:10862000C82001E04FF47A60054609E00020FFF71A
:1086300061FD052C01D1C82001E04FF4C87005464A
:10864000704804704FF40040A5FB00204FF47A738B
:10865000D71840F100015A0000233846FDF7C4FE48
:1086600081460022494666480068FEF7BBFD064683
:10867000BFE0B8E0B6E0AAE0A1E098E092E05FE0F9
:108680005DE05BE059E057E051E042E033E024E098
:1086900015E00EE0FFE70020FFF70AFD59480470DF
:1086A000002240F2666156480068FEF79BFD0646D0
:1086B0009FE00020FFF71EFD5248047099E0012062
:1086C0004E490870FFF7F4FC002240F266614C4806
:1086D0000068FEF787FD06468BE0012047490870D9
:1086E000FFF7E6FC00224FF4005145480068FEF712
:1086F00079FD06467DE0012040490870FFF7D8FC6F
:10870000002240F266613E480068FEF76BFD0646B7
:108710006FE0012039490870FFF7CAFC00224FF4CE
:10872000005137480068FEF75DFD064661E0FFF73F
:1087300025FD344804705CE000BF00BF00BF00BFEF
:1087400031480068FEF769FD0646C4F1110515B30E
:108750000EBB012D18D9A8B2C82148434FF40041DF
:1087600080FB01104FF47A728F1840F10001520023
:1087700000233846FDF738FE81460022494622484C
:108780000068FEF72FFD06460220FFF7B3FC01202C
:108790001E49087005E00220FFF7A2FC00201B49DB
:1087A000087026E002F04CFD1648047021E002F04B
:1087B00047FD0020FFF79EFC1248047019E002F00C
:1087C0003FFD0120FFF796FC0E48047011E002F017
:1087D00037FD0020FFF78EFC0120FFF78BFC0948D6
:1087E000047006E000BFFFF7C9FC0648047000E013
:1087F00000BF00BF3046BDE8F087000059220020CE
:108800003C34030058220020403403006022002042
:1088100010B50446012120460AF0BFFA10BD000041
:108820002DE9FC4704460D461646A71C4FF00108EB
:108830000020019001A8FEF7FAFC3048406828604B
:108840002E4840682D498968411A2D480068401C0F
:10885000A0EB010915E001212A4803F0EBFB02F02F
:1088600003FF82465146274803F0E4FB2348406853
:1088700022498968411A22480068401CA0EB01097E
:1088800000BF4F45E7D8B8F1000F30D0002100916C
:1088900076B1009921F00301491C0091009921F063
:1088A0000401091D0091009964F3891100910DE004
:1088B000009921F00301891C0091009921F0040125
:1088C000091D0091009964F39F5100910B4949687B
:1088D0000B4A12681140094A0C3202EB81000099E0
:1088E00001600649496839440C3A516000BF9DF85F
:1088F0000400FEF7A3FC4046BDE8FC877831002069
:108900004C2400209435002070B504460D460A2DF5
:1089100003D10D212046FFF7F7FFA168481CA06096
:1089200020684554D4E90110884202D3204603F060
:10893000D8FD70BD0448806803494968884201D168
:10894000012070470020FCE778310020024600211A
:1089500008E0074B1B6803EBC1000378934200D18A
:108960007047491C034800788142F2DB0020F7E79A
:10897000A8230020AC23002010B504462078022153
:10898000FFF748FC10BD0000F8B50546124903206A
:10899000FFF724FD044600BF264626B100BF30463F
:1089A000FEF7C4FB00BF00BF69460020FFF702FCD2
:1089B000044600BF264626B100BF3046FEF7B6FB90
:1089C00000BF00BF9DF80000022801D1012000E097
:1089D00000202870F8BD0000ED8202007CB504463E
:1089E000204602F0EDF9054600236A46092106F00B
:1089F000D9FC052805D10122024801782046FFF75D
:108A0000E5F87CBD902200207CB504460E4600208F
:108A1000019042F6A620ADF8040001208DF8060072
:108A20000748006800906A4601A92046A0DF054675
:108A30002DB90122034801782046FFF7C7F87CBD15
:108A4000AC3403009122002001468879012809D125
:108A50000879012806D1488842F60212904201D1D5
:108A6000012070470020FCE74FF0FF31054A42F833
:108A70002010082804DBFF23A0F1080150325354D2
:108A800070470000342D00200146024850F82100B4
:108A900070470000342D00202DE9F04F03460C46AE
:108AA0004FF0FF390AB1002000E0082084460AB1E7
:108AB000082000E00C208046614624E0154850F86C
:108AC0002100401CF0B91D460846274616464FFABD
:108AD00080FBDFF840A00AF1300A0AF805B0DFF8A1
:108AE00034A04AF820704EB94FFA85FBA0F1080A6D
:108AF000DFF820E00EF1500E0EF80AB000BF4FFA7A
:108B000081F902E0491C4145D8D300BF4846BDE881
:108B1000F08F0000342D0020014601484056704778
:108B2000642D00202DE9F04104460D464FF6FF76F6
:108B3000304684420AD14FF48071284603F017FA78
:108B400086B2B6F5807F10D126460EE0FF2C0CDCF5
:108B50002146284603F0F4F980F001070FB12046C2
:108B600001E04FF6FF70064600BF3046BDE8F081D9
:108B700070B505460DB9094C01E0084C083409E010
:108B8000204602F030FB064606B904E0284671682C
:108B9000884700BFF4E700BF70BD0000282D00200B
:108BA00010B504462CB90120064948700020FFF793
:108BB000DFFF012C04D1012002498870FFF7D8FFA4
:108BC00010BD0000202D00202DE9F047024613467D
:108BD0008C46D3E90245DCE90267B6EB040877EB83
:108BE000050002D30120BDE8F0870020FBE7014625
:108BF0008878012805D191F82000012801D10020B2
:108C00007047886A042802D0486A042801D10020ED
:108C1000F6E70120F4E733B58BB00546002000905D
:108C20000C9878B100240BE021460CA803F0CFF992
:108C300028B1009A501C009001A820F81240641C32
:108C4000142CF1D32C2269462846FDF711FC0DB0F7
:108C500030BD01460888062808DB0888B0F5486F53
:108C600006DD08884FF6FF72904201D0072070475A
:108C70004888062808DB4888B0F5486F06DD488834
:108C80004FF6FF72904201D00720F0E708884FF6B8
:108C9000FF72904208D04888904205D008884A88E0
:108CA000904201DD0720E2E70020E0E72DE9F041F6
:108CB00007460D46144698462088801D404502D937
:108CC0000C20BDE8F0813846FFF7C3FF064600BF21
:108CD000304600B1F5E700BF0520218868542088A0
:108CE000401C20801220218868542088401C20804D
:108CF00022885119388809F0B7FE2188084420805D
:108D000022885119788809F0AFFE21880844208014
:108D10000020D6E710B5044600BF2046FEF706FA4D
:108D200000BF10BD30B587B01C216846FDF7B9FB08
:108D3000002000904FF4A03001904FF4F0200290FA
:108D400003208DF80C000020ADF80E008DF8100007
:108D500009480590094806906846FEF755FE044606
:108D600000BF254625B100BF2846FEF7DFF900BF4A
:108D700000BF07B030BD000081E20200158D020087
:108D8000F8B505460C46607A88B9207A10B91048C3
:108D9000476801E00E4887682A4639466068FEF752
:108DA00021FA064616B1304608F0A2FE0EE0002079
:108DB00020720748406948B101208DF80000ADF8E5
:108DC0000250034841696846884700BFF8BD00006B
:108DD000A4290020F0B585B004460D4617461E466E
:108DE00014220B496846FDF743FBADF802408DF8AD
:108DF0000850ADF80A708DF80C6000220548017823
:108E00002046FEF7E3FE684600F04CFD05B0F0BDDD
:108E1000D43503007923002010B586B0044620889D
:108E200005F0F8FF00BB2088FEF73CFE30B9208833
:108E3000012241F2060100F02EFB15E020880022FD
:108E40000A490978FEF7C2FE02208DF80400208846
:108E5000ADF8060000208DF80C0000218DF80D10F3
:108E600001A800F01FFD00BF06B010BD792300204F
:108E700070B504460D4629462046FDF779FE70BDC3
:108E800010B5012200210846FFF76AFA044600BF28
:108E90001CB1072C01D0204610BD00BF07220221C3
:108EA0000120FFF75DFA044600BF1CB1072C01D07A
:108EB0002046F1E700BF042202210020FFF750FA0C
:108EC000044600BF1CB1072C01D02046E4E700BFD8
:108ED0000020E1E72DE9FF4105460C4629492A4AD1
:108EE000891AC908042242EA01402B46224627A1DA
:108EF00004F0ECF9002002900390ADF80840ADF8C2
:108F00000A40009001906A4602A9284690DF064672
:108F1000002E32D0304604F051FF074619491A4A54
:108F2000891AC908012242EA01403B462A462349E0
:108F300004F0CCF9BDF8000010B9BDF8020068B12A
:108F4000BDF80230BDF800200E490F4FC91BC908FB
:108F5000012747EA01401AA104F0B8F9BDF804005E
:108F600058B1BDF804200749074BC91AC9080123A5
:108F700043EA0140224904F09DF9304604B0BDE8BF
:108F8000F08100006C53030054530300557064617A
:108F900074696E672064617461206C656E677468C3
:108FA00020746F202575206F6E20636F6E6E656371
:108FB00074696F6E20307825782E0000683D0300BC
:108FC00054686520726571756573746564205458C2
:108FD0002F5258207061636B6574206C656E6774E6
:108FE0006820697320746F6F206C6F6E67206279E0
:108FF0002025752F2575206F63746574732E00000E
:10900000B43D03002DE9F04105460F460B4C01210C
:10901000204603F046F80646BFF35F8F0EB90120E5
:1090200000E0002040B1284602F07AFA08B1BDE81D
:10903000F081024804F03CFB00BFF8E788220020E2
:1090400070B50B490B4A891AC908032242EA01404C
:1090500009A104F025F907F00DFC044600BF2546E0
:1090600025B100BF2846FEF761F800BF00BF70BD04
:10907000FC53030054530300457261736520626F13
:109080006E6473210000000070B506460D4616B1EF
:109090004FF4064070BD287920B1012809D002287C
:1090A00015D111E002202871284607F07FFF044601
:1090B00010E0284600F05CFE044648F20960844255
:1090C00001D141F61D5405E041F61D5402E048F27D
:1090D0000E6400BF00BF2046DCE700002DE9F04130
:1090E0008046002414E01248006800EBC40528788C
:1090F00004F092FF07466878012800D100E00020C4
:10910000784080F001062878314600F0F9FA641CB6
:10911000084800788442E6DB0748D0E900100023C5
:1091200059405840014301D009F05EFCBDE8F08190
:10913000A8230020AC230020B823002070B50446EB
:1091400020793D2802D141F23D0001E04FF48850E2
:10915000054620880022294602F02CF970BD000047
:1091600010B50021034802F09CFF044684F3100070
:1091700010BD00009435002070B505460C464FF434
:10918000803000FA04F1284600F09AFA70BD70B5FC
:1091900005460C464FF4A07000EB840086B23146C1
:1091A000284600F025FB70BD2DE9F04704460D462A
:1091B00016461F464FF4803000FA05F84FF4A070B1
:1091C00000EB85001FFA80F926F07F4641462068B3
:1091D00004F0EEFA4146206804F0E4FA49462068BB
:1091E00004F0D9FA32462946206804F0CBFA414609
:1091F000206804F0DAFA1FB14146206804F0DBFA77
:10920000BDE8F08710B50446206804F0C0FA10BD30
:109210002DE9F04704460D4617466079324941F87A
:1092200020706079314901EBC000007968B10826EF
:109230002F49304A891AC908022242EA01402EA168
:1092400004F02EF83046BDE8F08729882068C0F881
:10925000081500BF94F90420AB7810461946002881
:1092600008DB4FEA417C4FEA1C68DFF8B0C00CF81D
:1092700000800BE04FEA417C4FEA1C69DFF8A0C098
:1092800000F00F08A8F104080CF8089000BF00BF18
:1092900094F90410084600280DDB00BF00BF00F061
:1092A0001F0301229A4043099B0003F1E023C3F806
:1092B000002100BF00BF00BF00BF012061790B4A41
:1092C00002EBC10108716079114641F83040002677
:1092D0000749084A891AC908032242EA014011A134
:1092E00003F0DEFF3046AEE7E4230020E823002051
:1092F000DC5303005453030052544320696E7374CB
:10930000616E636520616C726561647920696E6964
:109310007469616C697A65642E00000000E400E005
:1093200018ED00E05254433A20696E697469616C2B
:10933000697A65642E00000010B5014691F90400B9
:10934000002807DB00F01F0301229A40024B44096A
:1093500043F8242000BF10BD00E200E070B50546D0
:109360000C4622460221284600F0B6F970BD10B521
:1093700004464FF48271204600F03AFA10BD10B551
:1093800004460021206804F019FA10BD10B5044607
:109390000421206804F012FA10BD2DE9F84F0446AC
:1093A0008846154699464FF4803000FA08FA4FF483
:1093B000A07000EB88001FFA80FB25F07F45514626
:1093C000204600F07DF9206804F0E1F906464146A8
:1093D000206804F0D1F9009032464146206804F03C
:1093E000D1F95946206804F0D6F93146009809F0C1
:1093F00055FA012806D1102004F02AFD59462068AC
:1094000004F0C9F9206804F0C2F90646314628463E
:1094100009F044FA07465146206804F0C6F9012FC6
:109420000FD16A1C4146206804F0ACF9102004F00A
:109430000FFD206804F0ABF9B04225D00D20BDE847
:10944000F88F2A464146206804F09CF9206804F011
:109450009EF90646681E314609F020FA07466FF06D
:109460007F40A0EB0900B84201D20D20E7E75FB9C9
:109470006A1C4146206804F085F9206804F087F9E9
:10948000B04201D00D20DAE701225146204600F01B
:1094900023F90020D3E770B506460C4615462B4647
:1094A000224600213046FFF795FC70BD2DE9F843B8
:1094B00005460E461746984669461048006802F071
:1094C000F8FC044614B90420BDE8F8831C212046AA
:1094D000FCF7E7FF012020712560C4F808800848E8
:1094E0000068B6FBF0F0E060676169460348006819
:1094F00002F009FD07F06AFC0020E5E70C370300E5
:109500000037030010B50446D4E90321501828DFC2
:1095100010BD0278072A38D2DFE802F037040712BC
:10952000222B340000220A7030E001220A700389E5
:109530008B818388CB81C2688A6000230B7425E00D
:1095400002220A7003898B818388CB81C2688A607A
:10955000827D062A01D1012300E000230B7415E06F
:1095600003220A70C3888B810389CB81C2688A6019
:109570000CE004220A70C3888B810023CB81002277
:109580008A6003E005220A7000E000BF00BF704758
:1095900070B50546002409E0064850F8240020B1C3
:1095A000044850F8241028468847641C042CF3D340
:1095B00070BD0000342E002030B587B004460D4643
:1095C0002068806808B907B030BD182101A8FCF7F1
:1095D00068FF0295A0680690207910B1012815D186
:1095E00009E001208DF8040020690390E0680490F0
:1095F000606905900BE002208DF804000749E068DF
:109600000968484303906069059000E000BF00BF0F
:109610002068816801A8884700BFD4E700370300AD
:10962000F0B585B005460C461646002C3ED0112CF0
:109630003CD0082C3AD00D2C24D11D491D4A891A42
:10964000C908022242EA01402A461B4903F032FEC1
:109650002A460321684602F0FDF92EB1307800F069
:10966000010008B1012000E002208DF8080000216F
:109670008DF80C1041F20111ADF80A10684600F0A7
:1096800025F913E0204604F099FB07460849094AEA
:10969000891AC908012242EA01402B463A46074985
:1096A00003F014FE2146284608F090FA05B0F0BDFC
:1096B0009C53030054530300204A0300304B030023
:1096C00070B504460D462946206804F06BF829461B
:1096D000206804F06DF870BD70B504460E4615465E
:1096E0003146206804F061F81DB13146206804F06D
:1096F00062F870BD10B50446204600F0E7F810BDD2
:10970000F8B505460C46284608F0B4FF05286AD28D
:10971000DFE800F003212A393F00DCB101212846AF
:1097200008F0B8FF002000906846FDF780FD2A464B
:109730000126002730463946FCF787FE2B4AD2E93E
:10974000003218431143294A03C29DF80000FDF777
:1097500075FD00BF47E00CB1022000E0002001468B
:10976000284608F097FF3EE044B10321284608F060
:1097700091FF0121284609F06FFA03E001212846F4
:1097800008F088FF2FE01CB90421284608F082FF6A
:1097900029E024B10321284608F07CFF22E00021C3
:1097A000284608F077FF0021284609F055FA0020E6
:1097B00000906846FDF73BFD2A460126002730460B
:1097C0003946FCF742FE0A46C143D043074B0CCB57
:1097D00011401840054AC2E900109DF80000FDF74D
:1097E0002DFD00BF00BF00BFF8BD0000B823002062
:1097F00070B505460C462868015929B121462868EC
:1098000003F0C9FF012070BD0020FCE770B50446DD
:10981000608801F0D5FAA080002505E0044850F8E2
:109820002510204688476D1C002DF7D070BD000024
:109830008022002070B50446A08801F0F1F9608014
:10984000002505E0044850F82510204688476D1C87
:10985000002DF7D070BD00009422002070B50546A1
:10986000002405E0044850F8241028468847641C6A
:10987000022CF7D370BD0000EC34030070B5054630
:10988000002405E0054850F8241028468847641C49
:10989000034800788442F5DB70BD0000D42C002022
:1098A000C222002070B50446608801F089FAA080C9
:1098B000002505E0044850F82510204688476D1C17
:1098C000002DF7D070BD00009435030070B505463B
:1098D000002405E0044850F8241028468847641CFA
:1098E000002CF7D070BD00000C36030010B586B018
:1098F0000446142101A8FCF7D4FDA08900F052FA17
:10990000ADF80800207806285ED2DFE800F05D039D
:1099100004052E4A00BF00BFA08900F048FA18B91C
:10992000E08907F064FCF8B1E08907F05DFC8DF890
:109930000C002078032801D1012100E000218DF8DE
:109940000D10A1680491606830B908208DF80400FA
:1099500001218DF8141004E009208DF804006168DD
:10996000059101A805F06AFC2FE0A08900F01FFA1C
:10997000B0B1E089A0B9606838B90A208DF8040058
:10998000BDF8080005F0AAFE04E00B208DF80400E5
:109990006068039001201149087001A805F04EFC91
:1099A00013E0606818B913208DF8040004E0142057
:1099B0008DF80400606803904FF6FF70ADF8080062
:1099C00001A805F03BFC00E000BF00BF03480078A1
:1099D00008B105F0C9FD06B010BD0000A1220020AD
:1099E00038B505461048007810B948F2016038BD16
:1099F0004FF6FF70854202D148F20360F7E76846F0
:109A000007F0C4F8044614B948F20760EFE70520F0
:109A1000207001202071E580684607F0C7F807F044
:109A2000C9F90020E3E70000F023002038B50E4814
:109A3000007810B948F2016038BD684607F0A6F812
:109A4000044614B948F20760F6E70620207068461D
:109A500007F0ACF80548007810B1012003490873FD
:109A600007F0A8F90020E7E7F0230020082F0020E6
:109A700070B586B0142101A8FCF713FD2E480078BC
:109A800028B101A8FFF784FD002006B070BD2A4868
:109A9000001D02F0C8FA08B10020F6E700F036FA1F
:109AA00006460EB13046F0E707F0ACF805F0FAF8DC
:109AB000054625B1022D03D0062D0ED103E000BFCF
:109AC00048F20A60E1E701201B4908700020486065
:109AD00001A8FFF75DFD0020D7E700BF00BF684683
:109AE00007F054F8044614B948F20760CDE70120A6
:109AF00020700C2D16D2DFE805F01506150715119C
:109B00001512150A0E0B00BF002020710BE000BFDC
:109B10000320207107E00220207104E000BF012033
:109B2000207100E000BF00BF684607F03FF807F073
:109B300041F90020A9E70000F023002038B50446D1
:109B400014B948F2046038BD6946204607F04CFA63
:109B500008B3BDF8000000EB8000114901EB800064
:109B6000C068A8B1A07A98B1BDF8000000EB8000F1
:109B700001EB8000C068401EBDF8001001EB8101C0
:109B8000074A02EB8101C8600020A072002504E0B2
:109B900048F2056501E048F209652846D3E7000070
:109BA000E02E00207FB514461D462B46224601A913
:109BB000684607F0B1F904B070BD37B50C461546DC
:109BC0002B4622466946002007F0A6F93EBD37B570
:109BD0000C4615462B4622460021684607F09CF9A4
:109BE0003EBD024602B111B948F2046070471068E8
:109BF00008600020FAE70000F8B504460D4604B1FD
:109C000015B948F20460F8BD6946204607F0ECF942
:109C1000A0B16668BDF8001001EB8101094A02EBB2
:109C2000810101F10C00012102F004FA2E6060684C
:109C30000C3068600120A0720020E4E748F209605F
:109C4000E1E70000E02E002070B504460D4614B98F
:109C500048F2046070BD032300222946204609F023
:109C600095FAF7E770B504460D460223002229460F
:109C7000204609F08BFA70BD70B5054609480068AA
:109C8000042802D148F20B6409E007480549096835
:109C900040F821500121034802F0CCF9002420466D
:109CA00070BD0000FC230020342E00202DE9F84375
:109CB00004464FF4806800262B48007818B948F213
:109CC0000160BDE8F88314B948F20460F9E7122195
:109CD0002046FCF7E6FB0320208000253FE005EB53
:109CE0008500224901EB8000008905EB85011F4AB0
:109CF00002EB81014989084487B205EB850102EB3B
:109D00008101486804F04AFF032802D12088401EE0
:109D10002080608805EB8501144A02EB8101C96847
:109D200008446080208905EB850102EB81014989A7
:109D300008442081608938446081C7F5806086B21C
:109D4000A089B04200DAA68104F11000831EA21D92
:109D5000211D0090284607F09DFA681C85B2022D4F
:109D6000BDDB0020ADE70000F0230020E02E002046
:109D70003EB504460A4B6A460021A01D07F0CCF808
:109D8000054635B9064A9188019807F0A7F90546B6
:109D900003E0034800210160416028463EBD000009
:109DA0000C2400200146A1F5404080B270470146D6
:109DB000B1F5404F05DB4FF6FE70814201DC01201A
:109DC00070470020FCE710B504462078182802D11F
:109DD000FDF7D8FE207010BD10B504462078182875
:109DE00002D1FDF7CFFE207010BD70B505460E46BE
:109DF000144624B13146284602F0F8F803E0314613
:109E0000284602F08EF870BD30B504461088C01C9C
:109E1000984201D90C2030BD022015884855108881
:109E2000401C10800120158848551088401C108067
:109E300015884C551088401C10800020EBE770B549
:109E400004460D4640F21442115B0122D4F810047E
:109E5000FDF714FC064606B1357004F13C0204F52A
:109E6000826104F1540072DF70BD00002DE9F04101
:109E700006460C4615460027112C01D1012700E0AB
:109E8000002765B13A460A4801783046FDF79EFE44
:109E90000022084801783046FDF798FE05E03A4672
:109EA000044801783046FDF791FEBDE8F0810000DE
:109EB000972300209423002010B54FF4405400F065
:109EC00009F80349086108460069001BC86010BD15
:109ED0009824002010B540F6F8700068401C18B9AE
:109EE0004FF01020406902E040F6F8700068034629
:109EF0004FF0805001694269581C08B1184601E0D2
:109F000002FB01F00446204610BD000010B5FFF72B
:109F1000D3FF00220249034802F0A2FC10BD00005A
:109F20001037030098240020F7B50D4617460DB9E9
:109F30000020FEBD0026009868B1002409E02146FB
:109F4000684602F044F818B1A0B23946A847761C1A
:109F5000641C142CF3D33046EBE710B5044660685C
:109F600006F07EFE10BD00003EB500BF9DF800006B
:109F700020F00F00401C00909DF8000020F0F00041
:109F80001030009000BF0F2214A168467CDF044609
:109F900000BF254625B100BF2846FDF7C7F800BF22
:109FA00000BF0020019002905020ADF80400A020D6
:109FB000ADF806000020ADF808004FF4C870ADF809
:109FC0000A0001A87ADF044600BF254625B100BF7C
:109FD0002846FDF7ABF800BF00BF3EBD4E6F726470
:109FE00069635F54656D706C6174650070B50021C4
:109FF000064802F0EFF8044600BF254625B100BF31
:10A000002846FDF793F800BF00BF70BDAC240020C8
:10A0100070B5054615B14FF4064070BD1848007B79
:10A0200018B100201649087301E000F0DFF8144869
:10A03000007808281DD2DFE800F01C04080C101C72
:10A04000141800F03FF8044616E000F0BDF804468E
:10A0500012E000F099F804460EE000F047F80446DC
:10A060000AE000F035F9044606E000F043F9044642
:10A0700002E048F20E6400BF00BF2046CDE70000BA
:10A08000082F00200D480089401C0C490881002041
:10A090004880087300BF0DE000EB8001084A12F809
:10A0A000211009B9012200E0002204490A310A54B2
:10A0B000411C88B20228EFDB70470000082F002007
:10A0C000E02E002010B5084800F036F840B9002016
:10A0D0000549891E08704880486041F61D5010BD32
:10A0E00000F072F8FBE700000A2F002070B50F485F
:10A0F000458805EB85000E4901EB8000C06878B902
:10A1000004200A49087005EB8500094A02EB80002B
:10A11000002301224168074802F0EAFA044602E0FF
:10A1200000F090F80446204670BD0000082F002083
:10A13000E02E00209824002010B5014600220020C7
:10A1400018E00F4B1B5C9BB100240D4B1C5400EB23
:10A1500080030C4C04EB8303DB684BB900EB8003FA
:10A1600004EB83031B7C012B02D10880012203E056
:10A17000431C98B20228E4DB00BF104610BD00006B
:10A18000122F0020E02E0020F8B50C4844680C483F
:10A1900000680B49898800EB81056088C01C86B285
:10A1A0000320064908700020B300009008462946A5
:10A1B0004268044802F014FCF8BD0000082F00209B
:10A1C000042400209824002010B507494888091D60
:10A1D00006F048FF18B1FFF7D7FF044602E0FFF78B
:10A1E00085FF0446204610BD082F002010B51448F6
:10A1F0000078082820D2DFE800F0041F1F0A10169C
:10A20000171BFFF73FFF01200D49087015E000F014
:10A210007DF802200A4908700FE000F029F80620B6
:10A220000749087009E000BF07200549087004E0ED
:10A2300001200349087000E000BF00BF10BD00000E
:10A24000082F002010B50520064908700220064995
:10A2500088800846002301220168044802F048FA79
:10A2600010BD0000082F00200424002098240020A6
:10A27000144908681449498801EB8101134A02EB2B
:10A28000810149680F4A11600F49498801EB81013A
:10A290000E4A02EB810148600A4989880A4A5288BD
:10A2A00002EB8202094B03EB820211810221054A73
:10A2B00091800021044A528802EB820203EB820261
:10A2C0001174704704240020082F0020E02E002085
:10A2D00010B5062005490870498801EB8101044A40
:10A2E00002EB8101486804F0BBFC10BD082F002080
:10A2F000E02E002010B507200349087000204860B8
:10A3000004F0BEFC10BD0000082F0020054A506874
:10A310004288D21C91B2044A92880A44024B9A8025
:10A3200070470000082F0020042400202DE9F04190
:10A3300086B00446A688208850282ED004DC352814
:10A3400036D0362808D189E0522802D05428F9D1D5
:10A3500003E0304601F076F8B9E01422634901A821
:10A36000FCF786F8ADF80660304600F029FDADF840
:10A370000800BDF8080000F035FA00225C480178BA
:10A380003046FDF723FC00225A4801783046FDF79D
:10A390001DFC01A8FFF73AFA99E0A01DFEF754FB57
:10A3A00028B10121304601F0AFF808F0D1FB8EE072
:10A3B0000027A68804F10A054F4801783046FDF7CA
:10A3C000EFFB00B983E000224B4801783046FDF7EF
:10A3D000FDFBE088B0F5857F3AD0E08858B1E2888F
:10A3E0004649474BC91AC908022343EA014045A11F
:10A3F00002F060FF2CE0288801280AD02A883F4913
:10A400003F4BC91AC908022343EA01404CA102F09C
:10A4100051FF688801280BD06A883849384BC91A1F
:10A42000C908022343EA014054A102F043FF0FE0B0
:10A43000A98800223046A1DF8046B8F1000F06D17E
:10A44000012701225C4801783046FDF7BFFB00BFC1
:10A450001FB90021304608F0ABF938E00027A68884
:10A4600004F10A05544801783046FDF799FB00B91C
:10A470002DE00022504801783046FDF7A7FBE08828
:10A4800058B1E2881D491E4BC91AC908022343EA84
:10A4900001401CA102F00EFF14E0A88801280BD097
:10A4A000AA881649164BC91AC908022343EA014073
:10A4B00032A102F0FFFE05E0A87908B1012000E01A
:10A4C000002007463946304608F072F900BF00BF49
:10A4D00000BF002239493A480078FDF7F3FA00BF7F
:10A4E00007F022FC06B0BDE8F0810000C034030094
:10A4F0008F2200208E22002091220020545303003E
:10A5000054530300556E6578706563746564204725
:10A5100041545420737461747573207768696C6555
:10A520002067657474696E672043415220636861D7
:10A53000722076616C75653A2030782578000000CD
:10A540004D756C7469706C65202825642920434121
:10A5500052206368617261637465726973746963C0
:10A560007320666F756E642C207573696E67207436
:10A5700068652066697273742E000000556E6578F8
:10A580007065637465642043415220636861726141
:10A590006374657269737469632076616C75652094
:10A5A0006C656E67746820282564292C2073746F8D
:10A5B000726520302E00000092220020D972020025
:10A5C0008D22002010B50446207858B9608800F02C
:10A5D00039FF608807F098FB6088FEF7FFF908F004
:10A5E000B7FA00E000BF00BF10BD000010B500F0DA
:10A5F00049FDFDF7C7FA27490870FDF7C3FA264958
:10A600000870FDF7BFFA25490870FDF7BBFA244929
:10A610000870FDF7B7FA23490870FDF7B3FA22492D
:10A620000870FDF7AFFA214908701A480078182819
:10A6300017D019480078182813D01848007818281F
:10A640000FD01748007818280BD016480078182823
:10A6500007D015480078182803D008460078182835
:10A660000BD11349134A891AC908012242EA014051
:10A67000114902F015FE032010BD00BF00200F4954
:10A680000860BFF35F8F00BF01200D4908700020F4
:10A69000F2E700008C2200208D2200208E22002074
:10A6A0008F22002090220020912200209222002060
:10A6B0005453030054530300E03903008822002060
:10A6C000842200207CB504462078082840D1607A96
:10A6D00000283DD1207A012814D0072802D008286C
:10A6E00034D12BE0A08800F09BFA05464FF6FF70AE
:10A6F000854206D00121284600F006FF2846FEF7D5
:10A700006DF924E0A0886A46012104F08BFC06461E
:10A710009EB90198007880B1A08800F081FA0546C2
:10A720004FF6FF70854207D001220B48017828467A
:10A73000FDF74CFA07F0F8FA00BF08E00748006898
:10A74000012802D1054802F0B3FF00E000BF00BFBE
:10A7500008F0FEF97CBD00008E2200208822002037
:10A7600070B50B48FEF74EFD0A4B0CCB841843F135
:10A770000005094903C9201A75EB010004D24FF006
:10A780008073E41845F100052046294670BD00009D
:10A79000C0230020D0230020D82300202DE9F04141
:10A7A00004468846E0B2FEF7D1F80546287803F063
:10A7B00033FC07466878012800D100E0002078408B
:10A7C00080F001064EB10648D0E900100023594040
:10A7D0005840014301D108F007F9BDE8F0810000BD
:10A7E000B82300201CB50446044903C9CDE9000183
:10A7F00000226946204604F023FE1CBDE434030019
:10A8000010B500F045FC012001490870002010BD82
:10A81000982200202DE9FC470546284600F0D0FA92
:10A8200006460027B8464FF003094FF0010A4FF6DD
:10A83000FF7086420DD06A460821304604F0F2FBD4
:10A84000044634B90198871DB0F80480D0F8009010
:10A8500000BF00BF4B46424639462846B1DF04469A
:10A86000042C01D1112422E0082C01D100241EE087
:10A870000B2C1CD14FF0000A09F0020010B14FF070
:10A88000010914E017B9B8F1000F04D00027B84649
:10A890004FF003090BE00A490A4A891AC908012244
:10A8A00042EA01402A46084902F004FD03240B2C29
:10A8B000D0D0BAF1000F00D10B242046BDE8FC87B0
:10A8C0005C53030054530300A83C03002DE9FC5FD4
:10A8D0008046404600F074FA06464FF6FF70864206
:10A8E00003D143F20200BDE8FC9F4FF001094FF095
:10A8F000000A00BF4FF0000A4A46511C1FFA81F9B6
:10A900006B460821304604F0EFFB0446002C31D1A1
:10A91000019D032028602A1DA91D40462B68B2DF37
:10A92000044634B932460821304604F065FC04463A
:10A930001FE00C2C02D14FF0010A02E0052C00D1DF
:10A9400000240821304604F047FC074687B138460A
:10A9500003F034FA83460C490C4A891AC9080122CB
:10A9600042EA01405B463246094902F0AFFC03244B
:10A9700000BF02E0072C00D10C24BAF1000FB9D1BE
:10A9800000BF2046AFE700005C53030054530300B0
:10A99000283C030010B50446044800884FF6FF71B8
:10A9A000884201D007F0CCF910BD00009A220020A7
:10A9B000FEB5044602A80190204600F001FA0646C2
:10A9C0006A460121304604F02DFB05460DB10020FA
:10A9D000FEBD01980078FBE72DE9F04105464FF6F2
:10A9E000FF761648B3DF04468CB1204603F0E6F943
:10A9F00007461349134A891AC908012242EA01404D
:10AA00003A46114902F056FC0320BDE8F08100BF30
:10AA10004FF6FF72094801882846AFDF044643F22B
:10AA20000300844204D105480088401C0349088083
:10AA300043F203008442EBD02046E6E79C2200204C
:10AA40005C53030054530300DC3B030070B5044621
:10AA50000D46204600F01DF8A84201D9022070BD25
:10AA6000A0884FF6FF71884204D0208810B1A068FA
:10AA7000401C08B90120F2E70020F0E70246134627
:10AA80008B4204D21868401C08B101207047002096
:10AA9000FCE701464A8801F10C0000EB8200704798
:10AAA00010B502F075FA08B902F020FE10BD3EB5EF
:10AAB00004460D4620780221B1EB500F01D0002052
:10AAC0003EBDB4F80100ADF80800E0788DF80A004A
:10AAD000A188ADF80010A0798DF8020001AA69469E
:10AAE0002846FCF725FA032201A902A8FBF7EBFC94
:10AAF00008B90120E4E70020E2E7000070B5044651
:10AB00000D46142C03DA2046FDF776F810B943F20F
:10AB1000020070BD04EB8400054901EB4000D0F851
:10AB200002102960C188A980007AA8710020F0E78E
:10AB30003C2A002030B591B005462888102801D065
:10AB400011B030BD2C22291D06A8FBF791FC4FF651
:10AB5000FF749DF81C000321B1EB500F35D004F0B9
:10AB600019FC9DF81C00400820B1012803D00228E0
:10AB700028D114E000BF09E0049800F1110107A8F2
:10AB8000FCF7BEF810B1BDF8144006E003AA05A911
:10AB9000072004F0C9FB0028EED100BF13E008E055
:10ABA0000498411C07A8FFF782FF10B1BDF81440BC
:10ABB00006E003AA05A9072004F0B6FB0028EFD1A0
:10ABC00000BF00E000BF00BF00BFBDF8180000EBF1
:10ABD0008000124921F81040BDF8180000EB8000F9
:10ABE00001EB40000799C0F80210BDF82010C180A9
:10ABF0009DF8221001724FF6FF7084420CD0BDF810
:10AC00001800ADF80600ADF8084000208DF80400EB
:10AC100001A8FEF723FE00BF00BF91E73C2A0020F9
:10AC200070B505464FF6FF70854200D170BD002417
:10AC30000EE004EB8400094931F81000A84205D168
:10AC40002046FCF7D9FF08B12046EFE7601C84B22C
:10AC5000142CEEDB4FF6FF70E8E700003C2A0020E2
:10AC60003EB505460C4604F095FB0BE0BDF8080028
:10AC7000A04207D02846019900F00EF810B1BDF8A7
:10AC800008003EBD6A4602A9072004F04DFB0028DB
:10AC9000ECD14FF6FF70F4E72DE9F04704460D467E
:10ACA00004F1110605F111071022691C601CFBF765
:10ACB0000AFC48B9601C00F082FA28B1681C00F058
:10ACC0007EFA08B1012000E0002082463946304675
:10ACD000FCF716F8804630780221B1EB500F10D007
:10ACE00030780321B1EB500F0BD038780221B1EB53
:10ACF000500F06D038780321B1EB500F01D001205E
:10AD000000E000208146B8F1000F02D0B9F1000F39
:10AD100005D1BAF1000F05D0B9F1000F02D1012021
:10AD2000BDE8F0870020FBE70246108808B101204B
:10AD30007047002105E0901C405C08B10120F7E756
:10AD4000491C0829F7D30020F2E770B505460C46E8
:10AD50002846FFF7E9FF08B9002070BD2888218840
:10AD6000884201D00020F8E70822A11CA81CFBF7AC
:10AD7000AAFB08B90120F0E70020EEE7142804DA66
:10AD800000EB8002014B23F8121070473C2A002090
:10AD900070B506463046FFF743FF0446304604F0E0
:10ADA0004DF9054645B9142C06DA4FF6FF7004EB51
:10ADB0008401024A22F81100284670BD3C2A002076
:10ADC00010B50446142C03DA2046FCF715FF10B921
:10ADD0004FF6FF7010BD04EB8400024931F81000FB
:10ADE000F8E700003C2A00203EB5044604F0D2FA01
:10ADF00010E0019800F146012046FFF7A6FF30B9A8
:10AE0000019800F12A012046FFF79FFF10B1BDF81D
:10AE100008003EBD6A4602A9072004F085FA002812
:10AE2000E7D14FF6FF70F4E770B504460D460948C8
:10AE30006060094801F0F7F850B902F0E9FE0649F0
:10AE400008741C238C2205490548006801F01DF890
:10AE5000002070BD00370300C02F0020242F0020E9
:10AE60000C3703002DE9F04106460C4648F20E6708
:10AE700036B10020434948604FF40640BDE8F081F8
:10AE8000207930B101280AD0022835D003286DD1AD
:10AE900040E00120207103F0F3FE074667E04FF029
:10AEA0000008002519E005EB8500374911F820005E
:10AEB000022810D1002005EB8501334A02F8210059
:10AEC0004FF0010805EB850102EB8101486803F0B2
:10AED000C7FE074603E0681C85B2022DE3DB00BF16
:10AEE000B8F1000F07D10120264908700020486002
:10AEF00041F61D50C2E73AE00020207102202349AC
:10AF000088800846002301220168214801F0F0FBF7
:10AF100007462CE0002020711C49086803F0A0FEC1
:10AF200007461C4845881948D0F8008005EB850085
:10AF3000154901EB800040681449086005EB850065
:10AF4000114901EB8000C0F804801048808805EBAF
:10AF500085010D4A02EB8101088102200B4988809E
:10AF6000002005EB850102F8210000E000BF00BFD2
:10AF70002FB100200349486048F20D607EE70020B1
:10AF80007CE70000F0230020E02E002004240020B5
:10AF900098240020082F0020024600210CE001EB3D
:10AFA0008100074B33F82000904204D101EB81006F
:10AFB00003EB80007047491C0029F0D00020F9E71E
:10AFC000902900202DE9FC5F83460E4691461F46DE
:10AFD000DDE90C45002E01DA704200E03046824681
:10AFE0004FF0010803E09AFBF9FA08F10108CA459D
:10AFF000F9DA474500D9B84634B1002E03DB05F035
:10B000000400042800D1641E05F0020000B167B1FD
:10B0100005F0010048B944B104E0641E20215846FF
:10B02000FDF772FC0CB1A045F7D3002E05DA76428D
:10B030002D215846FDF768FC07E005F004000428C0
:10B0400003D12B215846FDF75FFC05F002000228D2
:10B050000DD105F0010050B94FB944B104E0641EB0
:10B0600030215846FDF750FC0CB1A045F7D33B46C4
:10B070004A4631465846CDE9004507F00DFDBDE88A
:10B08000FC9F0000002001490870704784220020C6
:10B090000020034908704FF6FF700249088070478E
:10B0A000982200209A22002010B5002407E004EB2B
:10B0B0004401044A02EB810008F041F8641C042CAE
:10B0C000F5D310BD242B002010B5044640212046A6
:10B0D000FBF7E7F910BD00004FF6FF70024908804A
:10B0E0000020024908607047C0220020B8220020DA
:10B0F00030B5024600201378C3F38003D3B1137830
:10B1000003F00303012B02D0022B10D107E01388B8
:10B11000C3F383139B1C0C6823440B6008E00B688B
:10B120000225146805EB945423440B6000E000BF33
:10B1300000BF012030BD000001460348007A08B17D
:10B14000012070470020FCE7C02F00202DE9F041CE
:10B150000446A08800EB020CB4F80480904501DDA1
:10B16000104600E0A088A8EB0005E088C618B4F8F7
:10B170000680984501DD184600E0E088A8EB00074E
:10B180004888B4F80080404504DB4888B4F8028061
:10B19000404502DD0020BDE8F0818888A84202D346
:10B1A0008888604501D90020F5E7C888B84202D3F5
:10B1B000C888B04201D90020EDE70120EBE7024644
:10B1C000002104E0505C08B101207047491C10299F
:10B1D000F8D30020F9E7014601F0030008B9012087
:10B1E00070470020FCE70146086808B102680A6061
:10B1F00070477CB504466A460721204603F012FFDB
:10B2000005463DB9019890F8440000F0010008B1EE
:10B2100001207CBD0020FCE710B504462246012138
:10B22000002001F051FD002105E054F8210008B193
:10B23000012010BD491C0029F7D00020F9E70000CB
:10B2400010B50848007850B1002405E0022C02D067
:10B250002046FCF745FF641C042CF7D301E0FCF703
:10B2600083FF10BD6022002010B50446044800781A
:10B2700000F0010018B103480078FDF705F910BD92
:10B280005C2200205822002010B502F0A5FD20B954
:10B2900002F0C8FD00200149887010BD202D00205B
:10B2A0001721018041800021017141711B218171B1
:10B2B000C17170472DE9FE4F80460F469246994670
:10B2C0000FB1002612E0684600F0B4FB6A46002188
:10B2D000404603F00BFE009E2A48007828B99DF8EE
:10B2E000090010B90520BDE8FE8F00BF5246314667
:10B2F000404607F0A7F80446002221464046FEF7E4
:10B30000B5FD0D2C1CD005DCCCB1082C1AD00B2CB3
:10B310001BD118E0112C04D0A4F540500238A0B97C
:10B320000FE03A46184801784046FCF74FFC524679
:10B33000164801784046FCF749FC002517E000BF9D
:10B3400000BF00BF00BF254611E0204602F036FDD9
:10B3500083460F490F4A891AC908012242EA01406F
:10B3600043465A460C4901F0B1FF032500BF00BF18
:10B37000B9F1000F04D0324621464046FEF750F99D
:10B380002846B0E78C230020962300209523002038
:10B390009C53030054530300D84A030070B505467C
:10B3A0000E46314628467EDF0446042C00D1112487
:10B3B000204670BD70B504460D46164600BF0B48CA
:10B3C00001782046FCF7ECFB70B1204603F022FD2B
:10B3D00028B132462946204603F026FD04E03246D5
:10B3E00029462046FEF757F870BD0000792300205B
:10B3F0002DE9F041044688460A4801782046FCF7CA
:10B40000CFFB0646084801782046FCF7C9FB0746F3
:10B410000123324639462046FFF74CFF0546BDE87A
:10B42000F0810000952300209623002070B505468A
:10B430000C46002624B121462846FFF7AFFF0646FA
:10B44000304670BDF0B585B004460026142168462C
:10B45000FBF727F8ADF802404FF6FF70844201D1A8
:10B4600005B0F0BD2046FFF7D5F9054645B10B2DD7
:10B470000FD0112D0BD0A5F540500238E0B91AE0DD
:10B480000E208DF800006846FEF7C0F929E001267D
:10B4900027E00F208DF800001649174A891AC908BD
:10B4A000022242EA01402246144901F003FF6846A5
:10B4B000FEF7ACF915E014E0284602F07FFC0746E1
:10B4C0000C490D4A891AC908012242EA0140234663
:10B4D0003A460B4901F0FAFE2946204606F03AFBAF
:10B4E00000BF00BF3246074801782046FCF76EFBDC
:10B4F00000BFB5E75453030054530300043B03005B
:10B50000B03A03008D22002070B505460C46224655
:10B51000024801782846FCF759FB70BD8C220020B8
:10B520002DE9F04186B00446002600272046FFF7AB
:10B53000CDF905464DB1112D0AD0862D0AD0A5F5BD
:10B540004050023800281BD101E001272DE02CE0FB
:10B5500001262AE01422194901A8FAF789FFADF85B
:10B5600006401749174A891AC908022242EA0140CF
:10B57000224615A101F09EFE01A8FEF747F914E04E
:10B58000284602F01BFC80460D490E4A891AC9085C
:10B59000012242EA01402346424619A101F096FEEB
:10B5A0002946204606F0D6FA00BF00BF31462046A5
:10B5B000FFF7AAFF384606B0BDE8F0817C340300EF
:10B5C0005453030054530300466C6173682066753E
:10B5D0006C6C2E20436F756C64206E6F74207374D6
:10B5E0006F7265206461746120666F7220636F6E94
:10B5F0006E5F68616E646C653A202564000000002F
:10B600006773636D5F6C6F63616C5F64625F6361DE
:10B610006368655F7570646174652829207265745C
:10B6200075726E656420257320666F7220636F6E7D
:10B630006E5F68616E646C653A20256400000000EE
:10B6400070B54FF48041002001F0D8FE044600BFE1
:10B65000254625B100BF2846FBF768FD00BF00BFA7
:10B6600001F082FC70BD00002DE9FF4100272E484B
:10B6700000F0D2FC2C48001F00F0CEFC2B48806864
:10B6800003902B4805680398284028490C3101EBAA
:10B69000800800BF03A94046FFF72AFD30B1039898
:10B6A000284022490C3101EB800800E000E0F1E77E
:10B6B00000BF00240AE00398411C284003911B4965
:10B6C0000C3151F820004DF82400641C022CF2D3F8
:10B6D000009800F0030001280DD0022814D1BDF815
:10B6E00006700421009801EB9050401E039901EB75
:10B6F0009000039009E0BDF806700098C0F3831035
:10B7000003990844039000E000BF00BF0648001FF3
:10B7100000F07BFC064616B1044903988860384661
:10B7200004B0BDE8F08100009035002078310020A1
:10B730004C24002008B5FFF783FF07F065F9684641
:10B74000FDF722F905F0C2F9FCF745FCFEF70CFC09
:10B75000FEF74CFCFBF798FB06F024FCFDF7E2FA41
:10B7600004F03CF809490A4A891AC908032242EA46
:10B77000014008A101F094FDFBF7ADFD9DF800002C
:10B78000FBF7BCFB00BFFFF78BF9FCE7FC530300A2
:10B790005453030054656D706C6174652065786165
:10B7A0006D706C6520737461727465642E000000A6
:10B7B0002DE9F04105460E4614469846A888871C98
:10B7C0002088801C3844404502D90C20BDE8F08117
:10B7D000FE2F01D90C20F9E7781C218870542088AD
:10B7E000401C2080FF20218870542088401C20802D
:10B7F00022889119288807F037F921880844208089
:10B80000A88800280DDDA86808B90720DEE7AA8807
:10B8100023889819A968FAF72BFE2088A98808447C
:10B8200020800020D2E72DE9FF4F87B004469146E3
:10B830001E46A2462546BAF806009AF80510484367
:10B84000001F0690BAF806B0301DB0FBFBF0059063
:10B85000301DB0FBFBF10BFB11000490D9F8000088
:10B8600081190698814202D90698801B01E0D9F817
:10B8700000000746C9F8007003E02D680598401ED7
:10B88000059005980028F8D103900498ABEB0008C8
:10B89000B84501D9384600E04046804623E0039988
:10B8A000089808440290281D0499084401901498AF
:10B8B00028B14246DDE90110FAF7DAFD04E042461C
:10B8C000DDE90101FAF7D4FD002004902D68A7EB13
:10B8D0000807039840440390BB4501D9384600E06F
:10B8E0005846804600BF002FD9D10BB0BDE8F08F7D
:10B8F00070B503460C469CB101F0A4FD054600223C
:10B900000AE0084800EB820108881E68B04202D1B4
:10B910001A60002070BD521CAA42F2D30520F9E73C
:10B920000020F7E70000000070B504460D462946E8
:10B93000204600F005FB80F00106BFF35F8F304624
:10B9400070BD70B504460D46BFF35F8F2946204693
:10B9500000F03DFB70BD70B504460D46BFF35F8F30
:10B960002946204600F0DDFA70BD2DE9F84F054666
:10B970000F46144698462878012804D1687810B9F3
:10B980000720BDE8F88F2088801C404508D828781B
:10B99000012807D12088801C69780844404501D9D6
:10B9A0000C20EEE72088A8EB0000801E86B20096EF
:10B9B0002188891CC81969467DDF814600BF484639
:10B9C00000B1DEE700BF2878022804D06878BDF80F
:10B9D0000010884206DBBDF80000B04202DC4FF0E8
:10B9E000090A0BE04FF0080A2878012805D1687889
:10B9F000B04202DC6878009000E00096BDF80000DC
:10BA0000FE2801D90C20BCE7BDF80000401C2188AD
:10BA100078542088401C2080208807F800A02088C7
:10BA2000401C20802088BDF80010084420800020A1
:10BA3000A7E700000EB50021009101910291044991
:10BA4000096800919DE80E0080E80E000EBD000020
:10BA50008823002070B586B006460D461446142192
:10BA600001A8FAF71EFD8DF80450ADF806402046F7
:10BA7000FFF7A6F9ADF80800142201A93046FAF73D
:10BA8000F7FC06B070BD70B505460E464FF6FF7068
:10BA9000854201D1002000E0681C84B208E0214604
:10BAA000304600F094FA08B1204670BD601C84B2A4
:10BAB000FF2CF4DD4FF6FF70F7E700000E48016839
:10BAC0004FF08050D0F83421062913D1D01E05281C
:10BAD0000ED2DFE800F0030507090B0000207047D5
