:10139D00FFE5CCFFCB99FFB266FF9832FF7F00FFD0
:1013AD00FECCFFFE99FFFE66FFFE32FFFE00E5FF5D
:1013BD00CCCCFF99B2FF6699FF327FFF00CCFFCCFA
:1013CD0099FF9966FF6633FF3200FF00CCFFE59968
:1013DD00FFCB66FFB232FF9800FF7FCCFFFF99FF76
:1013ED00FF66FFFF32FFFF00FFFFCCE5FF99CCFF4B
:1013FD0066B2FF3299FF007FFFCCCCFF9999FF6653
:10140D0066FF3233FF0000FFE5CCFFCC99FFB266DB
:10141D00FF9932FF7F00FFFECCFFFE99FFFE66FFB6
:10142D00FE32FFFE00FFFFCCE5FF99CCFF66B2FF59
:10143D003299FF007FFFCCCCFF9999FF6666FF3292
:10144D0032FF00000000000000FF0000000000FF60
:10145D000000FF0000000000FF0000000000FF0082
:10146D0000000000000000000102030405060F103B
:10147D001918171615140B0A0000000000000000C3
:10148D00000000000100000000000000000000004E
:10149D00010000000000000000000000000000FF3F
:0514AD00FFFF0000003C
:1019FD00011C00011D00021E000002190000011B48
:041A0D007D0118003F
:10189F001219C61219867F647E001219E912000E02
:1018AF00121A35121A261200037F647E001219E9EC
:1018BF0012180BE51B1460080470F81219A680F3B8
:0518CF0012101A80EE6A
:1019C60075BA8090FE017404F0901FF3E493F59FBE
:0F19D600901FEAE493F5A6E4F59D90FE01F02240
:10198600E4F594F593F592F591F596F595F5B2F59E
:10199600B1F5B4F5B3F5CAF5C9D291D2B7D2B6222C
:0C000E00E4F589758A30758CF8D2A922BF
:0E1A3500E4F589758B30758DF8D2ABD2AF22F7
:0F1A260075D73075D6F8758E1075AF04D2AF2214
:10180B00E4F50878097C00FD7BFF7A147951FE7FA3
:10181B0003120C10E4F508AF08EF3395E0FEC3EFAD
:10182B00947DEE64809480501A78127C007D007B4E
:10183B00007A0079097E007F03120C10121A6005E2
:0A184B000880D47F017E000219E935
:1016B100E4F508750901750A01780B7C00FD7BFFD3
:1016C1007A147954FE7F03120C10780E7C007D0091
:1016D1007BFF7A1479577E007F03120C10E4F50822
:1016E100AF08EF3395E0FEC3EF947DEE6480948004
:1016F1005047750901AF09EF3395E0FEC3EF947EC2
:10170100EE648094805025E50978127C007D007B91
:1017110000B50A067A00790B80047A00790E7E0002
:101721007F03120C10121A60050980C9050A7F6433
:091731007E001219E9050880A7E9
:01173A00228C
:10185500E4F50878097C00FD7BFF7A14795AFE7F50
:1018650003120C10E4F508AF08EF3395E0FEC3EF63
:10187500947DEE64809480501A78127C007D007B04
:10188500007A0079097E007F03120C10121A600598
:0A1895000880D47FF47E010219E9F7
:100D1200E4F508F509F50AF50B780C7C00FD7BFF7C
:100D22007A14795DFE7F03120C10780F7C007D002F
:100D32007BFF7A1479607E007F03120C10E4F50ABF
:100D4200AF0AEF3395E0FEC3EF9403EE6480948024
:100D52004003020ECCE50B14607C147003020E708B
:100D620024026003020EC4050BE4F508AF08EF335A
:100D720095E0FEC3EF9405EE648094804003020E7A
:100D8200C4750901AF09EF3395E0FEC3EF941AEE83
:100D920064809480503CEF9405EE64809480400A15
:100DA200EF9414EE64809480400E78127C007D00F3
:100DB2007B007A00790C800C78127C007D007B002D
:100DC2007A00790F7E007F03120C10121A60050957
:100DD20080B205088096050BE4F508AF08EF33955D
:100DE200E0FEC3EF9405EE648094804003020EC4DB
:100DF200750901AF09EF3395E0FEC3EF941AEE6473
:100E02008094805064EF64014E6036EF640A4E6055
:100E120030EF640B4E602AEF64144E6024EF6415C9
:100E22004E601EEF64054E6018EF64064E6012EFCE
:100E3200640F4E600CEF64104E6006EF64194E7042
:100E42000E78127C007D007B007A00790C800C7891
:100E5200127C007D007B007A00790F7E007F0312F6
:100E62000C10121A600509808A0508020DDDE4F5EE
:100E72000B750801AF08EF3395E0FEC3EF947EEEE9
:100E820064809480503CEF9419EE64809480400A10
:100E9200EF9464EE64809480400E78127C007D00B2
:100EA2007B007A00790C800C78127C007D007B003C
:100EB2007A00790F7E007F03120C10121A60050867
:0A0EC20080B21219E5050A020D4284
:010ECC002203
:10115A00E4F508750901F50AF50B780C7C00FD7BAE
:10116A00FF7A147963FE7F03120C10780F7C007DDE
:10117A00007BFF7A1479667E007F03120C10E4F577
:10118A000AAF0AEF3395E0FEC3EF9405EE6480944C
:10119A00804003021282E4F508AF08EF3395E0FEBF
:1011AA00C3EF9405EE6480948040030212747509BB
:1011BA0001AF09EF3395E0FEC3EF941AEE64809411
:1011CA0080400302126FE50B6480F8E5086480989A
:1011DA00501AEF64014E6064EF64054E605EEF647E
:1011EA00154E6058EF64194E70028050AF09EF3304
:1011FA0095E0FEC3EF9407EE64809480400BD3EF32
:10120A009409EE648094804033AF09EF3395E0FE91
:10121A00C3EF940CEE64809480400BD3EF940EEEEF
:10122A00648094804016C3EF9411EE6480948040E9
:10123A0019D3EF9413EE64809480500E78127C00D8
:10124A007D007B007A00790C800C78127C007D008E
:10125A007B007A00790F7E007F03120C10121A604D
:10126A0005090211BB05080211A3050B7FC87E0000
:08127A001219E9050A02118BAB
:011282002249
:10006600E4F508F509780A7C00FD7BFF7A147969C6
:10007600FE7F03120C10780D7C007D007BFF7A1446
:10008600796C7E007F03120C10E4F509AF09EF339B
:1000960095E0FEC3EF9403EE64809480400302046F
:1000A6007C750801AF08EF3395E0FEC3EF941AEEB6
:1000B600648094805058EF64034E602AEF64074EC4
:1000C6006024EF64094E601EEF640B4E6018EF6407
:1000D6000F4E6012EF64114E600CEF64134E600613
:1000E600EF64174E700E78127C007D007B007A005C
:1000F600790A800C78127C007D007B007A00790DED
:100106007E007F03120C10121A600508809675088F
:1001160001AF08EF3395E0FEC3EF941AEE648094C6
:10012600805058EF64024E602AEF64044E6024EF5C
:1001360064064E601EEF640A4E6018EF64104E604F
:1001460012EF64144E600CEF64164E6006EF6418EE
:100156004E700E78127C007D007B007A00790A8052
:100166000C78127C007D007B007A00790D7E007F82
:1001760003120C10121A6005088096750801AF0864
:10018600EF3395E0FEC3EF941AEE648094805040FE
:10019600EF64014E6012EF64054E600CEF64154E7D
:1001A6006006EF64194E700E78127C007D007B00AD
:1001B6007A00790A800C78127C007D007B007A0038
:1001C600790D7E007F03120C10121A60050880AEAE
:1001D600750801AF08EF3395E0FEC3EF941AEE649D
:1001E6008094805058EF64024E602AEF64044E609B
:1001F60024EF64064E601EEF640A4E6018EF64102A
:100206004E6012EF64144E600CEF64164E6006EFFB
:1002160064184E700E78127C007D007B007A00799F
:100226000A800C78127C007D007B007A00790D7EB6
:10023600007F03120C10121A6005088096750801DB
:10024600AF08EF3395E0FEC3EF941AEE6480948016
:100256005058EF64034E602AEF64074E6024EF6443
:10026600094E601EEF640B4E6018EF640F4E60126D
:10027600EF64114E600CEF64134E6006EF64174E88
:10028600700E78127C007D007B007A00790A800C63
:1002960078127C007D007B007A00790D7E007F035A
:1002A600120C10121A60050880961219E5750801DD
:1002B600AF08EF3395E0FEC3EF941AEE64809480A6
:1002C6005040EF64084E6012EF640C4E600CEF6411
:1002D6000E4E6006EF64124E700E78127C007D00A2
:1002E6007B007A00790A800C78127C007D007B0006
:1002F6007A00790D7E007F03120C10121A60050831
:1003060080AE750801AF08EF3395E0FEC3EF941A8F
:10031600EE648094805040EF64034E6012EF640BED
:100326004E600CEF640F4E6006EF64174E700E7849
:10033600127C007D007B007A00790A800C78127CA2
:10034600007D007B007A00790D7E007F03120C1081
:10035600121A60050880AE750801AF08EF3395E004
:10036600FEC3EF941AEE648094805058EF64024EF8
:10037600602AEF64044E6024EF64064E601EEF644C
:100386000A4E6018EF64104E6012EF64144E600C53
:10039600EF64164E6006EF64184E700E78127C00FD
:1003A6007D007B007A00790A800C78127C007D0043
:1003B6007B007A00790D7E007F03120C10121A6002
:1003C60005088096750801AF08EF3395E0FEC3EF88
:1003D600941AEE648094805040EF64034E6012EFEE
:1003E600640B4E600CEF640F4E6006EF64174E70A0
:1003F6000E78127C007D007B007A00790A800C78EA
:10040600127C007D007B007A00790D7E007F03124E
:100416000C10121A60050880AE750801AF08EF339C
:1004260095E0FEC3EF941AEE648094805040EF642A
:10043600084E6012EF640C4E600CEF640E4E6006C0
:10044600EF64124E700E78127C007D007B007A00FD
:10045600790A800C78127C007D007B007A00790D89
:100466007E007F03120C10121A60050880AE121966
:06047600E50509020092F9
:01047C00225D
:1014B200E4F508F509F50AF50AAF0AEF3395E0FEFF
:1014C200C3EF941EEE648094804003021588E4F515
:1014D20008AF08EF3395E0FEC3EF9405EE64809405
:1014E200804003021580E50875F002120C36AFF059
:1014F200EF3395E04F7041750901AF09EF3395E085
:10150200FEC3EF941AEE64809480506DAF0AEF33FD
:1015120095E0FE7C007D06120CDA749D2FF974139F
:101522003EFA7BFF78127C007D007E007F03120C66
:1015320010121A60050980C2750901AF09EF3395CF
:10154200E0FEC3EF941AEE64809480502CAF0AEF51
:101552003395E0FE7C007D06120CDA74A02FF9743C
:10156200133EFA7BFF78127C007D007E007F03121F
:101572000C10121A60050980C205080214D3121950
:06158200E5050A0214BB9E
:011588002240
:10128300E4F508F509F50A780B7C00FD7BFF7A1479
:10129300796FFE7F03120C10E4F50AAF0AEF339562
:1012A300E0FEC3EF9408EE64809480400302139C35
:1012B300E4F508AF08EF3395E0FEC3EF9405EE6461
:1012C3008094804003021391750901AF09EF3395B0
:1012D300E0FEC3EF941AEE64809480400302138C03
:1012E300E50924FB602624F8603824F8604A24FCCE
:1012F300605C24187078AF0AEF3395E0FE7C007DC4
:101303000F120CDA74A92FF974138056AF0AEF3356
:1013130095E0FE7C007D0F120CDA74B82FF974137C
:101323008040AF0AEF3395E0FE7C007D0F120CDAAC
:1013330074C72FF97413802AAF0AEF3395E0FE7C4C
:10134300007D0F120CDA74D62FF974138014AF0AD0
:10135300EF3395E0FE7C007D0F120CDA74E52FF974
:1013630074133EFA7BFF78127C007D00800C7812A8
:101373007C007D007B007A00790B7E007F03120CDA
:1013830010121A6005090212CE05080212B6121ACB
:09139300431219E5050A02129E3D
:01139C00222E
:060942008F0A8D0B8B0CE7
:10094800E4F50DF50E780F7C00FD7BFF7A147972C3
:10095800FE7F03120C10AF0BEF3395E0FEEF64013E
:100968004E6003020A14F50DAF0DEF3395E0FEC398
:10097800EF9405EE648094804003020B3FE50D651B
:100988000A7055750E01AF0EEF3395E0FEC3EF9474
:100998001AEE64809480506FAF0CEF3395E0FE7CC4
:1009A800007D05120CDAAD0AED3395E0FCEF2DFF62
:1009B800EE3CFE7C007D03120CDA749D2FF9741353
:1009C8003EFA7BFF78127C007D007E007F03120CCC
:1009D80010121A60050E80AE750E01AF0EEF33953A
:1009E800E0FEC3EF941AEE64809480501A78127C6B
:1009F800007D007B007A00790F7E007F03120C10C7
:100A0800121A60050E80D4050D020970AF0BEF3382
:100A180095E0FEEF64024E6003020B3FF50DAF0D4B
:100A2800EF3395E0FEC3EF9405EE648094804003B5
:100A3800020B3FE50D650A7058750E01AF0EEF33D6
:100A480095E0FEC3EF941AEE648094804003020B95
:100A58003AAF0CEF3395E0FE7C007D05120CDAAD61
:100A68000AED3395E0FCEF2DFFEE3CFE7C007D03A4
:100A7800120CDA749D2FF974133EFA7BFF78127CFE
:100A8800007D007E007F03120C10121A60050E8094
:100A9800ABAF0AEF3395E0FEEF2401FFE43EFEAD75
:100AA8000DED3395E0FCEF6D7002EE6C7055750E30
:100AB80001AF0EEF3395E0FEC3EF941AEE64809415
:100AC80080506FAF0CEF3395E0FE7C007D05120C73
:100AD800DAAD0AED3395E0FCEF2DFFEE3CFE7C002D
:100AE8007D03120CDA74A02FF974133EFA7BFF7899
:100AF800127C007D007E007F03120C10121A600524
:100B08000E80AE750E01AF0EEF3395E0FEC3EF9485
:100B18001AEE64809480501A78127C007D007B0065
:100B28007A00790F7E007F03120C10121A60050EEE
:070B380080D4050D020A261E
:010B3F002293
:10173B00E4F508F509F51EF51FD28EF509AF09EF93
:10174B003395E0FEC3EF940CEE64809480504CE430
:10175B00F508AF08EF3395E0FEC3EF9403EE64801A
:10176B009480502CE50814600F1460142402701937
:10177B00AB097D01E4FF800EAB097D027F01800682
:10178B00AB097D027F03120942121A43050880C27E
:0D179B00E51C60BBE4F51C050980A2C28EB0
:0117A800221E
:060733008B108A118912EF
:10073900E4F51778247C007D017BFF7A147975FE36
:100749007F10120C10AF16EF3395E0FEC3EF940C37
:10075900EE648094805025EF3395E0FE74242FF5E4
:100769008274003EF583E0FFAB10AA11A912E516C9
:10077900FD3395E08D82F583EF020CB8E4F517AFF0
:1007890017EF3395E0FEC3EF940CEE64809480403C
:1007990003020941AB10AA11A912EF3395E0FE8FAC
:1007A90082F583120C58120CEC07E60107F50208D2
:1007B9000A03081F0408340508490609170A09002D
:1007C9000B085E0F08731008EC1408D81508C41636
:1007D90008B017089C180888190000093CAB10AA32
:1007E90011A9128F828E837402020912AB10AA1109
:1007F900A912AF17EF3395E08F82F58374030209CD
:1008090012AB10AA11A912AF17EF3395E08F82F539
:10081900837404020912AB10AA11A912AF17EF339E
:1008290095E08F82F5837405020912AB10AA11A90C
:1008390012AF17EF3395E08F82F583740602091220
:10084900AB10AA11A912AF17EF3395E08F82F58388
:10085900740F020912AB10AA11A912AF17EF339541
:10086900E08F82F5837410020912AB10AA11A91244
:10087900AF17EF3395E08F82F5837419020912AB34
:1008890010AA11A912AF17EF3395E08F82F583747F
:10089900188076AB10AA11A912AF17EF3395E08F24
:1008A90082F58374178062AB10AA11A912AF17EFF2
:1008B9003395E08F82F5837416804EAB10AA11A987
:1008C90012AF17EF3395E08F82F5837415803AAB39
:1008D90010AA11A912AF17EF3395E08F82F583742F
:1008E900148026AB10AA11A912AF17EF3395E08F28
:1008F90082F583740B8012AB10AA11A912AF17EFFE
:100909003395E08F82F583740A120CB88025AB10F9
:10091900AA11A912AF17EF3395E0FE8F82F5837400
:1009290001120CB8AB13AA14A9158F828E83740116
:08093900120C85051702078866
:010941002293
:10047D00E4F508F50978007C007D017BFF7A14799D
:10048D0085FE7F0C120C10780C7C007D017BFF7AB1
:10049D001479917E007F0C120C1078187C007D0170
:1004AD007BFF7A14799D7E007F0C120C10780A7CEC
:1004BD00007D007BFF7A1479A97E007F03120C105A
:1004CD00780D7C007D007BFF7A1479AC7E007F0374
:1004DD00120C10E4F51EF51FD28CE4F508AF08EFF1
:1004ED003395E0FEC3EF940CEE648094805039EFA9
:1004FD003395E0FE74002FF58274003EF583E075B0
:10050D00F019A4FD740C2FF58274003EF583E02DD7
:10051D00FFE508FD3395E0FC74182DF58274003C61
:10052D00F583EFF0050880B5750801AF08EF339539
:10053D00E0FEC3EF947EEE6480948040030206D704
:10054D00900018E0B5080F78127C007D007BFF7AD3
:10055D001379A90206C8900019E0B5080F78127C2E
:10056D00007D007BFF7A1379B80206C890001AE06F
:10057D00B5080F78127C007D007BFF7A1379C702D6
:10058D0006C890001BE0B5080F78127C007D007B3B
:10059D00FF7A1379D60206C890001CE0B5080F78D3
:1005AD00127C007D007BFF7A1379E50206C890006E
:1005BD001DE0B5080F78127C007D007BFF7A137962
:1005CD00F40206C890001EE0B5080F78127C007D7D
:1005DD00007BFF7A1479030206C890001FE0B5086E
:1005ED000F78127C007D007BFF7A1479120206C809
:1005FD00900020E0B5080F78127C007D007BFF7A1B
:10060D001479210206C8900021E0B5080F78127CFC
:10061D00007D007BFF7A1479300206C8900022E03D
:10062D00B5080F78127C007D007BFF7A14793F02AC
:10063D0006C8900023E0B5080E78127C007D007B83
:10064D00FF7A14794E8074E508120CEC06AE200684
:10065D00AE2106AE2206AE2506AE2606AE2706AEA6
:10066D002A06AE2B06AE2C06AE3906AE3A06AE3BCA
:10067D0006AE3E06AE3F06AE4006AE4306AE44069F
:10068D00AE4506AE5206AE5306AE5406AE5706AE96
:10069D005806AE5906AE5C06AE5D06AE5E000006AF
:1006AD00BC78127C007D007B007A00790D800C787F
:1006BD00127C007D007B007A00790A7E007F031298
:1006CD000C10121A600508020538121A43AF09EF13
:1006DD003395E0FEC3EF940CEE64809480500205D8
:1006ED0009900017E0FF3395E0FEEF640A4E700F9E
:1006FD0090000BE0FF3395E0FEEF64044E6024752F
:10070D0013017514007515008509167B017A0079A2
:10071D000C120733AF1DEF3395E04F60F7E4F51D75
:05072D000204E7C28C8C
:0107320022A4
:100ECD00E4F508750901F50AF50BF50C780D7C00B4
:100EDD00FD7BFF7A1479AFFE7F03120C10E4F50B46
:100EED00AF0BEF3395E0FEC3EF940CEE648094806E
:100EFD004003021019E4F50AAF0AEF3395E0FEC383
:100F0D00EF9405EE64809480400302100EE4F50822
:100F1D00AF08EF3395E0FEC3EF9405EE6480948047
:100F2D004003021000750901AF09EF3395E0FEC3D0
:100F3D00EF941AEE648094804003020FFBE50C647D
:100F4D0080F8E508648098501AEF64014E6064EFF4
:100F5D0064054E605EEF64154E6058EF64194E7077
:100F6D00028050AF09EF3395E0FEC3EF9407EE64B6
:100F7D00809480400BD3EF9409EE648094804033CD
:100F8D00AF09EF3395E0FEC3EF940CEE64809480CF
:100F9D00400BD3EF940EEE648094804016C3EF9413
:100FAD0011EE64809480402BD3EF9413EE64809403
:100FBD00805020AF0BEF3395E0FE7C007D0F120CBF
:100FCD00DA74A92FF974133EFA7BFF78127C007D39
:100FDD0000800C78127C007D007B007A00790D7EFC
:100FED00007F03120C10121A600509020F35050857
:100FFD00020F1D050C7FC87E001219E9050A020FAC
:0C100D0005E4F50C1219E5050B020EEDD0
:0110190022B4
:1019A6001216B1121855120D1212115A12006612A1
:1019B600047D121283120ECD1214B212173B80E070
:1018D400E4F50BF50BAF0BEF3395E0FEC3EF947D0E
:1018E400EE64809480501A78127C007D007B007A2C
:1018F4000079087E007F03120C10121A60050B8019
:04190400D4021A43AC
:10101A000518751BFFE51814B40C00400302110EE5
:10102A0090103875F003A4C58325F0C583730210A8
:10103A005C02106B02107A0210880210960210A449
:10104A000210B20210C00210CE0210DC0210EA0234
:10105A0010F878087C007D007BFF7A1379A90211C9
:10106A000478087C007D007BFF7A1379B8021104AA
:10107A0078087C007D007BFF7A1379C7807C78082A
:10108A007C007D007BFF7A1379D6806E78087C001D
:10109A007D007BFF7A1379E5806078087C007D000B
:1010AA007BFF7A1379F4805278087C007D007BFFFD
:1010BA007A147903804478087C007D007BFF7A14D7
:1010CA007912803678087C007D007BFF7A147921BA
:1010DA00802878087C007D007BFF7A147930801A9A
:1010EA0078087C007D007BFF7A14793F800C7808B1
:1010FA007C007D007BFF7A14794E7E007F03120C00
:10110A00101218D4E51B643060FAE51B643160F4F0
:10111A00E51B643360EEAF1BEF3395E0FEEF64012D
:10112A004E70070518751BFF800AEF4E6021EF64A9
:10113A00034E601BAF18EF3395E0FEC3EF940DEE3C
:10114A0064809480500302101F75180102101F2238
:1017A9002091063091FD7F002220B71830B7FDAF98
:1017B9001BEF3395E04F6005E51BB4300443C76068
:1017C900227F012220B60630B6FD7F0322E51BFDEC
:1017D9003395E0FC4D6005E51BB430037F3022ED05
:1017E90064014C6005E51BB431037F3122AF1BEF67
:1017F9003395E0FEEF64034E6005E51BB433027FC9
:02180900332288
:081A4E007F037E52DEFEDFFC87
:011A5600226D
:101A12007D0A7C00ED1DAE0470011C4E6005121A99
:031A22004E80F102
:011A2500229E
:0419E5007FF47E010C
:1019E900AB07AA06EB1BAE0270011A4E6005121A6C
:0419F9001280F12245
:03000B0002193C9B
:10193C00C0E0C0D0051FE51F7002051EC3944BE527
:10194C001E648094804009751E00751F00751D0172
:05195C00D0D0D0E03204
:03001B0002196166
:10196100C0E0C0D0051FE51F7002051EC394F4E559
:101971001E648094814009751E00751F00751C014D
:05198100D0D0D0E032DF
:0300630002001E7A
:10001E00C0E0C0D075D000C004C005C006C007C285
:10002E00AF051AE51A70020519C39432E5196480FA
:10003E009480400B751900751A001217A98F1BD2E8
:0E004E00AFD007D006D005D004D0D0D0E0321D
:081A57007F037E52DEFEDFFC7E
:011A5F002264
:0B1A4300C293121A57121A57021A57CA
:04190800A2E69200C1
:10190C00300016D293000000000000000000000020
:10191C00000000000000C29322D29300000000C21D
:10192C0093000000000000000000000000000022F6
:10158900ED33920012190CED121908A2E59200121E
:10159900190CA2E4920012190CA2E3920012190C80
:1015A900A2E2920012190CA2E1920012190C1392F4
:1015B9000012190CEF33920012190CEF121908A23C
:1015C900E5920012190CA2E4920012190CA2E392FE
:1015D9000012190CA2E2920012190CA2E192001257
:1015E900190C13920012190CEB33920012190CEB1F
:1015F900121908A2E5920012190CA2E4920012191C
:101609000CA2E3920012190CA2E2920012190CA288
:0C161900E1920012190C13920002190C4F
:091A6000AB14AD13AF120215899D
:06000300439101021A43C3
:03000000021625C0
:0C162500787FE4F6D8FD75812002166C79
:100B4000E709F608DFFA8046E709F208DFFA803E97
:100B500088828C83E709F0A3DFFA8032E309F60884
:100B6000DFFA8078E309F208DFFA807088828C83EC
:100B7000E309F0A3DFFA806489828A83E0A3F608A0
:100B8000DFFA805889828A83E0A3F208DFFA804C7A
:100B900080D280FA80C680D4806980F28033801051
:100BA00080A680EA809A80A880DA80E280CA8033BA
:100BB00089828A83ECFAE493A3C8C582C8CCC58332
:100BC000CCF0A3C8C582C8CCC583CCDFE9DEE78002
:100BD0000D89828A83E493A3F608DFF9ECFAA9F081
:100BE000EDFB2289828A83ECFAE0A3C8C582C8CCD7
:100BF000C583CCF0A3C8C582C8CCC583CCDFEADEF0
:100C0000E880DB89828A83E493A3F208DFF980CC51
:100C100088F0EF60010E4E60C388F0ED2402B4044A
:100C20000050B9F582EB2402B4040050AF232345F1
:060C30008223900B90737B
:100C3600C2D530F707B2D563F0FF05F030E70CB246
:100C4600D5F4048463F0FF05F080018430D502F406
:020C5600042276
:100C5800BB010CE58229F582E5833AF583E0225051
:100C680006E92582F8E622BBFE06E92582F8E2229B
:0D0C7800E58229F582E5833AF583E49322B5
:100C8500BB010FF8E58229F582E5833AF583E02873
:100C9500F0225009C58229F8E58226F622BBFE0915
:100CA500C58229F8E22582F222F8EA2583F583E94F
:030CB5009328225F
:100CB800F8BB010DE58229F582E5833AF583E8F072
:100CC800225006E92582C8F622BBFE05E92582C81E
:020CD800F22206
:100CDA00EF8DF0A4A8F0CF8CF0A428CE8DF0A42E2E
:020CEA00FE22E8
:100CEC00D083D082F8E4937012740193700DA3A397
:100CFC0093F8740193F5828883E4737402936860AB
:060D0C00EFA3A3A380DFAA
:1016310002189FE493A3F8E493A34003F68001F218
:1016410008DFF48029E493A3F85407240CC8C333BA
:10165100C4540F4420C8834004F456800146F6DF89
:10166100E4800B01020408102040809019FDE47E03
:10167100019360BCA3FF543F30E509541FFEE4937E
:10168100A360010ECF54C025E060A840B8E493A345
:10169100FAE493A3F8E493A3C8C582C8CAC583CA70
:1016A100F0A3C8C582C8CAC583CADFE9DEE780BE28
:011A110000D4
:00000001FF
