:020000040800F2
:10000000103300200501000833200008C10D00084E
:100010002F20000897030008373600080000000072
:100020000000000000000000000000001D2A000881
:10003000450500080000000041220008112F0008BB
:100040001F0100081F0100081F0100081F01000810
:100050001F0100081F0100081F0100081F01000800
:100060001F0100081F0100081F0100081F010008F0
:100070001F0100081F0100081F0100081F010008E0
:100080001F0100081F0100081F0100081F010008D0
:100090001F0100081F0100081F0100081F010008C0
:1000A0001F0100081F0100081F0100081F010008B0
:1000B000752F00081F010008593000081F010008B3
:1000C0001F0100081F0100081F0100081F01000890
:1000D0001F0100086D330008B9330008113400080F
:1000E0001F0100081F0100081F010008DFF810D0E1
:1000F00000F0DEF800480047D34F0008AFF300805F
:10010000103300200648804706480047FEE7FEE718
:10011000FEE7FEE7FEE7FEE7FEE7FEE7FEE7FEE7B7
:10012000152F0008ED00000840EA01039B0703D0EB
:1001300009E008C9121F08C0042AFAD203E011F826
:10014000013B00F8013B521EF9D27047D2B201E0E8
:1001500000F8012B491EFBD270470022F6E710B5CC
:1001600013460A4604461946FFF7F0FF204610BD25
:1001700030B505462A460B4612F8010B13F8014B21
:1001800008B1A042F8D01CB1002802D06D1CF1E7E4
:10019000284630BDCAB2401E10F8011F8A4202D064
:1001A0000029F9D100207047421C10F8011B0029DA
:1001B000FBD1801A704730B504460020034600E0AA
:1001C0005B1C934203D2E05CCD5C401BF8D030BD99
:1001D00010B5044600E0401C0378002BFBD100E082
:1001E000401C521E04D311F8013B0370002BF7D1C1
:1001F00000210170204610BD70B5064603F0C4FA18
:10020000046805460A220021304600F018F82C60E8
:1002100070BD30B50B46014600202022012409E0C4
:1002200021FA02F59D4205D303FA02F5491B04FAAF
:1002300002F52844151EA2F10102F1DC30BD2DE9C2
:10024000F04791460F4680460446002614F8015BAD
:100250002DB100F03FF80068405DC007F6D12B2DAE
:1002600002D02D2D18D0641E4A463946204600F093
:1002700035F827B13968A14201D1C7F8008071056E
:100280004FF002040BD54042002803DD03F07CFA56
:100290000460A007BDE8F08746F48066E4E7002824
:1002A000F8DA03F071FA04606FF00040F2E7000042
:1002B000064C074D06E0E06840F0010394E80700B3
:1002C00098471034AC42F6D3FFF714FFAC64000833
:1002D000CC640008004870473C6400082DE9F05FDA
:1002E00082460078002715468B460AF10104B9467C
:1002F000302801D09DB113E014F8010B01277828B4
:1003000003D0582801D045B10AE00DB1102D07D116
:100310000027102514F8010B02E0082500E00A254B
:100320000026B0460EE005FB080005FB06F101279C
:1003300001EB10461FFA80F8B6F5803F00D3B946AE
:1003400014F8010B294600F018F80028EBDABBF18D
:10035000000F05D00FB1641E00E05446CBF80040FA
:10036000B9F1000F06D003F00FFA02210160C81E98
:10037000BDE8F09F48EA0640FAE73A2800D2303854
:1003800020F02002412A01D3A2F13700884201D394
:100390004FF0FF30704700BFFEE7000010B52C485B
:1003A0000078002827D12B480078012823D12AA1E2
:1003B0002AA000F0D9F978B10CE02AA129A000F018
:1003C000D3F938B900BF28A129A000F0CDF9002841
:1003D000F9D100E0F1E700BF28A12AA000F09AF9C6
:1003E00018B901201B49087005E000201949087060
:1003F00001202749487016480078002826D1154862
:100400000078002822D114A114A000F0ADF978B131
:100410000CE014A113A000F0A7F938B900BF12A195
:1004200013A000F0A1F90028F9D100E0F1E700BF26
:1004300012A114A000F06EF928B901201449087027
:100440000449087002E000200249087010BD000055
:100450000A0000200D0000204F4B000041540D0AFF
:10046000000000002B2B2B00434C4F534544000051
:1004700041542B434950434C4F5345002B43574A5B
:1004800041503A0041542B43574A41503F0D0A0016
:100490000E000020002000BF04E00021034A115498
:1004A000411CC8B2C128F8DB704700003C060020A0
:1004B00010B5042400F0A8F803E04FF4FA7005F03A
:1004C0005FF90FA110A000F025F90028F5D106E092
:1004D00002F046FB00B909E00A2005F051F902F0EC
:1004E000F1FA18B1601EC0B2041EF1D100BF2CB1E8
:1004F00010A001F0E1FD01201149087010BD0000BD
:10050000434F4E4E4543540041542B43495053549E
:100510004152543D22544350222C223130312E334B
:10052000332E3231302E3137222C313838330D0A08
:10053000000000004F4E454E45542E62696E00008B
:100540000A0000207047000010B54FF48071034886
:10055000FFF703FE00200249088010BD0B070020B2
:100560005A00002070B50546002400BF00F056F97F
:1005700080B90DA10E48FFF7FBFD044654B13A21A6
:100580002046FFF707FE044614B1641C204670BDE8
:100590000020FCE7052005F0F3F8281EA5F1010175
:1005A0008DB2E3D100BFF2E74950442C00000000B7
:1005B0000B07002070B50546002400BF00F02EF99F
:1005C00080B97B210C48FFF7E5FD044654B10BA12F
:1005D0002046FFF7CDFD044614B10D34204670BD12
:1005E0000020FCE7052005F0CBF8281EA5F101014D
:1005F0008DB2E3D100BFF2E70B07002064617465A0
:1006000074696D655F31000008B50121082001F0B3
:1006100029FE10208DF803004001ADF800000320F2
:100620008DF802006946244800F012F900224FF4C8
:100630000071214800F0A4F9FA2005F0A1F8012288
:1006400051021D4800F09CF94FF4FA7005F098F83B
:10065000FFF77AFF4FF4E13004F0D2FE03E04FF4ED
:10066000FA7005F08DF815A115A000F053F80028D8
:10067000F5D103E04FF4FA7005F082F80FA112A053
:1006800000F048F80028F5D103E04FF4FA7005F0C7
:1006900077F80AA110A000F03DF80028F5D103E09A
:1006A0004FF4FA7005F06CF80FA111A000F032F8C9
:1006B0000028F5D108BD0000000C01404F4B0000A0
:1006C00041540D0A0000000041542B43574D4F4444
:1006D000453D310D0A00000041542B435744484327
:1006E000503D312C310D0A00474F54204950000035
:1006F00041542B43574A41503D224D69203130220D
:100700002C22636831393934333630313031220D9F
:100710000A0000002DE9F04104460D46C826204697
:10072000FFF742FD87B23A4621460D4802F085FFA9
:100730000FE000F073F848B929460A48FFF718FDA2
:1007400020B1FFF701FF0020BDE8F0810A2005F08D
:1007500017F8301EA6F10101CEB2EAD10120F3E76D
:10076000003801400B0700202DE9F04104460D46FA
:100770000A262046FFF718FD87B23A4621460D4863
:1007800002F05BFF0FE000F049F848B929460A483B
:10079000FFF7EEFC20B1FFF7D7FE0020BDE8F081A7
:1007A0000A2004F0EDFF301EA6F10101CEB2EAD11D
:1007B0000120F3E7003801400B07002030B589B075
:1007C00004460D46FFF7C0FE2A4608A101A802F024
:1007D000C7FF0AA101A8FFF79DFF20B92A462146BD
:1007E000074802F02AFF09B030BD000041542B43F6
:1007F000495053454E443D25640D0A003E0000001B
:100800000038014070B504460D462A46214602488C
:1008100002F013FF70BD0000003801400A48008854
:1008200008B90120704708480088084909888842AB
:1008300003D1002004490880F4E7034800880349F5
:1008400008800120EEE700005A0000205C00002034
:100850002DE9F04102460025002600200023002457
:10086000002791F803C00CF00F0591F803C00CF0BD
:10087000100CBCF1000F03D091F802C04CEA050542
:1008800091F800C0BCF1000F31D0146800202BE0BB
:100890004FF0010C0CFA00F3B1F800C00CEA0306AB
:1008A0009E4220D183004FF00F0C0CFA03F7BC439B
:1008B00005FA03FC4CEA040491F803C0BCF1280FCC
:1008C00006D14FF0010C0CFA00FCC2F814C00AE08B
:1008D00091F803C0BCF1480F05D14FF0010C0CFAA0
:1008E00000FCC2F810C0401C0828D1D31460B1F835
:1008F00000C0BCF1FF0F34DD546800202EE000F191
:10090000080C4FF0010808FA0CF3B1F800C00CEA2B
:1009100003069E4221D183004FF00F0C0CFA03F71F
:10092000BC4305FA03FC4CEA040491F803C0BCF193
:10093000280F05D100F1080C08FA0CF8C2F8148051
:1009400091F803C0BCF1480F07D100F1080C4FF03B
:10095000010808FA0CF8C2F81080401C0828CED311
:100960005460BDE8F0810246002093680B400BB153
:10097000012000E00020704741617047016170472D
:100980000AB1016100E041617047000070B50446A2
:100990000025012246A1474803F052FD4649087050
:1009A00008460078002877D17F239F22002108463F
:1009B00000F008FA01222146404803F06BFD3E4951
:1009C00008700846007808B1022070BD3B48C56831
:1009D00000203B4908802FE03A4B4FF4A0723A497F
:1009E000364803F04EFE344908700846007808B1D6
:1009F0000420EAE700203549088014E033490988DB
:100A0000314A12F8110000F0F5FB30490988012243
:100A100002EB41012C4A505C00F0ECFB2B480088B3
:100A2000401C2A49088029480088A028E6DB244881
:100A30000088401C224908806808A021B0FBF1F022
:100A40001F4909888842C7D800201D49088017E03F
:100A500000201E4908800AE0FF2000F0CBFBFF20A9
:100A600000F0C8FB19480088401C18490880174846
:100A70000088A028F0DB12480088401C104908803C
:100A80006808A021B0FBF1F0C0F180000C49098892
:100A90008842DDD802E0FFE7012096E7074803F02F
:100AA000BDFC012202A1002003F0CAFC00208CE75B
:100AB000303A0000A400002040000020D4020020B2
:100AC0004800002044000020FC0400204A000020D0
:100AD00010B500F0FFF900BF05A0FFF757FF002891
:100AE000FAD105A000F016F807A001F0E5FA10BD54
:100AF000312E62696E00000057463136783132443B
:100B00002E62696E000000004F4E454E4554442E43
:100B100062696E00F8B5044600250026A0788DF8BD
:100B20000000E0788DF801006846FFF765FBC5B26C
:100B300060798DF80000A0798DF801006846FFF714
:100B40005BFBC6B2012231A1314803F079FC314987
:100B500008700846007800284CD1711E8BB2C5F190
:100B6000A00188B29F22002100F02CF90122214629
:100B7000294803F08FFC274908700846007808B11F
:100B80000220F8BD0020254908802EE06A00244B91
:100B90002449214803F075FD1E4908700846007875
:100BA00008B10420EDE700201F49088014E01E4929
:100BB00009881C4A12F8110000F01CFB1A49098828
:100BC000012202EB4101174A505C00F013FB16486A
:100BD0000088401C1449088013480088A842E6DBBE
:100BE0000E480088401C0D4908800C480088B0421F
:100BF000CCDB01E00120C4E7074803F00FFC012231
:100C000002A1002003F01CFC0020BAE7303A0000EB
:100C1000A400002040000020D40200204800002052
:100C200044000020FC0400204A00002070B5044667
:100C30000D460A2322460421052000F06BFA082302
:100C40002A461821052000F065FA70BD70B5002510
:100C5000002436480078012807D100203349087065
:100C6000012033494870FFF7CFFC03E04FF4FA70DE
:100C700004F086FD2FA130A0FFF74CFD0028F5D130
:100C800003E04FF4FA7004F07BFD2AA12EA0FFF7D9
:100C900041FD0028F5D100BF2FA131A0FFF73AFD9B
:100CA0000028F9D14FF4FA7004F06AFD03E04FF424
:100CB000FA7004F065FD2DA12EA0FFF72BFD002892
:100CC000F5D103E04FF4FA7004F05AFD33A134A0DB
:100CD000FFF720FD0028F5D169213548FFF792FD87
:100CE00021E03220FFF766FC0546E5B101213148DD
:100CF00002F06DFA00240FE00A2C03DA28782E495E
:100D0000085506E00A2C04DD2978A4F10B002B4AD3
:100D100011546D1C601CC4B2132CEDDB274926480E
:100D2000FFF784FF00E0DCE700BF70BD0A00002091
:100D30000B0000204F4B000041542B4349504D4FB6
:100D400044453D310D0A000041542B4349504D5557
:100D5000583D300D0A0000002B43574A41503A00DD
:100D600041542B43574A41503F0D0A00434F4E4ECA
:100D70004543540041542B43495053544152543D30
:100D800022544350222C226170692E6B3738302E4A
:100D9000636F6D222C38300D0A0000003E00000009
:100DA00041542B43495053454E440D0A0000000066
:100DB00040640008000800408F0000209A000020D6
:100DC00000BFFEE72DE9F04107460C4615461E46DA
:100DD0002A2000F023FA384600F0F4F9284600F003
:100DE000F1F92B2000F01AFA204600F0EBF930461A
:100DF00000F0E8F92C2000F011FABDE8F0810000C5
:100E000008B50121102001F02DFA2020ADF80000D6
:100E100003208DF8020010208DF8030069462C484D
:100E2000FFF716FD20212A48FFF7A8FD1020ADF896
:100E3000000003208DF8020010208DF803006946A1
:100E40002348FFF705FD10212148FFF797FD0420F7
:100E5000ADF8000003208DF8020010208DF803008B
:100E600069461B48FFF7F4FC04211948FFF786FD8B
:100E70000820ADF8000003208DF8020010208DF846
:100E8000030069461248FFF7E3FC08211048FFF70A
:100E900075FD0220ADF8000003208DF8020010203F
:100EA0008DF8030069460A48FFF7D2FC0120ADF82F
:100EB000000003208DF8020010208DF80300694621
:100EC0000348FFF7C5FC01210148FFF757FD08BDA6
:100ED0000010014010B5FFF793FF08218C48FFF781
:100EE0004BFD142004F04CFC08218948FFF746FD17
:100EF000142004F045FC01218548FFF73FFD112037
:100F000000F08CF9782004F03BFCB12000F086F969
:100F1000012000F06FF92C2000F06CF92D2000F07A
:100F200069F9B22000F07AF9012000F063F92C2071
:100F300000F060F92D2000F05DF9B32000F06EF9AB
:100F4000012000F057F92C2000F054F92D2000F07A
:100F500051F9012000F04EF92C2000F04BF92D2022
:100F600000F048F9B42000F059F9072000F042F9E8
:100F7000C02000F053F9A22000F03CF9022000F05C
:100F800039F9842000F036F9C12000F047F9C52076
:100F900000F030F9C22000F041F90A2000F02AF9EF
:100FA000002000F027F9C32000F038F98A2000F073
:100FB00021F92A2000F01EF9C42000F02FF98A2020
:100FC00000F018F9EE2000F015F9C52000F026F920
:100FD0000E2000F00FF9362000F020F9A02000F0DC
:100FE00009F9E02000F01AF90F2000F003F91A20A7
:100FF00000F000F90F2000F0FDF8182000F0FAF8DA
:101000002F2000F0F7F8282000F0F4F8202000F05E
:10101000F1F8222000F0EEF81F2000F0EBF81B2082
:1010200000F0E8F8232000F0E5F8372000F0E2F8BF
:10103000002000F0DFF8072000F0DCF8022000F0CC
:10104000D9F8102000F0D6F8E12000F0E7F80F20E2
:1010500000F0D0F81B2000F0CDF80F2000F0CAF807
:10106000172000F0C7F8332000F0C4F82C2000F05F
:10107000C1F8292000F0BEF82E2000F0BBF8302087
:1010800000F0B8F8392000F0B5F83F2000F0B2F8D1
:10109000002000F0AFF8072000F0ACF8032000F0CB
:1010A000A9F8102000F0A6F82A2000F0B7F80020D8
:1010B00000F0A0F8002000F09DF8002000F09AF861
:1010C0007F2000F097F82B2000F0A8F8002000F017
:1010D00091F8002000F08EF8002000F08BF89F209F
:1010E00000F088F8F02000F099F8012000F082F874
:1010F000F62000F093F8002000F07CF83A2000F091
:101100008DF8052000F076F8292000F087F810BD52
:10111000001001402DE9F0470546894614461E4659
:101120000027B84600BF0EE0227805EB080188B220
:101130001923494600F00CF8641C08F1080000F07F
:10114000FF08781CC7B2B742EEDBBDE8F0870000AD
:101150002DE9F04705460E46174698460024A1465D
:10116000A24606F10F0083B2E81D82B2314628463E
:10117000FFF728FE00BF1FE0A7F12000104901EB98
:10118000001010F804A04FF0000910E00AF0010070
:1011900018B1404600F016F803E04FF6FF7000F07B
:1011A00011F84FEA6A0A09F1010000F0FF09B9F1EC
:1011B000080FEBDB601CC4B2102CDDDBBDE8F08750
:1011C000C85D000810B5044602210948FFF7D4FBAA
:1011D00004210748FFF7D2FB201200F037F8E0B2F5
:1011E00000F034F802210248FFF7C8FB10BD0000F0
:1011F0000010014010B5044602210748FFF7BCFB70
:1012000004210548FFF7BAFB204600F01FF8022131
:101210000148FFF7B3FB10BD0010014010B50446B4
:1012200002210948FFF7A8FB04210748FFF7A4FBA8
:10123000204600F00BF804210348FFF79FFB022132
:101240000148FFF79BFB10BD0010014070B504463C
:10125000002517E010210D48FFF78EFB04F08000F9
:1012600020B120210948FFF789FB03E0202107482E
:10127000FFF782FB10210548FFF780FB6006040E94
:10128000681CC5B2082DE5DB70BD000000100140F0
:1012900010B5044624B140210448FFF76DFB03E07C
:1012A00040210248FFF76AFB10BD0000001001401A
:1012B00008B50121102000F0D5FF10208DF80300A3
:1012C0008020ADF8000003208DF8020069460B482D
:1012D000FFF7BEFA10208DF803004020ADF80000A3
:1012E00003208DF8020069460448FFF7B1FA012097
:1012F00000F006F80020FFF7CBFF08BD001001400A
:1013000010B5044624B180210448FFF735FB03E003
:1013100080210248FFF732FB10BD000000100140A1
:1013200010B529480078012804D1FFF7B1FF00204B
:10133000FFF7E6FF2448407801280CD1002022491D
:101340000870487006202149087000202049087064
:101350000120204908701C48807801280ED1062001
:101360001A49087000201A490870174908708870D7
:101370000120FFF78DFF0120FFF7C2FF134800781F
:1013800068B11348007811490978884207DB0120C9
:101390000D49087000200D4908700E4908700D486D
:1013A000007878B10C48007830B10020FFF770FF6A
:1013B0000120FFF7A5FF05E00120FFF769FF0020EE
:1013C000FFF79EFF10BD0000170000201A0000204C
:1013D0001D0000201C0000201B00002010B5134839
:1013E000007830B100201149087011A000F064FEAF
:1013F00008E00E48407828B100200C4948700FA042
:1014000000F05AFE1048007830B100200E490870F4
:101410000EA0FFF77FFB08E00B48407828B10020C2
:10142000094948700DA0FFF775FB10BD0B000020A7
:101430004F4E454E45542E62696E00004F4E454E4C
:101440004554442E62696E000E0000205746313626
:10145000783132532E62696E0000000057463136F3
:10146000783132442E62696E0000000010B50446E7
:10147000207B012802D1206803F0FEFB00202060C1
:101480006060A060207310BD0246002301230DE0C0
:1014900002F07F000870D2092AB1087840F080007D
:1014A0000870491C01E0184670475B1C042BEFDDF7
:1014B0004FF0FF30F8E770B504460E46002520686F
:1014C00098B901202073304603F0A4FD2060206805
:1014D000E0B100206060A66003E00020216848556C
:1014E0006D1CA068A842F8D810E00220207303E029
:1014F0000020216848556D1CA068A842F8D800203B
:101500006060A068B04201D20020206070BD000081
:101510002DE9FF5F07460D4690463846FEF744FE2C
:1015200086B22846FEF740FE1FFA80FA4FF0000907
:10153000F01D03F06FFD04461CB9012004B0BDE8A6
:10154000F09FF11D2046FEF708FE12A00168216001
:101550008088A080324639462046FEF739FE28466C
:10156000FEF722FE83460120002100915B462A46B9
:10157000CDE90208019121460A2000F077F910B95F
:101580004FF0000901E04FF00109204603F074FB21
:101590004846D3E724637273702F00002DE9FF4F94
:1015A00083B082468B469146159C00250020029010
:1015B0000F2701904846FEF7F7FD0FFA80F8B9F1C2
:1015C000000F03D1012007B0BDE8F08F08F1020041
:1015D000384487B2109808B145F00205129878B1E6
:1015E00045F004051298FEF7DFFDC0B20290139893
:1015F000FEF7DAFD01460298001D0844384487B220
:10160000119820B1012804D0022808D104E000BFBD
:1016100007E045F00C0504E045F0140501E0022068
:10162000D1E700BF149808B145F02405BAF1000FC6
:1016300002D0BBF1000F01D10320C4E745F0C00583
:101640005046FEF7B1FD06465846FEF7ADFD304464
:10165000001D384487B239462046FFF72CFF20682A
:1016600008B90420AFE739462068FEF776FD10215F
:101670006268501C606020688154D4E90023D1184E
:10168000781FFFF701FF00B201900198002804DAEB
:101690002046FFF7EBFE052095E7616801980844B6
:1016A000606000216268501C6060206881540421E1
:1016B0006268501C6060206881544D216268501C33
:1016C00060602068815451216268501C606020680D
:1016D000815454216268501C6060206881546268A3
:1016E000501C60602068815404216268501C606056
:1016F000206881546168481C6060206845540698E1
:10170000010A6268501C6060206881540698C1B26A
:101710006268501C606020688154C8F307216268C9
:10172000501C6060206881546268501C60602068B2
:1017300000F80280D4E90012881842464946FEF7B4
:1017400047FD60684044606005F00400B8B30026BF
:10175000139808B938A013901298FEF725FD86B2A9
:10176000310A6268501C6060206881546268501CB5
:10177000606020688654D4E90012881832461299B5
:10178000FEF726FD6068304460601398FEF70CFD9C
:1017900086B2310A6268501C6060206881546268B9
:1017A000501C606020688654D4E9001288183246C4
:1017B0001399FEF70DFD60683044606000BF05F0CE
:1017C0008000C8B15046FEF7EFFC86B2310A62686D
:1017D000501C6060206881546268501C6060206802
:1017E0008654D4E90012881832465146FEF7F0FCC0
:1017F00060683044606000BF05F04000C8B15846E2
:10180000FEF7D2FC86B2310A6268501C6060206824
:1018100081546268501C606020688654D4E90012CC
:10182000881832465946FEF7D3FC60683044606041
:1018300000BF0020C7E600000000000010B504460D
:1018400002212046FFF737FE206808B9012010BDAD
:10185000C0216268501C6060206881540021626869
:10186000501C6060206881540020F0E72DE9FF4F94
:1018700083B0834617469946139C00250026002016
:10188000029001908046BBF1000F03D1012007B008
:10189000BDE8F08F00260AE00498805D232803D07D
:1018A0000498805D2B2801D10220F0E7761C049873
:1018B000805D0028F0D148F03008119808B148F058
:1018C000010806EB0900851C109820B1012804D0FE
:1018D00002280AD105E000BF09E048F00208AD1C6B
:1018E00005E048F00408AD1C01E00320CFE700BF8D
:1018F0008FB33878022821D14FF0000A00BF50463C
:101900000AF1010A385C7D28F9D1AAF1030A0AF12B
:10191000070002900298A9EB000AE81CA0EB0A015C
:101920002046FFF7C8FD206808B90420AFE7EA1C8D
:10193000A2EB0A012068FEF710FC19E0691D2046A1
:10194000FFF7B9FD206808B90420A0E7691D2068E9
:10195000FEF703FC0CE0FFE7691D2046FFF7ABFD37
:10196000206808B9042092E7691D2068FEF7F5FB9E
:101970006168481C6060206800F80180D4E90002BA
:1019800081182846FFF780FD01900198002804DAAD
:101990002046FFF76BFD052079E761680198084450
:1019A0006060C6F307216268501C60602068815443
:1019B0006268501C606020688654D4E90012881860
:1019C00032460499FEF704FC606830446060109869
:1019D00060B14FEA1B216268501C6060206881542E
:1019E0006268501C6060206800F802B0C7B13878A7
:1019F00002280BD1D4E9001288183946029AFEF762
:101A000093FB616802980844606009E0D4E9001221
:101A100088184A463946FEF787FB6068484460608C
:101A2000002034E770B505460C4604212046FFF738
:101A300042FD206808B9012070BD40216268501C39
:101A400060602068815402216268501C60602068D8
:101A5000815429126268501C606020688154626859
:101A6000501C6060206885540020E5E770B505468D
:101A70000C4604212046FFF71EFD206808B901200E
:101A800070BD70216268501C606020688154022122
:101A90006268501C60602068815429126268501C82
:101AA0006060206881546268501C606020688554C2
:101AB0000020E5E770B505460C4604212046FFF7F7
:101AC000FAFC206808B9012070BD50216268501CE2
:101AD00060602068815402216268501C6060206848
:101AE000815429126268501C6060206881546268C9
:101AF000501C6060206885540020E5E770B50546FD
:101B00000C4604212046FFF7D6FC206808B90120C6
:101B100070BD62216268501C60602068815402219F
:101B20006268501C60602068815429126268501CF1
:101B30006060206881546268501C60602068855431
:101B40000020E5E72DE9FF5F8046174699460E9C89
:101B50000026B246B3460025B8F1000F03D101209C
:101B600004B0BDE8F09F0BE057F8250008B902204B
:101B7000F6E757F82500FEF717FB0644681CC5B2C8
:101B80004D45F1DB09EB4900801C00EB060A0AF128
:101B900005012046FFF78FFC206808B90320DFE726
:101BA00082216268501C606020688154D4E9000280
:101BB00081185046FFF768FC0FFA80FBBBF1000F5D
:101BC00004DA2046FFF752FC0420C9E76068584455
:101BD00060604FEA18216268501C60602068815480
:101BE0006268501C6060206800F80280002524E0D4
:101BF00057F82500FEF7D8FA0646C6F307216268B3
:101C0000501C6060206881546268501C60602068CD
:101C10008654D4E90023D01857F825103246FEF731
:101C2000D7FA6068304460600198C1B26268501CA5
:101C3000606020688154681CC5B24D45D8DB002027
:101C40008EE7F0B504460D462646012300201060BD
:101C5000002114E0775C07F07F07106807FB0300A2
:101C60001060705C00F0800008B9481CF0BDDB011A
:101C7000B3F5001F02D36FF00100F7E7491CA9423A
:101C8000E8DB4FF0FF30F1E72DE9F84380460C46E2
:101C900015461E462F2108F10600FEF77BFA07467F
:101CA0000020009017B90120BDE8F8837F1C6A4628
:101CB000042108F10100FFF7C4FF252003F0AAF971
:101CC0002060206808B90220EEE725212068FEF791
:101CD00044FA242239462068FEF726FA2437009871
:101CE0002C3830803188481C03F094F9286028682B
:101CF00020B9206802F0C0FF0320D5E73288511CCC
:101D00002868FEF72AFA328839462868FEF70CFA66
:101D10000020C9E701464878022801D00120704719
:101D2000887810B18878012801D1C878F7E7FF20BA
:101D3000F5E700002DE9FC5F81460D4614461E467E
:101D4000DDE90C8B99F8000000F00F0A00200190EB
:101D50000AF008000090CAF341008BF8000001AAC5
:101D6000042109F10100FFF76CFF4844471C01986A
:101D7000022802D30AF0010010B1FF20BDE8FC9F49
:101D80007878397840EA012020802088801C0199E9
:101D9000884201D9FF20F1E754A1B81CFEF7E8F909
:101DA00008B10F20EAE79BF8000020B101283DD0E0
:101DB000022877D13BE0009808B1FF20DEE72188B8
:101DC000481C03F027F92860286808B9FF20D5E7E8
:101DD0002288511C2868FEF7C0F92288B91C28689F
:101DE000FEF7A2F90198801E2188401AA8F8000089
:101DF000B8F80010481C03F00DF93060306820B9C5
:101E0000286802F039FFFF20B8E7B8F80020511C1D
:101E10003068FEF7A2F9B8F80020B4F800C0BB1C87
:101E20000CEB03013068FEF77FF94FE000BF20881C
:101E3000801C0199884201D9FF209FE72088C01C9F
:101E4000395C2088801C385C41EA00210E980180B2
:101E50000E9808B9FF2091E72188481C03F0DAF8B2
:101E60002860286808B9FF2088E72288511C286864
:101E7000FEF773F92288B91C2868FEF755F9019816
:101E8000001F2188401AA8F80000B8F80010481C6C
:101E900003F0C0F83060306828B9286802F0ECFE22
:101EA000FF206BE710E0B8F80020511C3068FEF707
:101EB00054F9B8F80020B4F800C03B1D0CEB030146
:101EC0003068FEF731F901E0FF2057E700BF2B2112
:101ED0002846FEF75FF920B923212846FEF75AF974
:101EE00008B1FF204AE7002048E70000246372653C
:101EF0007100000001464878022801D00120704797
:101F0000887820B9C8780A2801D10020F7E7012095
:101F1000F5E701464878022801D00120704788780B
:101F200020B9C8780A2801D10020F7E70120F5E799
:101F300001464878022801D001207047887820B9EE
:101F4000C8780A2801D10020F7E70120F5E702460A
:101F50005078022801D0012070479078B0EB112F03
:101F600005D1D078CBB2984201D10020F4E701200E
:101F7000F2E70000F8B50446FF2720780511012D8F
:101F800001DB0E2D01DD3846F8BD032D24D10020E4
:101F900000906A460421601CFFF753FE2044461C53
:101FA0000098022803D3207800F0010008B1FF2038
:101FB000EAE77078317840EA0120801C0099884275
:101FC00001D9FF20E0E706A1B01CFEF7D1F808B167
:101FD0000F2700E0032700E02F463846D4E7000033
:101FE00024637265710000000146FF208A78A2B95F
:101FF000CA78142A11D10A7932B1012A05D0022AED
:1020000004D0802A06D103E000BF00BF002003E017
:10201000012001E0022000BF00BF704701460120FF
:102020008A781AB9CA781E2A00D10020704700BFEA
:10203000FEE7704770B5002100230F22C47804B377
:10204000154C246804F4E064C4F5E064210AC1F18D
:102050000403CA40447804FA03F18478144021430D
:1020600009010E4C0678A155047804F01F050124DF
:10207000AC4005786D11AD0005F1E025C5F80041D3
:1020800009E0047804F01F050124AC40044D0678F3
:10209000761145F8264070BD0CED00E000E400E04C
:1020A00080E100E002490143024A116070470000EC
:1020B0000000FA050CED00E070B505460C2613246F
:1020C000012231A1314802F0BBF9314908700846BC
:1020D000007800284CD1711E8BB2C4F1900188B2F7
:1020E0008F220021FEF76EFE01222946294802F0C8
:1020F000D1F9274908700846007808B1022070BD60
:102100000020254908802EE06200244B2449214804
:1021100002F0B7FA1E4908700846007808B104209A
:10212000EDE700201F49088014E01E4909881C4A79
:1021300012F81100FFF75EF81A490988012202EB34
:102140004101174A505CFFF755F816480088401CBB
:102150001449088013480088A042E6DB0E48008836
:10216000401C0D4908800C480088B042CCDB01E0DF
:102170000120C4E7074802F051F9012202A1002022
:1021800002F05EF90020BAE7303A0000A400002017
:1021900040000020D402002048000020440000201D
:1021A000FC0400204A00002030B589B004460D46EA
:1021B0000121022000F046F80121042000F052F82D
:1021C00018208DF823004020ADF8200003208DF862
:1021D000220008A91848FEF73BFBADF81840ADF8FF
:1021E00014500020ADF81600ADF81A0005A91348E8
:1021F00001F06AF86020ADF804000120ADF8060097
:102200000220ADF80C00204604EBD071C1F34F0161
:10221000ADF80A1001A9094801F000F808210748A3
:1022200001F048F80121054800F0D1FF01210348E1
:1022300000F0BEFF09B030BD0008014000040040BE
:102240007047000029B1064AD2690243044BDA61A3
:1022500004E0034AD2698243014BDA61704700000F
:102260000010024029B1064A92690243044B9A6168
:1022700004E0034A92698243014B9A61704700006F
:102280000010024030B500210022002400232D4D13
:102290006D6805F00C0121B1042905D0082923D16E
:1022A00005E0294D056022E0274D05601FE0254D22
:1022B0006D6805F47012234D6D6805F480340225B5
:1022C00005EB92421CB9214D554305600BE01D4DB5
:1022D0006D6805F400351DB11C4D5543056002E0E5
:1022E000194D5543056002E0174D056000BF00BF62
:1022F000144D6D6805F0F0010909154D6B5C05681A
:10230000DD4045600F4D6D6805F4E061090A104D30
:102310006B5C4568DD4085600A4D6D6805F4605171
:10232000C90A0B4D6B5C4568DD40C560054D6D68A5
:1023300005F44041890B074D6B5CC568B5FBF3F5AF
:10234000056130BD0010024000127A0000093D0016
:102350001E0000202E00002010B54FF480510348CD
:10236000FEF70CFBFF2000F071F910BD000C0140DE
:1023700070B5054601220021092000F0CEF904467F
:1023800024B91021284600F067F90446FFF7E4FF5E
:102390000CB1012070BD0020FCE770B505464FF67A
:1023A000FF7401E0601E84B2FF2000F04FF9A842E4
:1023B00001D0002CF6D10CB9FF2070BD0020FCE745
:1023C0007FB56846FFF7D4FF10B1002004B070BDA0
:1023D0009DF8000000F0C000402809D19DF80900D8
:1023E0009DF8081000EB0120401C84B2A50220E0FB
:1023F0009DF8050000F00F009DF80A1000EBD110C9
:102400009DF8091001F0030100EB4100861C9DF8C6
:10241000080080119DF8071000EB81009DF8061060
:1024200001F0030100EB8120441CA6F1090004FA2D
:1024300000F52846CAE7000010B500F01FFA4FF477
:1024400080510248FEF79AFA10BD0000000C0140CE
:10245000F8B5FFF7F1FF00F020F9002504E0FF20B8
:1024600000F0F4F8681C85B20A2DF8DB142600BFD2
:1024700095220021084600F050F90446012C04D0B2
:10248000301EA6F101018EB2F2D100205149087030
:10249000012C4AD187224FF4D571082000F03DF974
:1024A000012847D1002506E0FF2000F0CFF80DF805
:1024B0000500681C85B2042DF6DB9DF8020001289A
:1024C00079D19DF80300AA2875D14FF6FE7600BF9A
:1024D00001220021372000F020F901229107292054
:1024E00000F01BF9044624B1301EA6F101018EB2A2
:1024F000EED1002E5FD0012200213A2000F00DF92C
:10250000002858D1002506E0FF2000F09FF80DF8C4
:102510000500681C85B2042DF6DB9DF8000000F074
:10252000400018B106202B49087044E004202949D6
:10253000087040E001220021372000F0EEF801226F
:102540000021292000F0E9F80446012C17DC0220C4
:10255000204908704FF6FE7600BF01220021372087
:1025600000F0DBF801220021292000F0D6F8044613
:10257000BCB1301EA6F101018EB2EED111E00120F6
:10258000144908704FF6FE7600BF01220021104664
:1025900000F0C3F8044624B1301EA6F101018EB24A
:1025A000F3D12EB101225102102000F0B6F810B183
:1025B000002008490870FFF7CFFE00F069F80548D1
:1025C000007808B10020F8BD0CB12046FBE7AA2036
:1025D000F9E700004C0000202DE9F04106460F46C7
:1025E000154619480078062800D07F02012D0CD12D
:1025F00001223946112000F090F80446FCB9690226
:10260000304600F029F8044619E00122394612202C
:1026100000F083F8044600BF4FF40071304600F02C
:102620001BF8044606F50076681EC0B2051E01D0F0
:10263000002CF1D0012200210C2000F06EF8FFF7F1
:102640008BFE2046BDE8F0814C00002010B504460A
:10265000204600F0F7F810BD70B504460D46FE2088
:10266000FFF79BFE08B1012070BD04E0FF20FFF7DB
:10267000EDFF2070641C281EA5F101018DB2F5D17B
:10268000FF20FFF7E3FFFF20FFF7E0FF0020EBE76D
:1026900010B5002000F0AEF910BD10B5382000F0E4
:1026A000A9F910BD10B54FF480510648FEF764F942
:1026B00000F06FF808B9002010BDFFF74DFE0120B3
:1026C000FAE70000000C014070B506460D4600F028
:1026D00060F808B1012070BD2846FFF7B7FFFD2D57
:1026E00019D0002404E0305DFFF7B0FF601C84B215
:1026F000B4F5007FF7DBFF20FFF7A8FFFF20FFF70F
:10270000A5FFFF20FFF7A2FF044604F01F000528E5
:1027100001D00220DFE70020DDE72DE9F04105468A
:102720000C4617464FF00008FFF716FEFFF7BAFFFA
:1027300010B1FF20BDE8F08145F04000FFF786FFB3
:10274000200EFFF783FFC4F30740FFF77FFFC4F3BA
:102750000720FFF77BFFE0B2FFF778FF3846FFF76F
:1027600075FF0C2D02D1FF20FFF770FF4FF01F08FF
:1027700000BFFF20FFF76AFF064606F0800030B179
:10278000B8F10000A8F1010101F0FF08F1D13046D5
:10279000D0E710B5002400BFFF20FFF757FFFF2848
:1027A00001D1002010BD641C6FF07F408442F3D340
:1027B0000120F7E72DE9F04106460F46154620486F
:1027C0000078062800D07F02012D0CD10122394665
:1027D0001820FFF7A2FF04466CBBFE213046FFF72E
:1027E00073FF044627E016480078012809D001222B
:1027F00000213720FFF791FF012229461720FFF71C
:102800008CFF012239461920FFF787FF044694B94F
:1028100000BFFC213046FFF757FF044606F500765F
:10282000681EC0B2051E01D0002CF2D0FD21002090
:10283000FFF74AFF0446FFF78FFD2046BDE8F08111
:102840004C00002010B5044600BF02210A4800F0E9
:10285000A5F80028F9D02146074800F0ABF800BFE2
:102860000121054800F09AF80028F9D0024800F04C
:102870009EF8C0B210BD00000038004000B587B01F
:1028800001210820FFF7EEFC01218803FFF7DAFCA5
:102890004FF48050ADF8180010208DF81B00032075
:1028A0008DF81A0006A93548FDF7D2FF4FF4805184
:1028B0003248FEF763F84FF40050ADF818001820C6
:1028C0008DF81B0003208DF81A0006A92B48FDF790
:1028D000BFFF4FF400512948FEF750F84FF48040F5
:1028E000ADF8180018208DF81B0003208DF81A0091
:1028F00006A92248FDF7ACFF4FF480411F48FEF7C0
:102900003DF84FF40040ADF8180018208DF81B007A
:1029100003208DF81A0006A91848FDF799FF4FF417
:1029200000411648FEF72AF80020ADF804004FF4E5
:102930008270ADF806000020ADF808000220ADF866
:102940000A000120ADF80C004002ADF80E0038205E
:10295000ADF810000020ADF812000720ADF814000B
:1029600001A9074800F028F80121054800F00AF8FD
:10297000FF20FFF767FF07B000BD0000000C01401B
:102980000038004021B1028842F04002028004E099
:1029900002884FF6BF731A4002807047024600203B
:1029A00013890B400BB1012000E000207047014665
:1029B000888970478181704710B50022028802F42F
:1029C00041520B884C8823438C882343CC88234373
:1029D0000C8923434C8923438C892343CC8923438B
:1029E0001A430280838B4FF2FF74234083830B8A48
:1029F000038210BD10B50446074800884FF6C77122
:102A000008400549088008460088204308800121C5
:102A10000148FFF7B7FF10BD0038004070470000C5
:102A200010B50446601CC4B21148007850281DDB64
:102A300000200F4908700F480078012816D100BF08
:102A400000F08EF818B901200A49087006E00A2043
:102A500002F096FE601EC0B2041EF1D100BF2CB978
:102A600000200449087001200349487010BD00008F
:102A7000080000200A0000200B00002010B50024F0
:102A80000C480078012814D10B48007888B901213E
:102A90000A4800F099F96420FDF764FD04462046D9
:102AA000FFF768FA092804D1012003490870044996
:102AB000087010BD0A000020100000200000002057
:102AC0001700002030B58BB00020079008900990C7
:102AD0000A90012507A8002102910391CDE9041075
:102AE00000912B0217A2019119A11BA0FEF756FD20
:102AF00020BB089A91B20798FDF760FEFA20FDF717
:102B000031FD0446BCB12046FFF734FA022812D149
:102B10002046FFF7FFF806280BD2DFE800F0030598
:102B200006070809002505E004E003E002E001E0F3
:102B300000E000BF00BF07A8FEF798FC28460BB0D6
:102B400030BD00006D7174745F626F7833000000F7
:102B50003135393735330000313233343500000038
:102B60001FB5002000900190029003900024684659
:102B7000FEF764FEC8B9019A91B20098FDF71EFEF7
:102B80006846FEF773FC6420FDF7ECFC0446204623
:102B9000FFF7F0F90D2804D1FDF7D6FC002004B0B2
:102BA00010BDFDF7D1FC0120F9E70220F7E770B571
:102BB00088B005460C4600200490059006900790CA
:102BC0002046FDF7F1FA064604A80121002202235F
:102BD000CDE90032CDE902103346224629460A20CB
:102BE000FEF744FE38B9059A91B20498FDF7E6FD68
:102BF00004A8FEF73BFC08B070BD00002DE9F043CF
:102C00008DB00746002009900A900B900C90089018
:102C10000790069005900026049000250024804629
:102C200081463846FFF7A6F90646F01E0D287CD2ED
:102C3000DFE800F01E545A6C828E868E8A8E8E8E4D
:102C4000070005AB08AA07A93846FFF71DF8054697
:102C50006DB909AADDE90701FEF75AFC38B90A9AED
:102C600091B20998FDF7AAFD09A8FEF7FFFB72E0F3
:102C7000524804A905AA08ABCDE90021029006AA92
:102C800007A93846FFF756F8054635BB9DF81000F2
:102C9000012802D002281ED10EE009A94748008869
:102CA000FEF7C0FE38B90A9A91B20998FDF786FD81
:102CB00009A8FEF7DBFB0FE009A940480088FEF7F2
:102CC000F9FE38B90A9A91B20998FDF777FD09A87B
:102CD000FEF7CCFB00E000BF00BF3CE03846FFF74A
:102CE00009F900B937E000BF3846FFF721F960B9AC
:102CF00009A90A20FEF702FF38B90A9A91B2099889
:102D0000FDF75CFD09A8FEF7B1FB24E02B48018824
:102D10003846FFF71CF970B909A90A20FEF7A6FE8C
:102D200048B90A9A91B2099800E011E0FDF746FD12
:102D300009A8FEF79BFB0EE03846FFF7EAF80AE029
:102D40003846FFF751F906E03846FFF767F902E029
:102D50004FF0FF3500BF00BFFDF7F6FB681C10B950
:102D60000DB0BDE8F0837B210898FDF713FA044607
:102D70007D210898FDF70EFA804694B1681C80B159
:102D8000641C06E014F8012B484609F101090C49BE
:102D90000A54207898F800108842F3D1012009499C
:102DA00048700F2E01D0032E05D1079801F064FF63
:102DB000089801F061FF00BFD2E700005E0000202C
:102DC0000B0800201700002030B585B004460D46E2
:102DD0000020019002900390049001A82B46224607
:102DE000022100901420FEF7ADFE38B9029A91B28C
:102DF0000198FDF7E3FC01A8FEF738FB05B030BDF4
:102E000010B500F001F810BD0CB500200190009045
:102E10003348006840F480303149086000BF3048D2
:102E2000006800F4003000900198401C0190009868
:102E300018B90198B0F5A06FF1D12948006800F4E5
:102E4000003010B10120009001E0002000900098B7
:102E5000012843D12348006840F010002149086050
:102E60000846006820F0030008600846006840F04B
:102E7000020008601A4840681949486008464068DE
:102E800048600846406840F48060486008464068F2
:102E900020F47C1048600846406840F4E810486020
:102EA0000846006840F08070086000BF0C48006869
:102EB00000F000700028F9D00948406820F00300B5
:102EC000074948600846406840F00200486000BF7B
:102ED0000348406800F00C000828F9D10CBD000040
:102EE0000010024000200240042808D14FF0E021E9
:102EF000096941F004014FF0E022116107E04FF051
:102F0000E021096921F004014FF0E02211617047CE
:102F10007047000010B51348006840F001001149E7
:102F2000086008464068104908400E494860084655
:102F300000680E4908400B4908600846006820F404
:102F4000802008600846406820F4FE0048604FF486
:102F50001F008860FFF754FF4FF0006004490860CD
:102F600010BD0000001002400000FFF8FFFFF6FE59
:102F700008ED00E010B50121880700F034F90128C0
:102F80002DD117480078401C154908701548007865
:102F9000401C1449087014480078401C12490870FD
:102FA00012480078C0F101001049087010480078FC
:102FB000401C0F49087008460078C82801DD002031
:102FC000087008480078B0F5967F04DB00200549BA
:102FD0000870054908700121880700F0F5F810BD58
:102FE00009000020080000201D0000201B00002018
:102FF000160000207FB505460C4601210846FFF764
:1030000021F94FF4A060FFF74DF8ADF80850ADF886
:1030100004400020ADF80600ADF80A0001A94FF009
:10302000804000F051F901221146900700F0ECF8C1
:103030001C208DF8000002208DF801008DF80200A0
:1030400001208DF803006846FEF7F4FF0121880790
:1030500000F0BDF87FBD000070B5002600250024FB
:103060000121384800F0BFF8012869D1364840787E
:10307000303835490978303901EB810100EB4100E6
:10308000C6B23148007930382F49C978303901EB60
:10309000810100EB4100C5B22B48C07930382A4984
:1030A0008979303901EB810100EB4100C4B2601C29
:1030B000C4B23C2C07DB172E05D13B2D03D10026D3
:1030C000002500240DE03C2C06DB3B2D04D100251F
:1030D0000024701CC6B204E03C2C02DB681CC5B2A4
:1030E00000240A2096FBF0F03030174908700A20BF
:1030F00096FBF0F100FB11603030134948700A2054
:1031000095FBF0F03030C8700A2095FBF0F100FB21
:10311000115030300C4908710A2094FBF0F0303027
:1031200088710A2094FBF0F100FB11403030064911
:10313000C8710648FDF77AFD0121024800F044F805
:1031400070BD0000000800409A0000208F000020A1
:103150007FB504460D4601210420FFF773F84FF4B4
:10316000A060FEF79FFFADF80840681E80B2ADF882
:1031700004000020ADF80600ADF80A0001A90B48D4
:1031800000F0A2F801221146084800F03DF81E2088
:103190008DF8000001208DF801008DF802008DF8F7
:1031A00003006846FEF746FF7FBD000000080040B0
:1031B00021B1028842F08002028004E002884FF6CA
:1031C0007F731A4002807047CA430282704721B160
:1031D000028842F00102028004E002884FF6FE738A
:1031E0001A400280704730B50246002000230024B8
:1031F000158A05EA0103958905EA010413B10CB1AA
:10320000012000E0002030BD1AB183890B43838187
:1032100002E083898B4383817047000070B50024EE
:1032200000220023058C4FF6FE7635400584028C83
:103230008388048B4FF68F752C40B51E2C400D886B
:103240002C43751E2A400D892A434D882A43144D6C
:10325000A8420BD0134DA84208D0134DA84205D068
:10326000124DA84202D0124DA84213D14FF6F77565
:103270002A404D892A434FF6FB752A408D882A4300
:103280004FF6FF652B404FF6FF552B408D892B43A2
:10329000CD892B4383800483CD888586028470BDCD
:1032A000002C014000340140004001400044014036
:1032B000004801400A460021018B4FF6F773194080
:1032C0001143018370470000002202881D4B984281
:1032D0000ED01D4B98420BD0B0F1804F08D01B4B45
:1032E000984205D01A4B984202D01A4B984204D10A
:1032F0004FF68F731A404B881A43174B984207D0EA
:10330000164B984204D04FF6FF431A40CB881A431D
:1033100002808B8883850B8803850A4B98420BD0EB
:10332000094B984208D00E4B984205D00D4B98425D
:1033300002D00D4B984201D10B7A03860123838280
:1033400070470000002C01400034014000040040A0
:1033500000080040000C0040001000400014004035
:1033600000400140004401400048014010B540F2D7
:1033700025510E4800F09AF8B0B10D480088FF289A
:1033800002D900200A4908800848001D0088C1B2FF
:10339000074802880088401C054B18800548815466
:1033A0002021024800F060F810BD00000038014004
:1033B0005A0000200B07002010B540F225510F489D
:1033C00000F074F8012818D10C4800F02BF90C49D2
:1033D0000C4A127888540B480078401C0949087040
:1033E0000846007808490978884202D10120074937
:1033F00008702021014800F037F810BD004400405B
:103400003C0600204F0000204D0000204E00002010
:1034100010B540F225510F4800F048F8012818D1A6
:103420000C4800F0FFF80C490C4A127888540B48FD
:103430000078401C09490870084600780849097856
:10344000884202D10120074908702021014800F07C
:103450000BF810BD0048004050000020580000202C
:10346000560000205700002001F40072B2F5007FE2
:1034700000D100BFCA430280704721B1828942F463
:103480000052828104E082894DF6FF731A408281E6
:10349000704702460020B1F5007F00D100BF1388BD
:1034A0000B400BB1012000E00020704770B50246D0
:1034B000002400230025002040F66A16B14200D106
:1034C00000BFC1F3421501F01F03012606FA03F302
:1034D000012D02D19689334006E0022D02D1168AD1
:1034E000334001E0968A33400C12012606FA04F4B8
:1034F0001688344013B10CB1012000E0002070BDEB
:10350000F0B50346002400260025002040F66A1787
:10351000B94200D100BF1846C1F3421401F01F06A2
:10352000012707FA06F5012C01D10C3004E0022C2A
:1035300001D1103000E014301AB107682F43076042
:1035400002E00768AF430760F0BD00002DE9F047D7
:1035500086B005460E460024A24600BFA1460027BD
:10356000B08900B100BF2F462C8A4CF6FF70044092
:10357000F08804432C82AC894EF6F3100440B088E6
:1035800031890843718908430443AC81AC8A4FF602
:10359000FF400440B0890443AC8201A8FEF772FEEC
:1035A0001F48874202D1DDF810A001E0DDF80CA031
:1035B000A88900F4004040B10AEBCA0000EB0A10F1
:1035C00031684900B0FBF1F807E00AEBCA0000EBF4
:1035D0000A1031688900B0FBF1F86420B8FBF0F004
:1035E00004012009642101FB1089A88900F400402E
:1035F00040B1322000EBC900B0FBF1F000F0070051
:10360000044308E0322000EB09106421B0FBF1F024
:1036100000F00F0004432C8106B0BDE8F0870000E5
:103620000038014001468888C0F308007047C1F3A4
:1036300008028280704700BFFEE72DE9F04107468F
:103640000C46154600260DE014F8011B3846FFF71E
:10365000EEFF00BF40213846FFF71BFF0028F9D0DE
:10366000701C86B2AE42EFDBBDE8F08110B5FCF70E
:10367000CBFF03A0FDF74EFA01200549087010BDED
:1036800057463136783132532E62696E00000000A1
:103690000D000020F8B504460D4616460121102005
:1036A000FEF7E0FD03208DF8020010208DF80300E6
:1036B0004FF4F850ADF8000069460748FDF7C8F828
:1036C0004FF43471C820FEF76FFD3246294620467C
:1036D00000F004F8F8BD00000010014070B5064687
:1036E0000C4615462EB14FF480611648FDF746F999
:1036F00004E04FF480611348FDF73EF92CB14FF41C
:1037000000611048FDF73AF904E04FF400610D48FC
:10371000FDF732F92DB14FF480510A48FDF72EF92B
:1037200004E04FF480510748FDF726F94FF400718B
:103730000448FDF723F94FF480710248FDF71EF9A4
:1037400070BD00000010014010B504461CB10120FE
:1037500002F080F802E0012002F05EF810BD0000E7
:103760000FB4084B10B504A902AA039800F020F882
:10377000044602A9002000F0F7F8204610BC5DF8CE
:1037800014FB0000693900080048704768000020F9
:1037900002E008C8121F08C1002AFAD1704770471A
:1037A000002001E001C1121F002AFBD17047000078
:1037B0002DE9FF4F8BB09A460F460546002606E0DE
:1037C00025280BD052460D9990476D1C761C287801
:1037D0000028F5D10FB03046BDE8F08F0024A04698
:1037E0000122604900E0044315F8013F203B02FA42
:1037F00003F00842F7D128782E2817D115F8010FC9
:1038000044F004042A280ED06FF02F022878A0F18B
:10381000300109290AD808EB880102EB410100EBCD
:1038200001086D1CF2E757F8048B6D1C2878692895
:103830003ED006DC0028CDD063280BD0642804D10C
:1038400036E0732810D075284BD052460D9990471A
:10385000761C85E017F8040B8DF8000000208DF829
:103860000100E946012003E057F8049B4FF0FF30C8
:1038700061074FF0000401D40AE0641C44450DDAEE
:103880008442FADB19F804100029F6D106E0641C22
:103890008442FCDB19F804100029F8D1264404E026
:1038A00019F8010B52460D999047641EF8D257E063
:1038B00001CF4FF00A0B002802DA40422D2102E02E
:1038C000210504D52B218DF82410012103E0E10707
:1038D00005D02021F7E70DF1200908910CE0002127
:1038E000F9E701CF4FF00A0BF9E75946FCF791FCD5
:1038F00001F1300209F8012D0028F6D1ADEB0900E5
:1039000000F1200B600701D44FF00108D84502DD1B
:10391000A8EB0B0000E000208046002406E009A888
:103920005246005D0D999047641C761C08988442AD
:10393000F5DB04E0302052460D999047761CB8F133
:103940000001A8F10108F5DC05E019F8010B524669
:103950000D999047761CBBF10001ABF1010BF4DC33
:103960006D1C34E7092801000A68531C0B601070B5
:10397000704700002DE9F84F002400250027A046DD
:10398000A146A246A3460020009000266648407843
:10399000303865490978303901EB810100EB41008D
:1039A000C4B26148007930385F49C978303901EBD9
:1039B000810100EB4100C5B25C48C07A30385B49F8
:1039C000897A303901EB810100EB4100C7B25748D9
:1039D000807B30385549497B303901EB810100EB60
:1039E000410000F0FF085148407C30384F49097CC5
:1039F000303901EB810100EB410000F0FF094B4839
:103A0000007D30384949C97C303901EB810100EB38
:103A1000410000F0FF0A4548C07D30384349897DA8
:103A2000303901EB810100EB410000F0FF0B3F4812
:103A3000807E30383D49497E303901EB810100EB11
:103A40004100C0B20090BC4221D145451FD137484A
:103A5000007FE0B9012035490877082002F030F8EE
:103A600000BF01F047F80028FBD1304890F8220051
:103A700068B9012601202D4981F8220002E00120C9
:103A8000FFF762FE301EA6F10101CEB2F7D14C4520
:103A900022D1554520D12548407FE8B9012023494E
:103AA00048770B2002F00CF800BF01F023F8002843
:103AB000FBD11E4890F8220001280DD102260220D9
:103AC0001A4981F8220002E00120FFF73DFE301E76
:103AD000A6F10101CEB2F7D15C4523D10098854211
:103AE00020D11248807FE8B90120104988770B2047
:103AF00001F0E6FF00BF00F0FDFF0028FBD10B48FE
:103B000090F8220002280DD103260320074981F8EE
:103B1000220002E00120FFF717FE301EA6F101018E
:103B2000CEB2F7D1BDE8F88F9A0000206C000020DB
:103B300010B5002436480078002840D101F0B4FACE
:103B4000012864D10A2001F01BFE01F0ADFA012822
:103B50005DD12F4908702F4908702F48C07F38B9B0
:103B60002EA12FA0FFF723F801202B49C8774EE0A4
:103B70002948C07F01280CD1274890F8200040B97F
:103B800028A127A0FFF713F80120234981F820007E
:103B90003DE02148C07F012839D11F4890F820001E
:103BA000012834D11C4890F8210080BB1EA11CA024
:103BB000FEF7FDFF0120184981F8210027E001F000
:103BC00073FA20BB0A2001F0DBFD01F06DFAF0B9B9
:103BD00010480078012804D10020144908700D49CC
:103BE000087012480078032811DB0020084908708B
:103BF000094890F8224002E00020FFF7A5FD201EB2
:103C0000A4F10101CCB2F7D101200949887010BD9F
:103C100014000020150000206C000020310000007E
:103C200068776600320000003300000016000020B4
:103C3000170000202DE9F041044688460020E0707E
:103C4000401EE0624146204601F0A0FB10B1042076
:103C5000BDE8F08104F22E2001F0B5F9074694F892
:103C60003050EB2D03D0E92D01D0E82D43D14AF699
:103C70005520874208D1082223A104F18200FCF7D5
:103C80009AFA08B90020E3E704F13B0001F09BF940
:103C900006463D20055D701E304060BBB6F5007FD6
:103CA00029DBB6F5007F26DC2DB3681E284010BB4B
:103CB00004F13E0001F087F9E8B14020005D401EAC
:103CC000012818D804F1410001F07DF998B104F100
:103CD000430001F078F9802806DA04F1500001F081
:103CE00066F9B0F5803F06D304F1460001F06BF9A8
:103CF00008B10020ACE74AF65520874201D10220E6
:103D0000A6E70320A4E700004641543332202020D8
:103D10000000000010B54FF480710248FCF71DFA56
:103D200010BD00000B0800200246891E5069801E4D
:103D3000884201D8002070475389906A03FB010034
:103D4000F9E72DE9F04782468846DAF80040B8F1F5
:103D5000000F06D1E76817B16069B84215D801278E
:103D600013E04146504601F027F80546022D02D2E5
:103D70000120BDE8F087681C08B92846F9E76069AA
:103D8000A84201D92846F4E74746206908B900202F
:103D9000EFE70026474518D17E1C6069B04200D885
:103DA00002263146504601F007F80546012D01D0A4
:103DB000681C08B92846DCE73DB1E568022D03D34D
:103DC0006069A84200D92F460026E6B93E4600BFEA
:103DD000761C6069B04204D80226BE4201D9002098
:103DE000C7E73146504600F0E7FF054605B909E050
:103DF000012D01D0681C08B92846BAE7BE42E7D1B8
:103E00000020B6E700BF4FF0FF323146204601F0F8
:103E10007FFB8146B9F1000F08D1B8F1000F05D042
:103E200032464146204601F073FB8146B9F1000F4E
:103E30000DD1E660D4E90410801E814202D82069C9
:103E4000401E2061207940F00100207107E0B9F1A7
:103E5000010F02D14FF0FF3000E00120064630464E
:103E600087E700002DE9F35F8946D9F800800098C4
:103E700000F1200520220B212846FCF767F90020DD
:103E8000074606464FF0080B00BF3046761C18F870
:103E90000040202C00DC50E02F2C01D05C2C0AD1FB
:103EA00000E0761C18F806002F28FAD018F8060053
:103EB0005C28F6D041E02E2C01D05F450BD3BBF13E
:103EC0000B0F01D02E2C02D00620BDE8FC9F082746
:103ED0004FF00B0BD9E7802C03DB04F07F00234964
:103EE0000C5C204600F04CF8A8B13046761C18F85F
:103EF00000A0504600F04AF818B1ABF10100B842FA
:103F000001D80620E1E738467F1C2C5438467F1C38
:103F100005F800A010E0214615A0FCF73BF908B118
:103F20000620D2E7612C04DB7A2C02DCA4F120000D
:103F3000C4B238467F1C2C54A7E700BF08EB06002C
:103F4000C9F800000FB90620BFE72878E52801D19D
:103F500005202870202C03DD18F80600202801DC3D
:103F6000042000E00020E8720020AEE7485D000871
:103F70002A2B2C3A3B3C3D3E5B5D7C223F7F000080
:103F8000014609B1002070470020FCE7014609B155
:103F9000002070470020FCE72DE9F04104460E4662
:103FA000D4F800800021204600F011F90546EDB953
:103FB000002700BF4046A16901F0E8F9054605B1B8
:103FC00013E0E0690078E52802D0E069007820B9C4
:103FD000781C0746B04201D107E0002701212046A6
:103FE00000F06FF80546002DE4D000BF042D00D18D
:103FF00007252846BDE8F0812DE9F04704468946AB
:10400000204601F08BFC10B10120BDE8F087494645
:104010002046FFF789FE0646E6624FF4007104F180
:104020003000FCF79AF804F130080127002500E081
:104030003D446089A84207D9721960783B464146E1
:1040400000F06BF90028F3D06089A84201D001206C
:10405000DBE70020D9E72DE9F0410446276800217D
:10406000204600F0B4F8054615B12846BDE8F081B9
:1040700000BF3846A16901F089F9054605B11DE088
:10408000E06906780EB9042518E0E069C07A00F00E
:104090003F00A071E069C07A00F0080038B90B2237
:1040A00004F12001E069FCF786F800B906E0002180
:1040B000204600F006F80546002DDAD000BF28465D
:1040C000D4E72DE9F041044688462768206900F1CD
:1040D0002006B6F5001F01D30020A061A06910B929
:1040E0000420BDE8F081C6F30800002845D1A0698E
:1040F000401CA061606938B93889B0EB561F3CD8C4
:104100000020A0610420ECE77889401E00EA5620D8
:1041100098BB2046616900F04FFE0546012D01D88D
:104120000220DEE7681C08B90120DAE77869A842B6
:104130001DD8B8F1000F03D10020A0610420D0E702
:1041400020466169FFF7FDFD05460DB90720C8E768
:10415000012D01D10220C4E7681C08B90120C0E785
:1041600029463846FFF748FF08B10120B9E76561E5
:1041700029463846FFF7D8FDA0612661C6F308013D
:1041800007F130000844E0610020AAE770B504465A
:10419000266801212046FFF7FFFE0546ADB93046EF
:1041A000A16901F0F3F805467DB92021E069FBF72C
:1041B000D4FFE069216A0160616A4160218D01815B
:1041C00094F82A1081720120F070284670BD2DE904
:1041D000F04104460D462668B5F5001F02D205F0F1
:1041E0001F0010B10220BDE8F0812561A7681FB94A
:1041F0003078032800DB776A47B93089B0EB551F68
:1042000001D80220EFE7706AA0611CE070894FEAD4
:10421000402811E03946204600F0CEFD0746781CC4
:1042200008B90120DFE7022F02D37069B84201D834
:104230000220D8E7A5EB08054545EBD239463046C4
:10424000FFF772FDA0616761A06908B90220CAE7A3
:10425000A06900EB5520A061C5F3080106F130000C
:104260000844E0610020BEE770B504460025002642
:104270004CB900BFFEF7ECF80546701C06460A284C
:1042800001DA002DF6D10DB1012070BD0020FCE750
:104290002DE9F04107460E461546D7B936B1012E35
:1042A0000FD0022E04D0032E10D106E000240FE020
:1042B0004FF40070286000240AE0082028800024C1
:1042C00006E0FEF77DF82860002401E0042400BF2A
:1042D00000BF2046BDE8F0812DE9F04106460F46BB
:1042E00090461D4686B9EAB241463846FEF774F953
:1042F000044607E0FEF7ACF8EAB241463846FEF75E
:104300006BF90446002CF5D114B90020BDE8F0810A
:104310000120FBE70146002070472DE9F0410646E9
:104320000F4690461C4614B90420BDE8F08186B9BA
:10433000E2B241463846FEF73DFA054607E0FEF791
:1043400087F8E2B241463846FEF734FA0546002DBA
:10435000F5D10DB90020E8E70120E6E710B53024DB
:104360007E212D48FFF763F900BF40212A48FFF75F
:1043700090F80128F9D140212748FFF775F804216A
:104380002548FFF754F900BF40212348FFF781F883
:104390000128F9D140212048FFF766F835211E4851
:1043A000FFF745F900BF40211B48FFF772F80128CD
:1043B000F9D140211848FFF757F801211648FFF7B7
:1043C00036F900BF40211448FFF763F80128F9D1FE
:1043D00040211148FFF748F821460F48FFF727F919
:1043E00000BF40210C48FFF754F80128F9D14021C3
:1043F0000948FFF739F8EF210748FFF718F900BF20
:1044000040210548FFF745F80128F9D1402102482D
:10441000FFF72AF810BD00000048004038B50546F7
:10442000284600F0FCF904463CB96946284601F0EC
:1044300017FB04460CB900202860204638BD000058
:10444000F7B582B016460398019001A800F026FD4A
:104450000546002D02DA0B2005B0F0BD0C4850F8DF
:1044600025400CB100202070029810B10020029964
:1044700008700749029841F825000EB90020EBE7C3
:10448000002202A903A800F02DFE07463846E3E704
:10449000380000202DE9F74F8EB0044616461CB9AF
:1044A000092011B0BDE8F08F06F03F06324602A9A0
:1044B0000FA800F017FE0546002D70D1029803905A
:1044C00003A80F9900F088FB05462DB99DF8370029
:1044D00000F0800000B1062506F01C00002856D030
:1044E00045B1042D03D103A8FFF750FE054646F061
:1044F00008060AE09DF8120000F0110008B1072537
:1045000003E006F0040000B10825002D51D106F0AB
:10451000080000284DD000F0BFFC01900A9901F17D
:104520000E00019901F0EFF80A9901F116000199C6
:1045300001F0E9F80A99029800F026FD8146202052
:104540000A99C87200220A99029801F0CAF80A99D9
:1045500001F11C00002101F0D6F801200299C87079
:10456000B9F1000F25D00298D0F82CA000224946BE
:1045700003A801F069F80546DDB95146029800F03C
:1045800005FF0546A9F101000299C86011E085B94F
:104590009DF8120000F0100010B1042509E05DE064
:1045A00006F0020028B19DF8120000F0010000B1F1
:1045B00007254DB906F0080008B146F040060298FC
:1045C000C06A20620A986062002D55D10A9902984B
:1045D00000F0DAFCA0600A9901F11C0000F0E7FC91
:1045E000E060029820600298C088A08026740020B5
:1045F0006074E06160614FF4007104F12800FBF722
:10460000ACFD06F0200048B3E06838B3E0686061B4
:10461000029840894FEA402BA768D4F80C800CE040
:104620003946204600F0C8FB0746012F00D8022576
:10463000781C00B90125A8EB0B080DB9D845EFD8B7
:10464000A7615DB9C8F3080040B139460298FFF789
:104650006BFB8246BAF1000F01D102250CE00AEB98
:104660005820E061E26902994878012304F12801A9
:10467000FFF732FE00B101250DB100202060284671
:104680000FE72DE9FF4F85B0044615469A46DDF841
:1046900018B00020CAF8000003A9204601F0E0F994
:1046A0000490049810B9607C049018B1049809B083
:1046B000BDE8F08F207C00F0010008B90720F6E784
:1046C0006169E068401A01900198854200D9019D16
:1046D000A0E0A08AC0F3080000287ED1039840899A
:1046E000401E616900EA5129B9F1000F17D16069D4
:1046F00010B9A068029004E02046A16900F05CFBBC
:1047000002900298022802D202206074CFE7029839
:10471000401C10B901206074C9E70298A061A1692A
:104720000398FFF701FB064616B902206074BEE746
:104730004E444FEA5528B8F1000F29D009EB080084
:1047400003994989884203D903984089A0EB090855
:1047500003994878434632465946FFF7BDFD10B1EC
:1047600001206074A3E7207C00F0800068B1E0695C
:10477000801B404509D2E169891B0BEB41204FF4B6
:10478000007204F12801FBF7CFFC4FEA482737E01D
:10479000E069B04220D0207C00F0800078B1E2696E
:1047A00003994878012304F12801FFF7B6FD10B101
:1047B000012060747BE7207C00F07F002074039967
:1047C00048780123324604F12801FFF785FD18B12E
:1047D000012060746BE700E0E661A08AC0F3080086
:1047E000C0F50077AF4200D92F46A08AC0F3080277
:1047F00004F1280011183A465846FBF795FC00BF13
:10480000ED1BDAF800003844CAF80000BB446069C8
:1048100038446061002D7FF45CAF002047E7F8B5B5
:1048200004466946204601F01BF90646002E44D195
:10483000207C00F0400000283FD0207C00F0800069
:1048400070B1E26900994878012304F12801FFF76B
:1048500064FD08B10120F8BD207C00F07F002074C9
:1048600000F01AFB0746216A009800F08FFD06460B
:104870001EBB656AE87A40F02000E8722946A2680B
:10488000206800F02EFF05F11C00E16800F03BFFFE
:10489000394605F1160000F036FF002105F112003F
:1048A00000F03DFF01200099C870009800F0F0FF73
:1048B0000646207C00F0BF0020743046CBE72DE98F
:1048C000FF4107460D4600213846FFF7B3F906467B
:1048D000022E06D0032E00D21DB9304604B0BDE82A
:1048E000F08100BF00240AE007F5F77101EB041125
:1048F00001F1080000F05BFB4DF82400641C042C5F
:10490000F2D30DB1681E00E00020044600BF5DF840
:10491000240028B15DF824103846FFF78BF900E039
:10492000032006462DB9022E03D3601C044604283A
:10493000EDD33046D2E7000070B508205149087029
:1049400000240020504908700C25FBF7A3FDF52139
:104950004E48FEF76CFE00BF40214C48FEF799FD23
:104960000128F9D140214948FEF77EFD0C21474836
:10497000FEF75DFE00BF40214448FEF78AFD012896
:10498000F9D140214148FEF76FFD00213F48FEF775
:104990004EFE00BF40213D48FEF77BFD0128F9D1C6
:1049A00040213A48FEF760FD00213848FEF73FFEFF
:1049B00000BF40213548FEF76CFD0128F9D14021A8
:1049C0003248FEF751FD00213048FEF730FE00BFAF
:1049D00040212E48FEF75DFD0128F9D140212B48EA
:1049E000FEF742FD00212948FEF721FE00BF4021CD
:1049F0002648FEF74EFD0128F9D140212348FEF755
:104A000033FD29462148FEF712FE00BF40211F4812
:104A1000FEF73FFD0128F9D140211C48FEF724FD97
:104A2000F5211A48FEF703FE00BF40211748FEF7A4
:104A300030FD0128F9D140211448FEF715FD10E0A2
:104A400013480078012803D100201149087009E0BB
:104A50001048844201D3002404E00A2000F0B6FE8E
:104A6000641CEDE700BF0CB9012070BD0A48007856
:104A7000F52804D10848C07808B10020F5E70120E6
:104A8000F3E700004D0000204F00002000440040EC
:104A90004E000020A08601003C06002010B5044610
:104AA000204600F03FF800F001F810BD08B50121E4
:104AB0000420FDF7D7FB10208DF803002020ADF86F
:104AC000000003208DF8020069460948FBF7C0FE8C
:104AD00028208DF803001020ADF800006946044836
:104AE000FBF7B6FE20210248FBF748FF08BD000097
:104AF0000008014010B50020FCF7CAFB0120FCF7BC
:104B0000FFFB02E00A2000F03BFEFFF715FF002844
:104B1000F8D10120FCF7BCFB0020FCF7F1FB0020E2
:104B200010BD000010B586B0044601214804FDF711
:104B300089FB01210420FDF795FB18208DF8170053
:104B40000420ADF8140003208DF8160005A92048B4
:104B5000FBF77EFE04208DF817000820ADF8140046
:104B600005A91B48FBF774FE01940020ADF808006E
:104B7000ADF80A00ADF80C000C20ADF80E000020D6
:104B8000ADF8100001A91348FEF7E0FC012111481F
:104B9000FEF773FC40210F48FEF766FC012240F24D
:104BA00025510C48FEF7ACFC4FF4A060FDF77AFAF3
:104BB00026208DF8000003208DF801008DF80200FA
:104BC00001208DF803006846FDF734FA06B010BDE9
:104BD00000080140004400402DE9F34104462768E5
:104BE00002E00198401C0190019800782F28F8D02D
:104BF000019800785C28F4D00020A060019800782B
:104C0000202808D280212B20015500212046FFF7C3
:104C1000DEFA05462CE000BF01A92046FFF722F985
:104C2000054605B123E02046FFF715FA05462B207F
:104C3000065D3DB1042D04D100BF06F0040000B9AB
:104C4000052514E006F0040000B110E0A07900F0A2
:104C5000100008B905250AE0208AC0F3080207F110
:104C600030001118384600F08FF9A060D4E700BF7B
:104C70002846BDE8FC81000010B5002821D0114B6A
:104C80000022001F196803E0814203D80A464968E0
:104C90000029F9D152B11368841A9C4204D10068EA
:104CA00018441060104602E0506000E0186039B10E
:104CB00002680B1A934203D10B681A4402604968D8
:104CC000416010BD6000002070B500240026002562
:104CD00000202E49087748778877C87781F8200028
:104CE00081F8210081F8220029A12B48FBF740FA26
:104CF00004462AA12848FBF73BFA06466CB166B188
:104D0000641D06E014F8012B2846691CCDB21F492A
:104D10000A54207831788842F4D121A11E48FBF74B
:104D200027FA04465CB1A41D002506E014F8011B17
:104D300016480A304155681CC5B2052DF6DB1AA18C
:104D40001548FBF715FA04465CB1A41D002506E0E2
:104D500014F8011B0D4810304155681CC5B2052DD3
:104D6000F6DB13A10C48FBF703FA04465CB1A41D63
:104D7000002506E014F8011B044816304155681C54
:104D8000C5B2052DF6DBFEF7C5FF70BD6C00002037
:104D90006E616D653A0000000B0800202C000000D9
:104DA00074696D65313A000074696D65323A0000CE
:104DB00074696D65333A00002DE9F04781460C4671
:104DC000D9F80050022C02D36869A04202D84FF0F3
:104DD00001085EE04FF0FF382878012804D002284F
:104DE0002CD0032851D13CE0264606EB5606286A13
:104DF00000EB5621284600F0C9FA00B148E03046E1
:104E0000761CC0F3080105F13000475C286A00EB0E
:104E10005621284600F0BAFA00B139E0C6F308017D
:104E200005F13000405C47EA002704F0010008B1BA
:104E3000380901E0C7F30B00804629E0286A00EB3F
:104E40001421284600F0A2FA00B121E040F2FF113F
:104E500001EA440205F13001501800F0B4F8804630
:104E600016E0286A00EBD411284600F08FFA00B152
:104E70000EE040F2FF1101EA840205F13001501802
:104E800000F095F820F0704802E04FF0010800BFF4
:104E900000BF4046BDE8F0870020704770B504466B
:104EA0004FF0FF3026683146324601B970BD00BF71
:104EB00012F8013B212B01D33A2BF9D13A2B11D116
:104EC00001250E78302E08DB0E78392E05DC8E1C7D
:104ED000964202D10E78A6F13005012D01DA28465E
:104EE0002260E3E7002000BFE0E7000070B5002487
:104EF00000250EA11048FBF73BF904460FA10E4810
:104F0000FBF736F905467CB175B1083408E014F8B2
:104F1000010B303808B1012000E000200849C870BA
:104F2000207829788842F2D170BD0000636F6E74DA
:104F3000726F6C3A000000000B0800202F00000088
:104F40000400002010B500F081FDC0B90A2000F077
:104F500017FC00F07BFD90B9012080F3138800BF9F
:104F600000BF0748006800F4E06006490843001DE0
:104F700003490860BFF34F8F00BF00BFFEE710BDBD
:104F80000CED00E00000FA0570B505460C4604F192
:104F90001A0000F018F806462878032805D104F115
:104FA000140000F010F846EA0046304670BD014695
:104FB000C8788A7842EA00204A7842EA00200A78D3
:104FC00042EA00207047014648780A7842EA002009
:104FD000704700F071FAFBF77BFDFEF747FBFBF72C
:104FE00035FEFBF765FAFDF749FD11E000F096FE8E
:104FF000FFF7A8FFFCF794F900F00AFDFEF798FD13
:10500000FEF7B8FC0320FDF70BFD0A2000F0B8FB0B
:10501000ECE70000F0B50B30154D20F0070100243F
:10502000144A0FE003688B420BD38B4205D95E1AFA
:1050300043184768C3E9006700E04368136002C093
:1050400004E0021D10680028ECD12046002802D19F
:10505000286808B10020F0BD064A07481060074ADA
:10506000121A22F00702C0E9002401202860D7E7C5
:10507000640000206000002014090020100B0020B4
:1050800008B501210420FDF7EDF848208DF8030054
:105090004FF48050ADF8000069460248FBF7D8FB9A
:1050A00008BD00000008014010B54FF480510248CF
:1050B000FBF759FC10BD00000008014008B50121B4
:1050C0000420FDF7CFF828208DF803004FF400608E
:1050D000ADF8000069460248FBF7BAFB08BD0000C6
:1050E000000801402DE9F74F84B0002105980160C8
:1050F0000498FFF7D3FE03900398002803DA0B20EF
:1051000007B0BDE8F08F9C49039851F820400CB9D6
:105110000C20F5E705980460069800F0FE00069064
:10512000207878B16078FFF7F5F8074607F00100BE
:1051300040B9069820B107F0040008B10A20DFE763
:105140000020DDE700202070039860706078FFF792
:105150008BF8074607F0010008B10320D0E7069856
:1051600020B107F0040008B10A20C9E70021204659
:10517000FFF7A5FB0546042D01D10120C0E7022D54
:1051800001D30D20BCE7D4F82C9004F13B00FFF7CD
:105190001AFFB0F5007F01D00D20B1E704F1460001
:1051A000FFF711FF064626B904F15400FFF7FFFE92
:1051B0000646A6614020005DA070A078012804D0BA
:1051C000A078022801D00D209AE7A07846433D2020
:1051D000005D6081608918B16089411E084008B196
:1051E0000D208DE704F14100FFF7EDFE2081207ACC
:1051F00000F00F0008B10D2082E704F14300FFF733
:10520000E2FE8246BAF1000F04D104F15000FFF72C
:10521000CEFE824604F13E00FFF7D5FE8346BBF189
:10522000000F01D10D206BE70BEB0600218900EB8D
:10523000111002900298824501D20D2060E7029879
:10524000AAEB00006189B0FBF1F8B8F1000F01D1C1
:105250000D2055E700254948804500D803254FF625
:10526000F570804500D8022540F6F570804500D8DD
:1052700001250DB90D2043E708F102006061C4F873
:105280001C9009EB0B00206202984844A062032D99
:1052900013D104F15A00FFF796FE08B10D202FE755
:1052A000208908B10D202BE704F15C00FFF77FFE99
:1052B000606260698000019014E0208908B90D20C7
:1052C0001EE7206A30446062022D02D1606940000E
:1052D00007E0207D00F00100616901EB410100EB76
:1052E00051000190A169019800F2FF10B1EB502F1D
:1052F00001D20D2004E74FF0FF302061E0608020F4
:105300002071032D2DD104F16000FFF75CFE012810
:1053100027D109F10101204600F038F808BB002030
:10532000207104F22E20FFF74EFE4AF655218842E6
:1053300017D104F13000FFF73AFE1149884210D12D
:1053400004F50570FFF733FE0E49884209D104F5D4
:105350000670FFF72CFE206104F50770FFF727FEAB
:10536000E060257008480088401C80B2064908802B
:10537000E0800020C4E6000038000020F5FFFF0FA9
:1053800052526141727241613C00002070B5044686
:105390000D460026E06AA84210D0204600F0BEFA72
:1053A00006465EB9607801232A4604F13001FEF713
:1053B00093FF10B14FF0FF350126E562304670BD16
:1053C00038B5044600250020009000BF05E014F821
:1053D000010B0DF80500681CC5B2042DF7DB641C39
:1053E0009DF80300312802D0322806D102E0FFF7F1
:1053F0006BFC03E0FFF77AFD00E000BF00BF38BDA3
:1054000010B586B0044601218803FCF72BFF01216B
:105410000420FCF727FF18208DF817004FF40070C8
:10542000ADF8140003208DF8160005A92048FBF7FD
:105430000FFA04208DF817000002ADF8140005A93A
:105440001B48FBF705FA01940020ADF80800ADF801
:105450000A00ADF80C000C20ADF80E000020ADF8ED
:10546000100001A91348FEF771F801211148FEF759
:1054700004F840210F48FDF7F7FF012240F22551C3
:105480000C48FEF73DF84FF4A060FCF70BFE25201A
:105490008DF8000003208DF801008DF80200012036
:1054A0008DF803006846FCF7C5FD06B010BD00008E
:1054B000000801400038014010B5482000F042F9D2
:1054C000FFF7DEFDFFF7FAFD00F0ACFA4FF41650DF
:1054D00000F0E4FA4FF49640FFF7E0FA48F69F41F7
:1054E00040F2CC70FDF734FE48F69F4140F2E730C1
:1054F000FDF780FD012211461046FEF7CBF8FBF7C1
:10550000D7FEFFF7D1FD0149087010BD140000203F
:105510002DE9F04704460D4616464FF00209022DCC
:1055200074D36069A84271D92078012804D0022878
:1055300049D003280DD15EE02F4607EB5707206ABC
:1055400000EB57212046FFF721FF8146B9F1000FFC
:1055500000D075E038467F1CC0F3080104F130002C
:1055600001EB000805F0010028B1F1B298F8000045
:1055700061F31F1000E0304688F800000120E07061
:10558000206A00EB57212046FFF700FF8146B9F162
:10559000000F00D054E0C7F3080104F1300001EB24
:1055A000000805F0010010B1C6F3071006E098F8F6
:1055B000000000F0F000C6F30321084388F8000063
:1055C0000120E0703CE0206A00EB15212046FFF747
:1055D000DDFE8146B9F1000F00D031E0B1B240F2FA
:1055E000FF1202EA450304F13002981800F097F820
:1055F0000120E07024E0206A00EBD5112046FFF77F
:10560000C5FE8146B9F1000F01D019E019E040F262
:10561000FF1101EA850204F130015018FFF7C7FCC1
:1056200066F31B00064640F2FF1101EA850204F111
:1056300030015018314600F066F80120E07000BFDC
:1056400000BF4846BDE8F0872DE9F04781460E4689
:1056500017464FF00008D9F80040022E02D36069C7
:10566000B04202D80220BDE8F08767B100BF4FF01A
:10567000FF3239462046FFF74BFF8046B8F1000F56
:1056800001D04046EFE700BF31464846FFF794FBA4
:10569000054605B922E0012D01D10220E3E7681C8F
:1056A00008B90120DFE7002231462046FFF730FF2E
:1056B0008046B8F1000F01D04046D4E7D4E9041089
:1056C000801E814206D22069401C2061207940F072
:1056D000010020712E466069B042D5D800BF00207D
:1056E000C1E770B506460C461546A9B204F11A008A
:1056F00000F015F83078032804D1290C04F11400C7
:1057000000F00DF870BD00F8011B090A00F8011B3C
:10571000090A00F8011B090A00F8011B704700F88C
:10572000011B091200F8011B704710B5044602E086
:10573000642000F025F8201EA4F101018CB2F7D1FD
:1057400010BD000010B504466FF00400FDF7CCFB5F
:10575000E11704EB5171C1F3C701074A11701046FC
:10576000007800EB4001C1EBC0104FF6FF7101EA79
:10577000C0000249088010BD320000203400002023
:105780000146114A12884A434FF0E0235A61002231
:105790009A611A46126942F001021A6100BF4FF085
:1057A000E022106900F001021AB100F48032002AF0
:1057B000F5D04FF0E022126922F001024FF0E02311
:1057C0001A6100229A617047340000200146114A94
:1057D00012784A434FF0E0235A6100229A611A4638
:1057E000126942F001021A6100BF4FF0E022106915
:1057F00000F001021AB100F48032002AF5D04FF017
:10580000E022126922F001024FF0E0231A61002227
:105810009A6170473200002010B504462007040E3C
:10582000402C01DD012010BD4FF480710848FBF7CA
:10583000A3F84FF400710648FBF79EF82046FFF7E7
:1058400074FF4FF400710248FBF798F80020EAE774
:105850000010014010B504462007040E402C01DD65
:10586000012010BD4FF480710848FBF787F84FF412
:1058700000710648FBF780F82046FFF756FF4FF40B
:1058800000710248FBF77AF80020EAE700100140B7
:1058900070B50446204600F041F80546002D37D18A
:1058A000207803282DD1207901282AD1410204F142
:1058B0003000FAF752FC4AF6552104F22E20FFF789
:1058C0002EFF144904F13000FFF71DFF124904F5C3
:1058D0000570FFF718FF04F506702169FFF713FF45
:1058E00004F50770E168FFF70EFFE069401CE06215
:1058F0006078012304F13001E26AFEF70EFD00201A
:105900002071607800221146FEF7C2FC00B101252B
:10591000284670BD525261417272416170B50446B1
:105920000025E078E8B16078012304F13001E26AF3
:10593000FEF7F3FCA0B90020E070216AE06A401A8B
:10594000A16988420DD2A07802280AD1A369E16A30
:10595000CA186078012304F13001FEF7DEFC00E094
:105960000125284670BD000010B5042416480078B3
:10597000002827D115480078012823D1FAF744FEE2
:1059800003E04FF4FA70FFF7FBFE11A112A0FAF743
:10599000C1FE0028F5D106E0FDF7E2F800B909E004
:1059A0000A20FFF7EDFEFDF78DF818B1601EC0B2BA
:1059B000041EF1D100BF2CB112A0FCF77DFB012029
:1059C0000149087010BD00000A0000200D000020F1
:1059D000434F4E4E4543540041542B43495053547A
:1059E0004152543D22544350222C223130312E3327
:1059F000332E3231302E3137222C313838330D0AE4
:105A0000000000004F4E454E45542E62696E000066
:105A100010B5FBF7E3FCFAF7C1FCFFF7A5FFFDF7B4
:105A20002DF810BD08B501210420FCF71BFC48200F
:105A30008DF803004FF48070ADF80000694602480D
:105A4000FAF706FF08BD00000008014010B54FF44A
:105A500080710248FAF787FF10BD0000000801407E
:105A600070B504460D4609268CB1206878B12068CF
:105A7000007860B1A0882168C988884207D1216870
:105A80004878FEF747FC00F0010000B900260EB987
:105A9000206800E000202860304670BD10B5044644
:105AA000204600F0DFF86420FFF76AFEFEF756FCA0
:105AB0001E20FFF765FE0F2000F072F810BD0000F9
:105AC00070B5044684F044057E213448FDF7AFFDEF
:105AD00000BF40213148FDF7DCFC0128F9D140210D
